:1000000000800020BD010000711700003D170000B6
:100010003D1700003D1700003D1700003D17000090
:100020003D1700003D1700003D170000711700004C
:10003000711700003D170000711700002D17000018
:100040007117000071170000711700007117000090
:100050007117000071170000711700007117000080
:100060007117000071170000711700007117000070
:100070007117000071170000711700007117000060
:100080007117000071170000711700007117000050
:100090007117000071170000711700007117000040
:1000A0007117000071170000711700007117000030
:1000B0007117000071170000711700007117000020
:1000C0007117000071170000711700007117000010
:1000D0007117000071170000711700007117000000
:1000E00071170000711700007117000071170000F0
:1000F000711700005D1D000071170000B52300009E
:1001000071170000652800007117000071170000CA
:1001100071170000711700007117000071170000BF
:1001200071170000711700007117000071170000AF
:10013000711700007117000071170000711700009F
:10014000711700007117000071170000711700008F
:10015000711700007117000071170000711700007F
:1001600001070000590B0000711700007117000013
:10017000711700007117000071170000711700005F
:10018000711700007117000071170000711700004F
:10019000711700007117000071170000711700003F
:1001A000711700007117000071170000711700002F
:1001B000711700007117000071170000564B4CF2C8
:1001C000205210B51A804DF628121A8000BF00BFC9
:1001D00001F0D2FA514B4FF010621A60504A9A6007
:1001E000504ADA60A3F53043203B1A6812F480725B
:1001F00004D14D490A604FF4A8521A604B4B1A784B
:10020000110703D51A7842F008021A70484B2A22C7
:100210001A700023474A48499818884204D247492F
:10022000595899500433F5E7454A464B9A424FF0E6
:10023000000302D242F8043BF7E74349434A5958C6
:1002400099500433B3F5DE7FF7D1414B802103F899
:10025000011B40498B42F9D13F4B1A603F4B0A22A8
:100260001A70A3F5805324225A70A0221A709A792A
:100270009207FCD59A79D406FCD4394B9A7902F0CE
:100280000C02082AF9D105221A7143225A719A796F
:100290009006FCD5324B9A795106FBD5314A4FF086
:1002A000817111600521516020221A702C4B9B79BD
:1002B00003F00C030C2BF9D12B4B2C4A1A602C4B5E
:1002C0002C4A1A6000225A60072243F8042C2A4A5A
:1002D000C3F80C2D62B600F027FB134B1B68DA073E
:1002E00005D5264800F07CFA254B264A1A60264B95
:1002F0001B785B0609D5224C224A2368934204D11D
:100300001E4800F06DFA0023236002F0E3FC01F0C8
:1003100039FA01F068F9FEE70E200540308004400C
:10032000823F04000100002B14D0034002D007409C
:1003300000E007406087FF1F0C88FF1F7C30000033
:100340000C88FF1F448BFF1F000000000082FF1F6E
:1003500000E400E05FE400E008ED00E0005006404B
:10036000004006404480044004800440C010050062
:1003700014E000E03F190100000020203712EB5C80
:100380001CE00340A5C3945A00F00740FFFFFFFFA5
:10039000FFFFFFFFFFFFFFFFFFFFFFFFFFFFFFFF6D
:1003A000FFFFFFFFFFFFFFFFFFFFFFFFFFFFFFFF5D
:1003B000FFFFFFFFFFFFFFFFFFFFFFFFFFFFFFFF4D
:1003C000FFFFFFFFFFFFFFFFFFFFFFFFFFFFFFFF3D
:1003D000FFFFFFFFFFFFFFFFFFFFFFFFFFFFFFFF2D
:1003E000FFFFFFFFFFFFFFFFFFFFFFFFFFFFFFFF1D
:1003F000FFFFFFFFFFFFFFFFFFFFFFFFFFFFFFFF0D
:10040000FFFFFFFFFFFFFFFFFFFFFFFFFEFFFFFFFD
:1004100010B5054C237833B9044B13B10448AFF33E
:1004200000800123237010BD0C88FF1F0000000016
:100430007C30000008B5064B1BB106480649AFF3F7
:1004400000800648036813B1054B03B1984708BD07
:10045000000000007C3000001088FF1F0C88FF1F88
:100460000000000038B5044608460D4602F058FC6E
:10047000236802465B6820462946984738BD38B550
:10048000044601F045F80546204600F0F9FF2844EF
:1004900038BDFFFF08B50A21064800F0F9F8112120
:1004A000054800F0F5F805482121BDE8084000F0B6
:1004B000EFB800BF3A88FF1F2888FF1F2E88FF1F54
:1004C00010B500F009FF002842DD00F0C3FE214B0B
:1004D000C0B24128187010D11F48204C01F076F8A6
:1004E000B4280146206005D81D4800F0E9F81A48F4
:1004F0001C4927E018481C4924E0422810D116481E
:10050000164C01F063F8B4280146206005D817485E
:1005100000F0D6F81048164914E00F48154911E0CC
:10052000432815D10C480D4C01F050F8B428014671
:10053000206005D8104800F0C3F807480F4901E0D3
:1005400005480F49FFF78EFF03482168FFF797FF23
:1005500010BD00BF3888FF1F6889FF1F3488FF1F48
:100560003A88FF1F302D00003E2D00002888FF1F15
:10057000572D0000652D00002E88FF1F7E2D0000E6
:100580008C2D000008B5054800F00EF8044800F076
:100590000BF80448BDE8084000F006B83A88FF1F91
:1005A0002888FF1F2E88FF1F30B50D4C002321889F
:1005B00003710C2201230B4207D10A4A19432180FF
:1005C000118821EA0303138030BD05795B000135F2
:1005D000013A05719BB2EED1FF23037130BD00BF1C
:1005E0004888FF1F4488FF1F2DE9F0411F4603790B
:1005F0000B2B044616463BD85FFA81F84046012192
:1006000000F01EF925791C4B03F805801B4B43F2C3
:10061000BC4223F815201A4B012202FA05F51A886C
:1006200015431D80174B1A6806EBC60607EBC70774
:1006300012F480022680678016D1196841F4800187
:100640001960A3F59033383B4FF6FF7119605A607B
:100650009A6042F6A27243F8042C02F5803243F805
:10066000042C094B20221A70084B4FF480721A6038
:100670002079BDE8F08100BF6288FF1F4A88FF1F14
:100680004488FF1F3C80044048E400E008E100E0AB
:100690004FF408724FF41663FFF7A6BF038801EB0F
:1006A000C101994203DB43889942B8BF0B460279E6
:1006B0000B2A9CBF014921F8123070474A88FF1F5E
:1006C00013B504790B2C024616D8B1F5087F04DB6C
:1006D00002B0BDE81040FFF7E1BF138852880092D6
:1006E00021EAE170B428A8BFB4200021B42200F0B0
:1006F00070FF024B23F8140002B010BD4A88FF1FA0
:1007000070B52E4A2E4D118895F90030194111F01F
:10071000010F144606D02B4A0021D05C00F070F87F
:100720000C232B702088284C2178CBB25AB20B2A8C
:100730001FDC40FA02F60131F607C9B2F5D5237085
:10074000204B0121985C00F05BF823781F4A2B7046
:1007500059B2013332F811101D4A10680844106074
:100760001C4A10680144116042F6A37142F80C1C47
:1007700022E0174A23701168C1F52F3303F548733F
:10078000B3F5617F05DB4EF660208342A8BF0346C8
:1007900001E04FF46173194411600E490868034485
:1007A0000B600D4B42F6A371196012680B4B9A4215
:1007B00003D9074A00231360237070BD4488FF1FCC
:1007C0006087FF1F6288FF1F4688FF1F4A88FF1F40
:1007D0004088FF1F0C600340006003401FBF020001
:1007E000044B054900221A600A60044A1060102276
:1007F0001A60704714D0034004D0034000D0034077
:10080000212810B518D80D4A52F8303093F880429C
:100810003CB1012211B183F8802010BD83F8002182
:1008200010BD02EBC00043681A6811B142F0030228
:1008300001E022F002021A6010BD00BFA82D0000E6
:10084000212810B537D81C4A02EBC00301295B6888
:10085000144601D004290FD154F83020012082F829
:1008600080024FF4A2721A601A6804290CBF42F089
:10087000200222F020021DE052F83020002082F8F1
:10088000800211B18A1E012A12D84FF48072022907
:100890001A6003D11A6842F003020BE003290AD15F
:1008A0001A6842F002021A601A6822F0010201E09E
:1008B00040F203121A6010BDA82D000072B60C4B56
:1008C0000C491A680C4B1B68096862B6490102D5CD
:1008D000322A88BF0133C2F58C32482102F23F121E
:1008E000B2FBF1F24FF47A7000FB0320704700BFB7
:1008F00018E000E004ED00E07088FF1F38B5044602
:10090000FFF7DCFF054624B938BD013C0AD005F5E8
:100910007A75FFF7D3FF401BB0F57A7FF5D200F070
:1009200089FEF6E738BDFFFF1F4B4FF4000210B5FC
:100930001A604FF080721A604FF000721A604FF028
:1009400080621A604FF000621A60184B184A194C06
:10095000002048F6FF7118605960282313609360E7
:10096000136193611362936213639363092222609C
:1009700004F58054043420606160A360236144F86E
:10098000042C04F5FE2420600B4801600B490B6029
:100990008B600B4B1A6000F06DFEFA20FFF7AEFF84
:1009A000BDE8104000F0D6BB08E100E00480034041
:1009B0000C8003400080034008800B400C800B40FB
:1009C00000800B40F0B50C4B0C4C1A7842F002053D
:1009D00004EBC50682F00102706009481A700678BF
:1009E000002E0CBF8827C82786F0010647EA014180
:1009F000067044F83510F0BDDC88FF1F0080FF1F33
:100A00005489FF1F431E032B10B510D872B6094A34
:100A100052F8230048B1416842F82310064A018881
:100A200032F81340611A22F8131062B610BD00208C
:100A300010BD00BFCC88FF1F308BFF1F013803287B
:100A40000AD872B6054B53F82030002013B101309C
:100A50005B68FBE762B67047002070472089FF1F84
:100A600010B572B60123174A1A4412F8012C120766
:100A70001CD59900144A52F831402CB902EB4313AB
:100A800008305860114B09E041F0010152F8314043
:100A900064B902EBC103083058600D4B42F83130A5
:100AA0000C4B1A78013A1A7062B610BD0133052B4F
:100AB000D9D162B6074B00221A70BDE8104000F091
:100AC000A7BB00BFE02E00000080FF1F8800400091
:100AD000C80040004A89FF1F431E032B30B532D89F
:100AE000194A400140F01000104472B6174CE25C05
:100AF000032A09D8DFE802F016021805083002229E
:100B000013E00830042210E01148124A50F8234044
:100B100014B940F8231002E052F82300416042F873
:100B200023100FE0032200E00522E25410F0080F2A
:100B300001F108030A8843600CBF8823C82343EAF5
:100B40000243036062B630BD0080FF1F8888FF1F2C
:100B50002089FF1F3089FF1F2DE9F84FAB4F3C78EC
:100B6000E4B214F0040F3D4619D0A94B1B78A3B191
:100B7000A84A117801F0FF0321B1013BDBB21370E9
:100B800003B900BEA44A117801F0FF0329B1013B6B
:100B9000DBB213700BB900F04FFC04233B7004F080
:100BA000080303F0FF02002B00F067829B4B9C4C74
:100BB0001A78D2B215094FEA920840F0E48104EBAA
:100BC000C803596854F83830C3F38303013B0C2B36
:100BD00000F2D681DFE813F095019501D401D4012C
:100BE000D401D401D401D401B001D401D401D40181
:100BF0000D008C4D0A684B688B486B6001218B4B54
:100C000044F838302A60DFF85082017092B240F226
:100C1000816000238242C8F800302361A36117D8A5
:100C2000B2F5D06F80F01E81B2F5817F00F0CF80E9
:100C300006D8802A00F0BA80822A00F0BB8031E119
:100C400040F202339A4200F0D180B2F5A06F1CE06E
:100C500042F22100824200F051810ED8B2F5086FB5
:100C600000F09E80B2F5106F40F01C81684B6C4E16
:100C7000AA781A7006F180090AE042F221218A421C
:100C800000F0088142F221339A4200F00F8109E11D
:100C9000336A1B0603D5706A083800F0B9FA0836C3
:100CA0004E45F5D10026B146DFF8B0A156F80A004E
:100CB00028B1D0F804B000F0ABFA5846F8E74AF88B
:100CC00006005B4BDFF898A1F05056F80A0028B1F7
:100CD000D0F804B000F09CFA5846F8E7554B4AF8B3
:100CE0000600F050544B23F81900544B19F8032018
:100CF000023A032A08D8DFE802F0020402040022C4
:100D000000E0012203F8092009F10109B9F1040FFB
:100D100006F10406C8D14A4B00221A7001269A46F1
:100D2000484A494B3244334412F8012C9B0012F0DC
:100D3000080F1A704FEA860925D000F04BFA38B137
:100D400004EB461308305860404B44F8393006E055
:100D50009AF8003044F8390001338AF8003000F086
:100D600039FA49F0010338B104EBC302083050608E
:100D70002E4A44F8332006E044F833009AF8003055
:100D800001338AF8003049F00202013649F00309C4
:100D90000023052E44F8323044F83930C0D186E0C3
:100DA0001B4B2B4C1B7823700B4683E0284C237085
:100DB00063707EE0AA88042A74D8254C92002370C0
:100DC0006370244B9B5C9E0773D5217071E0AA88E9
:100DD00002F07F02042A65DC6B88002B62D191004F
:100DE0001C4A0A44117821F0020159E0AA8802F055
:100DF0007F02042A56DC6B88002B53D19100154AE0
:100E00000A44117841F002014AE000BF8020074007
:100E10005389FF1FDD88FF1F5589FF1F9020074062
:100E20000080FF1F4089FF1F5489FF1FC80040003A
:100E30007888FF1F3089FF1F308BFF1F8888FF1FB6
:100E40004A89FF1FE02E000030C8011088004000D2
:100E50004B89FF1FC02007407488FF1FCC88FF1FED
:100E60002089FF1F6A88A9889F4B53F8084CA3F17B
:100E70000C00BCB133F80C6C964209D133F80A6C03
:100E80008E4205D1120A032A0CBF2378038911E090
:100E90000C33EAE7954A1168954A1160A978954A9A
:100EA000117004E0944B0F221A7027E000231C46B7
:100EB00000E00223EE88B34238BF1E46402E34BF06
:100EC0003546402520462946FFF77CFD761B2C44FD
:100ED00003D1402D12D1354603E0402E34BF3546B4
:100EE000402520462946FFF76DFD761B2C4401D195
:100EF000402D03D1814AC8F8004016800122804B62
:100F00003DE0804B1A8842F221039A4210D100231F
:100F10007D4AC85C98540133072BF9D11368862B9E
:100F200002D17A4B0F221A7000200146FFF74AFDCA
:100F3000774B44F8383023E0764E3568B5B1DFF8AA
:100F4000BC81B8F80090B9F1400F34BF4C46402442
:100F500028462146FFF736FDC4EB09039BB2A8F8EB
:100F600000300BB9402C00D12B193360654B1A8827
:100F7000B2F5A06F04D100225A709A78664B1A70AD
:100F800001225F4B6CE004EBC806013D736802F080
:100F90000802A3F10800EDB202F0FF01002A36D0EA
:100FA00000F036F95D485E4B50F82520EAB15168F3
:100FB00040F8251002F108017160595D03290BD832
:100FC000DFE801F002040608032104E0022102E048
:100FD000052100E00421595516F0080F12880CBFB6
:100FE0008823C82343EA024342E05A5D032A07D814
:100FF000DFE802F040400204002206E0012204E0A3
:1010000016F0080F0CBF022203225A5532E054F8A2
:101010003820120C23F8082C22B3DFF834E123F82F
:10102000061C43F8041C5EF825303E4913B94EF8FF
:10103000250002E051F8253058603B4B41F825006F
:1010400033F815100A4423F8152000F0C3F810B146
:101050000830706006E0354B44F838001A780132E9
:101060001A7007E02A4B324A16F0080F08BF1346E1
:1010700044F8383008233B7070E5E0071FD520495D
:101080002B482C4C02230B702B4B1A702B4B1860E7
:1010900098602B48D8601A619A615C60164B0D20ED
:1010A00018702848FF2303702B700274264A1370AF
:1010B000264B9F221A7001230B70BDE8F88F210682
:1010C00004D50D4B0D221A7080232B70A20705D575
:1010D0001C4B1A78D2B21A7002232B70E30644BF5D
:1010E00010232B70BDE8F88FF02E00007088FF1FD2
:1010F000408BFF1F6489FF1FC02007404889FF1FE6
:10110000942007404089FF1F388BFF1FDD88FF1F99
:10111000C80040007488FF1F982007402089FF1FE7
:101120008888FF1F7888FF1F308BFF1F4A89FF1FA9
:10113000880040008C88FF1FDC88FF1F0080FF1F95
:10114000E088FF1F882007408C200740842007404C
:10115000CC88FF1F08B501F0EDFB00221A4B0021DF
:10116000D15098180832882A4160F7D1174A106880
:1011700040F48020106002F528326832C3F3072063
:101180001070C3F307401B0E10751376FF2302F88F
:101190001C3C02F8143C02F88C3C012302F8083C89
:1011A00082F8641002F8183C094B70226FF45071F9
:1011B0001A700B444FF400721A6003F1C04303F538
:1011C000C82310221A7008BD0080FF1F348004401D
:1011D00049E400E072B60C4A1168B1FA81F30B2BB6
:1011E00002D962B6002070474FF00040D84021EA93
:1011F0000001116062B6054948225343C818002215
:10120000CA504260704700BF6487FF1F0084FF1F01
:101210000C4B4822C31AB3FBF2F30B2B11D80A4A2A
:10122000127822B1094A12780AB1FFF719BC72B6D6
:10123000074A4FF0004121FA03F311681943116086
:1012400062B670470084FF1F4A89FF1F5389FF1F42
:101250006487FF1F10B5104C23686BB1206842886B
:10126000531C0244147A0288934212D3FFF7D0FF32
:10127000094B00221A600DE0084B1B7813B94FF0A0
:10128000FF3010BD0320FFF7BDFB20600028E5D133
:10129000F5E74380204610BD6089FF1F5389FF1F7B
:1012A00010B50B4C236813B123686BB902E0094BEE
:1012B0001B7813B94FF0FF3010BD0320FFF7A2FBDE
:1012C00020600028F0D1F5E75A881344187A10BD41
:1012D0006089FF1F5389FF1F044B9888044B1B68CC
:1012E0001BB11A885B88D31A18447047308BFF1FD4
:1012F0006089FF1F2DE9F8432D4E012307460C4658
:101300003370002C4FD02B4D2B68A9462BBB48F6D1
:101310000148294B1B7803F0FF020BB9327015E02E
:101320000420FFF78BFB072808D801233370FFF751
:1013300051FFC9F8000080B91D4B1870B8F10108C1
:101340001E4B01D01A782AB101221A704FF0FF30DB
:10135000BDE8F88300F06EF9DBE72968174A488892
:1013600000231370C0F14002944238BF224600F1BE
:10137000080C10448C444880A41A934204D0F85CB2
:101380000CF803000133F8E71F444B883F2B06D9C4
:1013900040230B800420FFF79FFB00232B60084BAA
:1013A00005221A70ADE734702046BDE8F88300BF0F
:1013B0005689FF1F5889FF1F5389FF1F5C89FF1F34
:1013C0005589FF1F07B502AB012103F8010D18462F
:1013D000FFF790FF03B05DF804FBFFFF2DE9F0413C
:1013E000114B1B78F3B1114E114B3468114D01278D
:1013F0001F7098464CB1002763882F70042023800B
:101400002146FFF769FB376009E0FFF7E3FE01467D
:1014100020B104202C70FFF75FFB00E02F70002349
:1014200088F80030BDE8F0815389FF1F5889FF1FFD
:101430005689FF1F5589FF1F38B50E4B1B7803F0E7
:10144000FF05ABB90C4C216831B14B880B800420EF
:10145000FFF742FB256038BDFFF7BCFE014620B117
:101460000420BDE83840FFF737BB044B01221A7057
:1014700038BD00BF5689FF1F5889FF1F5589FF1FC0
:1014800007B5064B1B88ADF80430036801A95B68FB
:101490000222984703B05DF804FB00BFB82E00009D
:1014A00070B505468AB022B90368C9B21B6898476F
:1014B0002CE0012A08BF0A2221B930228DF825200C
:1014C000212413E02124B1FBF2F002FB1011C9B278
:1014D00009290AAE94BF303137312644C9B206F823
:1014E000241C014610B1013CE4B2ECE733B1013CED
:1014F000E4B20AAB23442D2203F8242C2B6801A963
:101500005B6828462144C4F1220298470AB070BDA6
:101510000029BABF49422D2300230A22FFF7C0BF8A
:101520000A4B70B51D6804461E46236820461B6999
:101530009847002808DA00F07DF83368A2685B1B42
:101540009342F2D34FF0FF3070BD00BF7088FF1F91
:1015500010B504462046FFF7E3FF00280ADB2D28DC
:1015600008D0A0F13003092B04D923682046DB689A
:101570009847EFE710BDF8B505460E46FFF7E8FFC0
:1015800000281FDB00242746B0420BD02D2808D0AE
:10159000A0F13002092A05D80A2202FB0404303CDB
:1015A00000E001272B682846DB6898472846FFF7AC
:1015B000B7FFA0F13002092AE6D9B042E4D01FB14A
:1015C0006042F8BD0020F8BD2046F8BD0121FFF7BC
:1015D000D2BF10B5029C401AE41A4443521A94FB3D
:1015E000F2F0184410BD08B5FEF754FFFEF768FF8F
:1015F00000F020F8FAE7FFF76FBEFFF72BBEFFF70A
:101600004FBEFFF7EBBE0846FFF7DCBE08461146AB
:10161000FFF770BE7047FFFF044B00221A714FF4B2
:101620007A711A73024A99601A6070476889FF1FBD
:10163000C82E000010B50E4C2378BBB901232370CF
:10164000FFF74AFE08B1FFF7E5FF00F011FB08B114
:1016500001F021FA00F038FE08B101F0A4FA01F01F
:101660009DF808B101F027FB0023237010BD00BFD7
:101670007889FF1F10B5204B2048214960221A703D
:10168000E1225A701F4B204A1C78204B082C01D1B4
:10169000012402E00A2C03D119240460132005E080
:1016A0000C2C0CBF15243D2404601220086014602B
:1016B0001860174B17491B78174A03B101230B60B9
:1016C0001360164B164A1978164B012901D8802150
:1016D0000BE0042901D8842107E0082901D88521DD
:1016E00003E0102994BF86218721116019600E4BF9
:1016F00001221A7010BD00BF0040074008B003402F
:101700000CB003406887FF1F08B00B400CB00B40C3
:101710007A89FF1F20B0034020B00B406987FF1F6C
:1017200024B0034024B00B407989FF1F024B1A6894
:1017300001321A60704700BF7088FF1F08B50B4C5C
:101740002368580301D5FFF707FA2368590501D527
:1017500000F004FB23681A0501D500F02BFE236876
:10176000DB04ECD501F07EF8E9E700BF34800440EB
:1017700008B5FFF7E3FFFFFF014B10221A80704707
:10178000002005407047FFFFEFF313839BB9EFF391
:10179000108098B9EFF3058323B10F2B04D9084AC1
:1017A000985C01E04FF48070EFF311833BB183420A
:1017B00038BF184670474FF0FF30704718467047E3
:1017C000F0E300E010B50023B0FBF2F402FB1400DC
:1017D000092894BF30303730C0B2C85420460CB10D
:1017E0000133F1E7CA18547022469A4206DA885C3F
:1017F000CC5C8C54C8540132013BF6E7084610BD5E
:10180000234B1A6842F480621A60224A0023137044
:10181000214A1370214A1370214A1370214A137010
:10182000214B1B782BB1152B07D140F213321F4BE4
:1018300002E01F4B40F213321A601E4B1B78012B43
:1018400005D0052B07D14FF451721B4B02E01B4B07
:101850004FF451721A601A4BC0F344321A70C0F33D
:1018600047125A700221042200F01F0098729A70E9
:10187000D9745A7588221A743C22DA70114B4022AE
:101880006FF44A711A700B444FF400521A6070479B
:1018900034800440038AFF1F8189FF1F0C8AFF1FC9
:1018A000048AFF1F8089FF1FC289FF1F18C00440E0
:1018B00040A004406A87FF1F1CC0044044A00440AD
:1018C00000A006402DE400E0134A937800F00301E5
:1018D00003F0EC030B43410748BF43F01003937040
:1018E00000F00F03042B0C4903D18B7943F0400324
:1018F0008B715379C20603F0EF03074A48BF43F0E8
:10190000100353719379810603F0EF0348BF43F04E
:1019100010039371704700BF00A0064008B5114B3B
:101920001B685B0500D408BD0F4B1A7802F0FF035B
:1019300012B1FFF77FFEF7E70C4A4FF40051116038
:101940000B4A0C49D37040F203120A604A600A4AFB
:1019500013700A4A13700A4B1B680BB101221A70EC
:1019600008BD00BF348004408089FF1F84E100E08F
:1019700000A0064040A00440038AFF1F8189FF1F8A
:101980007C89FF1F38B50446094B1B7803F0FF051F
:10199000002BF9D120460121FEF752FF20462946AF
:1019A000FEF72EFF034B53F83420034B1A6038BD6B
:1019B0008089FF1FA82D0000088AFF1F0F4A137897
:1019C00098421AD00E490968490515D5012B04D053
:1019D000052B05D100210B4B01E00B4B00211960B9
:1019E000012805D0052807D14FF45171054B02E0BD
:1019F000054B4FF451711960107070476A87FF1FD3
:101A0000348004401CC0044044A004400E4A1378B3
:101A1000984218D00D490968490513D52BB1152BEB
:101A200005D10B4B0021196001E00A490B6028B178
:101A3000152807D140F21331054B02E0054B40F267
:101A40001331196010707047C289FF1F3480044041
:101A500018C0044040A004400D4A38B5146814F47E
:101A600080624FF0000410D021280A4D0AD80A4A9B
:101A7000012152F830302B60FEF7E2FE2B681C701B
:101A8000012038BD2C60204638BD104638BD00BF4F
:101A9000348004407C89FF1FA82D00000E4B1B687A
:101AA00013F4806316D012280C4B03D140F202319C
:101AB0000B4A04E0142809D10A4A40F202311160AD
:101AC0005A7B42F001025A73012070475A7B02F0A0
:101AD000FE025A73002070473480044000A0064084
:101AE0000CA0044014C00440F8B51D4B1B685A05F7
:101AF000064633D51B4B1B680BB101221A701A4BDB
:101B00001C780134402C1F4628BF0024174D2B7829
:101B1000A34218D1FFF738FE40280FDC144A13798E
:101B20001B06F3D52B7813490133402B28BF002324
:101B3000C95CDBB2C9B2D1712B70E7E7FF28E5DDE4
:101B4000FFF778FDE2E70B4BF6B21E550A4B012278
:101B50001A70074BE4B2BC223C70DA70F8BD00BFCB
:101B600034800440088AFF1F0C8AFF1F048AFF1F6D
:101B700000A006408289FF1F8089FF1F274B1B683A
:101B80005A052DE9F04707468A4644D5244B1B6881
:101B90000BB101221A703D4607EB0A039D4237D272
:101BA000DFF890801F4E98F8004096F800900134BE
:101BB000402C28BF00245FFA89F9A1451DD11A4B9A
:101BC000BC22DA70FFF7E0FD40280FDC164A1379DB
:101BD0001B060FD5337815490133402B28BF00234E
:101BE000C95CDBB2C9B2D171337003E0FF2801DDFB
:101BF000FFF720FD33784B45E4D00C4B15F8012B53
:101C00001A550B4B0122E4B21A7088F80040C3E762
:101C1000054BBC22DA70BDE8F08700BF3480044079
:101C2000088AFF1F048AFF1F00A006408289FF1F49
:101C30008089FF1F0C8AFF1F08B5034B1B7813B167
:101C4000FFF7F8FCF9E708BD8089FF1F064A074B3C
:101C50001B781078DBB2C0B283422CBF3F3000F15A
:101C6000FF30C01A704700BF048AFF1F0C8AFF1F95
:101C7000054B1878054B1B78C0B2DBB2984238BFD1
:101C80004030C01A704700BF038AFF1F8189FF1FC1
:101C900010B5104B10491A780B78D2B2DBB29A42C9
:101CA00014D00133402B28BF00230C48DCB2C05CA9
:101CB0000C700B490968C0B251B19A4238BF40322A
:101CC000D31A1A2B04DC00230B7010BD4FF0FF3029
:101CD00010BD00BF038AFF1F8189FF1FC389FF1F3B
:101CE0007C89FF1F084B1A78084B1B78DBB29A429D
:101CF00007D00133402B28BF0023054AD05CC0B277
:101D000070474FF0FF307047038AFF1F8189FF1F24
:101D1000C389FF1F0C4B1B685B0514D50B4BDA788E
:101D200002F0CB02DA7040225A74DA7842F03402C0
:101D3000DA70074B1A78074BD2B21A70064B1B6841
:101D40000BB100221A7070473480044000A0064096
:101D50008189FF1F038AFF1F7C89FF1F30B5374B26
:101D60001A7912F0300F31D072B69A7D02F0FF006E
:101D700022B9DA7940225A7462B627E062B6304A54
:101D8000304913780978DBB2C9B214462B4AD579A9
:101D90005A1C402A28BF00228A42EDB202D02A4BA8
:101DA0009D541346421E12F0FF00EFD1DAB22270AA
:101DB000264A126852B18B4236BFC1F14001C1EBD5
:101DC00003035B18272BC4BF012313701B4BD97867
:101DD000C9B20C0620D51B7918061DD51C4B1D4A0F
:101DE0001D781378EDB2DBB21046AB420CD0134A2B
:101DF0000133402B1479184C28BF0023E45CE4B273
:101E0000D471127D072AF0D9DBB203700B4B1A791B
:101E1000120644BF7C22DA704B060ED5074B1A79A6
:101E200012F0400F194608D00C4B00221A700C4BD0
:101E30001B6803B11A703C23CB7030BD00A0064074
:101E4000038AFF1F8189FF1FC389FF1F7C89FF1F32
:101E50000C8AFF1F048AFF1F8289FF1F8089FF1FD2
:101E6000088AFF1F234B1A6842F400621A60224A54
:101E700000231370214A1370214A1370214A1370F2
:101E8000214A1370214B1B78092B05D01A2B07D13F
:101E900040F213321E4B02E01E4B40F213321A6026
:101EA0001D4B1B780A2B05D01F2B07D14FF4517205
:101EB0001A4B02E01A4B4FF451721A60194BC0F3DF
:101EC00044321A70C0F347125A7000F01F00042207
:101ED000022198729A70D9745A7588221A743C2219
:101EE000DA70114B40221A70A3F22B334FF40042E8
:101EF0001A607047348004407E8AFF1F158AFF1FD6
:101F0000848AFF1F7F8AFF1F148AFF1F6B87FF1FB2
:101F100004D004400CB004406C87FF1F00D0044084
:101F200010B0044000B006402FE400E0134A93785C
:101F300000F0030103F0EC030B43410748BF43F0FB
:101F40001003937000F00F03042B0C4903D18B791D
:101F500043F040038B715379C20603F0EF03074A45
:101F600048BF43F0100353719379810603F0EF03E8
:101F700048BF43F010039371704700BF00B00640A4
:101F800008B5114B1B681B0500D408BD0F4B1A7810
:101F900002F0FF0312B1FFF74DFBF7E70C4A4FF4D5
:101FA000004111600B4A0C49D37040F203120A60E1
:101FB0004A600A4A13700A4A13700A4B1B680BB135
:101FC00001221A7008BD00BF34800440148AFF1F2C
:101FD00084E100E000B006400CB004407E8AFF1FA0
:101FE000158AFF1F108AFF1F38B50446094B1B785E
:101FF00003F0FF05002BF9D120460121FEF720FC5C
:1020000020462946FEF7FCFB034B53F83420034BD4
:102010001A6038BD148AFF1FA82D0000808AFF1F98
:102020000F4A137898421AD00E490968C90415D589
:102030000A2B04D01F2B05D100210B4B01E00B4BC9
:10204000002119600A2805D01F2807D14FF45171CB
:10205000054B02E0054B4FF4517119601070704749
:102060006C87FF1F3480044000D0044010B004404F
:102070000F4A137898421AD00E490968C90415D539
:10208000092B04D01A2B05D100210B4B01E00B4B7F
:1020900000211960092805D01A2807D140F2133110
:1020A000054B02E0054B40F2133119601070704788
:1020B0006B87FF1F3480044004D004400CB0044000
:1020C0000D4A38B5146814F400624FF0000410D0C3
:1020D00021280A4D0AD80A4A012152F830302B60D3
:1020E000FEF7AEFB2B681C70012038BD2C6020462B
:1020F00038BD104638BD00BF34800440108AFF1F31
:10210000A82D00000B4B1B6813F4006310D0172898
:10211000094B09D1094A40F2023111605A7B42F061
:1021200001025A73012070475A7B02F0FE025A7373
:10213000002070473480044000B0064008B00440DE
:10214000F8B51D4B1B681A05064633D51B4B1B689B
:102150000BB101221A701A4B1C780134282C1F462F
:1021600028BF0024174D2B78A34218D1FFF70CFB92
:1021700040280FDC144A13791B06F3D52B7813493A
:102180000133282B28BF0023C95CDBB2C9B2D1714F
:102190002B70E7E7FF28E5DDFFF74CFAE2E70B4B92
:1021A000F6B21E550A4B01221A70074BE4B2BC224C
:1021B0003C70DA70F8BD00BF34800440808AFF1F95
:1021C000848AFF1F7F8AFF1F00B00640168AFF1F08
:1021D000148AFF1F274B1B681A052DE9F047074695
:1021E0008A4644D5244B1B680BB101221A703D4628
:1021F00007EB0A039D4237D2DFF890801F4E98F814
:10220000004096F800900134282C28BF00245FFA83
:1022100089F9A1451DD11A4BBC22DA70FFF7B4FA37
:1022200040280FDC164A13791B060FD53378154961
:102230000133282B28BF0023C95CDBB2C9B2D1719E
:10224000337003E0FF2801DDFFF7F4F933784B45E5
:10225000E4D00C4B15F8012B1A550B4B0122E4B2BC
:102260001A7088F80040C3E7054BBC22DA70BDE85D
:10227000F08700BF34800440808AFF1F7F8AFF1FE1
:1022800000B00640168AFF1F148AFF1F848AFF1FB2
:1022900008B5034B1B7813B1FFF7CCF9F9E708BD7C
:1022A000148AFF1F064A074B1B781078DBB2C0B2B6
:1022B00083422CBF273000F1FF30C01A704700BFA7
:1022C0007F8AFF1F848AFF1F054B1878054B1B78F8
:1022D000C0B2DBB2984238BF4030C01A704700BF6E
:1022E0007E8AFF1F158AFF1F10B5104B10491A7800
:1022F0000B78D2B2DBB29A4214D00133402B28BF04
:1023000000230C48DCB2C05C0C700B490968C0B2F9
:1023100051B19A4238BF4032D31A1A2B04DC002341
:102320000B7010BD4FF0FF3010BD00BF7E8AFF1F45
:10233000158AFF1F3E8AFF1F108AFF1F084B1A785D
:10234000084B1B78DBB29A4207D00133402B28BFE1
:102350000023054AD05CC0B270474FF0FF30704791
:102360007E8AFF1F158AFF1F3E8AFF1F0C4B1B68CA
:102370001B0514D50B4BDA7802F0CB02DA70402241
:102380005A74DA7842F03402DA70074B1A78074B45
:10239000D2B21A70064B1B680BB100221A7070473C
:1023A0003480044000B00640158AFF1F7E8AFF1F5C
:1023B000108AFF1F30B5374B1A7912F0300F31D029
:1023C00072B69A7D02F0FF0022B9DA7940225A747F
:1023D00062B627E062B6304A304913780978DBB23A
:1023E000C9B214462B4AD5795A1C402A28BF00226C
:1023F0008A42EDB202D02A4B9D541346421E12F07F
:10240000FF00EFD1DAB22270264A126852B18B4235
:1024100036BFC1F14001C1EB03035B18272BC4BFDA
:10242000012313701B4BD978C9B20C0620D51B7938
:1024300018061DD51C4B1D4A1D781378EDB2DBB272
:102440001046AB420CD0134A0133282B1479184C98
:1024500028BF0023E45CE4B2D471127D072AF0D9CE
:10246000DBB203700B4B1A79120644BF7C22DA7080
:102470004B060ED5074B1A7912F0400F194608D0BB
:102480000C4B00221A700C4B1B6803B11A703C23D2
:10249000CB7030BD00B006407E8AFF1F158AFF1F3B
:1024A0003E8AFF1F108AFF1F848AFF1F7F8AFF1F3B
:1024B000168AFF1F148AFF1F808AFF1F174B1A6896
:1024C00042F480521A60164A00231370154A1370A2
:1024D000154A1370154A1370154A1370154A40F2C5
:1024E000133111604FF451715160134AC0F34431FC
:1024F0001170C0F3471100F01F005170907293707B
:1025000013742C23D3700D4B40226FF44B711A704F
:102510000B444FF400321A60704700BF348004400F
:10252000F68AFF1F8D8AFF1FFC8AFF1FF78AFF1F95
:102530008C8AFF1F08C0044000C0064031E400E060
:10254000134A937800F0030103F0EC030B434107B7
:1025500048BF43F01003937000F00F03042B0C49A5
:1025600003D18B7943F040038B715379C20603F09A
:10257000EF03074A48BF43F0100353719379810674
:1025800003F0EF0348BF43F010039371704700BF9F
:1025900000C0064008B5114B1B68DB0400D408BD21
:1025A0000F4B1A7802F0FF0312B1FFF743F8F7E779
:1025B0000C4A4FF4003111600B4A0C49D37040F2C1
:1025C00003120A604A600A4A13700A4A13700A4BDF
:1025D0001B680BB101221A7008BD00BF3480044093
:1025E0008C8AFF1F84E100E000C0064008C0044060
:1025F000F68AFF1F8D8AFF1F888AFF1F38B50446A1
:10260000094B1B7803F0FF05002BF9D1204601216F
:10261000FEF716F920462946FEF7F2F8034B53F869
:102620003420034B1A6038BD8C8AFF1FA82D000090
:10263000F88AFF1F704770470D4A38B5146814F4C4
:1026400080524FF0000410D021280A4D0AD80A4ABF
:10265000012152F830302B60FEF7F2F82B681C7025
:10266000012038BD2C60204638BD104638BD00BF63
:1026700034800440888AFF1FA82D00000B4B1B6884
:1026800013F4805310D00E28094B09D1094A40F2A7
:10269000023111605A7B42F001025A7301207047E7
:1026A0005A7B02F0FE025A730020704734800440C7
:1026B00000C0064004C00440F8B51D4B1B68DA0496
:1026C000064633D51B4B1B680BB101221A701A4BFF
:1026D0001C780134282C1F4628BF0024174D2B7866
:1026E000A34218D1FFF750F840280FDC144A1379A1
:1026F0001B06F3D52B7813490133282B28BF002361
:10270000C95CDBB2C9B2D1712B70E7E7FF28E5DD08
:10271000FEF790FFE2E70B4BF6B21E550A4B012283
:102720001A70074BE4B2AC223C70DA70F8BD00BFFF
:1027300034800440F88AFF1FFC8AFF1FF78AFF1FBE
:1027400000C006408E8AFF1F8C8AFF1F38B50446E2
:102750004518AC4204D014F8010BFFF7ADFFF8E7C1
:1027600038BDFFFF08B5034B1B7813B1FEF762FFBE
:10277000F9E708BD8C8AFF1F064A074B1B781078C3
:10278000DBB2C0B283422CBF273000F1FF30C01A49
:10279000704700BFF78AFF1FFC8AFF1F054B1878A0
:1027A000054B1B78C0B2DBB2984238BF4030C01A2C
:1027B000704700BFF68AFF1F8D8AFF1F10B5104BB0
:1027C00010491A780B78D2B2DBB29A4214D0013396
:1027D000402B28BF00230C48DCB2C05C0C700B49B6
:1027E0000968C0B251B19A4238BF4032D31A1A2B8D
:1027F00004DC00230B7010BD4FF0FF3010BD00BF94
:10280000F68AFF1F8D8AFF1FB68AFF1F888AFF1F67
:10281000084B1A78084B1B78DBB29A4207D0013379
:10282000402B28BF0023054AD05CC0B270474FF050
:10283000FF307047F68AFF1F8D8AFF1FB68AFF1F81
:10284000054B1A78054BD2B21A70054B1B680BB1B9
:1028500000221A70704700BF8D8AFF1FF68AFF1F83
:10286000888AFF1F10B5294B1A79920620D5284A6D
:10287000D879137827490133402B097828BF0023E2
:102880008B42C0B203D02449C854D9B21170234A34
:10289000116869B1224A1278D2B2934236BFC2F1AE
:1028A0004002C2EB03039B18272BC4BF01230B700C
:1028B000164AD178C9B20C0616D51379180613D565
:1028C000184B17481C780378DBB29C4202D16C236A
:1028D000D37009E00133282B28BF0023124CE45C9D
:1028E000DBB2E4B2D47103704B060ED5074B1A79F4
:1028F00012F0400F194608D00C4B00221A700C4BF6
:102900001B6803B11A702C23CB7010BD00C00640A9
:10291000F68AFF1F8D8AFF1FB68AFF1F888AFF1F56
:10292000F78AFF1FFC8AFF1F8E8AFF1F8C8AFF1FFA
:10293000F88AFF1F1FB572B6154B70221A70154A20
:10294000412111700F2102F8011C80221A701A789F
:102950001206FCD5104B186862B6104B984298BF0F
:102960000A2301AC98BF584321460A22FEF72AFFEA
:102970000023E15C0A4A29B102EB430001330A2B30
:102980004180F6D101335B00137004B010BD00BF6D
:102990000000024007000240080002407F969800B5
:1029A000F687FF1F08B50368C9B21B68984708BDC2
:1029B00008B50368C9B21B68984708BD08B5036825
:1029C000C9B21B68984708BD08B50368C9B21B683F
:1029D000984708BD034800EB5100B0FBF1F0FEF74B
:1029E0000FBF00BF0044950810B5064800EB51002A
:1029F0001446B0FBF1F0FEF703FF2046BDE810409F
:102A0000FEF762BF00449508FEF788BF0846FEF750
:102A1000B9BF0846FEF7FABF0846FEF7CFBF08B5B4
:102A20000846FFF719F8003018BF012008BD08B5A7
:102A30000846FFF733F8003018BF012008BDFFF744
:102A400017B9FFF74FB9FFF723B9FFF7F5B8FFF74D
:102A500061B9FFF7FBB808B50846FFF745F8012054
:102A600008BD08B50846FFF73FF8012008BD10B5BE
:102A7000084614461146FFF781F8204610BD38B5C8
:102A800008460D4600F04CF9044621462846FFF75B
:102A900075F8204638BD7047044B00221A714FF478
:102AA0007A711A73024A99601A607047008BFF1F8F
:102AB000402F000008B50368C9B21B68984708BDDD
:102AC00008B50368C9B21B68984708BD08B5036814
:102AD000C9B21B68984708BD08B50368C9B21B682E
:102AE000984708BD034800EB5100B0FBF1F0FFF739
:102AF000B9B900BF0044950810B5064800EB510075
:102B00001446B0FBF1F0FFF7ADF92046BDE81040E8
:102B1000FFF70CBA00449508FFF732BA0846FFF7F2
:102B200063BA0846FFF7A4BA0846FFF779BA08B5B2
:102B30000846FFF7C5FA003018BF012008BD08B5E8
:102B40000846FFF7DFFA003018BF012008BDFFF785
:102B5000BBBBFFF7F3BBFFF7C7BBFFF799BBFFF7A3
:102B600005BCFFF79FBB08B50846FFF7E9FA01204F
:102B700008BD08B50846FFF7E3FA012008BD10B507
:102B8000084614461146FFF725FB204610BD38B510
:102B900008460D4600F0C4F8044621462846FFF7D3
:102BA00019FB204638BD7047044B00221A714FF4C0
:102BB0007A711A73024A99601A607047108BFF1F6E
:102BC000A02F000008B50368C9B21B68984708BD6C
:102BD00008B50368C9B21B68984708BD08B5036803
:102BE000C9B21B68984708BD08B50368C9B21B681D
:102BF000984708BD034800EB5100B0FBF1F0FFF728
:102C00005DBC00BF00A24A0410B5064800EB5100AD
:102C10001446B0FBF1F0FFF751FC2046BDE8104030
:102C2000FFF78EBC00A24A04FFF7B4BC0846FFF7CA
:102C3000E5BC0846FFF7FFBC0846FFF7FBBC08B53C
:102C40000846FFF7F9FC003018BF012008BD08B5A1
:102C50000846FFF713FD003018BF012008BDFFF73D
:102C60009DBDFFF7D5BDFFF7A9BDFFF77BBDFFF702
:102C7000E7BDFFF781BD08B50846FFF71DFD012040
:102C800008BD08B50846FFF717FD012008BD10B5BF
:102C9000084614461146FFF759FD204610BD38B5C9
:102CA00008460D4600F03CF8044621462846FFF74A
:102CB0004DFD204638BD7047044B00221A714FF479
:102CC0007A711A73024A99601A607047208BFF1F4D
:102CD0000030000070B50E4B0E4DED1AAD10002403
:102CE0001E46AC4204D056F8242090470134F8E741
:102CF00000F0B2F9084D094BED1AAD1000241E4644
:102D0000AC4204D056F8242090470134F8E770BD57
:102D100064300000643000007C300000643000004B
:102D2000034613F8012B002AFBD1181A013870470B
:102D3000506F736974696F6E2041203A2000506FA4
:102D4000736974696F6E204120696E636F7272657A
:102D5000637465203A2000506F736974696F6E2048
:102D600042203A2000506F736974696F6E204220D0
:102D7000696E636F727265637465203A2000506FEC
:102D8000736974696F6E2043203A2000506F736935
:102D900074696F6E204320696E636F72726563742D
:102DA00065203A2000FFFFFF4008FE4340A004409A
:102DB0004408FE4344A004400018FE4300C0044001
:102DC0003000FE43309004403400FE433490044011
:102DD0001C18FE431CC004401018FE4310C00440E1
:102DE0000818FE4308C004400C18FE430CC0044001
:102DF0000C10FE430CB004401010FE4310B0044011
:102E00001810FE4318B004401C10FE431CB00440D0
:102E10001410FE4314B004400418FE4304C00440E0
:102E20000010FE4300B004400008FE4300A0044030
:102E30000408FE4304A004400C08FE430CA0044018
:102E40000808FE4308A004401418FE4314C00440C0
:102E50001818FE4318C004400410FE4304B0044098
:102E60000810FE4308B004401400FE4314900440D0
:102E70004C08FE434CA004400420FE4304D0044010
:102E80002410FE4324B004402010FE4320B0044030
:102E90002810FE4328B004402C10FE432CB0044000
:102EA0000020FE4300D004404808FE4348A00440F0
:102EB0001000FE43109004400D0AFFFFFFFFFFFFCC
:102EC0000000000000000000071600000D160000C2
:102ED000F7150000FB150000FF15000003160000A9
:102EE00000151915000100006D87FF1F120000007A
:102EF000000200009887FF1F43000000000300004D
:102F0000F287FF1F00000000010309048087FF1FF4
:102F10000000000002030904DC87FF1F000000001E
:102F200003030904F687FF1F0000000000000000F3
:102F30000000000000000000000000000000000091
:102F4000572A00006F2A00003F2A0000472A00008D
:102F5000432A00004B2A0000D5290000E92900007F
:102F6000092A00000D2A0000132A0000192A000077
:102F70001F2A00002F2A00004F2A0000532A0000B9
:102F8000A5290000B1290000BD290000C9290000C1
:102F90007F2A0000632A00000000000000000000FB
:102FA000672B00007F2B00004F2B0000572B0000E9
:102FB000532B00005B2B0000E52A0000F92A0000DB
:102FC000192B00001D2B0000232B0000292B0000D3
:102FD0002F2B00003F2B00005F2B0000632B000015
:102FE000B52A0000C12A0000CD2A0000D92A00001D
:102FF0008F2B0000732B0000000000000000000079
:10300000772C00008F2C00005F2C0000672C000044
:10301000632C00006B2C0000F52B0000092C000035
:10302000292C00002D2C0000332C0000392C00002E
:103030003F2C00004F2C00006F2C0000732C000070
:10304000C52B0000D12B0000DD2B0000E92B000078
:103050009F2C0000832C0000F8B500BFF8BC08BC12
:103060009E467047350400008505000019160000D3
:0C307000992A0000A92B0000B92C0000D8
:10307C000C000000FFFFFFFF0A0401090A12010007
:10308C000202000040C0168304000101020301008B
:10309C0018035400650065006E007300790064002D
:1030AC00750069006E006F0009024300020100C048
:1030BC003209040000010202010005240010010580
:1030CC0024010101042402060524060001070582DF
:1030DC000310004009040100020A00000007050368
:1030EC000240000007058402400000001603550052
:1030FC00530042002000530065007200690061001B
:10310C006C00040309040C03000000000000000024
:0C311C00000000000000000000000000A7
:00000001FF
