:1000000000800020BD010000A1A1000059A1000056
:1000100059A1000059A1000059A1000059A10000F8
:1000200059A1000059A1000059A10000A1A10000A0
:10003000A1A1000059A100009DB80000A1B90000D5
:10004000A1A10000A1A10000A1A10000A1A10000A8
:10005000A1A10000A1A10000A1A10000A1A1000098
:10006000A1A10000A1A10000A1A10000A1A1000088
:10007000A1A10000A1A10000A1A10000A1A1000078
:10008000A1A10000A1A10000A1A10000A1A1000068
:10009000A1A10000A1A10000A1A10000A1A1000058
:1000A000A1A10000A1A10000A1A10000A1A1000048
:1000B000A1A10000A1A10000A1A10000A1A1000038
:1000C000A1A10000A1A10000A1A10000A1A1000028
:1000D000A1A10000A1A10000A1A10000A1A1000018
:1000E000A1A10000A1A10000A1A10000A1A1000008
:1000F000A1A10000D1A80000A1A10000D5C100006D
:10010000A1A1000001C30000A1A10000A1A1000065
:10011000A1A10000A1A10000A1A10000A1A10000D7
:10012000A1A10000A1A10000A1A10000A1A10000C7
:10013000A1A10000A1A10000A1A10000A1A10000B7
:10014000A1A10000A1A10000A1A10000A1A10000A7
:10015000C5BA0000D9BA0000EDBA000001BB00002A
:100160001D9B000051AB0000A1A10000A1A1000057
:10017000A1A10000A1A10000A1A10000A1A1000077
:10018000A1A10000A1A10000A1A10000A1A1000067
:10019000A1A10000A1A10000A1A10000A1A1000057
:1001A000A1A10000A1A10000A1A10000A1A1000047
:1001B000A1A10000A1A10000A1A10000564B4CF29A
:1001C000205210B51A804DF628121A8000BF00BFC9
:1001D00009F0EAFF514B4FF010621A60504A9A60E2
:1001E000504ADA60504A136813F4807304D14F49BF
:1001F0000B604FF4A85313604D4B1A78110703D5C9
:100200001A7842F008021A704A4B4B492A221A7097
:100210004A4A4B4B8B4204D252F8040F43F8040B6A
:10022000F8E7484B484900228B4202D243F8042B9E
:10023000FAE74649464A002352F8230041F82300D2
:1002400001336F2BF8D1434B434A802103F8011B44
:100250009342FBD1414B3D4A1A60414B8A221A70AE
:10026000A3F5805324225A70A0221A709A7992071B
:10027000FCD59A79D406FCD43A4A937903F00C035E
:10028000082B384BF9D105221A7143225A719A79F9
:100290009006FCD5334A9179324B4906FBD5324A58
:1002A0004FF0817111600521516020221A709A79F6
:1002B00002F00C020C2AFAD12C4B2D4A1A602D4B5D
:1002C0002D4A1A6000225A60072243F8042C2B4A58
:1002D000C3F80C2D62B60AF0A1F9144B1B68DA07BB
:1002E00005D5274809F0FCFF264B274A1A60274B03
:1002F0001B785B0609D5234C234B22689A4204D114
:100300001F4809F0EDFF002323600EF00FFE09F0F7
:1003100051FF0BF023FEFEE70E2005403080044025
:10032000823F04000100002B10D0034014D0034092
:1003300002D0074000E00740D091FF1F2454010085
:100340002087FF1FD091FF1F0CA8FF1F0082FF1FF7
:100350000000000000E400E05FE400E008ED00E0E1
:1003600000500640004006404480044004800440A1
:10037000C010050014E000E03F190100000020203B
:10038000BEC8055B1CE00340A5C3945A00F00740BB
:10039000FFFFFFFFFFFFFFFFFFFFFFFFFFFFFFFF6D
:1003A000FFFFFFFFFFFFFFFFFFFFFFFFFFFFFFFF5D
:1003B000FFFFFFFFFFFFFFFFFFFFFFFFFFFFFFFF4D
:1003C000FFFFFFFFFFFFFFFFFFFFFFFFFFFFFFFF3D
:1003D000FFFFFFFFFFFFFFFFFFFFFFFFFFFFFFFF2D
:1003E000FFFFFFFFFFFFFFFFFFFFFFFFFFFFFFFF1D
:1003F000FFFFFFFFFFFFFFFFFFFFFFFFFFFFFFFF0D
:10040000FFFFFFFFFFFFFFFFFFFFFFFFDEF9FFFF23
:1004100010B5054C237833B9044B13B10448AFF33E
:1004200000800123237010BDD091FF1F0000000049
:1004300020540100084B10B51BB108490848AFF320
:1004400000800848036803B910BD074B002BFBD0A0
:10045000BDE81040184700BF00000000D491FF1F06
:1004600020540100D091FF1F0000000038B5044661
:100470009DF810504270837001700846E5700121AC
:100480000AF052F8607801210AF04EF82078012134
:100490000AF036F8607801210AF032F8204638BDBB
:1004A000F8B59B499B4B0A689B4F9C4E9C4D04465C
:1004B000007842F480520A280A601F60DE601D61E5
:1004C00026D0022800F00782092800F008820628BA
:1004D00000F02982142800F00B82172800F02982EE
:1004E000152800F03A82162800F04B820F2800F001
:1004F00022828C4B8C4D53F830302B6001210AF056
:1005000013F82B68002101221A7008460B4607E0F9
:10051000864A4FF400714FF4803311601846012170
:100520007C4A834D834F844E297017603278D707F9
:1005300055BF824F824F4FF4107E4FF4007EC7F8B4
:1005400000E0970754BF7F4F7F4F52074FF4007E64
:1005500054BF7E4A7E4AC7F800E054BF4FF410777C
:100560004FF400771760002800F0BF8043F000438D
:10057000684A43F088035363D36A03F47043B3F5C6
:10058000405FF9D8A3780804002900F09A80614AF6
:1005900003435363D36A03F47043B3F5405FF9D860
:1005A0005C490746CA6A5B4B12F0F00FFAD09A6BAF
:1005B000DA6A584912F0F00FFAD08B6B002859D044
:1005C00040F0004040F090004863CB6A03F4704371
:1005D000B3F5405FF9D8E3784E4A1F435763D36AB7
:1005E00003F47043B3F5405FF9D84A49CA6A494BEE
:1005F00012F0F00FFAD09A6BDA6A464912F0F00F57
:10060000FAD0434A8B6B13686078DFF80CE1434FF4
:1006100043F4805313600A28414BC1F800E0CF60D7
:100620000B6100F09780022800F05781092800F044
:100630007181062800F07981142800F06281172862
:1006400000F07581152800F09181162800F097813F
:100650000F2800F07981334B334F53F830303B6033
:10066000012109F061FF3B68002101221A70084650
:100670000B4679E02C4A13684FF08057187090238E
:10068000CF6208464B63C36A224F03F47043B3F54D
:10069000405FF8D82978E3780804002940F0738196
:1006A000116843F000634FF0805E0870C7F82CE0DB
:1006B00039467B63CB6ADF00FCD5136801221A70D0
:1006C00093E7194A134F116843F0006308704FF025
:1006D0008051F96239467B63CB6ADB00FCD5136835
:1006E00001221A70287800045AE70F4A094B126851
:1006F0004FF0805788211070DF621A465963D36A21
:1007000003F47043B3F5405FF9D829783AE700BFA6
:100710003C80044000C0024001401F80022001B81C
:10072000022001F8604D0100C0A6FF1F10B0044078
:10073000C4A6FF1F000C1F80BCA6FF1F18B00440FA
:1007400008C004401CB004400CC0044014B0044075
:1007500004C0044002F53F5214324FF400714FF4CC
:100760008033116018460121884A894F297017602B
:100770003278D60755BF874E874E4FF410774FF427
:1007800000773760970754BF844E854E4FF400774B
:100790003760560755BF834A834A4FF410764FF4AB
:1007A00000761660002800F0848043F00043774A0A
:1007B00043F088035363D36A03F47043B3F5405F97
:1007C000F9D8A378080400295FD0704A0343536323
:1007D000D36A03F47043B3F5405FF9D86B4906461A
:1007E000CA6A6A4B12F0F00FFAD09A6BDA6A67495C
:1007F00012F0F00FFAD08B6B10B340F0004040F0D5
:1008000090004863CB6A03F47043B3F5405FF9D8B6
:10081000E3785E4A1E435663D36A03F47043B3F52C
:10082000405FF9D85949CA6A584B12F0F00FFAD014
:100830009A6BDA6A554912F0F00FFAD08B6BF8BD5B
:100840005A4A17684FF0805690233870CE62084697
:100850004B63C36A4D4903F47043B3F5405FF8D866
:100860002878E37806040028D3D1106843F00063A9
:100870004FF080540670CC6208464B63C36ADB00BD
:10088000FCD5136801221A70CCE7484A3F4E116824
:1008900043F000634FF080570870F762314673638E
:1008A000CB6AD800FCD5136801221A70287800049E
:1008B00094E73E4A354B12684FF0805688211070FD
:1008C000DE621A465963D36A03F47043B3F5405F9E
:1008D000F9D8297875E7364A1BE6354A3DE7354AA7
:1008E0004FF400714FF4003311601846022117E6EF
:1008F000314A4FF400714FF48023116018460421EF
:100900000EE62D4A4FF400714FF480231160184613
:10091000042129E7274A4FF400714FF40033116096
:100920001846022120E7254ADAE7244AF3E7244A59
:10093000E8E7234ADDE7234A4FF400714FF48013C0
:10094000116018461021EBE51E4A4FF400714FF478
:10095000801311601846102106E71B4A4FF40071FE
:100960004FF40023116018460821D9E5164A4FF4C8
:1009700000714FF40023116018460821F4E6134A71
:10098000F5E7124AEAE7074626E600BF00C0024044
:10099000000C1F8018B0044008C004401CB0044084
:1009A0000CC0044014B0044004C00440C0A6FF1FA3
:1009B00000C004400CB0044014C0044010C0044007
:1009C00008B0044000B0044018C0044004B0044023
:1009D000F8B5AA49AA4B0A68AA4FAB4EAB4D0446DC
:1009E000007842F480520A280A601F60DE601D61B0
:1009F00026D0022800F0FF80092800F00081062898
:100A000000F02181142800F00C81172800F02181CA
:100A1000152800F06181162800F070810F2800F081
:100A20001A819B4B9B4D53F830302B60012109F00C
:100A30007BFD2A6801210023117019461A4609E03E
:100A400003F5F83310334FF400724FF480311A601D
:100A50000A460123904E8A48904F914D33700760AB
:100A60002B78DF0771D400F5F83018304FF4107789
:100A70000760980754BF8B488B485B074FF400779B
:100A800054BF8A4B8A4B076054BF4FF410704FF429
:100A900000701860002A47D0794A41F02001516364
:100AA000D36A03F47043B3F5405FF9D87449CB6A55
:100AB000734A13F0F00FFAD07049936B0B686078AB
:100AC000DFF8C0E1704F43F480530B600A286F4B8E
:100AD000C2F800E0D76013613CD0022800F08D809E
:100AE000092800F0A780062800F0AF80142800F045
:100AF0008F80172800F0AB80152800F0F6801628AC
:100B000000F0FE800F2800F0AF80614B614F53F87A
:100B100030303B60012109F007FD3A6801210023D4
:100B2000117019461A461DE05A49554B0F68614825
:100B30003A704FF08052DA621A465863D36ADF0087
:100B4000FCD50B6801221A70B0E75B484FF40077C0
:100B500007608EE7594B4FF400724FF480311A60F2
:100B60000A46012346484D4F337007602B78DE0755
:100B70003CD400F5F83018304FF4107505609D072F
:100B800054BF484848484FF400750560580755BFA2
:100B9000464B474B4FF410704FF400701860A2B1F1
:100BA000374A41F020015163D36A03F47043B3F52F
:100BB000405FF9D83249CB6A314A13F0F00FFAD0CE
:100BC0000023926B6360A360F8BD32492C4B0D6823
:100BD00038482A704FF08052DA621A465863D36A56
:100BE000DB00FCD50B6801221A70E3E732484FF4B2
:100BF00000750560C3E7324B25E7314BABE7314B5E
:100C00004FF400724FF400311A600A46022321E7C4
:100C10002D4B4FF400724FF480211A600A460423D2
:100C2000A0E7294B4FF400724FF480211A600A4666
:100C300004230FE7234B4FF400724FF400311A6086
:100C40000A4602238EE7214BDAE7204BF3E7204BDD
:100C5000DFE71F4BE6E71F4B4FF400724FF48011A4
:100C60001A600A461023F5E61A4B4FF400724FF44F
:100C700080111A600A46102374E700BF3C800440CC
:100C800000C0024001401F80022001B8022001F88C
:100C9000604D0100C0A6FF1FC4A6FF1F000C1F80EF
:100CA000BCA6FF1F1CB004400CC0044014B004409C
:100CB00004C004402000000808C0044010B00440F4
:100CC00000C004400CB0044014C0044010C00440F4
:100CD00008B0044000B004400A4B4FF400724FF4D7
:100CE00000211A600A460823B4E6064B4FF400724E
:100CF0004FF400211A600A46082333E7024BECE761
:100D0000014BF3E718C0044004B00440F8B5A34910
:100D1000A34B0A68A34FA44EA44D0446007842F4A6
:100D200080520A280A601F60DE601D6126D00228FA
:100D300000F08783092800F08883062800F0D1831B
:100D4000142800F0A683172800F0D583152800F09A
:100D50002A84162800F03A840F2800F0CE83944BA2
:100D6000944D53F830302B60012109F0DDFB2A68E7
:100D70000121002311701F46194609E003F5F833DD
:100D800010334FF400724FF480311A600F46012384
:100D9000894D834A89488A4E2B7010603378D80772
:100DA00071D402F5F83218324FF4107010609807C1
:100DB00054BF844A844A4FF4007010605A0755BFEC
:100DC000824B834B4FF410724FF400721A60744AD6
:100DD0007A4B1360002F46D041F0E8015163D36A8B
:100DE00003F47043B3F5405FF9D86D49CB6A6C4AA0
:100DF00013F0F00FFAD06949936B0B686078DFF855
:100E0000A4E1694F43F480530B600A28674BC2F892
:100E100000E0D76013613BD0022800F0148309285A
:100E200000F05283062800F05A83142800F028832B
:100E3000172800F05E83152800F0A383162800F021
:100E4000C9830F2800F08283594B5A4F53F8303032
:100E50003B60012109F068FB3A6801210023117011
:100E600019461A461CE053485A4B01680F704FF060
:100E70008051D16211465363CB6ADB00FCD5036815
:100E800001221A70B1E7544A4FF4007010608EE7E7
:100E9000524B4FF400724FF480311A600A4601231E
:100EA0003F48464F2B7007603378DF0770D400F55A
:100EB000F83018304FF4107707609F0754BF41484F
:100EC00041484FF400770760580755BF3F4B404BF0
:100ED0004FF410704FF400701860002A47D0304A69
:100EE00041F0E8015163D36A03F47043B3F5405F06
:100EF000F9D82B49CB6A2A4A13F0F00FFAD02749C8
:100F0000936B0B682078DFF89CE0274F43F4805305
:100F10000B600A28254BC2F800E0D76013615FD050
:100F2000022800F08A82092800F0C582062800F015
:100F3000D482142800F09B82172800F0D88215284C
:100F400000F03B83162800F043830F2800F007834E
:100F5000174B184F53F830303B60012109F0E4FA89
:100F60003B68002001221A700146034642E0114806
:100F70000B4B076817493A704FF08052DA621A46F5
:100F80005963D36ADB00FCD5036801221A70B0E70D
:100F900011484FF4007707608FE700BF3C800440A2
:100FA00000C0024001401F80022001B8022001F869
:100FB000604D0100C0A6FF1FC4A6FF1F000C1F80CC
:100FC000BCA6FF1F1CB004400CC0044014B0044079
:100FD00004C00440E800000808C0044010B0044009
:100FE00002F5F83210324FF400714FF48033116083
:100FF000012019468A4A8B4F287017603278D7072C
:1010000055BF894F894F4FF4107E4FF4007EC7F8CB
:1010100000E0970754BF864F864F52074FF4007E7B
:1010200054BF854A854AC7F800E054BF4FF4107793
:101030004FF400771760002900F0BE8043F00043B2
:10104000774A43F068035363D36A03F47043B3F5FC
:10105000405FF9D87249CB6A714A13F0F00FFAD0A9
:10106000936B0104002800F0CA8041F000435363F1
:10107000D36A03F47043B3F5405FF9D86848C36A94
:10108000674A13F0F00FFAD0976B002900F0A680A2
:1010900041F000435363D36A03F47043B3F5405FF8
:1010A000F9D85F483F02C36A5D4A13F0F00FFAD0E7
:1010B000936B1F4300296ED041F000435363D36A02
:1010C00003F47043B3F5405FF9D855483F02C36A53
:1010D000534A13F0F00FFAD0936B1F43002948D006
:1010E0005163D36A03F47043B3F5405FF9D84C4AB7
:1010F0003F02D36A4A4913F0F00FFAD08B6B504A83
:101100006078DFF850E13B43636013684D4F43F470
:10111000805313600A284C4BC1F800E0CF600B618C
:1011200000F09A80022800F08A81092800F0BA8134
:10113000062800F0D881142800F09081172800F0CC
:10114000D481152800F02682162800F045820F2849
:1011500000F00E823D4B3E4F53F830303B60012192
:1011600009F0E2F93B68002001221A7007460346A5
:101170007CE0374803684FF0805E19704FF00063E1
:10118000C2F82CE011465363CB6ADB00FCD5036840
:1011900001221A70ABE72E4B18684FF08053017094
:1011A000D36210465163C36A03F47043B3F5405FE2
:1011B000F9D82978090488E7254A194B12684FF0B5
:1011C000805768201170DF621A465863D36A03F4AF
:1011D0007043B3F5405FF9D828783BE71C4B18689B
:1011E0004FF080530170D36210465163C36A03F419
:1011F0007043B3F5405FF9D82978090451E7144BDF
:1012000018684FF080530170D36210465163C36A6F
:1012100003F47043B3F5405FF9D8297809042DE74A
:1012200000C00240000C1F8018B0044008C00440F9
:101230001CB004400CC0044014B0044004C004407E
:101240003C800440022001B8022001F8604D0100FA
:10125000C0A6FF1F01401F8002F53F5214324FF419
:1012600000714FF4803311601F460120A74AA8493E
:10127000287011603278D60755BFA649A6494FF4A9
:1012800010764FF400760E60910754BFA349A4492D
:1012900052074FF4007654BFA24AA34A0E6054BFCF
:1012A0004FF410714FF400711160002F00F0AE8008
:1012B00043F00043954A43F068035363D36A03F451
:1012C0007043B3F5405FF9D89049CB6A8F4A13F069
:1012D000F00FFAD0936B0104002800F0868041F0F3
:1012E00000435363D36A03F47043B3F5405FF9D806
:1012F0008648C36A854A13F0F00FFAD0966B00292E
:1013000062D041F000435363D36A03F47043B3F5F2
:10131000405FF9D87D483602C36A7C4A13F0F00F6B
:10132000FAD0906B064300293DD041F0004353634F
:10133000D36A03F47043B3F5405FF9D873483502BC
:10134000C36A724A13F0F00FFAD0906B0543C9B12B
:101350005163D36A03F47043B3F5405FF9D86B4926
:101360002802CB6A694A13F0F00FFAD0936B03435B
:101370001A0C1204B2F57F0FA36059D0B2F17F4F5F
:1013800056D0F8BD694807684FF080564FF00063AB
:101390003970D66211465363CB6ADB00FCD5036813
:1013A00001221A70DBE7614B18684FF0805301701F
:1013B000D36210465163C36A03F47043B3F5405FD0
:1013C000F9D829780904B9E7584B18684FF08053C9
:1013D0000170D36210465163C36A03F47043B3F5DE
:1013E000405FF9D82978090494E7504B18684FF00A
:1013F00080530170D36210465163C36A03F4704393
:10140000B3F5405FF9D82978090471E7474A3F4BA3
:1014100012684FF0805068211770D8621A465963DD
:10142000D36A03F47043B3F5405FF9D828784BE7EB
:101430003F48BDE8F84000F087BF3E4AD3E53D4A4B
:101440000DE73C4B9DE43B4B23E53B4B4FF40072D7
:101450004FF400311A600F46022399E4374A4FF4E3
:1014600000714FF4802311601F460420FEE6334ACA
:101470004FF400714FF48023116004201946B9E540
:101480002E4B4FF400724FF480211A600A46042359
:1014900006E52A4B4FF400724FF480211A600F4684
:1014A000042375E4244A4FF400714FF400331160B3
:1014B0001F460220DAE6204A4FF400714FF4003351
:1014C00011600220194695E51B4B4FF400724FF452
:1014D00000311A600A460223E2E4194AECE7184B8D
:1014E000F3E7174BB2E7164ADDE7164AB7E7154AA6
:1014F000BEE7144BC5E7134BCCE7134B4FF4007218
:101500004FF480111A600F46102341E400C00240DE
:10151000000C1F8018B0044008C004401CB00440F8
:101520000CC0044014B0044004C00440C0A6FF1F17
:10153000F831010000C004400CB0044014C0044065
:1015400010C0044008B0044000B00440234B4FF4E6
:1015500000724FF480111A600A461023A0E41F4A5B
:101560004FF400714FF4801311601020194641E5CB
:101570001A4A4FF400714FF4801311601F46102077
:1015800074E6174B4FF400724FF400211A600A46BC
:10159000082385E4124A4FF400714FF400231160D0
:1015A0001F46082062E60E4B4FF400724FF40021F4
:1015B0001A600F460823FFF7EBBB094A4FF400718E
:1015C0004FF4002311600820194613E5054BEBE7A3
:1015D000044AF3E7034BD5E7024ADCE700B00440D6
:1015E00018C0044004B004404068704780687047E9
:1015F00008F028BD70B5164C04F12C060023012517
:101600005022304684F82430E36123626366A36687
:10161000A4F87820A573E57303F0F2FD6422304648
:10162000114603F0FBFD48342A462946304603F0B4
:10163000F1FD204603F0E4FD64222046114603F04C
:10164000EDFD2A4629462046BDE8704003F0E2BD84
:101650000092FF1F02460146014803F0DFBD00BFB4
:101660002C92FF1F024B002283F82420704700BFFA
:101670000092FF1F70B5084C02230E4684F82430F8
:10168000E56904F0ADF9054430466566256A04F065
:10169000C3F92844A06670BD0092FF1F2DE9F84FE2
:1016A000DFF82CA1BAF98C30C01A0E4693460CF024
:1016B00053FD0446BAF98E00301A0D460CF04CFD6D
:1016C00002460B4606460F460CF0ACFD224680460D
:1016D0002B468946204629460CF0A4FD02460B46BF
:1016E000404649460CF0ECFB0AF04EFF0DF04AF87C
:1016F00022462B468046394630460AF043FF0446D0
:10170000DAF890000D460CF039FD02460B462046F3
:1017100029460CF0D3FB0DF05DF804F01BFA0446EB
:10172000BBF1000F19D127490DF06EFB80B12046A7
:1017300025490DF0A3F8B8F11D0F0446C8F10005C6
:101740000FDC28460021FFF795FF0020BDE8F88F49
:101750001E4920460DF03AFB08BB4546B8F11D0F67
:10176000EFDDB8F11E0F02D0B8F1C70F1FDD002169
:1017700020460DF049FB08B320464FF07C510DF098
:1017800043FB214628B10020FFF774FF7F20BDE80E
:10179000F88F2846FFF76EFF7F20BDE8F88F2046C0
:1017A00009490DF06DF8C8F100050446D6E7284652
:1017B0000021FFF75FFF7F20BDE8F88F04F10040B4
:1017C000DBE700BFDB0FC93FDB0F4940DB0FC9BFC1
:1017D0000092FF1F034B0122002100209A73DA734D
:1017E000FFF748BF0092FF1F2DE9F04FDFF8B0A0D0
:1017F000294EDAF8004083B00F460094154699460A
:10180000DDF800B004F020F9A6F896708046A6F83E
:10181000940003E096F8A3301F4A6BBB03F020FC52
:1018200000F06CFC4A4639464046FFF737FF044655
:10183000A0B1002DEED0DAF800300193019BCBEB84
:1018400003039D42E6D2012400210020B473F47307
:10185000FFF710FF204603B0BDE8F08FC82003F06B
:101860002BFC012320460021B373F373FFF702FF23
:10187000204603B0BDE8F08F0123002100209373C0
:10188000D373FFF7F7FE054800F05EFD04F08CF817
:10189000022003B0BDE8F08F0092FF1F1832010054
:1018A000F0A4FF1F2DE9F04F85B005468A460CF0E5
:1018B00053FC2A4CCDE90001D4F890000CF05EFCFA
:1018C000CDE902010AF0D0FD0646B4F98C000F46BE
:1018D0000CF042FC3246804689463B46DDE9000179
:1018E0000CF0A0FC02460B46404649460CF0E8FAD4
:1018F0000CF048FF8346DDE902010AF0FFFD804657
:10190000B4F98E0089460CF027FC424606460F4685
:101910004B46DDE900010CF085FC02460B463046E3
:1019200039460CF0CDFA0CF02DFF002D0446584638
:1019300009DB04F089F852462146012305B0BDE8D1
:10194000F04FFFF751BF04F07FF8524621460023C5
:1019500005B0BDE8F04FFFF747BF00BF0092FF1F83
:101960002DE9F041204F214C3B6884B00D46029395
:1019700001460020DDF80880FFF77CFE1C4804F0DB
:101980004BF8064603F06CFB00F0B8FB236AA16E2F
:10199000164A5B1A002BB8BF5B429E4213DA002D39
:1019A000F0D03B680393039BC8EB03039D42E9D24D
:1019B0000124002100209473D473FFF75BFE2046BE
:1019C00004B0BDE8F081C820019203F075FB019AD4
:1019D0000123002100209373D373FFF74BFE0020F7
:1019E00004B0BDE8F08100BFF0A4FF1F0092FF1F0C
:1019F0009A99993E2DE9F04383B00E46154604F0BE
:101A000023F803F0EDFF8046304603F0E9FF0E4C6B
:101A10008146D4F88000D4F890600DF0FFF90746B5
:101A2000E06F0DF0FBF9434639463246CDF80090A1
:101A300004F04AF801232946E370FFF791FF0023E1
:101A4000E37003B0BDE8F0830092FF1F2DE9F0477B
:101A5000424C43496269A3690868DFF80CA1414D13
:101A6000134403EBD37382B05B10E36103F0D4FF44
:101A70006269A769DAF80060E1691044C31B18467F
:101A8000891B2362C4F884100CF0AEFF2E68314627
:101A900007460CF0F3FE0DF0C1F93146C4F888009A
:101AA00038460CF0EDFE4FF07C510CF0F1FF0DF0DC
:101AB000B5F903F0BDFF8046D4F884000CF04CFB70
:101AC000064640460F460CF059FB804689460AF010
:101AD000CBFC02460B4640464946CDE900230AF0BE
:101AE0000DFDDDE9002380468946304639460CF07D
:101AF00099FB0CF06FFEE16F0CF0C2FE42464B46C4
:101B0000E067394630460CF08DFB0CF063FED4F8EC
:101B100080100CF0B5FEC4F88000206A03F088FF46
:101B200004F018F8C4F89000E06F0DF077F903F0B6
:101B300065FFA4F88C00D4F880000DF06FF903F075
:101B40005DFFE369A4F88E00206ACAF800300CF04B
:101B50004BFF286002B0BDE8F08700BF0092FF1F76
:101B6000F091FF1FF891FF1FFC91FF1FF8B504468D
:101B70000F461646FFF76AFF204603F065FF03F0A5
:101B80002FFF0CF031FF0B4C0B4DE067384603F094
:101B900027FF0CF029FFC4F88000304603F060FFF7
:101BA000D4F890100CF06AFE2860BDE8F840FFF70A
:101BB0004DBF00BF0092FF1FF091FF1F2DE9F843BA
:101BC0004E4C94F82450002D74D0012D00F08C80E0
:101BD000616E04F12C0003F025FBE369A16EC31ACA
:101BE00004F14800E36603F01DFB236AA17BC3EB0D
:101BF0000008C4F87080002957D0414DE66E28686F
:101C0000301A0CF0F1FED4F8D8100CF041FF074662
:101C100030460CF0E9FED4F8D4100CF039FF014640
:101C200038460CF02DFE0DF0F9F8E27B0746002A4D
:101C300048D0344E3068C0EB08000CF0D5FED4F824
:101C4000E0100CF025FF814640460CF0CDFED4F8A4
:101C5000DC100CF01DFF014648460CF011FE0DF0A3
:101C6000DDF832286FF03103A8BF32209842B8BFA8
:101C7000184617F17F0F82B228DAC2F57F41A2F130
:101C80007F0381310AB21BB21846A4F87430A4F85D
:101C9000762003F06DFAB4F9760003F07FFAE26E75
:101CA000236F2A603360BDE8F883E27BC2B1144D34
:101CB0000F46BEE7284603F05BFA2846BDE8F84326
:101CC00003F06CBA17F17F0F0E4ED6DB7F2F39462B
:101CD000A8BF7F2189B28B188A1A1BB212B2D3E730
:101CE0001346074D074ECFE7B4F9260003F040FA3C
:101CF000B4F92800BDE8F84303F050BA0092FF1F82
:101D0000EC91FF1FF491FF1F08F09CB910B5044639
:101D100009F0B6FE204610BDF8B5254C2378022BFD
:101D200041D00223237008F005FC224E224D306082
:101D300003F014FE08F0FEFB286000F081FA08F0C2
:101D4000F9FB2B681D4FC01AC7F8C00008F0F2FB62
:101D5000286003F073FD08F0EDFB2B68C01AC7F88C
:101D6000C40003F0FBFD00F015FAFFF76FFEFFF76C
:101D700025FF03F0F3FD00F0C9FA00F0EBFD03F0DE
:101D8000EDFD08F0D7FB3368C01AC7F8C80008F0AB
:101D9000D1FB3368C01A0CF023FE09490DF02AF874
:101DA00010B900232370F8BD064800F0CDFAF8E71B
:101DB0002487FF1FE492FF1FF092FF1F0092FF1F76
:101DC00000401C462832010038B54FF47A7008F004
:101DD000D5FB4FF47A7008F0D1FBA04BA04C1968EA
:101DE0002278C80442F0040309D59A4207D09D48DE
:101DF0009D4A4FF4A2754FF40071056011604FF4D5
:101E00007A70237008F0BAFB05F06EF8112197483C
:101E100009F0D2FB964809F0B7FE4FF4FA6008F0DB
:101E2000ADFB1121934809F0C7FB914809F0ACFEC6
:101E30004FF47A7008F0A2FB11218F4809F0BCFB27
:101E40008B4809F0A1FE4FF47A7008F097FB11213E
:101E50008A4809F0B1FB864809F096FE4FF47A7083
:101E600008F08CFB1421864809F0A6FB804809F095
:101E70008BFE00F021FB1721824809F09DFB7C4876
:101E800009F082FE4FF47A7008F078FB16217E4844
:101E900009F092FB764809F077FE00F05FF9072120
:101EA0007A4809F089FB724809F06EFE4FF47A70A7
:101EB00008F064FB1621764809F07EFB6C4809F0B7
:101EC00063FE242008F022F8B0F5007F80F2A7809E
:101ED00002F0DEFE04216F4809F06EFB644809F051
:101EE00053FE4FF47A7008F049FB12216A4809F05A
:101EF00063FB5F4809F048FE584B22781968C90413
:101F000042F0040309D59A4207D05648564A4FF486
:101F1000A2754FF400710560116004215F482370C1
:101F200009F04AFB524809F02FFE4FF47A7008F08E
:101F300025FB08215A4809F03FFB4D4809F024FED3
:101F400000F0CEFA574800F0BFFC574800F0BCFC48
:101F5000564800F0B9FC564800F0B6FC554800F071
:101F6000B3FC554800F0B0FC03F062FB002859D0E8
:101F7000524800F0A9FC524800F0A6FC09E000F02D
:101F800001F900285ED14F4800F0B6FC642008F04B
:101F9000F5FA03F099FB0028F1D04B4800F094FCCF
:101FA0004A4800F091FC09E000F0ECF800283ED12E
:101FB000444800F0A1FC642008F0E0FA03F09EFB26
:101FC0000028F1D0404800F07FFC4148414C00F02F
:101FD0007BFC00F0A9FC00F027F900F08BF903F07E
:101FE000F3F8FFF707FB03F0ADFC03F0D5FC3A482C
:101FF00000F06AFC394A3A49204609F0F7FC2168AA
:102000008022227121B1374B37480B441B111A54DF
:10201000364800F059FCBDE8384002F0A5BE02F099
:10202000CFFA57E73248BDE8384000F065BC314888
:1020300000F04AFC00F0A6F80028FBD1052008F0CB
:102040009DFAC2E72B4800F03FFC00F09BF8002807
:10205000FBD1052008F092FAA2E700BF3C800440C3
:10206000BCA6FF1F14B0044004C004404432010069
:102070007087FF1F583201006C320100803201006E
:1020800094320100AC320100C4320100DC320100A4
:10209000E4320100FC320100043301001833010076
:1020A000203301002C330100784201003833010055
:1020B000E43E010044330100503301007833010055
:1020C000883301000442010098330100AC33010061
:1020D000BC330100E892FF1FCC3301003F7E0500B6
:1020E000191D0000008FFCBF44E400E0E433010050
:1020F00064330100A0330100704700BF034A01238D
:1021000013701378002BFCD1704700BF2487FF1F8A
:1021100038B507F097FF0B4B00241C735C7308F075
:1021200009FA094B186008F005FA084B08491C60C9
:1021300080251D710860074A07491846BDE83840E8
:102140000CF0B2BE0092FF1FE492FF1FE892FF1F47
:10215000F092FF1F2087FF1F0D1D000008B5022110
:10216000084608F0E1F902210320BDE8084008F024
:10217000DBB900BF08B5032008F0C8F9B0FA80F059
:10218000400908BD08B5022008F0C0F9B0FA80F097
:10219000400908BD08B5022008F0B8F900B108BD33
:1021A000032008F0B3F90028F9D108F0CFFC00BFF4
:1021B00008B5074807F05EFD0028FAD0044807F08C
:1021C00089FD0028F5D00348BDE8084000F0BCB800
:1021D0000493FF1FF833010008B5074807F04AFDD4
:1021E0000028FAD0044807F06BFD0028F5D003481A
:1021F000BDE8084000F0A8B80493FF1F0C340100AC
:1022000008B507F01FFF0A220321054807F0FCFC70
:102210000A2202210348BDE8084007F0F5BC00BFD0
:102220000493FF1FF492FF1F10B5044C2046FEF7E5
:1022300037F92046BDE81040FEF7CABB1493FF1FD4
:1022400038B5074C074D2046FEF760FD2046FFF7E6
:10225000CBF9434220466B61FFF7C8F9A86138BD4E
:102260001493FF1F0092FF1F00B583B007F0EAFE32
:10227000002300931422832315210348FEF7F6F868
:1022800003B05DF804FB00BF1493FF1FF0B5154BBE
:102290001B7883B00BB9FFF731FF134A134B11685A
:1022A000134A0191019DD2F89040B2F88C00B2F827
:1022B0008E10177892F8BC605D609C60B2F8BA50DE
:1022C00092F8A3401882D2F8C820598218462021DB
:1022D000DF751E769D829C75DA6009F06DF903B09A
:1022E000F0BD00BF2487FF1FF0A4FF1F9C93FF1FBA
:1022F0000092FF1F08B540F2E24008F0FFF90248E3
:10230000BDE8084004F0E6BDF093FF1F08B504489F
:1023100004F0BEFD00B908BDBDE80840FFF7B6BF38
:10232000F093FF1F10B5074B1B7804460BB9FFF75E
:10233000E5FE20460DF024FC01462046BDE8104095
:1023400009F03AB92487FF1F0FB410B582B004AB6F
:102350000A4C53F8042B0193792120460DF0ECFC34
:1023600020460DF00DFC064B1B8823522046FFF73C
:10237000D9FF02B0BDE8104004B070472093FF1FA2
:102380006C4101000A2810B5044634D00AD90E2841
:102390002DD013D80B2821D00C2823D11C48FFF7AF
:1023A000D3FF09E001282ED029D302280ED003281C
:1023B00018D11848FFF7C8FF204610BD0F2809D0D4
:1023C0007F280FD11448FFF7BFFFF5E71348FFF749
:1023D000BBFFF1E71248FFF7B7FFEDE71148FFF742
:1023E000B3FFE9E721461048FFF7AEFFE4E70F48E7
:1023F000FFF7AAFFE0E70E48FFF7A6FFDCE70D486E
:10240000FFF7A2FFD8E70C48FFF79EFFD4E700BF15
:10241000A435010044350100D835010030350100F4
:102420009035010070350100E4350100C035010030
:10243000583501001C3501002035010010B5074B4F
:102440001B7804460BB9FFF759FE20460DF098FBA8
:1024500001462046BDE8104008F0C6B92487FF1F9A
:102460000FB410B582B004AB074C53F8042B0193A2
:10247000332120460DF060FC2046FFF7DFFF02B05D
:10248000BDE8104004B07047BC93FF1F08B507F0CB
:10249000D9FD6421064804F0E9FC064B40221A707D
:1024A0005A709A70DA701A775A779A77DA7708BD85
:1024B000F093FF1F9C93FF1F0221014804F0B0BB63
:1024C000FC93FF1F10B507F0BDFD10230F2206215E
:1024D0000248BDE8104004F06FB900BFFC93FF1F35
:1024E00010B50A4C0021204604F046F9002220468F
:1024F000114604F0CFF820464FF6FF7104F0D4F8EF
:1025000020460121BDE8104004F0D2B8FC93FF1F23
:10251000F0B5A9B0B349B44C064604A809F0D8FCFC
:10252000B24908A809F0D4FCB1490CA809F0D0FCC4
:10253000B04910A809F0CCFCAF4914A809F0C8FCB8
:10254000AE4918A809F0C4FCAD491CA809F0C0FCAC
:10255000AC4920A809F0BCFC24A8AB4909F0B8FCA0
:102560002378002B00F06C81A84904A809F0D2FC64
:10257000A37808A8002B00F05D81A54909F0CAFCEA
:102580004FF4FC67237B10A8002B00F04F81A1497A
:1025900009F0C0FC6379072B11D8DFE813F05B0169
:1025A000600165016A016F0108007401560123781A
:1025B00018A8002B00F06C81974909F0ABFC237937
:1025C00020A8002B00F02E81944909F0A3FCFFF70E
:1025D00095FD4FF6FF71924804F0CEF800221146A7
:1025E0008F4804F057F800218D4804F05DF8012170
:1025F0008B4804F05DF80021894804F055F801216A
:10260000874804F04BF8FFF779FD04AC28AD21466C
:102610008348103409F092FAAC42F8D1804804F0B3
:1026200049F800240122831E11461BB200947C4805
:1026300004F052FB7A4804F041F80546784804F06B
:1026400039F8AA1E831E1BB212B2012100947448ED
:1026500004F042FB724804F031F80122831E114657
:102660001BB200946E4804F0A3FB6D4804F022F8FE
:1026700005466B4804F022F8A91E831E1BB209B25E
:1026800001220094664804F093FB654804F012F8B8
:102690000322831F11461BB20094614804F01CFB07
:1026A0005F4804F00BF805465D4804F003F82A1F64
:1026B000831F1BB212B203210094594804F00CFB93
:1026C000574803F0FBFF0322831F11461BB20094FF
:1026D000534804F06DFB524803F0ECFF05465048A8
:1026E00003F0ECFF291FC31F1BB209B200940422A0
:1026F0004B4804F05DFB04231A46194648480097EE
:1027000003F0E2FC04231A4619460094444803F0FF
:1027100059FB434803F0D2FF0423021F194612B2AB
:102720003F48009703F0D0FC3D4803F0C7FF042367
:10273000021F194612B20094394803F043FB38488F
:1027400003F0B8FF0546364803F0B8FF291F021F03
:1027500012B209B204233248009703F0B5FC3048A6
:1027600003F0A8FF05462E4803F0A8FF291F021F0B
:1027700012B209B204230094294803F023FB28482D
:1027800003F098FF0423011F1A4609B2244800975A
:1027900003F09AFC224803F08DFF0423011F1A4620
:1027A00009B200941E4803F00DFB32010E3293B2C1
:1027B000581D0A3319B200B20A2505238DE82200FC
:1027C0000394029012B21946154803F0A3FC24ACFE
:1027D0006D462046103C09F03BFBAC42F9D129B0D4
:1027E000F0BD00BFFC3501000092FF1F1436010050
:1027F0002C360100443601005C36010074360100BD
:102800008C360100A4360100BC360100D43601002C
:102810000437010034370100DC3701003C38010087
:10282000FC93FF1F1C4909F075FBD0E61B4909F01A
:1028300071FBAFE61A4909F06DFB4FF6E077A1E6B0
:10284000184904A809F066FB92E618A8164909F091
:1028500061FBB4E618A8154909F05CFBAFE618A8BF
:10286000134909F057FBAAE618A8124909F052FBD0
:10287000A5E618A8104909F04DFBA0E618A80F49D5
:1028800009F048FB9BE618A80D4909F043FB96E6C2
:102890000C4909F03FFB92E6543801004C37010027
:1028A0001C370100EC3601002438010064370100B8
:1028B0007C37010094370100AC370100C4370100B8
:1028C0000C380100F437010038B50A4D04464FF6C4
:1028D000FF71284603F0E8FE20460DF051F921462D
:1028E0000246284609F016F92046BDE83840FFF7B1
:1028F0002BBD00BFFC93FF1F38B50A4D04464FF4B3
:102900007841284603F0D0FE20460DF039F92146E3
:102910000246284609F0FEF82046BDE83840FFF799
:1029200013BD00BFFC93FF1F10B50121084C0D2003
:1029300007F0FAFD01210D2007F0E2FD20464FF4DB
:10294000487104F0A3FA2046BDE8104004F0C2BA72
:102950003C94FF1F08B5094804F09AFA00B908BD75
:10296000074A92F8BC30C3F10103DBB282F8BC30F5
:1029700019460D20BDE8084007F0C2BD3C94FF1F7A
:102980000092FF1F08B507F05DFB00210248BDE87B
:10299000084004F06BBA00BF3C94FF1F08B5044820
:1029A000FFF74CFD0348BDE80840FFF7CDBC00BF72
:1029B000A8380100AC38010010B5014604460448AF
:1029C000FFF74EFD21460348BDE81040FFF7BCBCB1
:1029D000C0380100C438010008B50448FFF72EFDD7
:1029E0000348BDE80840FFF7AFBC00BFDC3801007A
:1029F000E038010010B5041E09DD21460748FFF745
:102A00002FFD21460648BDE81040FFF79DBC00D1D0
:102A100010BD61420348FFF723FDF2E708390100CA
:102A2000103901000C39010010B501460446044874
:102A3000FFF716FD21460348BDE81040FFF784BCB0
:102A4000283901002C39010008B50448FFF7F6FCCD
:102A50000348BDE80840FFF777BC00BF3C390100E0
:102A6000403901000148FFF7E9BC00BF50390100BF
:102A700007F0E8BA014B9860FFF79EBF0092FF1F76
:102A8000034A9368C31848BF00239360FFF7B2BF9F
:102A90000092FF1F2DE9F04707461E461046884664
:102AA000BDF820A09DF82490FEF7D4FD26BB00249D
:102AB0003346524641463846FEF796FE0134022818
:102AC0000546E4B203D0F0B92846BDE8F0874FF4DC
:102AD0007A7002F0F1FA4C45EAD3424639461F4873
:102AE000FFF732FC02254C45EED321461C48FFF788
:102AF0002BFC2846BDE8F0874FF4FA624146384681
:102B0000FEF778FFD3E7032810D01DD90A2807D095
:102B10007F2813D1424639461248FFF715FCE2E7F9
:102B2000424639461048FFF70FFCDCE7424639467B
:102B30000E48FFF709FCD6E70228CED042463946B8
:102B40000B48FFF701FCCEE70128F5D1534642467A
:102B500039460848FFF7F8FBC5E700BF203A0100F7
:102B6000403B0100C03A0100883A0100543A01009C
:102B7000F83A0100E4390100A1F1290310B5044637
:102B8000332B7ED8DFE803F02127313741477D4DD5
:102B900053595F656B717D7D7D7D7D7D7D7D7D7D07
:102BA0007D7D7D7D7D7D7D7D7D7D7D7D7D7D7D7D55
:102BB0007D7D7D7D7D777D7D7D7D7D1A3B4B93E8A1
:102BC000030084E80300204610BD394B93E803005E
:102BD00084E80300F7E7374B9B78002B60D0364B37
:102BE00093E8030084E80300EDE7344B93E8030027
:102BF00084E80300E7E72F4B9B78002B4AD0304B4B
:102C000093E8030084E80300DDE72E4B93E803001C
:102C100084E80300D7E72C4B93E8030084E8030023
:102C2000D1E72A4B93E8030084E80300CBE7284B65
:102C300093E8030084E80300C5E7264B93E803000C
:102C400084E80300BFE7244B93E8030084E8030013
:102C5000B9E7224B93E8030084E80300B3E7204B75
:102C600093E8030084E80300ADE71E4B93E80300FC
:102C700084E80300A7E71C4B93E8030084E8030003
:102C8000A1E71A48FFF760FB194B93E8030084E8BB
:102C9000030098E7174B93E8030084E8030092E7EA
:102CA000154B93E8030084E803008CE7D439010056
:102CB000543901000092FF1F5C3901006C3901009A
:102CC00074390100843901008C3901009439010004
:102CD0009C390100A4390100AC390100B43901006C
:102CE000BC390100C4390100CC390100603B01004E
:102CF000DC3901007C3901006439010090422DE982
:102D0000F0410546174688461C460BDC994209DC13
:102D1000124EB6F98C0002F097FE85420EDD0020BF
:102D2000BDE8F0810D4E02F03FFE0D48FFF70CFBB1
:102D3000B6F98C0002F088FE8542F0DCB6F98C0012
:102D400002F082FE8742EADBB6F98E008045E6DCBF
:102D50008442B4BF00200120BDE8F0810092FF1F33
:102D60009C3B010038B5054600F0020080B2002807
:102D700042D10446690733D42A0725D4EB060AD486
:102D80003CB9A80652D469065CD42A063ED4EB05A9
:102D90000DD4204638BD4FF4FA634FF47A7240F2F6
:102DA0005F510020FFF7AAFF2043C4B2E8E74FF4C9
:102DB000FA63184640F6B83240F25F51FFF79EFFC3
:102DC0002043C4B2204638BD40F25F534FF47A72BC
:102DD0004FF452710020FFF791FF2043C4B2CDE7BA
:102DE0004FF4FA6340F2DC5200214FF47A70FFF79F
:102DF00085FF2043C4B2BFE7002108464FF4527359
:102E00004FF47A72FFF77AFF0446B3E740F25F535C
:102E100040F6B8324FF452714FF4FA60FFF76EFF8C
:102E2000EB0540EA0400C4B2B3D5C0E721464FF435
:102E3000527340F6B8324FF4FA60FFF75FFF69064D
:102E40000446A2D54FF4FA631A46002140F2DC5042
:102E5000FFF754FF2A0640EA0400C4B297D5D5E72D
:102E60002DE9F04784B082469DF830900E46174613
:102E70009846A0F12904332C46D8DFE814F0D90095
:102E8000E900C500A5009B008100450070004601D7
:102E900031015601FE001A010C01450045004500B4
:102EA00045004500450045004500450045004500FA
:102EB00045004500450045004500450045004500EA
:102EC00045004500450045004500450045004500DA
:102ED00045004500450045005900450045004500B6
:102EE000450045003400AA48FFF72EFA4FF4F6706B
:102EF000FFF738FF002840F0E4800220FFF732FFA0
:102F0000002800F03D813525514602A8FFF734FE28
:102F1000A048FFF719FACDF8009043463A463146EB
:102F20002846FFF79DFF0028A5D004B0BDE8F08734
:102F30009948FFF709FA4FF4F070FFF713FF0028E4
:102F400040F0BF800220FFF70DFF0028DBD10C20EE
:102F5000FFF708FF002800F013815C25D4E78F48B5
:102F6000FFF7F2F91020FFF7FDFE002840F0A980DE
:102F70000220FFF7F7FE002800F0F3803125C3E7B9
:102F80008748FFF7E1F91C20FFF7ECFE002840F02E
:102F900098800220FFF7E6FE0028EFD14FF49070F2
:102FA000FFF7E0FE0028D8D1C020FFF7DBFE18B302
:102FB0003425A9E77B48FFF7C7F94FF4F070FFF716
:102FC000D1FE0028BED07CE07748FFF7BDF9EC20A9
:102FD000FFF7C8FE002874D10220FFF7C3FE0028C7
:102FE00091D11020FFF7BEFE0028E1D14FF4807090
:102FF000FFF7B8FE0028B0D151466C48FFF7A4F99E
:103000000A2004B0BDE8F0876948FFF79DF9182051
:10301000FFF7A8FE002854D10220FFF7A3FE0028E6
:10302000ACD10420FFF79EFE00287FF46CAFB5E71B
:103030006048FFF789F90620FFF794FE002840D189
:103040000820FFF78FFE002800F0938036255BE70D
:103050005948FFF779F98A20FFF784FE88BB54208E
:10306000FFF780FE00287FF44EAF4FF49070FFF71B
:1030700079FE0028C0D05C2546E75048FFF764F988
:10308000DC20FFF76FFEE0B90220FFF76BFE00289F
:103090007FF439AFE9E74A48FFF756F90A20FFF70E
:1030A00061FE70B9D420FFF75DFE00287FF42BAFDE
:1030B000DBE74448FFF748F9DE20FFF753FE00281E
:1030C000D3D0514602A8FFF757FD039902988DE827
:1030D00000033B463246FFF7DDFC04B0BDE8F08755
:1030E0003948FFF731F9CC20FFF73CFE0028E8D142
:1030F0000220FFF737FE00287FF440AF1020FFF7D3
:1031000031FE00287FF4FFAEAFE73048FFF71CF92F
:10311000DE20FFF727FE0028D3D14FF49070FFF791
:1031200021FE00283FF468AFA5E72948FFF70CF916
:103130004FF4E370FFF716FE0028C2D10820FFF716
:1031400011FE00287FF434AF1020FFF70BFE00289B
:103150007FF4D9AE2020FFF705FE00287FF4FDAEF6
:103160004AE70C20FFF7FEFD00283FF417AF2E259D
:10317000CAE6D020FFF7F6FD00287FF4C4AE74E75E
:103180001020FFF7EFFD00287FF412AF34E700BFF7
:10319000C43C0100D83C0100B43C0100443C0100A7
:1031A000343C0100243C0100143C0100E43C0100DB
:1031B000043C0100E43B0100F43B0100843C0100BD
:1031C000A43C0100943C0100643C0100543C01001B
:1031D000743C010070B59A4282B014461E466D469A
:1031E0008DE803000CD921462846013C06F054FC2A
:1031F000E4B2142001F060FFA642F4D902B070BD21
:1032000021462846013406F047FCE4B2142001F0C0
:1032100053FFA642F4D2F1E706F014BF10B50446FE
:103220000B48FFF77FF8192C0CD05A2C04D1094811
:10323000BDE81040FFF788B821460748BDE81040B8
:10324000FFF782B80548BDE81040FFF77DB800BF22
:10325000DC3D0100FC3D0100F8350100043E0100A9
:1032600010B504461248FFF75DF8282C1BD00DD985
:10327000682C06D0A02C10D10E48BDE81040FFF7F6
:1032800063B80D48BDE81040FFF75EB8252C04D1A7
:103290000A48BDE81040FFF757B821460848BDE886
:1032A0001040FFF751B80748BDE81040FFF74CB891
:1032B0000C3E0100603E0100283E0100203E01005E
:1032C000F8350100703E010010B504461648FFF7BE
:1032D00029F8642C22D008D83C2C1AD0412C0DD1CE
:1032E0001248BDE81040FFF72FB8822C0CD08C2C70
:1032F00004D10F48BDE81040FFF726B821460D481D
:10330000BDE81040FFF720B80B48BDE81040FFF7BC
:103310001BB80A48BDE81040FFF716B80848BDE8DA
:103320001040FFF711B800BF303E0100583E0100C9
:10333000683E0100F8350100403E01004C3E0100AE
:10334000383E010080B584B0FFF7CAF84348444FC7
:10335000DFF83081FFF7B8FA4248FFF7B5FA424884
:10336000FFF7B2FA4148FFF7AFFA4148FFF7ACFA6E
:10337000FEF71EFF3F48FFF7A7FA4FF4967001F0E3
:103380009BFE4FF47A7108460022FEF7EFFBFEF732
:1033900021FAFEF721FF01F0B3FE42F210720F2373
:1033A0008DE80C004FF47A7101231E2240F2DC50AC
:1033B000FFF770FB3048FEF7C7FF97F8A33073B9EB
:1033C0002E48FEF7C1FF642001F076FED8F80030E9
:1033D000029397F8A330029A3A61002BF0D0284864
:1033E000FEF7B2FFD8F800300393142542F21074B0
:1033F000039E8DE83000012364224FF47A713E6110
:103400004FF4FA60FFF746FB8DE83000002364229A
:103410004FF47A714FF4E160FFF73CFB4FF47A719F
:103420000846012364228DE83000FFF733FB4FF498
:10343000487001F041FE4FF4487001F03DFE8DE808
:103440003000002364224FF47A714FF49660FFF746
:1034500021FB4FF4487001F02FFEC3E7783E0100D6
:103460000092FF1F803E0100903E01009C3E010043
:10347000A83E0100B83E0100C03E0100D83E010058
:10348000CC3E0100F0A4FF1F08B50F48FFF71CFA5F
:103490000E48FFF719FAC82001F00EFE4FF47A71BA
:1034A000002240F2DC50FEF761FBFEF793F94FF487
:1034B000FA6007F063F801F023FE40F6B831C82047
:1034C000BDE80840FEF7EEB9DC3E0100E83E010031
:1034D00008B54FF4FA7007F051F8E120FFF7CAFA87
:1034E0004FF4FA6007F04AF81920FFF7C9FA4FF4D1
:1034F000FA6007F043F8FFF7B5FA6FF03100FFF715
:10350000BFFA4FF4FA6007F039F80C48FFF78CFA6D
:103510004FF4FA6007F032F8FFF75EFAFFF7A2FA0D
:103520004FF4FA6007F02AF8FFF78EFA4FF4FA60CA
:1035300007F024F8FFF732FACBE700BFF03E0100B6
:10354000F0B5214D214883B0FEF7FEFE2B7813B174
:103550000C2003B0F0BD1E4E336803275C1C00979F
:103560004FF4FA533460012264213320FFF778FCD2
:10357000044610B1204603B0F0BD0246014640F2B9
:103580006A40FEF737FA06460028F3D14FF4FA6294
:10359000052396218DE80C0040F26A403222012377
:1035A000FFF778FA0B48FEF7CFFE012319202B70A6
:1035B000FFF766FA00974FF4FA533246642133203E
:1035C000FFF74EFC3046C4E78C94FF1F003F01001C
:1035D0005C94FF1F183F01002DE9F041374D38483A
:1035E00082B0FEF7B1FE2B781BB10C2002B0BDE813
:1035F000F081344EF36A03275C1C00974FF4FA53B2
:10360000012264212A20F462FFF72AFC0028EDD170
:1036100041F288368DE8C000012364224FF45271D4
:103620004FF49670FFF736FA044608B12046DDE7FE
:103630004FF4FA624FF4527140F6B830FEF7DAF9FF
:103640004FF4FA6223460092019764224FF45271BC
:10365000F020FFF71FFA04460028E7D1A0211A48FE
:10366000DFF86C8006F018FAA023184688F80030BE
:10367000FFF7F6FD4FF4C87001F01EFD2821124837
:1036800006F00AFA2823184688F80030FFF7E8FD0C
:103690000A20FFF7F5F94FF001080C4885F8008083
:1036A000FEF752FE43468DE8C00064224FF452718B
:1036B0004FF49670FFF7EEF9204697E75394FF1FFB
:1036C000283F01005C94FF1FA094FF1F3C3F0100B6
:1036D0005094FF1FF0B5374C374883B0FEF734FEE7
:1036E000237813B10C2003B0F0BD344D2B68002BB0
:1036F000C8BF0E20F7DC324E73680327581C0097B2
:103700004FF4FA537060012264212A20FFF7A8FBCE
:103710000028E8D18C212B482B4E06F0BDF98C23D4
:1037200018463370FFF7D0FD284B9B78B3B340F6B3
:10373000B8338DE88800322201234FF46B71962054
:10374000FFF7A8F941211F4806F0A6F941231846C2
:103750003370FFF7B9FD0A20FFF792F941F2883084
:1037600001F0AAFC2B681A48083301222B60227052
:10377000FEF7EAFD03230022009364214FF4FA537D
:103780002A20FFF76DFB64210E4806F085F96423BB
:1037900018463370FFF798FD0020A4E740F6B833D1
:1037A0008DE88800322201234FF439719620FFF70B
:1037B00071F9C7E75394FF1F483F0100B094FF1F02
:1037C0005C94FF1F9894FF1F5194FF1F0092FF1FEE
:1037D0005C3F01002DE9F041324D334882B0FEF7E5
:1037E000B3FD2B781BB10C2002B0BDE8F0812F4E49
:1037F0003368002BC8BF0E20F6DC2D4C236A03274C
:10380000581C00974FF4FA532062012264212C20A7
:10381000FFF726FB04460028E6D141212548DFF8C2
:103820009C8006F039F94123184688F80030FFF7EC
:103830004BFD40F6B83332228DE888004FF46B71AF
:10384000012340F62230FFF725F98C21194806F0B4
:1038500023F98C23184688F80030FFF735FD0A203D
:10386000FFF70EF941F2883001F026FC3368124868
:103870000833012233602A70FEF766FD4FF4FA53D5
:103880002246642100972C20FFF7EAFA64210948B8
:1038900006F002F96423184688F80030FFF714FD9B
:1038A0002046A1E75294FF1F683F01004C94FF1F80
:1038B0005C94FF1F9894FF1F803F01005194FF1FED
:1038C0002DE9F0433F4D404883B0FEF73DFD2B7896
:1038D0001BB10C2003B0BDE8F0833C493C4ACB69E6
:1038E000977840F6F2005A1C032640F6BA14009668
:1038F000002F14BF07462746CA614FF4FA5301222E
:1039000064215620FFF7ACFA0028E3D140F6B8381E
:103910000196CDF800800123642240F2D66138463A
:10392000FFF7B8F804460028D4D141212948DFF830
:10393000B09006F0B1F84123184689F80030FFF73F
:10394000C3FC3222012340F23A710196CDF8008087
:103950003846FFF79FF88C211E4806F09DF88C230F
:10396000184689F80030FFF7AFFC0A20FFF788F807
:1039700041F2883001F0A0FBDFF868E01649DEF87C
:1039800000200B6815480432CEF8002004330122D1
:103990000B602A70FEF7D8FC2346642240F2D66101
:1039A0000196CDF800803846FFF774F86421094885
:1039B00006F072F86423184689F80030FFF784FC9B
:1039C000204687E75794FF1F903F01005C94FF1F3C
:1039D0000092FF1F9894FF1F4C94FF1FA83F010007
:1039E0005194FF1FB094FF1F2DE9F041A14DA24853
:1039F00082B0FEF7A9FC2B781BB10C2002B0BDE809
:103A0000F0819E4EB36803275C1C00974FF4FA5375
:103A1000012264212E20B460FFF722FA0028EDD1A4
:103A200040F6B833964E8DE888006422012340F2B8
:103A3000EA61E620FFF72EF8B378002B40F0D5803E
:103A40009048DFF85882282106F026F828231846E7
:103A500088F80030FFF704FC8B48FEF763FC4FF456
:103A6000FA620021E620FDF7C5FF40F2DC52052393
:103A70008DE80C004FF4FA6100236422E620FFF782
:103A800009F8012800F0DE80032340F6B8346422F0
:103A900040F2EA61019300940123E620FEF7FAFF69
:103AA0007A48FEF73FFC4FF4FA6240F2EA612046A2
:103AB000FDF7A0FF052140F2DC52002301910092A6
:103AC0001846322240F2EA61FEF7E4FF012800F0D6
:103AD000AF8040F6B83403270123642240F2EA6144
:103AE0008DE89000E620FEF7D5FF8DE890000123D9
:103AF00064224FF4C86140F21110FEF7CBFF00289A
:103B00007FF47CAF4FF4FA624FF4AF614FF4AD70C5
:103B1000FDF770FF00287FF471AF0224B378002B0B
:103B200070D05848A02105F0B7FFA023184688F8A8
:103B30000030FFF795FB40F6B83203238DE80C0008
:103B40004FF4E16100236422C820FEF7A3FF0028A0
:103B50007FF454AF01464FF4FA62C820FDF74AFFE4
:103B600000287FF44BAF05224FF4FA6103468DE83D
:103B70000600C8206422FEF78DFF01286ED044485D
:103B8000FEF7E2FBB378002B47D03E48282105F032
:103B900083FF2823184688F80030FFF761FB4FF4B5
:103BA000C87001F089FA013CB8D1012639482E705D
:103BB0000A27FEF7C9FB41F288353220FEF760FF85
:103BC000334664224FF4E1618DE8A000C820FEF77F
:103BD00061FF8DE8A000334664224FF4C86140F2D3
:103BE0001110FEF757FF204608E7A0212548DFF80F
:103BF000AC8005F051FFA023184688F80030FFF78D
:103C00002FFB29E728211F4805F046FF28231846E7
:103C100088F80030FFF724FB8DE7A021194805F054
:103C20003BFFA023184688F80030FFF719FBB6E7E2
:103C3000962001F0D5FE0AF0D7FEF0671648FEF791
:103C400083FB46E740F23A7001F0CAFE0AF0CCFE70
:103C5000C6F880001048FEF777FB15E740F23A708F
:103C600001F0BEFE0AF0C0FEC6F880000A48FEF76A
:103C70006BFB84E78D94FF1FB83F01005C94FF1F2E
:103C80000092FF1FA094FF1FD03F0100E43F0100FE
:103C9000F83F01000C4001001C3501005094FF1F4B
:103CA000F0B50546314E324883B02946FEF74CFB4D
:103CB000745D14B10C2003B0F0BD012D0DD0022DA8
:103CC00002D095B30B20F6E72A4A93690F200233FE
:103CD0009361FEF757FB2046EDE7264C63690A2700
:103CE000981C00974FF4FA5360612A4664213020F3
:103CF000FFF7B6F80028DED14FF4FA538DE88800BC
:103D000050222B464FF4AF714FF41970FEF7C2FEEC
:103D100004460420FEF7B4FE174A012353550CB1A4
:103D20002046C8E773552046C5E7124C23690A2789
:103D3000981C00974FF4FA5320610122642135202A
:103D4000FFF78EF80028B6D14FF4FA538DE88800BB
:103D5000502201234FF4AF7140F25230FEF79AFE29
:103D600004460420FEF78CFED6E700BF5494FF1FE4
:103D70003C4001005C94FF1F5894FF1F10B504469F
:103D800030B90146064805F087FE064B1C7310BD8E
:103D9000FF21034805F080FE024B1C7310BD00BFDD
:103DA0009094FF1F0092FF1F08B506483C2105F0C4
:103DB00073FE054A3C2313701846BDE80840FFF720
:103DC00083BA00BF9894FF1F5194FF1F08B506489F
:103DD000822105F061FE054A822313701846BDE872
:103DE0000840FFF771BA00BF9894FF1F5194FF1F5E
:103DF0002DE9F047814D824882B0FEF7A5FA2B7875
:103E00001BB10C2002B0BDE8F0877E4E3368042B56
:103E100003DD0E2002B0BDE8F0877B4F3B68042B2A
:103E2000F7DC7A4CE3684FF0030A581CCDF800A089
:103E30004FF4FA53E060012264212B20FFF710F8C1
:103E400004460028DED141217148DFF8CC9105F00D
:103E500023FE4123184689F80030FFF735FA40F673
:103E6000B83332228DE8080440F23A71012340F25F
:103E70006220FEF70FFE8C21654805F00DFE8C23B5
:103E800018464FF0640889F80030FFF71DFA4146E4
:103E90005F4805F001FE404689F80080FFF714FAFC
:103EA0004FF4487001F008F9FFF77EFF4FF44870B7
:103EB00001F002F94146564805F0EEFD404689F80A
:103EC0000080FFF701FA4FF4487001F0F5F8FFF7B2
:103ED0007DFF4FF4487001F0EFF841464C4805F083
:103EE000DBFD404689F80080FFF7EEF94FF448709B
:103EF00001F0E2F8FFF758FF4FF4487001F0DCF8EA
:103F00004146434805F0C8FD404689F80080FFF768
:103F1000DBF94FF4487001F0CFF8FFF757FF4FF48B
:103F2000487001F0C9F84146394805F0B5FD4046F2
:103F300089F80080FFF7C8F94FF4487001F0BCF829
:103F4000FFF732FF4FF4487001F0B6F841463048B1
:103F500005F0A2FD404689F80080FFF7B5F94FF45F
:103F6000487001F0A9F8FFF731FF4FF4487001F0F5
:103F7000A3F84146264805F08FFD404689F80080A9
:103F8000FFF7A2F94FF4487001F096F8FFF70CFF25
:103F90004FF4487001F090F841461D4805F07CFD53
:103FA000404689F80080FFF78FF94FF4487001F020
:103FB00083F8FFF70BFF4FF4487001F07DF841469E
:103FC000134805F069FD404689F80080FFF77CF949
:103FD00032683B680F4804320433012132603B6091
:103FE0002970FEF7B1F94146CDF800A04FF4FA531D
:103FF00022462E20FEF734FF204603E7B494FF1F2D
:104000007C400100B094FF1F4C94FF1F5C94FF1F85
:104010009894FF1F904001005194FF1F08B5FDF7D1
:1040200021FB0848FEF790F91921074805F034FDF7
:104030001923064A18461370FFF7F0F8BDE8084048
:1040400001F0BABC9C400100A894FF1F4894FF1FD8
:1040500008B51148FEF778F95A21104805F01CFD03
:104060005A230F4A18461370FFF7D8F825210D4838
:1040700005F012FD25230C4A18461370FFF7F0F8DF
:104080000A48642105F008FD094A642313701846A4
:10409000BDE80840FFF718B9B4400100A894FF1F1D
:1040A0004894FF1FA094FF1F5094FF1F9894FF1F78
:1040B0005194FF1F00B583B0FEF712FA3048FEF7A7
:1040C00003FC304B9B78002B55D12F48FEF7FCFBAF
:1040D0002E48FEF7F9FB2E48FEF7F6FB2D48FEF7BB
:1040E000F3FB2D48FEF7F0FB2C48FEF79DFC2C4817
:1040F000FEF7EAFB40F2DC5000F0DEFFFFF7A8FF1E
:104100000020FEF7B7FC2748FEF7DEFB2648FEF747
:10411000DBFB2648FEF7D8FBFEF74AF82448FEF7FB
:10412000D3FBC82000F0C8FF00224FF4FA7196209C
:10413000FDF71CFDFDF74EFBFEF74EF800F0E0FF2B
:104140004FF4617000F0B8FF1448FEF76DFC4FF4B7
:10415000FA71322242F21073019200930846012351
:104160006422FEF797FC0120FFF79AFD03B05DF88B
:1041700004EB00F0D9BF0F48FEF7A6FBA8E700BF8D
:10418000D04001000092FF1FEC400100E43E01001E
:1041900000410100144101002841010034410100A7
:1041A000803E0100903E01009C3E01006041010004
:1041B00070410100DC40010070B50446164651B163
:1041C0000B4D0C4B2A7893E803002346FFF702F8C7
:1041D0002C7046B970BD064D0146064805F05CFCE2
:1041E0002C70002EF6D02046BDE87040FFF716B8C0
:1041F0004894FF1FA894FF1F70B5044682B03A4848
:10420000FEF7A2F82CB9394B1B6813B90C2002B089
:1042100070BD374DAB6A0A225C1C00924FF4FA5312
:10422000AC62012264212E20FEF71AFE044610B172
:10423000204602B070BD03254FF47A660123322276
:1042400040F2DC510195009640F21450FEF722FC3A
:10425000019500962346642240F2DC5140F2A640CC
:10426000FEF718FC0028D2D10246014640F2A640D3
:10427000FDF7C0FB04460028DAD10346009632223F
:1042800040F23B61019540F2A640FEF703FC01229B
:1042900011461920FFF790FF41F2883000F00CFF23
:1042A0005A211448114E05F0F7FB5A23124A1846BA
:1042B0001370FEF7B3FF40F6B833642240F2DC51CE
:1042C0008DE8280040F2A6400123FEF7E3FB3068AA
:1042D00000EB80004000FEF7D3FB08483460FEF797
:1042E00033F8204693E700BF784101004C94FF1F4C
:1042F0005C94FF1FA894FF1F4894FF1F9441010086
:1043000010B50B284CD8DFE800F00F13171B1F2443
:10431000292E32364606FFF75FF904462046FEF79F
:1043200031F8A4BB002010BDFFF70AF90446F5E7F9
:10433000FFF7D0F90446F1E7FFF756FB0446EDE737
:10434000FFF756FD0446E9E70020FFF7A9FC044605
:10435000E4E70120FFF7A4FC0446DFE70220FFF7B3
:104360009FFC0446DAE7FFF7ABFA0446D6E7FFF70F
:1043700031FA0446D2E70D48FDF7E6FF0C4B1B6807
:10438000002B0CBF0C240E242046FDF7FBFF0C2C49
:10439000C8D0204610BD0020FFF72EFF0446BDE721
:1043A00001460448FDF7D0FF0B24EDE72040010053
:1043B000B094FF1FAC410100F0B5664C87B0FEF72A
:1043C0008FF8FEF78DF86448FEF77EFAA378002B8D
:1043D00000F0BC806148FEF777FA6148FEF774FA96
:1043E0006048FEF771FA6048FEF76EFA5F48FEF724
:1043F0006BFA5F48FEF768FA5E48FEF765FA5E48BA
:10440000FEF762FA5D4B93E8070006AD0C3305E951
:10441000070093E8030001AB83E80300FFF718FEF1
:104420004FF4FA7000F048FE5548FEF74DFAFDF7DC
:10443000BFFE5448FEF748FAC82000F03DFEA378BE
:10444000002B7CD000224FF4FA71FA20FDF78EFB8E
:10445000FDF7C0F9FDF7C0FE00F052FE4FF4FA7010
:1044600000F02AFE0020FEF705FBA37842F210714F
:10447000002B60D04FF4AF70FDF714FA0520FEF763
:10448000FFFA0520FEF7FCFA1D20FEF7F9FA3E4878
:104490003E4D3F4E3F4FFDF757FF03240134022CA2
:1044A00042DC06AB03EB840353F80C0CFFF728FF48
:1044B0002B78002BF2D03378002BEFD07B78002BB9
:1044C000ECD0354E0920FFF71BFF0A20FFF718FF3D
:1044D0003368002BF6D13148314DFDF735FF02240A
:1044E000304834B3FDF730FF002406AB03EB840300
:1044F00053F8140CFFF704FF2B78002BF0D033682F
:10450000002BEDD10120FFF777FE1921264805F099
:10451000C3FA1923254A18461370FEF77FFE07B029
:10452000BDE8F04000F000BE2148FDF70DFF00247B
:10453000B7E70124D9E71F48FDF7B4F99EE71E4A03
:104540004FF4FA719620FDF711FB81E71B48FEF747
:10455000BBF942E70092FF1FD0410100DC4001009F
:10456000E43E0100803E0100DC410100903E01007C
:104570009C3E010060410100F4410100C83D010082
:104580000842010070410100104201008D94FF1F9C
:104590005394FF1F5494FF1F4C94FF1F3842010097
:1045A0005794FF1F48420100A894FF1F4894FF1F23
:1045B000204201003EFEFFFFDB0F4940EC400100BE
:1045C000F8B5184B184C1949194AC3F8CC40C3F830
:1045D000D0100025174F184E1848C3F8D8704FF464
:1045E000FA741121A3F8A040C3F8E0601D70C3F86D
:1045F000D420C3F8DC20124C05F048FA21211148E0
:1046000005F044FA0921104805F040FA204605213A
:1046100005F03CFA2946204605F03EFABDE8F84090
:10462000FFF716BD0092FF1F0000444100C0544533
:10463000CDCCCC3DCDCC4C3F6666E63FA894FF1F69
:104640009094FF1FA094FF1F9894FF1F08B505F0DA
:10465000F9FC074805F09AF9064805F097F906486D
:1046600005F094F90548BDE8084005F08FB900BF92
:10467000A894FF1FA094FF1F9894FF1F9094FF1F02
:1046800010B504460E48FDF74DFE372C13D03C2CD8
:104690000CD01D2C05D021460A48BDE81040FDF77E
:1046A00053BE0948BDE81040FDF74EBE0748BDE8BF
:1046B0001040FDF749BE0648BDE81040FDF744BE76
:1046C00060420100F8350100203E01007C420100FB
:1046D0008442010008B50F48FEF7F6F800224FF4B7
:1046E0007A7140F2DC50FDF741FAFDF773F84FF4B0
:1046F000FA6005F043FF00F003FD01234FF4FA6276
:104700004FF4487140F2DC50FDF76EF8BDE8084008
:1047100001F052B9E83E0100704700BF70B582B0A9
:1047200037480524FDF710FE41F288330122642149
:1047300000943320FEF794FB3C210546314805F0F8
:10474000ABF93C20FFF79CFF15B1002002B070BD13
:104750002A46294640F26A40FDF74CF906460028F1
:10476000F3D1372127484FF4FA6505F095F9372042
:10477000FFF786FF0194009501236422502140F247
:104780006A40FEF787F933460095019464224FF49E
:10479000D27140F26A40FEF77DF900950194012341
:1047A000642250214FF48760FEF774F93346009578
:1047B000019464224FF4D2714FF48760FEF76AF9D6
:1047C00000950194012364224FF4D27140F29C4081
:1047D000FEF760F90095019401236422502140F214
:1047E0009C40FEF757F900950194334664224FF43C
:1047F000D27140F29C40FEF74DF9642002B070BDCA
:1048000094420100B894FF1F70B5044682B00D4673
:1048100072482146FDF798FD022C09DD21467048BB
:10482000FDF792FD0B20FDF7ADFD642002B070BDD9
:104830006C483C2105F030F93C20FFF721FF15B30F
:104840003C2D16D1684B53F8340040F24C42A0F195
:10485000C801914207D803EBC4035968A1F56173FD
:10486000C82B40F2AD800A20FDF78CFD642002B019
:1048700070BD0B20FDF786FD29465C48FDF764FD01
:10488000002002B070BD012C0FD0022C0DD08CB1D5
:10489000012C69D0022C4AD04CB3012C72D0022CCE
:1048A00053D0002C7DD06420C0E70F20FDF76AFDB7
:1048B0006420BBE741F2883303258DE82800642299
:1048C00001234FF42A7140F26A40FEF7E3F8002812
:1048D000D6D140F6B8338DE82800642201234FF486
:1048E000487140F25230FEF7D5F80028C8D14FF495
:1048F000FA5206238DE80C0096210123502240F243
:104900005230FEF7C7F800284BD03949364BB1F981
:104910008E60B1F98C20374843F8342003EBC4058E
:10492000214633466E60FDF70FFD3C207EE74FF4D5
:10493000FA5206238DE80C009621012350224FF4F1
:104940002F70FEF7A7F80028DFD14FF4FA520423A6
:104950008DE80C004FF4C871002350224FF42F70E3
:10496000FEF798F8642061E74FF4FA5206238DE8C9
:104970000C0096212346502240F22620FEF78AF8AA
:104980000028C2D14FF4FA5204238DE80C004FF4F2
:10499000C8710023502240F22620FEF77BF86420E5
:1049A00044E74FF4FA5204238DE80C004FF4C87129
:1049B0000023502240F25230FEF76CF8642035E7B5
:1049C00041F2883203238DE80C0001236422FEF7B4
:1049D00061F800283FF45CAF284627E7B4420100A5
:1049E000D0420100B894FF1F2887FF1F0043010039
:1049F0000092FF1F1C43010010B582B0FDF770FD4F
:104A00002E48FDF761FF2E4B9B78002B51D12D488E
:104A1000FDF75AFF2C48FDF757FF2C48FDF754FFD0
:104A20002B48FDF751FF2B48FDF74EFF2A48FDF7B5
:104A30004BFF2A48FDF748FF4FF4FA7000F03CFBAB
:104A40002748FDF741FFFDF7B3FB2648FDF73CFF84
:104A50004FF47A7000F030FB00229F216520FDF7B3
:104A600085F8FCF7B7FEFDF7B7FB4FF4FA5000F0FE
:104A700023FB42F210741423019300940123642257
:104A8000B321C820FEF706F80A22234600926421CB
:104A900001223320FEF7E4F900210846FFF7B4FEB7
:104AA00000F02EFB4FF4FA7002B0BDE8104000F0A9
:104AB00003BB0D48FDF708FFACE700BF384301001A
:104AC0000092FF1FEC400100E43E0100803E010027
:104AD000903E01009C3E010060410100F441010054
:104AE00008420100B83E0100DC40010008B5FCF7B7
:104AF000B9FD0248BDE80840FDF726BC444301006B
:104B000008B50648FDF720FC05481D2104F0C4FF48
:104B10001D20BDE80840FFF7B3BD00BFB440010051
:104B2000B894FF1FF0B54A4C85B0FDF7D9FC494851
:104B3000FDF7CAFEA378002B7FD04748FDF7C4FEDF
:104B40004648FDF7C1FE4648FDF7BEFE4548FDF765
:104B5000BBFE4548FDF7B8FE4448FDF7B5FE4448A6
:104B6000FDF7B2FE4FF4FA7000F0A6FAFFF7C8FFA7
:104B70004048FDF7A9FEFDF71BFB3F48FDF7A4FEEB
:104B8000C82000F099FAA378002B4FD000229F2173
:104B90006520FCF7EBFFFCF71DFEFDF71DFB00F0A9
:104BA000AFFA4FF4FA7000F087FA00234FF4FA508E
:104BB0000393029305F0E2FC3048FDF7C5FBA378B0
:104BC000002B3ED1002426465CB303990020FFF75A
:104BD0001BFE039004AB1E44214656F8082C2848BF
:104BE000FDF7B2FB032784F00104A60004AB3344B5
:104BF000214653F8085C23482A46FDF7A5FB642D9F
:104C0000E2D1013FEFD10A230093294642F210730B
:104C100001223320FEF724F905B0BDE8F04000F092
:104C200083BA0298FFF77AFD0290D3E7164A9F21D4
:104C300040F22B10FCF79AFFADE71448FDF744FE55
:104C40007EE742F210716320FCF72CFEBAE700BF4A
:104C50000092FF1F38430100DC400100E43E0100E8
:104C6000803E0100903E01009C3E01006041010039
:104C7000F441010008420100B83E01005843010020
:104C8000744301008C430100DB0F4940EC400100FC
:104C9000F0B40F4B0F4A1048104F114D114CC3F890
:104CA000CC204FF07F56012140F2EE221970C3F85C
:104CB000D000C3F8D470C3F8D860C3F8DC50C3F890
:104CC000E0401D210848A3F8A020F0BC04F0DEBE9F
:104CD0000092FF1F0000444100F009459A99193ED7
:104CE000EC51B83DCDCC8C3FB894FF1F08B505F012
:104CF000A9F90248BDE8084004F048BEB894FF1F77
:104D000070B50E4D82B02B680093009EFDF73AFA05
:104D10000446FDF72FFA002CF8D10028F6D1052023
:104D200005F02CFC2B6801930198801BB0F57A7F6D
:104D300094BF0020012002B070BD00BFF0A4FF1F8F
:104D400010B5084C6378B3FA83F35B091946012068
:104D5000637005F0D9F96378B3FA83F35B09A37044
:104D600010BD00BF0092FF1F2DE9F041012005F0AA
:104D7000B1F9A54FA54C7870B0FA80F35B09022019
:104D8000BB7005F0A7F97871002005F0A3F984FB4A
:104D90000036C317C3EB660606EBC606861B304615
:104DA000FDF7B6FBA046FDF7EDF90546FDF7E2F984
:104DB00004468DBB0028F6D09548FDF7C5FA0520BE
:104DC00005F0DCFBFFF79CFF9248FDF7BDFA072ECC
:104DD000E9D801A353F826F0E94E0000F54E000093
:104DE000A74D0000974E0000A74D0000F94D0000B0
:104DF000AD4E00006B4E00007B79013303F00703DA
:104E000005207B71FDF784FBFDF7BCF90546FDF736
:104E1000B1F90446002DCDD00028C4D17E48FDF75D
:104E200093FA052005F0AAFB731C88FB0326DA170A
:104E3000C2EB660606EBC6069E1BF1B2204605F0E5
:104E400063F93046FDF764FBFFF75AFF002800F0D6
:104E5000C3807248FDF778FA2146204605F054F9E0
:104E60002046FDF755FB26469DE73B7983F001037D
:104E70003B71FDF735FB6A48FDF726FD3B79002BBA
:104E800091D0684A4FF47A7140F2DC50FCF76EFE24
:104E9000FCF7A0FC87E73B7B002B00F0A180002003
:104EA000FEF76CFF0320FDF733FB7CE779790220E6
:104EB00005F02AF9FDF714FB7B79072B3FF673AF5A
:104EC00001A252F823F000BFB14F0000594F00007B
:104ED000A74D0000854F0000474F0000354F0000F0
:104EE000294F0000014F00003B78002B7CD0FFF7DA
:104EF00019FE58E7FFF724FF0120FDF709FB52E7F1
:104F00004948FDF7E1FC00224FF47A7140F2DC5091
:104F1000FCF72CFE00F0F4F8FCF75CFC0023BB73FC
:104F20000A2005F02BFBFBE74048FDF7CDFCFEF720
:104F300009FA38E73B78002B5FD03D48FDF7C4FC09
:104F4000FFF7EAFB2FE73B48FDF7BEFC3B78002B61
:104F50004DD0FFF751FD26E73748FDF7B5FC4FF47C
:104F60007A71084600230022FB73FCF7FFFD6422E0
:104F70001146324800F052F900214FF49670FCF7C8
:104F800079FBFEE72E48FDF79FFC00231A461946E1
:104F90004FF47A70FCF728FC41F288312948FCF77D
:104FA000DFFC00231A4619461846FCF71DFCFEE7F5
:104FB000FCF710FC2448FDF787FC2448FDF784FC2F
:104FC0002348FDF781FC40F6B83005F0D7FA3B786E
:104FD00083B1FFF77FFBE6E61E48FDF7B5F9E2E691
:104FE0000120FEF7CBFE5DE7FFF7E6F9DBE6FFF712
:104FF00061F8D8E6FEF748FAD5E61748FDF764FCF5
:10500000FEF766FACFE600BF0092FF1F398EE33845
:10501000E4430100F4430100AC430100BC43010040
:1050200090440100DB0FC93F7C4401007044010043
:10503000EC37010058440100384401002C92FF1F56
:1050400048440100DB0FC94004440100144401003E
:1050500028440100D44301006844010004F0F2BF79
:1050600010B5114A114C1268236982B003F5BF33A1
:105070000192019AD0339B1AF92B01DD02B010BDC9
:105080000B48FDF761F923780022226143B1FFF755
:105090002DFD0848FDF758F90A2005F06FFAFBE7E7
:1050A000FEF7BCFFF5E700BFF0A4FF1F0092FF1F53
:1050B000A4440100C4440100F0B50F4D83B02B6837
:1050C0000093009E2B680193019B9B1B984211D972
:1050D00004460A4F08E00A2005F050FA2B680193B5
:1050E000019B9B1BA34205D23B69002BF3D0FFF72A
:1050F000B7FFF0E703B0F0BDF0A4FF1F0092FF1F61
:1051000000B5064A064B1268064883B00192019A20
:105110001A61FDF719F903B05DF804FBF0A4FF1F55
:105120000092FF1FD444010030B50D4D0D4C2B698A
:1051300022680D4883B003F5BF3301920199D03343
:10514000591AFDF701F922682B690092009803F5BE
:10515000BF33D033181AFFF7AFFF03B030BD00BF25
:105160000092FF1FF0A4FF1FE444010004F06ABF97
:10517000011E08B508DB162005F0C4F80021182030
:10518000BDE8084005F0BCB94942162005F0BAF860
:1051900001211820BDE8084005F0B2B9011E08B58C
:1051A00008DB172005F0AEF801211920BDE8084002
:1051B00005F0A6B94942172005F0A4F800211920EE
:1051C000BDE8084005F09CB908B50121162005F09E
:1051D000ABF90121182005F0A7F90121172005F0EE
:1051E000A3F90121192005F09FF90020FFF7C0FF66
:1051F0000020BDE80840FFF7D1BF00BF04F022BF88
:105200000023036043608360C36003614361836183
:10521000704700BF80E80600704700BF8160C26031
:10522000704700BF2DE9F04FD0F80890C56883B0F3
:1052300002464B4605B16D42D2F814B05668D2F81A
:105240000080D2F810E0CBEB0107002E54D0002FE5
:10525000C6F1000652DD06FB06FCBCF1000F4FEA6A
:105260004703B8BF0CF1030C06FB03F3C3EBAC0C14
:105270000CF101046408631E012B88BF584640F2FC
:10528000A480BCFBF4F323445B08C4EB030ABAF12B
:10529000010F1C46F5D8834603FB03F4A44538BF31
:1052A000584605D2013B03FB03F4A445FAD38346D9
:1052B00006EBD67403EB64034B45A8BF4B4673451E
:1052C0005BDDB8F1000F05D0CEEB0304A04501DA99
:1052D00008EB0E03754569DA002E59D1BB425FDB3E
:1052E000BD42C6BF0BEB05002F4608461761506153
:1052F000916103B0BDE8F08F002FE0DC002FDED01D
:10530000B8F1000F5ED008EBD874641008FB08FAFF
:105310006442BAF1000F01944FEA4704B8BF0AF1A2
:10532000030A08FB04F4C4EBAA0A0AF1010C4FEAD1
:105330005C0C0CF1FF34012C88BF584647D9BAFBEE
:10534000FCF464446408CCEB040BBBF1010FA446ED
:10535000F5D8834604FB04FCE24538BF584605D225
:10536000013C04FB04FCE245FAD383460198041B8C
:10537000A542B8BF2546F145A6DC7345AADA9EB121
:10538000CEEB0304B44201DA06EB0E0375450DDAE9
:10539000CEEB0504B442A1DABB420EEB06059FDA60
:1053A0000BEB03001F46A1E7754597DB754595DDBF
:1053B000B8F1000F92D0CEEB0504A045B8BF08EBC2
:1053C0000E058BE7F14585DCD7E7234664E76446A5
:1053D000C0E700BF04F036BE00207047704700BF32
:1053E0002DE9F04F604A614BB2F98C20DFF894A1AF
:1053F00091B0994609925C4A0F93D2F890200A9294
:10540000594AB2F98E200B92574AB2F8A0200C925A
:10541000554A002392F8A3200E924FF0860B0D936D
:10542000D0460BF127039BB24E2B0FFA8BF466D8B4
:10543000B8F800300893184608F08EFECDE9040154
:10544000204609F0D1FA4A4909F0D6FB494909F04A
:105450001FFB0A9909F014FA08F090FECDE9060145
:1054600007F002F8064609980F4608F075FE324626
:1054700004460D463B46DDE9040108F0D3FE024632
:105480000B462046294608F01BFD09F07BF98246B1
:10549000C9F808A0DDE9060107F030F806460B98C8
:1054A0000F4608F059FE324604460D463B46DDE9FC
:1054B000040108F0B7FE02460B462046294608F0D4
:1054C000FFFC09F05FF9AAF1C90A40F626218A45D6
:1054D000A0F1C902C9F80C0011D8089B40F23E6146
:1054E0005B3B8A429BB20AD840F6B452934206D83C
:1054F000089B0C9A934202D201230D930E930BF159
:10550000FF3B1FFA8BFB4FF679739B4509F10809A6
:1055100008F1020885D10D9B03BB134B1B79D3B156
:10552000154E164D0F9F0024104B7A6815F8010F89
:1055300036F8021F53F83430029001910092214650
:10554000C4F187020E480134FCF7FEFEB4F5877FF4
:1055500007F10807E8D111B0BDE8F08F024B9DF8C4
:10556000382083F8A320D8E70092FF1FC094FF1FC4
:1055700000003443DB0F49402E9DFF1F4B9FFF1F50
:105580004C450100329DFF1F1A491B4B0A681B48FE
:10559000F0B542F480521A4D1A4E1B4C0A60DFF8E7
:1055A0008CE01D6019491A4FC3F80CE04FF40072EB
:1055B00001251F613260257018600B78D90715D45A
:1055C000144A4FF4107111609A0754BF124A134ADB
:1055D0005B074FF4007154BF114B124B116054BF65
:1055E0004FF410724FF400721A60F0BD0E490A6059
:1055F000EAE700BF3C80044000C00240000C1F806E
:1056000001401F8010B00440C4A6FF1FBCA6FF1FAE
:10561000000001F818B004401CB004400CC0044065
:1056200014B0044004C0044008C00440000001B8A5
:1056300030B585B004F022F8002838D01D4A1E4B42
:1056400051681E481E4A1F4D0391002402A9C3F849
:10565000A440C3F8A840C3F8AC40C3F8B040C3F8B6
:10566000B440029201F074FFFA2302A9022217202B
:105670008DF809308DF8084003F096FB28881E301D
:10568000042302A9012280B28DF8083003F08CFBBC
:10569000288804A900F58F7001F8094D012280B215
:1056A00003F082FB4FF4FA7004F068FF012005B0AC
:1056B00030BD00BF28A4FF1F0092FF1F4487FF1FBB
:1056C000784E0100A0A4FF1F00B583B0FFF75CFF78
:1056D000074A084B5268019269464FF40462064833
:1056E000009302F06DF8C0B203B05DF804FB00BF98
:1056F0005CA0FF1F784E010018A4FF1F10B5174CC7
:10570000FFF742FF2046022101F04EFF2046022112
:1057100001F04AFF2046022101F046FF2046022107
:1057200001F042FF2046002101F03EFF204600210B
:1057300001F03AFF2046002101F036FF20461121FA
:1057400001F032FF20460649112201F0C7FF204632
:105750003321BDE8104001F027BF00BF18A4FF1F90
:105760005446010008B5154B1A78022A01D00020D2
:1057700008BD5A78022AFAD19A78022AF7D1DA7843
:10578000022AF4D19979DB7940F29F3203EB0121AF
:10579000914202D0B1F56A7F04D1B0F56A7F06DB91
:1057A000012008BD0648FCF7CFFD002008BD0146DA
:1057B0000448FCF7C9FD002008BD00BF64A0FF1F1E
:1057C00080450100C04501002DE9F047DFF868E0A1
:1057D0004FF6FF730239AEF8B830AEF8BA30013A7E
:1057E00000F28B260D46F446002340F6B45800EB39
:1057F00043049FB294F8579094F8584004EB09245E
:1058000025F8024F16F8014F02F8014F31F8024F08
:10581000BEF8BAA0A4F15B09A2451FFA89F905D91F
:10582000C14503D8ACF8BA40ACF8B8700133B3F551
:10583000877FDCD1BDE8F0870092FF1F70B5254D52
:105840002B786BB1244B254A1B78002182F8A310DA
:105850001BB900242C70204670BDFFF7C1FDF8E78E
:10586000FFF792FE40F2B1321D491E4801F052FF8F
:10587000421C012A034617D9184ED6F8B420C6F8A0
:10588000B0001344C6F8B430FFF76CFF0446A0B96B
:10589000D6F8AC300133C6F8AC30124801F042FF04
:1058A0000130FAD1204670BD0C4AD2F8A430012450
:1058B0000133C2F8A430204670BD0B4A0B4908489A
:1058C000FFF782FFD6F8A83001242344C6F8A83099
:1058D0002C70C0E7BE94FF1F4087FF1F0092FF1F80
:1058E00064A0FF1F18A4FF1F4C9FFF1F309DFF1FC8
:1058F000F8B504F0A7FB0E490E4A0F4B0F4808609D
:10590000C02502240127CC711060A82400200D714D
:10591000157104250A4ED7714C714FF47A77547182
:1059200088719071187118735D739F601E60F8BD67
:1059300028A4FF1F5CA0FF1F18A4FF1F784E0100C2
:10594000884C010008B51A2006F054FA0248BDE858
:10595000084001F0BFBA00BF34A4FF1F38B50C489F
:1059600001F096FA48B10B4C236883B11D882DB91C
:105970001A2006F03FFA256038BD38BD29460022BE
:105980001A2006F0A5F923680233236038BD38BD1C
:1059900034A4FF1F30A4FF1F014B024A1A60704756
:1059A00030A4FF1F68460100014B024A1A6070478D
:1059B00030A4FF1F74460100014B024A1A60704771
:1059C00030A4FF1F7C46010008B504F03BFB6421B6
:1059D0000248BDE8084001F049BA00BF34A4FF1FE7
:1059E00008B509F001F8044BD3F8CC1009F050F8D1
:1059F00009F014FA08BD00BF0092FF1F08B508F0B7
:105A0000F3FF044BD3F8CC1009F0F6F809F006FACE
:105A100008BD00BF0092FF1F08B5044BD3F8D0109B
:105A200009F036F809F0FAF908BD00BF0092FF1F2F
:105A300008B508F0D9FF034BD3F8D01009F0DCF813
:105A400008BD00BF0092FF1F044BDA7822B95B78D3
:105A500013B1C0F53B600830704700BF0092FF1FD4
:105A6000154BDA7832BB5B7823B310B50146134887
:105A700008F004FF1249044609F0A8F948B120468D
:105A8000104908F0FDFE0E49044609F09FF9002870
:105A9000F5D10A49204609F0B7F948B1204609492D
:105AA00008F0ECFE0549044609F0AEF90028F5D1EE
:105AB000204610BD704700BF0092FF1FDB0F49401A
:105AC000DB0F49C0DB0FC9402DE9F041181A16461B
:105AD000884608F041FB069F04460D46C8EB0700C8
