:1000000000800020BD010000B18900007D89000052
:100010007D8900007D8900007D8900007D890000C8
:100020007D8900007D8900007D890000B189000084
:10003000B18900007D890000B18900006D89000050
:10004000B1890000B1890000B1890000B1890000C8
:10005000B1890000B1890000B1890000B1890000B8
:10006000B1890000B1890000B1890000B1890000A8
:10007000B1890000B1890000B1890000B189000098
:10008000B1890000B1890000B1890000B189000088
:10009000B1890000B1890000B1890000B189000078
:1000A000B1890000B1890000B1890000B189000068
:1000B000B1890000B1890000B1890000B189000058
:1000C000B1890000B1890000B1890000B189000048
:1000D000B1890000B1890000B1890000B189000038
:1000E000B1890000B1890000B1890000B189000028
:1000F000B189000091940000B189000059AF00005F
:10010000B189000009B40000B1890000B189000084
:10011000B1890000B1890000B1890000B1890000F7
:10012000B1890000B1890000B1890000B1890000E7
:10013000B1890000B1890000B1890000B1890000D7
:10014000B1890000B1890000B1890000B1890000C7
:10015000A9A10000C1A10000D9A10000F1A10000E7
:100160000D84000031970000B1890000B1890000C2
:10017000B1890000B1890000B1890000B189000097
:10018000B1890000B1890000B1890000B189000087
:10019000B1890000B1890000B1890000B189000077
:1001A000B1890000B1890000B1890000B189000067
:1001B000B1890000B1890000B1890000564B4CF2B2
:1001C000205210B51A804DF628121A8000BF00BFC9
:1001D00008F0F2FB514B4FF010621A60504A9A60DF
:1001E000504ADA60A3F53043203B1A6812F480725B
:1001F00004D14D490A604FF4A8521A604B4B1A784B
:10020000110703D51A7842F008021A70484B2A22C7
:100210001A700023474A48499818884204D247492F
:10022000595899500433F5E7454A464B9A424FF0E6
:10023000000302D242F8043BF7E74349434A5958C6
:1002400099500433B3F5DE7FF7D1414B802103F899
:10025000011B40498B42F9D13F4B1A603F4B0A22A8
:100260001A70A3F5805324225A70A0221A709A792A
:100270009207FCD59A79D406FCD4394B9A7902F0CE
:100280000C02082AF9D105221A7143225A719A796F
:100290009006FCD5324B9A795106FBD5314A4FF086
:1002A000817111600521516020221A702C4B9B79BD
:1002B00003F00C030C2BF9D12B4B2C4A1A602C4B5E
:1002C0002C4A1A6000225A60072243F8042C2A4A5A
:1002D000C3F80C2D62B608F0DFFD134B1B68DA077C
:1002E00005D5264808F042FC254B264A1A60264BC5
:1002F0001B785B0609D5224C224A2368934204D11D
:100300001E4808F033FC002323600DF0ADFF08F019
:1003100059FB0AF098FAFEE70E20054030800440B1
:10032000823F04000100002B14D0034002D007409C
:1003300000E007406087FF1FA888FF1F0822010018
:10034000A888FF1FD09FFF1F000000000082FF1F32
:1003500000E400E05FE400E008ED00E0005006404B
:10036000004006404480044004800440C010050062
:1003700014E000E03F190100000020201BBC135BCB
:100380001CE00340A5C3945A00F00740FFFFFFFFA5
:10039000FFFFFFFFFFFFFFFFFFFFFFFFFFFFFFFF6D
:1003A000FFFFFFFFFFFFFFFFFFFFFFFFFFFFFFFF5D
:1003B000FFFFFFFFFFFFFFFFFFFFFFFFFFFFFFFF4D
:1003C000FFFFFFFFFFFFFFFFFFFFFFFFFFFFFFFF3D
:1003D000FFFFFFFFFFFFFFFFFFFFFFFFFFFFFFFF2D
:1003E000FFFFFFFFFFFFFFFFFFFFFFFFFFFFFFFF1D
:1003F000FFFFFFFFFFFFFFFFFFFFFFFFFFFFFFFF0D
:10040000FFFFFFFFFFFFFFFFFFFFFFFFFEFFFFFFFD
:1004100010B5054C237833B9044B13B10448AFF33E
:1004200000800123237010BDA888FF1F000000007A
:100430000822010008B5064B1BB106480649AFF378
:1004400000800648036813B1054B03B1984708BD07
:100450000000000008220100AC88FF1FA888FF1FD1
:100460000000000010B5044683709DF8083042700B
:10047000C37001700846012108F0B6FB60780121C5
:1004800008F0B2FB2078012108F080FB60780121A0
:1004900008F07CFB204610BD2DE9F84F9E4D0378F7
:1004A0002A689E499E4F42F480522A6004469D4A23
:1004B0009D4810600A2BD1608146176188464FF431
:1004C000007201D1994B02E0022B03D1984B1A60C4
:1004D000012333E0092B01D1964B02E0062B03D117
:1004E000954B1A60022329E0142B04D103F18043B9
:1004F00003F5982302E0172B03D1904B1A600423D5
:100500001CE0152B01D18E4B02E0162B03D18D4B35
:100510001A60082312E00F2B03D18B4B1A601023B3
:100520000CE08A4A8A4E52F8332032601846012184
:1005300008F05AFB336801221A7000238548794A73
:100540008549864E03701160327812F0010F8A4699
:100550000CBF8349834983460CBF4FF410704FF49E
:10056000007012F0020F08600CBF7F487F484FF404
:1005700000710160510755BF7D4A7E4A4FF41071EA
:100580004FF4007111601904664AABB141F00043A9
:1005900043F088035363D36A03F47043B3F5405FB9
:1005A000F9D89BF80020A0785E4B4FEA024CD2B1FC
:1005B0004CEA000058630FE0654B1B6819704FF060
:1005C0008053D36288235363564BDB6A03F4704332
:1005D000B3F5405FF8D8E4E7DA6A02F47042B2F5A6
:1005E000405FF9D810E05A490A6840F0006082F88C
:1005F00000C04FF08052DA6258634A4BDB6ADA007F
:10060000FBD50B6801221A70464AD36A13F0F00F2B
:10061000FAD0936BD16A434B11F0F00FFAD09BF8EC
:1006200000109A6B0A04A9B142F0004242F0900215
:100630005A63DA6A02F47042B2F5405FF9D89BF867
:100640000020E078374B4FEA024CCAB14CEA000078
:1006500058630EE03E4909680A704FF08052DA6232
:1006600090225A63DA6A02F47042B2F5405FF9D818
:10067000E5E7DA6A02F47042B2F5405FF9D810E0BB
:1006800033490A6840F0006082F800C04FF08052A1
:10069000DA625863234BDB6ADB00FBD50B6801226F
:1006A0001A70204BDA6A12F0F00FFAD09A6BD96AFE
:1006B0001C4A11F0F00FFAD0936B607829680A2871
:1006C00041F480512960C2F80090C2F80C80176193
:1006D0004FF4007201D1154B02E0022803D1144BF4
:1006E0001A60012364E0092801D1124B02E00628B8
:1006F00003D1114B1A6002235AE0142801D11E4B7A
:1007000002E0172803D10D4B1A60042350E015288E
:1007100034D10B4B35E000BF3C800440022001B8CF
:10072000022001F800C0024001401F8010B00440C8
:1007300000C004400CB0044010C0044008B00440A5
:1007400018C0044004B0044000B00440F81901008F
:10075000849EFF1F889EFF1F000C1F80809EFF1F2E
:1007600018B0044008C004401CB004400CC0044051
:1007700014B0044004C0044014C00440162803D13F
:10078000664B1A60082313E00F2805D1644B4FF421
:1007900000721A6010230BE0624A634D52F8302059
:1007A0002A60012108F020FA2B6801221A70002328
:1007B0005E4A8BF80030C2F800A03278D50755BFEA
:1007C0005B495C494FF410704FF4007012F0020F57
:1007D00008600CBF584859484FF400710160500739
:1007E00055BF574A574A4FF410714FF400711160CA
:1007F00019044E4A9BB141F0004343F08803536310
:10080000D36A03F47043B3F5405FF9D89BF8002036
:10081000A178464B1004CAB1014359630FE0424B23
:100820001B6819704FF08053D362882353633F4B8A
:10083000DB6A03F47043B3F5405FF8D8E6E7DA6AA1
:1008400002F47042B2F5405FF9D80FE0364A1568FD
:1008500041F0006128704FF08050D8625963334BEB
:10086000DB6AD900FBD5136801221A702F4AD36ABC
:1008700013F0F00FFAD0936BD16A2C4B11F0F00FFC
:10088000FAD09BF800109A6B0A0499B142F000422A
:1008900042F090025A63DA6A02F47042B2F5405FA5
:1008A000F9D89BF80020E178204B1004C2B1014335
:1008B00059630EE01C4909680A704FF08052DA62F1
:1008C00090225A63DA6A02F47042B2F5405FF9D8B6
:1008D000E7E7DA6A02F47042B2F5405FF9D80FE058
:1008E000114A146841F0006120704FF08050D862C6
:1008F00059630E4BDB6ADB00FBD5136801221A70CB
:100900000A4BDA6A12F0F00FFAD09A6BDA6A12F038
:10091000F00FFBD0054B9B6BBDE8F88F04B0044093
:1009200000B00440F8190100849EFF1F00C002407F
:1009300018B0044008C004401CB004400CC004407F
:1009400014B0044004C004402DE9F84F944A0378E1
:100950001168944E944D41F48051116004469349BE
:1009600093480E600A2BCD6093460861B246A946B3
:1009700080464FF4007201D18E4B02E0022B03D16E
:100980008D4B1A60012333E0092B01D18B4B02E020
:10099000062B03D18A4B1A60022329E0142B04D1C1
:1009A00003F1804303F5982302E0172B03D1854B15
:1009B0001A6004231CE0152B01D1834B02E0162B97
:1009C00003D1824B1A60082312E00F2B03D1804B16
:1009D0001A6010230CE07F4A7F4D52F833202A60C2
:1009E0001846012108F000F92B6801221A70002333
:1009F0006E4A7A4F7A4E7B4D3B7016602A78D1074B
:100A000055BF794979494FF410704FF4007012F0D6
:100A1000020F08600CBF7648764852074FF4007109
:100A200054BF754A754A016054BF4FF410714FF4BA
:100A30000071116018045D4A4BB140F02000506312
:100A4000D36A03F47043B3F5405FF9D80EE062490E
:100A50000B6818704FF08053D362694B5363534B4C
:100A6000DB6ADB00FBD50B6801221A704F4AD36AA0
:100A700013F0F00FFAD0936B6078DBF800100A28BF
:100A800041F48051CBF80010C2F800A0C2F80C90DD
:100A9000C2F810804FF4007201D1464B02E00228E8
:100AA00003D1454B1A60012334E0092801D1434B9F
:100AB00002E0062803D1424B1A6002232AE01428E0
:100AC00001D1504B02E0172803D13E4B1A6004239A
:100AD00020E0152801D13C4B02E0162803D13B4B06
:100AE0001A60082316E00F2805D1394B4FF4007225
:100AF0001A6010230EE0374ADFF8DC8052F830200D
:100B0000C8F80020012108F06FF8D8F80030012261
:100B10001A700023254A3B7016602A78D00755BF0B
:100B2000314932494FF410704FF4007012F0020F47
:100B300008600CBF2E482F484FF400710160510728
:100B400055BF2D4A2D4A4FF410714FF400711160BA
:100B50001904164A4BB141F020015163D36A03F4E2
:100B60007043B3F5405FF9D80EE01B4B1868017075
:100B70004FF08051D162224951630C4AD26AD200AF
:100B8000FBD51B6801221A70084BDA6A12F0F00FCD
:100B9000FAD09B6B00236360A360BDE8F88F00BFB1
:100BA0003C80044001401F80022001B800C0024088
:100BB000022001F810B0044000C004400CB0044012
:100BC00010C0044008B0044018C0044004B0044001
:100BD00000B00440F8190100849EFF1F889EFF1F8B
:100BE000000C1F80809EFF1F18B0044008C0044006
:100BF0001CB004400CC0044014B0044004C00440C5
:100C00002000000814C004402DE9F74F9F4BA04975
:100C10001A68A04FA04E42F48052044600781A6031
:100C20009E4A0A2811609B46D760884616614FF499
:100C3000007303D102F5F832103202E0022803D12A
:100C4000974A136001232FE0092801D1954A02E059
:100C5000062803D1944A1360022325E0142801D109
:100C6000924A02E0172803D1914A136004231BE043
:100C7000152801D18F4A02E0162803D18E4A13604D
:100C8000082311E00F2803D18C4A136010230BE0D6
:100C90008B4B8C4D53F830302B60012107F0A4FFB3
:100CA0002B6801221A70002387487C4A8749884DA7
:100CB000037011602A7812F0010F89460CBF854934
:100CC000854982460CBF4FF410704FF4007012F04B
:100CD000020F08600CBF8148814852074FF4007131
:100CE00054BF804A804A016054BF4FF410714FF4E2
:100CF00000711160694A1804C2F800904BB140F0CD
:100D0000E8005063D36A03F47043B3F5405FF9D849
:100D10000DE06C490B6818704FF08053D362734B31
:100D20005363D36AD800FCD50B6801221A705B4B61
:100D3000DA6A12F0F00FFAD09A6B6078DBF80020D4
:100D40000A2842F48052CBF80020C3F80080DF600C
:100D50001E614FF4007301D1654A02E0022803D1FD
:100D60004F4A1360012333E0092801D14D4A02E0C4
:100D7000062803D14C4A1360022329E0142801D12C
:100D80004A4A02E0172803D1494A136004231FE0AE
:100D9000152801D1474A02E0162803D1464A1360BC
:100DA000082315E00F2805D1444B4FF400721A6058
:100DB00010230DE0424A434B52F830201A600121C3
:100DC000019307F011FF019B1B6801221A70002399
:100DD000324A8AF80030C2F800902A78D10755BF0D
:100DE0003C493D494FF410704FF4007012F0020F6F
:100DF00008600CBF39483A4852074FF4007154BF9D
:100E0000384A394A016054BF4FF410714FF40071F1
:100E100011601804214A4BB140F0E8005063D36AD6
:100E200003F47043B3F5405FF9D80EE025490B6831
:100E300018704FF08053D3622C4B5363174BDB6A0F
:100E4000D800FBD50B6801221A70144AD36A13F03C
:100E5000F00FFAD0936B2078DBF800100A2841F4E9
:100E60008051CBF80010C2F80080D76016614FF4B3
:100E7000007201D11E4B02E0022803D1084B1A6018
:100E8000012365E0092835D1064B36E03C8004405B
:100E900001401F80022001B8022001F800C002407A
:100EA00000C004400CB0044010C0044014C0044012
:100EB00008B0044018C0044004B0044000B004402E
:100EC000F8190100849EFF1F889EFF1F000C1F80E1
:100ED000809EFF1F18B0044008C004401CB00440AE
:100EE0000CC0044014B0044004C00440E8000008F2
:100EF00010B00440062803D19F4B1A60022327E05C
:100F0000142801D19D4B02E0172803D19C4B1A6095
:100F100004231DE0152801D19A4B02E0162803D1C5
:100F2000994B1A60082313E00F2805D1974B4FF413
:100F300000721A6010230BE0954A964E52F830204A
:100F40003260012107F050FE336801221A7000233D
:100F5000914A8AF80030C2F800902A78D10755BF2C
:100F60008E498F494FF410704FF4007012F0020F49
:100F700008600CBF8B488C4857074FF4007154BF72
:100F80008A4A8B4A016054BF4FF410714FF40071CC
:100F900011601904804A5BB141F0004343F06803DB
:100FA0005363D36A03F47043B3F5405FF9D80EE09E
:100FB000784B1B6819704FF08053D36268235363DA
:100FC000754BDB6A03F47043B3F5405FF8D8724B9E
:100FD000DA6A12F0F00FFAD09AF800109A6B0A044D
:100FE00049B142F000425A63DA6A02F47042B2F543
:100FF000405FF9D80CE0674909680A704FF08051EA
:10100000D9625A63DA6A02F47042B2F5405FF9D8E5
:10101000614BDA6A12F0F00FFAD09AF800109D6B6B
:101020000A0451B142F000425A63DA6A02F4704293
:10103000B2F5405FF9D82D020DE0564909680A70F3
:101040004FF08051D9625A63DA6A02F47042B2F505
:10105000405FF9D8EFE7504BDA6A12F0F00FFAD0A0
:101060009A6B9AF8001015430A0451B142F00042FD
:101070005A63DA6A02F47042B2F5405FF9D82D0281
:101080000DE0444909680A704FF08051D9625A63F3
:10109000DA6A02F47042B2F5405FF9D8EFE73E4BEE
:1010A000DA6A12F0F00FFAD09A6B15439AF8002022
:1010B00011043AB15963DA6A02F47042B2F5405F42
:1010C000F9D80EE0334A106801704FF08051D962B0
:1010D0004FF000615963D96ACE00FCD51368012234
:1010E0001A702B022C4AD16A11F0F00FFAD0916BD2
:1010F0000B43304963600868637840F480500860AF
:101100002D4911602D49D1600A2B01F180411161F7
:101110004FF4007201D12A4B02E0022B03D1294B7C
:101120001A6001235FE0092B01D1274B02E0062B57
:1011300003D1114B1A60022355E0142B04D103F1A3
:10114000804303F5982302E0172B03D10C4B1A6060
:10115000042348E0152B01D10A4B02E0162B03D1E2
:10116000094B1A6008233EE00F2B2FD1074B4FF499
:1011700000721A60102336E010C0044014C004400E
:1011800008B0044018C0044004B0044000B004405B
:10119000F8190100849EFF1F00C0024018B00440EF
:1011A00008C004401CB004400CC0044014B004400B
:1011B00004C004403C80044001401F80022001B86C
:1011C00010B0044000C004400CB00440754A764D95
:1011D00052F833202A601846012107F005FD2B68DC
:1011E00001221A7000237149714A72481370086015
:1011F00071490978CD0755BF704871484FF4107593
:101200004FF4007511F0020F05600CBF6D4D6E4D6F
:101210004FF400702860480755BF6C496C494FF483
:1012200010704FF400700860180460495BB140F022
:10123000004343F068034B63CB6A03F47043B3F598
:10124000405FF9D80EE0584B1B6818704FF0805380
:10125000CB6268234B63554BDB6A03F47043B3F5F1
:10126000405FF8D8514BD96A11F0F00FFAD01078DE
:10127000996B010448B141F000415963D96A01F406
:101280007041B1F5405FF9D80CE047480068017043
:101290004FF08050D8625963D96A01F47041B1F5BA
:1012A000405FF9D8414BD96A11F0F00FFAD01078AD
:1012B0009D6B010450B141F000415963D96A01F4BA
:1012C0007041B1F5405FF9D82D020DE03648006855
:1012D00001704FF08050D8625963D96A01F47041AF
:1012E000B1F5405FF9D8EFE7304BD96A11F0F00F54
:1012F000FAD0996B10780D43010450B141F00041D0
:101300005963D96A01F47041B1F5405FF9D82D02F3
:101310000DE02548006801704FF08050D862596395
:10132000D96A01F47041B1F5405FF9D8EFE71F4B7E
:10133000D96A11F0F00FFAD0996B12780D431104AD
:101340003AB15963DA6A02F47042B2F5405FF9D8F3
:101350000EE0154A106801704FF08051D9624FF0CD
:1013600000615963D96AC900FCD5136801221A705B
:101370002B020E4AD16A11F0F00FFAD0926B134390
:10138000A3601B0C1B04B3F57F0F02D0B3F17F4F9A
:1013900005D1104803B0BDE8F04F00F041BF03B0E5
:1013A000BDE8F08FF8190100849EFF1F00C00240C5
:1013B000889EFF1F000C1F80809EFF1F18B00440F6
:1013C00008C004401CB004400CC0044014B00440E9
:1013D00004C00440C0FE0000406870478068704749
:1013E000034B044A1A6000225A6007F05BBA00BF40
:1013F000C488FF1F701B010001460A46014803F024
:101400009CBC00BF1C89FF1F01460A46014803F02F
:1014100094BC00BF3889FF1F70B5144C04F12C0632
:10142000002301255022304684F82430E3612362F2
:101430006366A366A4F87820A573E57303F076FCD1
:101440006420FFF7D9FF483429462A46304603F086
:1014500071FC204603F06AFC6420FFF7D5FF2046AC
:1014600029462A46BDE8704003F064BCF088FF1F9F
:10147000024B002283F82420704700BFF088FF1F32
:1014800070B5084C02230E46E56984F8243003F059
:101490004BFF284460663046256A03F061FF28440C
:1014A000A06670BDF088FF1F2DE9F84FDFF818A186
:1014B000BAF98C30C01A0E4693460CF011F8044667
:1014C000BAF98E00301A0D460CF00AF8224606468C
:1014D0000F462B46204629460CF068F832468046D7
:1014E00089463B46304639460CF060F802460B46CA
:1014F000404649460BF0A8FE0AF0BCF90CF0F0FAA1
:1015000022462B468046394630460AF0B1F9044659
:10151000DAF890000D460BF0F5FF02460B46204628
:1015200029460BF08FFE0CF003FB03F03DFF044651
:10153000BBF1000F17D121490CF014FE30B1204649
:101540001F49C8F100050CF047FB0AE020461D4981
:101550000CF0EAFD38B120461949C8F100050CF03D
:101560003DFB044600E04546B8F11D0F06DC284669
:101570000021FFF785FF0020BDE8F88FB8F11E0FAE
:1015800005D0B8F1C70F02DC2846002111E0204643
:1015900000210CF0E7FD10B904F1004000E0204606
:1015A0004FF07C510CF0DEFD08B1002000E0284631
:1015B0002146FFF765FF7F20BDE8F88FDB0FC93FAD
:1015C000DB0F4940DB0FC9BFF088FF1F034B01222F
:1015D000002000219A73DA73FFF752BFF088FF1FD3
:1015E0002DE9F84FDFF880801D4CD8F800900E46AA
:1015F00017469A4603F0CCFEA3460546A4F894008D
:10160000A4F8966003F0F2FA00F0B4FC28463146E4
:101610005246FFF749FF044638B9C82003F006FBDD
:10162000FFF7D4FF2046BDE8F88F57B1D8F8003057
:10163000C9EB03039F4204D2FFF7C8FF0120BDE8B6
:10164000F88F9BF8A330002BDCD0FFF7BFFF0548D5
:1016500000F0E6FD03F044FE0220BDE8F88F00BF75
:10166000F088FF1FDEFE0000A09CFF1F2DE9F04F59
:1016700085B08B4601900BF033FFDFF8ACA0044639
:10168000DAF890000D460BF03DFF06460F460AF0D3
:101690006BF80246BAF98C00039202910BF020FF1E
:1016A000039A029B80468946204629460BF07EFF1E
:1016B0000B460246494640460BF0C6FD0CF010FAB8
:1016C0003946804630460AF089F80246BAF98E005B
:1016D000039202910BF004FF039A029B06460F4609
:1016E000204629460BF062FF02460B46304639463B
:1016F0000BF0AAFD0CF0F4F9DDF804C0BCF1000F0A
:101700000446404605DA03F043FE21465A460023CC
:1017100004E003F03DFE21465A46012305B0BDE832
:10172000F04FFFF75DBF00BFF088FF1FF8B503461D
:10173000144D00200C4619462E68FFF7A1FE1248F2
:1017400003F00EFE074603F051FA00F013FC0F4BB6
:101750001A6A9B6ED31A002BB8BF5B42BB4206DCF1
:10176000C82003F063FAFFF731FF0020F8BD002C1A
:10177000E9D02B689B1B9C42E5D2FFF727FF012095
:10178000F8BD00BFA09CFF1F9A99993EF088FF1FEB
:101790002DE9F3410C46154603F0FAFD03F0C4FDB4
:1017A0000646204603F0C0FD0D4C0746E06F0CF0E6
:1017B000E3FC8046D4F880000CF0DEFC0097014684
:1017C000D4F890203346404603F020FE01232946FA
:1017D000E370FFF7ABFF0023E37002B0BDE8F081D8
:1017E000F088FF1F2DE9F74F434FDFF814A17A6906
:1017F000BB69DFF810B10221134493FBF1F3FB61E5
:101800003E4B186803F0ACFD7B69BA691844801A36
:10181000DAF80030FA693862D31AC7F884300CF06D
:1018200091FADBF80040214605460CF0D5F90CF0A2
:10183000A3FC2146C7F8880028460CF0CFF94FF0EA
:101840007C510CF0D3FA0CF097FC03F095FD0646A2
:10185000D7F884000BF044FE044630460D460BF0EA
:1018600051FE8046894609F07FFF02460B464046FE
:1018700049460192009309F0B1FF019A009B80460E
:101880008946204629460BF091FE0CF051F901469D
:10189000F86F0CF0A3F942464B46F86729462046FC
:1018A0000BF084FE0CF044F90146D7F880000CF0F0
:1018B00095F9C7F88000386A03F05EFD03F074FD07
:1018C000C7F89000F86F0CF057FC03F03BFDA7F849
:1018D0008C00D7F880000CF04FFC03F033FDFB695F
:1018E000A7F88E00386ACAF800300CF02BFACBF853
:1018F000000003B0BDE8F08FF088FF1FD888FF1FFD
:10190000E488FF1FE088FF1F70B504460D461646A9
:10191000FFF768FF204603F03BFD03F005FD0CF0E8
:1019200011FA0B4CE067284603F0FEFC0CF00AFAB3
:10193000C4F88000304603F055FDD4F890100CF048
:101940004BF9044BBDE870401860FFF74BBF00BF78
:10195000F088FF1FD888FF1F13B500F051FD8448A1
:1019600000F010FD834800F00DFD834800F00AFDF3
:10197000824800F007FD824800F004FD814800F035
:1019800001FD7C4800F0FEFC7F4800F0FBFC7F4836
:1019900000F0F8FC7E4800F0F5FC7E4800F0F2FC18
:1019A0007D4800F0EFFC734800F0ECFC7B4800F051
:1019B000E9FC40F2DC504FF47A710022FFF7A4FFFB
:1019C000FFF704FE08F074FA002840F3CC8008F01A
:1019D0002DFA0CF07DFDC1B2442900F0968005DCA3
:1019E00042295BD076DC41293DD0B9E0582900F08E
:1019F000A7802DDC472940F0B380694C03226B4659
:101A00000421D4F8DC0007F025F86648694600F0A8
:101A100007FC03226B460421D4F8E00007F01AF813
:101A20006148694600F0FCFB03226B460421D4F8B0
:101A3000D40007F00FF85D48694600F0F1FBD4F8D8
:101A4000D800042103226B4607F004F858483FE011
:101A500059297CD05A2940F08380514B55480122A6
:101A60009A73DA7379E0544808F05EFD0021044669
:101A70000CF05AFB30B9204650490CF073FB10B102
:101A80004E4C00E00024464B2046C3F8DC400421C5
:101A900003226B4606F0DEFF494819E0464808F08D
:101AA00043FD002104460CF03FFB30B9204643497A
:101AB0000CF058FB10B1414C00E00024384B20469C
:101AC000C3F8E040042103226B4606F0C3FF3D4803
:101AD000694646E0384808F027FD002104460CF02E
:101AE00023FB30B9204635490CF03CFB10B1334C98
:101AF00000E000242A4B2046C3F8D44004210322EE
:101B00006B4606F0A7FF3048E2E72B4808F00CFDD3
:101B1000002104460CF008FB30B9204627490CF0A0
:101B200021FB10B1254C00E000241D4B2046C3F8DA
:101B3000D840042103226B4606F08CFF2348C7E7F8
:101B4000174B234800229A730122DA7305E0144BE5
:101B5000204801229A730022DA7300F061FB02E050
:101B60001D4800F05DFB0A2007F080F92AE700BF5E
:101B7000EDFE0000AD100100FCFE000010FF0000B3
:101B800020FF00002FFF00003EFF000052FF00007A
:101B900062FF000071FF000081FF000093FF000062
:101BA000F088FF1FA4FF0000B2FF0000C0FF00008C
:101BB000CEFF0000160001008C9EFF1F0000204198
:101BC000A8FF0000B6FF0000C4FF0000D2FF000025
:101BD000DCFF0000F9FF0000280001002DE9F047BC
:101BE000404D95F824602C4626B9304603F052F853
:101BF000304607E0012E09D1B5F9260003F04AF876
:101C0000B5F92800BDE8F04703F057B8EB696E6EF0
:101C1000354FF61AEE66236AAD6EED1AA37B256783
:101C2000BBB130460CF08EF8D4F8D4100CF0DEF8CE
:101C300080463868301A0CF085F8D4F8D8100CF0CB
:101C4000D5F8014640460BF0C9FF0CF095FA8146E5
:101C500000E09946E07BDFF88C80244EA8B128464E
:101C60000CF070F8D8F8DC100CF0C0F88246306840
:101C7000281A0CF067F8D8F8E0100CF0B7F8014615
:101C800050460BF0ABFF0CF077FA6FF07E02B9F123
:101C90007F0FA8BF4FF07F093228B4BF034632231D
:101CA0009145B8BF91466FF031029342B8BF1346D9
:101CB0001FFA89F99BB203EB090080B2C3EB090359
:101CC000A4F8740000B2A4F8763002F0E3FFB4F98F
:101CD000760002F0F2FFE36E3B60236F3360BDE8F5
:101CE000F08700BFF088FF1FD488FF1FDC88FF1F2C
:101CF000034B044A1A6000225A6006F0D3BD00BFAD
:101D0000CC88FF1F701B010010B5044608F024FBAF
:101D1000204610BDF8B5254F3B78022B44D0022356
:101D20003B7007F083F8224E224C306003F0B2FA89
:101D300007F07CF8206000F0D9F907F077F8236805
:101D40001D4DC01AC5F8C00007F070F8206003F000
:101D500017FA07F06BF82368C01AC5F8C40003F03F
:101D600099FA00F068F9FFF73DFDFFF737FF03F040
:101D700091FA00F039FA00F023FD03F08BFA07F036
:101D800055F83368C01AC5F8C80007F04FF8336833
:101D9000C01A0BF0D3FF09490CF0DAF910B108486A
:101DA00000F03EFA00233B70F8BD00BF6487FF1FC0
:101DB000D489FF1FEC89FF1FF088FF1F00401C46DD
:101DC0004500010010B5544C54484FF4967108F08A
:101DD00060FB237843F00403237004F0EFFB00F072
:101DE000CBFA00F0FFF8242006F0CAFCB0F5007F23
:101DF00002DA02F0EDFC01E002F0B8F9237843F0DA
:101E00000403237000F0FCFA454800F0BBFA454893
:101E100000F0B8FA444800F0B5FA444800F0B2FACD
:101E2000434800F0AFFA434800F0ACFA02F0E4FF98
:101E300020B94148BDE8104000F0B8BA3F4800F072
:101E4000A1FA3F4800F09EFA03F022F818B13D488D
:101E500000F098FA14E000F0E7F850B13A4800F0CA
:101E600091FA00F0E1F80028FBD1052006F0FEFF12
:101E700006E0364800F09AFA642006F0F7FFE3E740
:101E8000334800F07FFA03F01BF818B12D4800F03A
:101E900079FA14E000F0C8F850B12B4800F072FA5B
:101EA00000F0C2F80028FBD1052006F0DFFF06E0B5
:101EB000264800F07BFA642006F0D8FFE3E72548C7
:101EC000254C00F05FFA00F09BFC00F003F900F0F5
:101ED00077F902F005FFFFF79FFA03F0CFF903F05F
:101EE000F7F91E4800F04EFA1D4A1E49204608F038
:101EF0001DFA1D4B1B78802262732BB1237B03F1EB
:101F0000604303F564431A70184800F03BFABDE8DB
:101F1000104002F0E1BC00BF809EFF1F8C9EFF1F9F
:101F20005E000100510301006A000100AC100100D5
:101F3000730001007D00010090000100A20001007B
:101F4000B1000100AC000100C0000100500C010014
:101F5000CA000100DA000100D889FF1FE800010073
:101F60003F7E0500151D0000489EFF1FFF00010079
:101F70007047FFFF034B01221A701A78002AFCD128
:101F8000704700BF6487FF1F0E4B0F4A10B5002437
:101F90001A605C6006F086FC0C4B1C735C7306F0E8
:101FA00045FF0B4B186006F041FF0A4B0A491860C9
:101FB0000A480B4A047080234373BDE810400CF0BC
:101FC00021B900BFE888FF1F701B0100F088FF1FC8
:101FD000D489FF1FEC89FF1F091D0000D889FF1F4E
:101FE0006087FF1F08B50220014606F0FDFD0320B3
:101FF0000221BDE8084006F0F7BD08B5032006F051
:10200000E5FD003018BF012008BD08B5FFF7F5FF5A
:1020100080F00100C0B208BD08B5022006F0D6FD70
:10202000003018BF012008BD08B5FFF7F5FF80F0AC
:102030000100C0B208BD08B5FFF7F6FF20B1FFF7F9
:10204000E4FF08B107F072FB08BDFFFF08B50748C1
:1020500006F076FA0028FAD0044806F096FA00282E
:10206000F5D00348BDE8084000F0DAB8088AFF1F41
:102070001101010008B5074806F062FA0028FAD0FD
:10208000044806F079FA0028F5D00348BDE8084076
:1020900000F0C6B8088AFF1F2501010008B5094BEA
:1020A000094A1A6000225A6006F0FCFB03210A224A
:1020B000064806F01BFA064802210A22BDE808403D
:1020C00006F014BAF089FF1F701B0100088AFF1F79
:1020D000F889FF1F10B5044C2046FEF7DDF92046B5
:1020E000BDE81040FEF730BC208AFF1F38B5074C12
:1020F000074D2046FEF788FD2046FFF76DF9404268
:1021000068612046FFF76AF9A86138BD208AFF1F81
:10211000F088FF1F13B5084B084A1A6000245C6062
:1021200006F0C0FB00941521142283230448FEF717
:1021300099F902B010BD00BF188AFF1F701B010083
:10214000208AFF1F38B5044608460D460CF0A5F955
:10215000236802465B6820462946984738BDFFFF42
:1021600008B5134B1B780BB9FFF704FF114B12484E
:102170001B684360114BD3F890208260B3F88C2029
:102180000282B3F88E2042821A78C27593F8BC207E
:102190000276B3F8BA20828293F8A3208275D3F82E
:1021A000C830C3602021BDE8084007F08FBE00BFE3
:1021B0006487FF1FA09CFF1FB08AFF1FF088FF1FCE
:1021C00008B540F2E24006F0B5FE05484FF49671BE
:1021D00008F05FF90348BDE8084004F0E9B900BF22
:1021E0008C9EFF1F048BFF1F08B5044804F0CAF93A
:1021F00018B1BDE80840FFF7B3BF08BD048BFF1F4F
:1022000010B5054B1B7804460BB9FFF7B3FE21460A
:102210000248FFF797FF10BD6487FF1F8C9EFF1FCA
:102220000FB413B50A4C04AB204653F8042B0193AA
:1022300079210CF083F9074920460CF019F9204662
:10224000FFF7DEFF02B0BDE8104004B0704700BFEA
:10225000348AFF1FAD1001000A2810B5044620D0B3
:1022600008D8012817D014D3022818D0032820D169
:10227000134811E00E281AD005D80B2813D00C28CB
:1022800017D1104808E00F280FD07F2811D10E4831
:1022900002E00E4800E00E48FFF7C2FF0DE00D48D7
:1022A000FAE70D48F8E70D48F6E70D48F4E70D4862
:1022B000F2E70D482146FFF7B3FF204610BD00BFEF
:1022C0003D02010093020100C20201001902010057
:1022D0001C0201002C0201004F02010064020100F7
:1022E00082020100AD020100CC02010010B5054BD5
:1022F0001B7804460BB9FFF73DFE21460248FFF765
:1023000021FF10BD6487FF1F2C9EFF1F0FB413B564
:10231000084C04AB332153F8042B019320460CF0F6
:102320000DF92046FFF7E2FF02B0BDE8104004B00F
:10233000704700BFD08AFF1F08B50B4B0B4A1A60CD
:1023400000225A6006F0AEFA0948642104F00EF942
:10235000084B40221A705A709A70DA701A775A77BE
:102360009A77DA7708BD00BF2C8AFF1F701B010027
:10237000048BFF1FB08AFF1F0148022103F0DABF60
:10238000188BFF1F38B5084D04464FF6FF712846DD
:1023900003F07AFD28462146FFF7D4FE2046BDE82B
:1023A0003840FFF73DBF00BF188BFF1F38B5084D01
:1023B00004464FF47841284603F066FD284621463E
:1023C000FFF7C0FE2046BDE83840FFF729BF00BF39
:1023D000188BFF1F10B5074B074A1A6000225A607E
:1023E00006F060FA054806210F221023BDE81040D0
:1023F00003F0C8BD108BFF1F701B0100188BFF1F5F
:1024000010B50A4C0021204603F09CFD0021204617
:102410000A4603F031FD20464FF6FF7103F034FD0C
:1024200020460121BDE8104003F031BD188BFF1F8D
:102430002DE9F041A8B004AD3749384C074628468D
:1024400008F0C6F9364908A808F0C2F935490CA8C1
:1024500008F0BEF9344910A808F0BAF9334914A8B5
:1024600008F0B6F9324918A808F0B2F931491CA8A9
:1024700008F0AEF9304920A808F0AAF924A82F499D
:1024800008F0A6F9237828460BB12D4900E02D4924
:1024900008F0B1F9A37808A82BB12B4908F0ABF9E3
:1024A0004FF4FC6604E0294908F0A5F94FF6E07600
:1024B000237B10A80BB1264900E0264908F09BF9C0
:1024C0006379072B22D8DFE803F004070A0D101305
:1024D0001A1D18A8204917E018A8204914E018A8C8
:1024E0001F4911E018A81F490EE018A81E490BE06B
:1024F000237818A80BB11D4906E01D4904E018A86F
:102500001C4901E01C4918A808F075F9237920A896
:10251000B3B31A4935E000BF0E030100F088FF1F76
:10252000250301003C030100530301006A0301007D
:102530008103010098030100AF030100C6030100FD
:10254000DD030100F40301000B040100220401007B
:102550003904010050040100670401007E040100F9
:1025600095040100AC040100C3040100DA04010079
:10257000F1040100080501001F05010036050100F6
:102580008C4908F038F9FFF7F5FC8B484FF6FF71DE
:1025900003F0D8FC00210A46874803F06DFC86480A
:1025A000002103F071FC8448012103F070FC824893
:1025B000002103F069FC8048012103F060FCFFF773
:1025C000D9FC002429197C48103407F0DFFE902C38
:1025D000F8D1794803F05DFC00240121831E0A46EE
:1025E0001BB20094744803F04AFF734803F054FC94
:1025F0008046714803F04DFCA8F10202831E0121C0
:1026000012B21BB200946C4803F039FF6A4803F021
:1026100043FC0121831E0A461BB20094664803F066
:1026200006FF654803F035FC8046634803F034FC40
:10263000A8F10201831E09B201221BB200945E4878
:1026400003F0F5FE5C4803F024FC0321831F0A46D7
:102650001BB20094584803F012FF574803F01CFCCB
:102660008046554803F015FCA8F10402831F03219E
:1026700012B21BB20094504803F001FF4E4803F021
:102680000BFC0321831F0A461BB200944A4803F047
:10269000CEFE494803F0FDFB8046474803F0FCFBB3
:1026A000A8F10401C31F0094434809B204221BB2DD
:1026B00003F0BDFE04210A460B4600963E4803F097
:1026C0003FF904210A460B4600943B4802F0C4FF40
:1026D000394803F0E1FB0421021F0B4612B20096B9
:1026E000354803F02DF9344803F0D6FB0421021FCE
:1026F0000B4612B20094304802F0AEFF2E4803F0B1
:10270000C8FB80462C4803F0C7FBA8F10401021F58
:1027100009B212B204230096274803F011F92648A3
:1027200003F0B7FB8046244803F0B6FBA8F1040190
:10273000021F09B212B2042300941F4802F08CFF5A
:102740001D4803F0A6FB0422011F134609B20096A0
:10275000194803F0F5F8184803F09BFB0422011F09
:1027600013460094144809B23E0102F075FF06F1C9
:102770000E0293B203F10A0109B2009105330A2156
:1027800001911BB20521029303940B460A4812B231
:1027900003F0F9F8A95909483A46FFF741FD24AC7E
:1027A0006D462046103C07F0D3FFAC42F9D128B06B
:1027B000BDE8F0814D050100188BFF1F6405010085
:1027C00008B5094803F0DEFE60B1084B93F8BC1071
:1027D000C1F10101C9B283F8BC100D20BDE8084069
:1027E00006F0D4B908BD00BF608BFF1FF088FF1F43
:1027F00002484FF4487103F0C3BE00BF608BFF1F57
:1028000008B50D20012106F0EFF90D20012106F099
:10281000BDF9FFF7EDFF0248BDE8084003F0C8BE70
:10282000608BFF1F10B5064B064A1A6000245C60DF
:1028300006F038F821460448BDE8104003F096BE83
:10284000588BFF1F701B0100608BFF1F08B50448E9
:10285000FFF74CFD0348BDE80840FFF7E1BC00BFAF
:102860007B0501007D05010010B5044621460448A2
:10287000FFF74CFD21460348BDE81040FFF7D0BCF0
:10288000900501009405010008B50448FFF72EFDEE
:102890000348BDE80840FFF7C3BC00BFAA0501001C
:1028A000AC05010010B5041E02DD0748214602E018
:1028B00009D006486142FFF729FD21460448BDE8DA
:1028C0001040FFF7ADBC10BDD1050100D5050100DA
:1028D000D905010010B5044621460448FFF716FD4E
:1028E00021460348BDE81040FFF79ABCF0050100FF
:1028F000F405010008B50448FFF7F8FC0348BDE8FB
:102900000840FFF78DBC00BF02060100040601006D
:102910000148FFF7EBBC00BFC20A0100034B044AA9
:102920001A6000225A6005F0BDBF00BF6C8BFF1F0C
:10293000701B0100014B9860FFF796BFF088FF1FE6
:10294000034B9A68821848BF00229A60FFF7AABF1B
:10295000F088FF1F2DE9F0471F46324BBDF820A03D
:102960001B789DF8249005460C461BB909F1050912
:102970005FFA89F91046FEF73FFD2FB12846214640
:102980004FF4FA62FEF704FF4FF000082846214694
:1029900052463B46FEF724FE08F10108022806468F
:1029A0005FFA88F808D1FFF7B3FF4FF47A7002F0AE
:1029B0003DF9C845EAD317E0074600282FD0032881
:1029C00019D004D8012808D002281CD10CE00A280C
:1029D00013D07F2817D1144810E014482946224606
:1029E0005346FFF71DFC14E0114829462246FFF725
:1029F00017FC02270DE00F4800E00F482946224649
:102A0000FFF70EFC05E00D4829462246FFF708FCBB
:102A10003746C84503D30A484146FFF701FC38460C
:102A2000BDE8F087F088FF1F77070100A4060100CA
:102A3000DF0601001007010042070100AC0701009A
:102A4000F3070100312910B5044635D010D82C29E0
:102A500027D006D82A291BD021D8292938D1214BA3
:102A60003AE02E2926D023D3302931D11E4B33E032
:102A7000352927D004D8332920D021D81B4B2BE06F
:102A8000562921D05C2921D0362921D1184B23E0A9
:102A9000184B9B780BB1184B1EE0184B1CE0184BE1
:102AA0001AE0144B9B780BB1164B15E0164B13E054
:102AB000164B11E0164B0FE0164B0DE0164B0BE0DA
:102AC000164B09E0164B07E0164B05E0164B03E0EA
:102AD0001648FFF7A5FB164B93E8030084E80300B4
:102AE000204610BD140601005406010064060100D2
:102AF00084060100F088FF1F1C0601002406010067
:102B00002C060100340601003C06010044060100C9
:102B10004C0601005C0601006C0601007406010011
:102B20007C0601008C0601009406010010080100DB
:102B30009C06010090422DE9F04180460E46174662
:102B40001D4601DC994204DD02F0CAFB0E48FFF786
:102B500067FB0E4CB4F98C0002F01AFC40450FDB09
:102B6000B4F98C0002F014FCB84209DCB4F98E0010
:102B7000B04205DBA842CCBF00200120BDE8F081B7
:102B80000020BDE8F08100BF4A080100F088FF1F67
:102B900038B500F00204A4B2054644B10020014655
:102BA0004FF47A724FF45273FFF7C4FF044669077B
:102BB0000AD54FF47A70002140F2DC524FF4FA63E8
:102BC000FFF7B8FF2043C4B22A070AD500204FF40C
:102BD00052714FF47A7240F25F53FFF7ABFF20431C
:102BE000C4B2EB060AD5002040F25F514FF47A726E
:102BF0004FF4FA63FFF79EFF2043C4B294BBA806CC
:102C000009D521464FF4FA6040F6B8324FF45273BA
:102C1000FFF790FF0446690609D54FF4FA6240F2C7
:102C2000DC5000211346FFF785FF2043C4B22A067B
:102C30000BD54FF4FA604FF4527140F6B83240F2BF
:102C40005F53FFF777FF2043C4B2EB050AD54FF47B
:102C5000FA6040F25F5140F6B8320346FFF76AFF70
:102C60002043C4B2204638BD2DE9FF479DF830A06F
:102C700004460F4690469946312C00F09E800ED8AF
:102C80002C2C5AD005D82A2C30D039D8292C1AD03F
:102C900011E12E2C6ED06BD3302C7AD00BE1352C79
:102CA00000F0D28005D8332C00F0AE8040F287804F
:102CB000BFE0562C00F097805C2C00F0E680362CAC
:102CC00040F0F980CAE08F48FFF7AAFA0620FFF724
:102CD0005FFF054610B100260125F3E00820FFF74D
:102CE00057FF002840F0E980D02076E08648FFF7C3
:102CF00097FA8A20FFF74CFF0028ECD154206CE0B3
:102D00008248FFF78DFA1820FFF742FF054600289A
:102D1000E1D10220FFF73CFF002840F0D0800420E2
:102D2000FFF736FF00286DD14FF49070FFF730FFAA
:102D300008B15C26C5E0C020A2E07548FFF770FA34
:102D4000EC20FFF725FF0028C5D10220FFF720FF68
:102D5000002857D11020FFF71BFF002840F0938078
:102D60004FF48070FFF714FF002800F09E80E0E72A
:102D7000684839E06848FFF753FA1C20FFF708FF5E
:102D80000028A8D10220FFF703FF0028CCD031266D
:102D900097E06248FFF744FA1020FFF7F9FE002899
:102DA00099D10220FFF7F4FE0028F0D10C20FFF7A4
:102DB000EFFE0028B8D02E2683E0594845E0594858
:102DC000FFF72EFACC20FFF7E3FE002883D1022084
:102DD000FFF7DEFE0028DAD11020FFF7D9FE88B910
:102DE0004FF49070BEE75048FFF71AFA4FF4F070B6
:102DF000FFF7CEFE00287FF46EAF0220FFF7C8FE7B
:102E0000002836D035265CE04848FFF709FA4FF431
:102E1000E370FFF7BDFE00287FF45DAF0820FFF7E9
:102E2000B7FE80BB1020FFF7B3FE0028EAD12020B8
:102E300098E73F48FFF7F4F9DC20FFF7A9FE0028E8
:102E40007FF449AF0220C8E73A48FFF7E9F9DE20EE
:102E5000FFF79EFE00287FF43EAFC1E73648FFF73C
:102E6000DFF90A20FFF794FE00287FF434AFD42066
:102E7000B3E70C20FFF78CFE00287FF45AAF102038
:102E8000FFF786FE88B134261BE02C48FFF7C8F90F
:102E90004FF4F670FFF77CFE00287FF41CAF022091
:102EA000FFF776FE0028ADD1E9E725482146FFF778
:102EB000B7F90A2022E0002603E0362602E0312698
:102EC00000E0002502A82146FFF7BCFD45B18DE8D2
:102ED0000006029803993A464346FFF73BFD0DE092
:102EE0001848FFF79DF9CDF800A030463946424614
:102EF0004B46FFF7B9FE00283FF4BEAE04B0BDE874
:102F0000F08700BF92080100A1080100B00801008D
:102F1000BF080100CE080100DD080100EC08010037
:102F2000FB0801000A0901005A0901001A09010001
:102F30002A0901003A0901004A0901006A09010051
:102F4000860901007B09010073B59A428DE80300F0
:102F500014461E460BD921466846013C05F036FA58
:102F6000E4B2142001F062FEB442F4D20AE0214639
:102F70006846013405F02AFAE4B2142001F056FE46
:102F8000B442F4D902B070BD034B044A1A60002267
:102F90005A6005F087BC00BF748BFF1F701B0100D7
:102FA00083B5FFF72DFA3F48FFF7ECF93E48FFF7EE
:102FB000E9F93E48FFF7E6F93D48FFF7E3F93D48F8
:102FC000FFF7E0F9FFF742F83B48FFF7DBF94FF472
:102FD000967001F02BFE4FF47A7001460022FEF746
:102FE00093FCFEF7F3FAFFF745F801F0E3FD42F238
:102FF00010720F238DE80C0040F2DC504FF47A7110
:103000001E220123FFF7A6FC2C48FFF709F92C4CE0
:103010002C4E94F8A330274643B92B48FFF700F90C
:10302000642001F003FE33682361F0E72748FFF7CF
:10303000F7F842F21075142433683B614FF47A714B
:1030400000950194642201234FF4FA60FFF782FC9B
:10305000009501944FF47A71642200234FF4E160EB
:10306000FFF778FC4FF47A70014664220123009543
:103070000194FFF76FFC4FF4487001F0D7FD4FF457
:10308000487001F0D3FD009501944FF47A716422E9
:1030900000234FF49660FFF75DFC4FF4487001F099
:1030A000C5FDC6E76C0A0100730A0100830A01002E
:1030B0008F0A01009B0A0100A80A0100AE0A010064
:1030C000F088FF1FA09CFF1F4E0C0100B90A0100F1
:1030D00008B50F48FFF756F90E48FFF753F9C82017
:1030E00001F0A4FD4FF47A71002240F2DC50FEF7AB
:1030F0000BFCFEF76BFA4FF4FA6005F0B7FE01F037
:1031000059FDC82040F6B831BDE80840FEF7AEBA18
:10311000C40A0100CF0A010008B54FF4FA7005F0A7
:10312000A5FEE120FFF706FC4FF4FA6005F09EFED5
:103130001920FFF705FC4FF4FA6005F097FEFFF742
:10314000E7FB6FF03100FFF7FBFB4FF4FA6005F08F
:103150008DFE0C48FFF7BEFB4FF4FA6005F086FECB
:10316000FFF792FBFFF7D4FB4FF4FA6005F07EFE09
:10317000FFF7C0FB4FF4FA6005F078FEFFF766FB3F
:10318000CBE700BFD70A0100F7B5204F2048FFF773
:1031900047F83B78002B34D11E4B1A6803260132C6
:1031A0001A6033200096642101224FF4FA53FFF78E
:1031B0005BFD044638BB40F26A4021462246FEF7DA
:1031C000E7FA0546F8B94FF4FA62052396218DE82F
:1031D0000C0040F26A4032220123FFF7BBFB0E488D
:1031E000FFF71EF8012319203B70FFF7A9FB00969B
:1031F000332064212A464FF4FA53FFF735FD284661
:1032000002E00C2000E0204603B0F0BDD08BFF1F91
:10321000E40A0100A08BFF1FFC0A010008B5054865
:10322000FEF7FEFF044B1B68002B14BF0E200C2082
:1032300008BD00BF0C0B0100E88BFF1F73B50446EF
:10324000304E31482146FEF7EBFF355D002D53D15E
:10325000012C1DD0022C34D0002C4FD12B4B1A69DD
:103260000A2502321A6135200095642101224FF4AB
:10327000FA53FFF7F9FC002841D14FF4FA538DE8D7
:10328000280040F252304FF4AF715022012320E069
:103290001E4B5A690A2502325A613020009564217A
:1032A00022464FF4FA53FFF7DFFC40BB4FF4FA53CA
:1032B0008DE828004FF419704FF4AF715022234667
:1032C00007E0124B9A690F2002329A61FEF7C4FFA1
:1032D00010E0FFF73FFB05460420FFF731FB0C4AE7
:1032E0000123135535B96FF04F004FF4FA61335590
:1032F000FEF7BCF9284602E00C2000E00B2002B0EB
:1033000070BD00BF998BFF1F270B0100A08BFF1F13
:10331000848BFF1F10B5044604480CB1FF2100E068
:10332000214605F053F8024B1C7310BD888BFF1F1C
:10333000F088FF1F70B504461646124D39B1124B86
:103340002A78186899882346FFF7FEFD03E00E48A7
:10335000214605F03BF82C709EB10C48FEF750FF5B
:10336000192C03D05A2C06D1094800E00948BDE8C1
:103370007040FEF755BF21460748BDE87040FEF794
:103380004FBF70BD8E8BFF1FDE8BFF1F650B0100D3
:10339000830B01008B0B0100E00201002DE9F341DA
:1033A00004465048FEF73CFF24B94F4B1B68002BE6
:1033B00000F092804D4B9A6A4FF00A0801329A62EF
:1033C0005620CDF80080642101224FF4FA53FFF714
:1033D0004BFC0446002840F081804FF47A660325B8
:1033E00040F2DC51322201230096019540F2A460A4
:1033F000FFF7B0FA40F2DC510096019540F21270EE
:1034000064222346FFF7A6FA0146002867D140F25E
:1034100012700A46FEF7BCF9044600285ED1234626
:103420000195009640F2A461322240F21270FFF73B
:1034300091FA01210A461920FFF77CFF304601F07E
:10344000F5FB214601225A20FFF774FF40F6B837FA
:103450004FF4C87001F0EAFB019540F2DC516422A0
:103460000123009740F21270FFF774FAC82001F0B0
:10347000DDFB2346019540F2A4613222009740F221
:103480001270FFF767FA642001F0D0FB01210A46B1
:103490001920FFF74FFF304601F0C8FB21460122FB
:1034A0005A20FFF747FF4FF4C87001F0BFFB0195AA
:1034B0000D4D009740F2DC516422012340F212705E
:1034C000FFF748FA286808FB00F0FFF739FA0848C8
:1034D0002C60FEF7A5FE01E00C2000E0204602B0C3
:1034E000BDE8F081930B0100808BFF1FA08BFF1FB5
:1034F000AF0B010008B5FDF7BBFF0648FEF790FED5
:10350000192000210122FFF715FFBDE8084001F056
:10351000EFBE00BFC50B010070B504461646174D3F
:1035200039B1174B2A78186899882346FFF70CFDA4
:1035300003E01348214604F049FF2C70E6B111481E
:10354000FEF75EFE282C0FD003D8252C0ED10E4896
:1035500004E0682C06D0A02C08D10C48BDE87040CF
:10356000FEF75EBE0A48F9E70A48F7E721460A482F
:10357000BDE87040FEF754BE70BD00BFE58BFF1F75
:10358000D88BFF1FDD0B0100F00B0100B40C010014
:10359000F50B0100C30C0100E00201002DE9F3412D
:1035A000314F3248FEF73CFE3B78002B55D1304B73
:1035B000DA6A03250132DA622A20009564210122A9
:1035C0004FF4FA53FFF750FB002849D141F28836F7
:1035D000009601954FF496704FF4527164220123C6
:1035E000FFF7B8F90446002839D14FF452714FF46F
:1035F000FA6240F6B830FEF7CBF84FF4FA638DE884
:103600002800F02023464FF452716422FFF7A2F9FC
:10361000044620BB21460122A020FFF77DFF4FF486
:10362000C87001F003FB214601222820FFF774FF38
:103630000A20FFF785F94FF001080E4887F800804F
:10364000FEF7EEFD009601954FF452716422434659
:103650004FF49670FFF77EF901E00C2000E0204661
:1036600002B0BDE8F08100BF988BFF1FFA0B01008C
:10367000A08BFF1F0D0C0100F7B5894E8948FEF79E
:10368000CFFD3378002B40F00581874B9A680324E7
:1036900001329A602E200094642101224FF4FA53E3
:1036A000FFF7E2FA0546002840F0F68040F6B8330E
:1036B0008DE818007D4C40F2EA61E6206422012387
:1036C000FFF748F9A17811B1A020294600E0282091
:1036D0000122FFF721FF7648FEF792FD00214FF40B
:1036E000FA62E620FEF754F840F2DC5005238DE83C
:1036F00009004FF4FA61E62064220023FFF72AF95B
:1037000001280AD140F23A7001F00EFE0AF01AFBCD
:10371000C4F880006748FEF783FD40F6B835032300
:1037200040F2EA616422019300950123E620FFF74D
:1037300011F96148FEF764FD40F2EA614FF4FA6264
:103740002846FEF725F840F2DC51052300208DE8DD
:103750000A00322240F2EA610346FFF7FBF8012833
:103760000AD1962001F014FE01F0DEFD0AF0EAFA1B
:10377000E0675048FEF754FD40F6B837032540F2A5
:10378000EA616422012300970195E620FFF7E2F841
:103790000097019540F211104FF4C8616422012393
:1037A000FFF7D8F8002878D14FF4AD704FF4AF612F
:1037B0004FF4FA62FDF7ECFF00286ED10225A178E4
:1037C00011B1A020002100E028200122FFF7A4FE73
:1037D0004FF4C87001F02AFA40F6B83203238DE89E
:1037E0000C004FF4E161C82064220023FFF7B2F817
:1037F0000146002851D1C8204FF4FA62FDF7C8FFF6
:103800000346002849D14FF4FA6105228DE80600ED
:10381000C8206422FFF79EF801280AD140F23A70CE
:1038200001F082FD0AF08EFAC4F880002348FEF70A
:10383000F7FC2348FEF7F4FCA17811B12820002101
:1038400000E0A0200122FFF767FE4FF4C87001F0EE
:10385000EDF9013DB3D101241A48347041F28837A3
:10386000FEF7DEFC0A263220FFF76AF823460097AF
:1038700001964FF4E1616422C820FFF76BF80097CE
:1038800001964FF4C8616422234640F21110FFF7FD
:1038900061F801E00C2000E0284603B0F0BD00BF55
:1038A000D18BFF1F180C0100A08BFF1FF088FF1F9A
:1038B000300C010019020100410C0100520C010002
:1038C000670C0100790C010070B504461646194DCD
:1038D00039B1194B2A78186899882346FFF734FBC9
:1038E00003E01548214604F071FD2C7006B313481F
:1038F000FEF786FC642C0CD005D83C2C10D0412C53
:1039000010D10F4808E0822C05D08C2C0AD10D482C
:1039100002E00D4800E00D48BDE87040FEF780BCB5
:103920000B48F9E721460B48BDE87040FEF778BC2C
:1039300070BD00BF7C8BFF1FD28BFF1F8A0C010064
:10394000AC0C0100BB0C0100910C0100980C0100B3
:10395000A30C0100E002010073B52D48FEF760FCE6
:103960002C4B1A781E46002A4ED12B4D2B68002B6B
:10397000C8BF0E2049DC294A536803240133536031
:10398000642100942A2001224FF4FA53FFF76CF9C6
:103990000146002839D18C200122FFF795FF204BEA
:1039A0009B7840F6B8328DE81400962013B14FF49E
:1039B0006B7101E04FF4397101233222FEF7CAFF27
:1039C000002101224120FFF77FFF0A20FEF7B8FF08
:1039D00041F2883001F02AF92B681248083301249B
:1039E0002B603470FEF71CFC03230093642100223B
:1039F0004FF4FA532A20FFF737F9642000212246BA
:103A0000FFF762FF002000E00C2002B070BD00BF95
:103A1000CA0C0100988BFF1FE88BFF1FA08BFF1FB4
:103A2000F088FF1FDC0C0100F7B52A4F2A48FEF78B
:103A3000F7FB3B78002B47D1284E3368002BC8BFDB
:103A40000E2044DC264B1A6A032501321A622C2010
:103A50000095642101224FF4FA53FFF705F904465B
:103A6000A0BB214641200122FFF72EFF40F6B833CC
:103A70008DE828004FF46B710123322240F622308A
:103A8000FEF768FF214601228C20FFF71DFF0A2068
:103A9000FEF756FF41F2883001F0C8F8336811484C
:103AA0000833336001263E70FEF7BAFB22460095CC
:103AB00064214FF4FA532C20FFF7D6F864202146F6
:103AC0003246FFF701FF01E00C2000E0204603B082
:103AD000F0BD00BFE48BFF1FE60C0100808BFF1FD1
:103AE000A08BFF1FFC0C01002DE9F743DFF82C81B0
:103AF0004448FEF795FB98F80030002B7CD1424BF0
:103B0000DA690132DA61414B9E7840F6BA1240F62A
:103B1000F2030325002E0CBF16461E4600955620C4
:103B2000642101224FF4FA53FFF79EF8002866D172
:103B300036B240F6B83700970195304640F2D6616C
:103B400064220123FEF706FF0446002856D12146D1
:103B500001228C20FFF7B8FE4FF4C87001F066F820
:103B6000012300970195304640F23A713222FEF768
:103B7000F1FE214601224120FFF7A6FE4FF4C87056
:103B800001F054F8214601228C20FFF79DFE4FF4EE
:103B9000C87001F04BF80A20FEF7D2FE41F28830DF
:103BA00001F044F81A4B1B481A6804321A601A4B89
:103BB0001A684FF0010904321A6088F80090FEF785
:103BC0002FFB234600970195304640F2D6616422D0
:103BD000FEF7C0FE21464A466420FFF775FE4FF40B
:103BE000C87001F023F80095642122464FF4FA537F
:103BF0005620FFF739F801E00C2000E0204603B022
:103C0000BDE8F0830A0D0100A08BFF1FF088FF1FA5
:103C1000E88BFF1F200D0100808BFF1F9C8BFF1F77
:103C20003C2000210122FFF74FBE8220002101220B
:103C3000FFF74ABE2DE9F341DFF8BC816948FEF782
:103C4000EFFA98F80030002B40F0C380664F3B68D5
:103C5000042B00F3C080654E3368042B00F3BB8057
:103C6000634BDA6803250132DA602B20009564216A
:103C700001224FF4FA53FEF7F7FF0446002840F004
:103C8000AC80214641200122FFF71EFE40F6B833EA
:103C90008DE8280040F23A710123322240F262207E
:103CA000FEF758FE21468C200122FFF70DFE21462B
:103CB00001226420FFF708FE4FF4487000F0B6FFC1
:103CC000FFF7AEFF4FF4487000F0B0FF214601222D
:103CD0006420FFF7F9FD4FF4487000F0A7FFFFF7ED
:103CE000A4FF4FF4487000F0A1FF21460122642098
:103CF000FFF7EAFD4FF4487000F098FFFFF790FFE0
:103D00004FF4487000F092FF214601226420FFF733
:103D1000DBFD4FF4487000F089FFFFF786FF4FF49A
:103D2000487000F083FF214601226420FFF7CCFD9C
:103D30004FF4487000F07AFFFFF772FF4FF44870BD
:103D400000F074FF214601226420FFF7BDFD4FF40F
:103D5000487000F06BFFFFF768FF4FF4487000F009
:103D600065FF214601226420FFF7AEFD4FF4487045
:103D700000F05CFFFFF754FF4FF4487000F056FF6F
:103D8000214601226420FFF79FFD4FF4487000F0A8
:103D90004DFFFFF74AFF4FF4487000F047FF214600
:103DA00001226420FFF790FD3B68124804333B601A
:103DB000336804333360012388F80030FEF730FAAB
:103DC0000095642122464FF4FA532E20FEF74CFF53
:103DD00003E00C2002E00E2000E0204602B0BDE827
:103DE000F08100BF2E0D0100E88BFF1F808BFF1FAD
:103DF000A08BFF1F400D0100EC8BFF1F10B501468B
:103E00000B282CD8DFE800F00609101316181A1E2C
:103E10002124270DFFF7B8F901E0FFF79DFD0446C7
:103E200021E0FFF7BBFBFAE7FFF726FCF7E7FFF718
:103E300001FFF4E7002002E0012000E00220FFF78C
:103E4000FDF9ECE7FFF750FEE9E7FFF7EDFDE6E7E8
:103E5000FFF7E4F9E3E70020FFF7A0FADFE7064801
:103E6000FEF7DEF90B242046FEF7F6F90C2C14BF02
:103E70002046002010BD00BF4A0D010008B50A48C9
:103E8000FEF7CEF95A2000210122FFF753FA252030
:103E900000210122FFF740FB642000210122BDE840
:103EA0000840FFF711BD00BF6B0D010007B5FEF71D
:103EB000A7FA2F48FEF766FA2E4B9B780BB12E48D7
:103EC00000E02E48FEF75EFA2D48FEF75BFA2D481B
:103ED000FEF758FA2C48FEF755FA2C48FEF752FA2E
:103EE0002B48FEF7F7FC2B48FEF74CFA40F2DC506B
:103EF00000F09CFEFFF7C2FF0020FEF71BFD2648E6
:103F0000FEF740FA2548FEF73DFA2548FEF73AFA53
:103F1000FEF79CF82348FEF735FAC82000F086FE2D
:103F20004FF4FA7100229620FDF7EEFCFDF74EFBF0
:103F3000FEF7A0F800F03EFE4FF4617000F076FE50
:103F40001348FEF7C7FC42F2107232234FF4FA70A6
:103F50008DE80C00014664220123FEF7FBFC0120E2
:103F6000FFF76CF903B05DF804EB00F077BE00BF1B
:103F7000850D0100F088FF1F910D0100A10D0100CA
:103F8000AC100100B30D0100C60D0100D90D0100F8
:103F9000E20D0100730A0100830A01008F0A01008B
:103FA0000B0E0100190E010070B586B0FEF728FA5D
:103FB000FEF726FA5648FEF7E5F9564B9B780BB10B
:103FC000554800E05548FEF7DDF95548FEF7DAF9A7
:103FD0005448FEF7D7F95448FEF7D4F95348FEF792
:103FE000D1F95348FEF7CEF95248FEF7CBF95248C3
:103FF000FEF7C8F9514B93E8070006AC0C3304E90F
:10400000070093E8030001AA82E80300FFF736FFE8
:104010004FF4FA7000F00AFE4948FEF7B3F9FEF7D4
:1040200015F84848FEF7AEF9C82000F0FFFD002261
:104030004FF4FA71FA20FDF767FCFDF7C7FAFEF7B7
:1040400019F800F0B7FD4FF4FA7000F0EFFD002012
:10405000FEF770FC42F210714FF49670FDF706FB0C
:104060000520FEF76DFC0520FEF76AFC1D20FEF71B
:1040700067FC3548FEF7D4F803240134022C03DD35
:104080003248FEF7CDF8002406AA02EB840353F869
:104090000C0CFFF7B3FE2E4B1B78002BEDD02D4BF5
:1040A0001B78002BE9D02C4B5B78002BE5D0092046
:1040B000FFF7A4FE0A20FFF7A1FE284B1A681E4650
:1040C000002AF4D12648FEF7ABF8022424B1254893
:1040D000FEF7A6F8002400E0012406AA02EB840300
:1040E00053F8140CFFF78AFE1F4B1B78002BEDD002
:1040F0003568002DEAD10120FFF750F91920294633
:104100000122FFF717F906B0BDE8704000F0A6BD28
:10411000200E0100F088FF1F910D0100A10D01008C
:10412000AC100100730A01002A0E0100830A01008D
:104130008F0A01000B0E01003F0E0100580A01001A
:10414000510E0100190E0100560E0100660E01000D
:10415000D18BFF1F988BFF1F998BFF1F808BFF1F39
:104160007C0E01008C0E01009C8BFF1F38B5184B94
:10417000184AC3F8CC20184AC3F8D020174AC3F80D
:10418000D420C3F8DC201649164AC3F8D810C3F867
:10419000E02000244FF4FA72112113481C70A3F898
:1041A000A020124D04F0FAF82121114804F0F6F88D
:1041B0000921104804F0F2F82846052104F0EEF831
:1041C0002846214604F002F9BDE83840FFF756BE04
:1041D000F088FF1F0000444100C054458FC2753D68
:1041E0009A99993ECDCCCC3EDE8BFF1F888BFF1F6A
:1041F000D88BFF1FD28BFF1F08B50A4B0A4A1A60E3
:1042000000225A6004F04EFB084804F053F80848B6
:1042100004F050F8074804F04DF80748BDE808409E
:1042200004F048B8908BFF1F701B0100DE8BFF1F4E
:10423000D88BFF1FD28BFF1F888BFF1F08B50D483F
:10424000FEF7A0F84FF47A710B4A40F2DC50FDF70C
:104250005BFBFDF7BBF94FF4FA6004F007FE00F0DA
:10426000A9FCC8204FF4FA61FDF700FABDE8084048
:1042700001F03EB8CF0A0100DB0F49407047FFFF55
:1042800008B5FDF7F5F80248BDE80840FDF7C8BFDE
:10429000A20E010038B50446154641B1134B18680B
:1042A0009988134B1A782346FEF74EFE03E00F4819
:1042B000214604F08BF8BDB10E48FDF7A1FF372C65
:1042C0000AD03C2C03D01D2C08D10B4800E00B4831
:1042D000BDE83840FDF7A4BF0948F9E72146094881
:1042E000BDE83840FDF79CBF38BD00BFF88BFF1F0D
:1042F000FE8BFF1FB60E0100F00B0100D00E010077
:10430000D60E0100E002010073B535480524FDF723
:1043100087FF642101220094332041F28833FEF7A5
:10432000A3FC0021054601223C20FFF7B3FF0DB19D
:10433000002053E040F26A4029462A46FDF728FA59
:1043400006460028F4D14FF4FA65372031460122A1
:10435000FFF7A0FF5021642201230095019440F251
:104360006A40FEF7F7FA4FF4D271642233460095A3
:10437000019440F26A40FEF7EDFA502164220123D5
:10438000009501944FF48760FEF7E4FA4FF4D27180
:1043900064223346009501944FF48760FEF7DAFA01
:1043A0004FF4D271642201230095019440F29C40A5
:1043B000FEF7D0FA5021642201230095019440F2C7
:1043C0009C40FEF7C7FA0095019440F29C404FF4E0
:1043D000D27164223346FEF7BDFA642002B070BD8C
:1043E000E30E010037B504460D4661482146FDF74E
:1043F00017FF022C05DD5F482146FDF711FF0B205A
:104400003DE03C2000210122FFF744FF15B13C2D87
:1044100024D043E0012C1FD0022C1DD0002C46D10B
:1044200041F2883303258DE8280040F26A404FF4BA
:104430002A7164220123FEF78DFAB0BB40F6B8332F
:104440008DE8280040F252304FF448716422012375
:10445000FEF780FA80B328E00F2010E0464B53F8B7
:10446000340040F24C42A0F1C801914206D803EB5F
:10447000C4035968A1F56173C82B03D90A20FDF75D
:10448000EBFE72E041F2883203238DE80C006422D7
:104490000123FEF75FFA00283FD108E00B20FDF76B
:1044A000DBFE36482946FDF7BBFE00205EE0012C0E
:1044B0000BD0022C15D094BB4FF4FA534FF0060CDE
:1044C0008DE8081040F2523012E04FF4FA534FF0EA
:1044D000060E8DE8084040F2262096215022234601
:1044E00009E04FF4FA5306258DE828004FF42F70A9
:1044F000962150220123FEF72DFA80B1204B1E4950
:10450000B3F98C2041F8342001EBC401B3F98E30AB
:104510004B601C482146FDF783FE3C2026E0012C21
:104520000ED0022C14D004BB4FF4FA5004238DE8B3
:1045300009004FF4C87140F252305022234612E075
:104540004FF4FA5104238DE80A0040F2262006E0D9
:104550004FF4FA5204238DE80C004FF42F704FF4FF
:10456000C87150220023FEF7F5F9642003B030BD76
:10457000030F01001D0F01006887FF1F4C0F010092
:10458000F088FF1F680F010013B5FDF739FF2D48B4
:10459000FDF7F8FE2C4B9B780BB12C4800E02C4823
:1045A000FDF7F0FE2B48FDF7EDFE2B48FDF7EAFE88
:1045B0002A48FDF7E7FE2A48FDF7E4FE2948FDF703
:1045C000E1FE2948FDF7DEFE4FF4FA7000F02EFB05
:1045D0002648FDF7D7FEFDF739FD2548FDF7D2FE49
:1045E0004FF47A7000F022FB9F2100226520FDF736
:1045F0008BF9FCF7EBFFFDF73DFD4FF4FA5000F0AF
:1046000015FB42F21074142301930094B321642229
:104610000123C820FEF79EF90A230122009364219A
:1046200023463320FEF720FB00200146FFF7DAFE89
:1046300000F0C0FA4FF4FA7002B0BDE8104000F08C
:10464000F5BA00BF810F0100F088FF1F910D010036
:10465000A10D0100AC100100730A0100830A0100E2
:104660008F0A01000B0E01003F0E0100510E0100E8
:10467000A80A010008B50548FDF7D2FD1D2000215C
:104680000122BDE80840FFF705BE00BF6B0D010029
:104690007FB5FDF7B5FE3F48FDF774FE3E4B9B78B6
:1046A0000BB13E4800E03E48FDF76CFE3D48FDF78B
:1046B00069FE3D48FDF766FE3C48FDF763FE3C4859
:1046C000FDF760FE3B48FDF75DFE3B48FDF75AFEF7
:1046D0004FF4FA7000F0AAFAFFF7CCFF3748FDF765
:1046E00051FEFDF7B3FC3648FDF74CFEC82000F044
:1046F0009DFA9F2100226520FDF706F9FCF766FF71
:10470000FDF7B8FC00F056FA4FF4FA7000F08EFA9C
:10471000002440F6B8300294039400F087FA294848
:10472000FDF77EFD632042F21071FCF79FFF24B974
:104730000298FFF7E9FD029004E000200399FFF7DB
:1047400051FE039004AA02EB84031F4853F8082C7F
:104750002146FDF765FD032684F0010404AA02EB5F
:1047600084031A4853F8085C21462A46FDF758FD91
:10477000642DDCD1013EEFD10A23009329460122AA
:1047800042F210733320FEF76FFA04B0BDE87040B8
:1047900000F064BA810F0100F088FF1F910D010045
:1047A000A10D0100AC100100730A0100830A010091
:1047B0008F0A01000B0E01003F0E0100510E010097
:1047C000A80A01008C0F0100A70F0100BE0F010015
:1047D0000E4B0F4801221A700E4AC3F8CC200E4A25
:1047E000C3F8D0200D4AC3F8D4200D4AC3F8D8200E
:1047F0000C4AC3F8DC200C4AC3F8E0201D2140F22B
:10480000EE22A3F8A02003F0C9BD00BFF088FF1F6F
:10481000F88BFF1F0000444100F009458FC2753D31
:104820000AD7A33DCDCC4C3D0AD7233C08B5064B57
:10483000064A1A6000225A6004F034F80448BDE8C1
:10484000084003F037BD00BFF08BFF1F701B010055
:10485000F88BFF1F0B4B70B51C681D46FDF7E4FB82
:104860000646FDF7D2FB002EF8D10028F6D1052030
:1048700004F0FCFA2B68181BB0F57A7F94BF002077
:10488000012070BDA09CFF1F034B1B780BB1FFF7ED
:10489000FFBEFFF789BB00BFF088FF1F10B5084CB3
:1048A0006178D1F1010138BF00210120617004F06D
:1048B00043F86378D3F1010338BF0023A37010BD20
:1048C000F088FF1F034B5A79013202F007025A7138
:1048D000704700BFF088FF1FF8B5012004F018F8FA
:1048E000954C6070D0F1010038BF0020A07002200C
:1048F00004F00EF86071002004F00AF8092590FB1E
:10490000F5F505EBC505451B2846FDF791FDFDF7BF
:104910008BFB0746FDF779FB064647B30028F6D127
:104920008648FDF77DFC052004F0A0FA0135092337
:1049300095FBF3F303EBC303ED1A3046E9B203F042
:10494000FBFF2846FDF774FDFFF784FF58B17C4854
:10495000FDF766FC3046314603F0EEFF3046FDF7CA
:1049600067FD3546D3E77748FDF75AFCCFE70028C7
:10497000CDD07548FDF754FC052004F077FAFFF719
:1049800069FF7248FDF74CFC082DC0D801A252F80F
:1049900025F000BFB9490000BF4900000F490000E1
:1049A000C74900000F490000D9490000E149000053
:1049B000034B0000314B0000FFF766FFA7E7FFF74E
:1049C0006DFF0120A1E7237B0BB1002000E0012057
:1049D000FEF7A0FC032098E7FFF774FF052094E79B
:1049E0000220617903F0A8FFFDF70AFD6379072B28
:1049F0008DD801A252F823F0194A0000474A00005E
:104A00000F490000734A00009F4A0000B54A0000A9
:104A1000D14A0000DD4A0000FCF7D8FD4C48FDF704
:104A2000B1FC4C48FDF7AEFC4B48FDF7ABFC40F643
:104A3000B83004F01BFA237813B1FFF7FFFB66E7E9
:104A4000FEF746FB63E74548FDF79CFC4FF47A70A0
:104A5000002301460022E373FCF756FF642140481F
:104A60000A4600F06AF94FF496700021FCF708FD41
:104A7000FEE73C48FDF786FC00210A460B464FF452
:104A80007A70FCF7ADFD41F288313748FCF74EFEF5
:104A90000020014602460346FCF7A2FDFEE733482C
:104AA000FDF770FC237813B1FFF76EFD2FE7FFF7DA
:104AB000FDF92CE723782BB12D48FDF763FCFFF7B8
:104AC000DDFB24E72B48FDF75DFCFEF725FB1EE729
:104AD0002948FDF757FCFEF763FA18E72748FDF76A
:104AE00051FC2748FDF74EFC2648FDF74BFC2648B5
:104AF000FDF748FC2548FDF745FC2548FDF742FC3D
:104B000005E7237983F001032371FDF779FC214840
:104B1000FDF738FC2379002B3FF4F9AE40F2DC506E
:104B20004FF47A711C4AFCF7EFFEFCF74FFDEEE6FE
:104B3000FCF712FFEBE600BFF088FF1FDB0F010060
:104B4000EA0F0100FF0F01000F1001001D1001000E
:104B50002C100100391001004C1001005B10010005
:104B60001C89FF1F69100100DB0FC940CD04010043
:104B7000EA0401007910010016050100801001000F
:104B800093100100A2100100AF100100C11001003C
:104B9000D4100100E1100100DB0FC93F034B044AB0
:104BA0001A6000225A6003F07DBE00BF008CFF1F18
:104BB000701B0100034B04481A68044B1A61FDF78F
:104BC0002FBB00BFA09CFF1FF4100100F088FF1F47
:104BD000044B1868044B1B6903F5BF33D033181A14
:104BE000704700BFA09CFF1FF088FF1F08B5FFF7AC
:104BF000EFFFF92813DC0A48FDF712FB094B0022EE
:104C00001A611B7813B1FFF73BFB01E0FEF772FC62
:104C10000548FDF705FB0A2004F028F9FBE708BD6D
:104C200003110100F088FF1F23110100094B70B52B
:104C30001C6805461E4633681B1BAB4208D2064B58
:104C40001B690BB1FFF7D2FF0A2004F00FF9F2E75E
:104C500070BD00BFA09CFF1FF088FF1F08B5FFF7C5
:104C6000B7FF01460448FDF7DBFAFFF7B1FFBDE8E7
:104C70000840FFF7DBBF00BF31110100034B044ABE
:104C80001A6000225A6003F00DBE00BF088CFF1F9F
:104C9000701B0100011E08B54FF0160004DB03F085
:104CA000E1FF1820002104E0494203F0DBFF182057
:104CB0000121BDE8084003F069BF011E08B54FF0AF
:104CC000170004DB03F0CEFF1920012104E0494264
:104CD00003F0C8FF19200021BDE8084003F056BFCB
:104CE00008B51620012103F07FFF1820012103F0F1
:104CF0007BFF1720012103F077FF1920012103F02A
:104D000073FF0020FFF7C6FF0020BDE80840FFF753
:104D1000D4BFFFFF034B044A1A6000225A6003F01D
:104D2000C1BD00BF108CFF1F701B010000211C22A1
:104D300003F036BC80E8060070478160C2607047AF
:104D4000034B044A1A6000225A6003F0ABBD00BF57
:104D5000188CFF1F701B0100194B1A491A6842F486
:104D600080521A60184B194A1A60194ADA6002F127
:104D700080421A614FF400720A60164901200870DF
:104D800015491960154B1B78D90704D4144A4FF400
:104D90001071116001E013490A6013F0020F0CBF9B
:104DA000114912495B074FF4007254BF104B114B6D
:104DB0000A6054BF4FF410724FF400721A607047CB
:104DC0003C80044010B0044000C0024001401F80FD
:104DD000000001B8889EFF1F000C1F80809EFF1FEF
:104DE00018B0044008C004401CB004400CC004408B
:104DF00014B0044004C0044030B585B003F072F92B
:104E0000002838D01D4B1E481E4D0024C3F8A44076
:104E1000C3F8A840C3F8AC40C3F8B040C3F8B440EE
:104E2000194B0293194B02A95B68039301F028FF09
:104E3000FA2302A9022217208DF809308DF80840C4
:104E400002F074FD288804A904231E3001F8093DEE
:104E5000012280B202F06AFD28888DF8084000F532
:104E60008F7002A9012280B202F060FD4FF4FA7047
:104E700003F0FCFF012005B030BD00BFF088FF1F2C
:104E80008187FF1F589CFF1F701B0100949BFF1F11
:104E900007B5FFF761FF074B0093074B07485B68B7
:104EA000019369464FF4046201F0B6FFC0B203B04B
:104EB0005DF804FB701B0100C897FF1F849BFF1F58
:104EC00010B5174CFFF748FF2046022101F011FFF3
:104ED0002046022101F00DFF2046022101F009FFCA
:104EE0002046022101F005FF2046002101F001FFCC
:104EF0002046002101F0FDFE2046002101F0F9FED0
:104F00002046112101F0F5FE20460649112201F04C
:104F100021FF20463321BDE8104001F0EABE00BF6A
:104F2000849BFF1F9511010008B5134B19780229C6
:104F300002461CD15978022919D19978022916D133
:104F4000D978022913D19979DB7903EB012140F259
:104F50009F33994204D0B1F56A7F01D0074804E03D
:104F6000B2F56A7F05DA06481146FDF759F90020C7
:104F700008BD012008BD00BFD097FF1FA61101008A
:104F8000E41101002DE9F041184C4FF6FF73A4F82D
:104F9000B830A4F8BA302746002300EB43059EB290
:104FA00095F857C095F85840104D04EB0C2421F8A3
:104FB0001340C41894F88C42D45431F81340B7F815
:104FC000BAC0A44507D9A4F15B081FFA88F840F6D7
:104FD000B45CE04505D90133B3F5877FDDD1BDE889
:104FE000F081A5F8BA40A5F8B860F4E7F088FF1F93
:104FF0002DE9F04F594A5A4B12784FF000088DB006
:1050000083F8A380002A00F0A580B3F88C200892D2
:10501000D3F890200992DFF86491B3F88E20B3F8AA
:10502000A0300A920B93C2461FFA88F3C3F187049B
:10503000C3F1AE039BB24E2BA4B266D8494B33F8F2
:1050400018B0584608F04CFACDE9060120B208F035
:1050500079FE454908F07EFF444908F0C7FE014645
:10506000099808F0BBFD08F04DFACDE9040106F0FF
:105070007BFB089B044618B20D4608F031FA224625
:1050800006460F462B46DDE9060108F08FFA0B466F
:1050900002463946304608F0D7F808F021FD0446AC
:1050A00049F8040CDDE9040106F098FB0A9A06466B
:1050B00010B20F4608F014FA3246CDE904013B461F
:1050C000DDE9060108F072FA0B460246DDE904014B
:1050D00008F0BAF808F004FDA4F1C90C40F6262344
:1050E0009C45C9F8000010D8C93840F23E63984288
:1050F0000BD8ABF15B0292B240F6B4539A4204D89B
:105100000B9B9B4538BF4FF0010A08F10108B8F529
:10511000877F09F1080987D1114B83F8A3A01B7978
:10512000C3B10024124B134803EBC402214652685A
:1051300000920C4A32F8142001920F4AA25C0292AB
:1051400053F83430C4F187020134FDF769F8B4F53F
:10515000877FE7D10DB0BDE8F08F00BF8087FF1FCC
:10516000F088FF1F9C94FF1F00003443DB0F494071
:105170002C8CFF1F71120100B896FF1F308CFF1F8F
:1051800070B5204E337823B10025FFF731FF35701D
:1051900035E0FFF7E1FD40F2B1321B481B491C4CE2
:1051A00001F0F2FD421C012A034606D8D4F8A430CF
:1051B0000133C4F8A430012521E0D4F8B420C4F8A8
:1051C000B0001344C4F8B430FFF7AEFE054660B13A
:1051D0000E481049104AFFF7D5FED4F8A830012533
:1051E0002B443570C4F8A83009E0D4F8AC30013352
:1051F000C4F8AC30044801F0CFFD0130FAD12846A4
:1052000070BD00BF288CFF1F849BFF1FD097FF1F1E
:10521000F088FF1F9C94FF1FB896FF1F38B5114BF5
:10522000114D1D6000245C6003F03CFB0F4BA82275
:10523000C02102201D6019715A719C71D8710C4BEC
:105240005A7101221D601971DA719C71094B4FF47A
:105250007A729A60084A1A6004221C711C735A738D
:1052600038BD00BF208CFF1F701B0100949BFF1FE7
:10527000C897FF1F849BFF1F3819010008B51A202B
:1052800005F032FA0248BDE8084001F091B900BFCC
:10529000A89BFF1F38B50C4801F074F998B10B4C6E
:1052A000236803B938BD1D8845B11A20294600225C
:1052B00005F090F923680233236038BD1A2005F009
:1052C00013FA256038BD38BDA89BFF1FA49BFF1FA4
:1052D000014B024A1A607047A49BFF1FA2120100F3
:1052E000014B024A1A607047A49BFF1FAC120100D9
:1052F000014B024A1A607047A49BFF1FB2120100C3
:1053000008B5064B064A1A6000225A6003F0CAFA32
:1053100004486421BDE8084001F028B99C9BFF1FA8
:10532000701B0100A89BFF1F08B508F00BFD044B84
:10533000D3F8CC1008F05AFD08F01EFF08BD00BFDE
:10534000F088FF1F08B508F0FDFC044BD3F8CC1023
:1053500008F000FE08F010FF08BD00BFF088FF1F36
:1053600008B5044BD3F8D01008F040FD08F004FF56
:1053700008BD00BFF088FF1F08B508F0E3FC034B31
:10538000D3F8D01008F0E6FD08BD00BFF088FF1F7D
:10539000044BDA7822B95B7813B1C0F53B60083072
:1053A000704700BFF088FF1F10B50B49044608F096
:1053B000BBFE20B12046094908F010FCF5E7204665
:1053C000074908F0CFFE28B12046044908F004FC44
:1053D0000446F4E7204610BDDB0F49C0DB0FC9408F
:1053E000DB0F494008B5074BDA78014642B95B78D4
:1053F00033B1054808F0F0FBBDE80840FFF7D4BF23
:10540000084608BDF088FF1FDB0F49402DE9F04139
:1054100007460698401A1646984608F061F8044672
:10542000C7EB08000D4608F05BF802460B46204625
:10543000294606F01DFA044630460D4608F062F88B
:1054400002460B462046294607F0FCFE08F070FB9A
:10545000BDE8F041FFF7A8BF034B044A1A600022E1
:105460005A6003F01FBA00BFB49BFF1F701B0100FE
:105470002DE9F74F1E46BDF93030BDF834B0C2EB10
:1054800003091546721AB9F1000FB8BFC9F1000936
:10549000002AB8BF52429145D4BF4FF000094FF0E7
:1054A000010980460C46B9F1000F04D032462C4663
:1054B0001E460D461346B44205DD2A461D461346D8
:1054C000224634461646C4EB060A5A1B1FFA8AFACD
:1054D00082EAE271A1EBE2710FFA8AF7022297FBEE
:1054E000F2F74FF6FF729D42B8BF01220091BFB2A2
:1054F0000192B4421DDCD8F800304046D3F808C011
:10550000B9F1000F02D02946224601E021462A4681
:105510005B46E047009ABF1ABBB29FB23A0405D57A
:10552000019903EB0A070D442DB2BFB2013424B236
:10553000DFE703B0BDE8F08F2DE9F3470768BDF85A
:105540002C50BDF92860009504467F699046894635
:105550009A46B84723680095721E42445F69204608
:105560004946534612B2B847236800951F69204642
:10557000494642463346B8470AF1FF3A2368009548
:105580000AEB09011D69204609B242463346A84785
:1055900002B0BDE8F08713B5013B13441BB2009382
:1055A0000468BDF810300193E4680B46A04702B0D0
:1055B00010BD37B5013B0468BDF8185000920B448C
:1055C0000195E4681BB2A04703B030BD2DE9F34755
:1055D000BDF928A0BDF82C7006460D4691469846A8
:1055E0000C4605EB08039C420BDA31680097D1F8B2
:1055F00010C0304621464A4653460134E04724B2A3
:10560000EFE702B0BDE8F08713B5B0F90C200468ED
:10561000009201910021B0F90A30E4690A46A047DE
:1056200002B010BD7047FFFF30B5C1800024094DA6
:105630000281418182814FF6FF7101220471056070
:10564000C475C48104828275818241820276447667
:10565000C46130BDC81701002DE9F04F87B01FFAB3
:1056600083F80293C8F101039BB20193C8EBC833DE
:105670005B009BB2BDF84050059396B203680446A8
:10568000914608EB0602D3F808C012B22B460F462B
:10569000E0472368C8EB0602D3F808C03946204625
:1056A00012B22B46E047BFB2236808EB0701D3F8DC
:1056B00008C0204609B24A462B46E0472368C8EB9B
:1056C0000701D3F808C04A46204609B22B46E047F6
:1056D00000220492049A13B2029A934280F28780C5
:1056E000019B1B040CD4029A531E059A1BB2029311
:1056F000931C9BB29AB20592019A13449BB20193F8
:10570000049B019A1FFA83F802EB480303339BB210
:105710000193029B9BB2994607F1010BC34403938B
:10572000B14423680FFA8BFB0FFA89F9D3F808C04C
:1057300059464A4620462B4607F1FF3AE047C8EB58
:105740000A0A23680FFA8AFAD3F808C051464A4673
:1057500020462B46E047039A2368C2EB06090FFA5E
:1057600089F9D3F808C059464A4620462B46E047F7
:1057700023685146D3F808C04A4620462B46E047E6
:10578000DDF80CA0236806F1010BC344BA440FFAFC
:105790008AFA0FFA8BFBD3F808C0204651465A46C6
:1057A0002B46E047039BC3EB070923680FFA89F9EF
:1057B000D3F808C0204649465A462B46E047731E98
:1057C000C8EB030823680FFA88F8D3F808C020460E
:1057D000514642462B46E04723684246D3F808C06C
:1057E000204649462B46E047049A013271E707B04C
:1057F000BDE8F08F2DE9F04F8BB01D469BB29DF8B0
:1058000050700897C3F10106C3EBC333BDF9547060
:1058100009975B00BDF8587003979BB20446069148
:105820000792B6B2059300270297029F3BB2AB42A4
:1058300080F28380310408D4059FBB1C9BB2013DDC
:105840009FB21E442DB20597B6B20298089A87B24D
:105850004FEA47091FFA89F909F103031E44D207E9
:10586000CDF81090B6B231D5069B0798099A1FFA69
:1058700083FB1FFA80FA1FFA82F9039800901FFA3F
:1058800085F8206809F101030BF10101C8EB0A0258
:10589000394403EB4803D0F810C009B2204612B2D5
:1058A0001BB2E0470398049B00900AF1FF3A20687E
:1058B00009F1030908EB0B01C7EB0A024B44D0F8CE
:1058C00010C009B2204612B21BB2E047089A9307F3
:1058D00030D5069B0798099A1FFA83FB1FFA80FAB6
:1058E0001FFA82F9039800901FFA85F8206809F1E1
:1058F00001030BF1FF31C91BC8EB0A0203EB48039C
:10590000D0F810C009B2204612B21BB2E0470AF12B
:10591000FF3A049B2068C7EB0A0209F10309039FC1
:105920000097C8EB0B014B44076909B2204612B23D
:105930001BB2B847029F013776E70BB0BDE8F08F86
:105940002DE9FF411C46BDF8287000979BB2154613
:10595000D21A5B0003F1010E036812B2D3F810C033
:105960000FFA8EF306468846E047032200238DE8AF
:105970000C000297304641462A462346FFF73AFF7D
:1059800004B0BDE8F0812DE9F04F8DB08046BDF93F
:105990005840BDF86400BDF960700490A242894689
:1059A0001546BDF95C1004DD254614464A46994665
:1059B0001346BC4205DD22463C4617461A460B46B6
:1059C0001146A54205DD2A46254614464A46994613
:1059D0001346BD421ED14B4506DB4B45ACBF1A46B4
:1059E0004A464B460FFA82F9994205DB8945B8BF12
:1059F00089460FFA89F91946D8F8002004980090D2
:105A000009F10109C1EB0903546940462A461BB25A
:105A1000A0478DE09BB21FFA89F90393C9EB0303FA
:105A20009BB2A8B20893A3B21A1A92B20992BAB260
:105A3000101A80B207900398BC4289B2C3EB0202ED
:105A4000C9EB010B18BF03F1FF33C0EB01011FFAD3
:105A50008BFB89B292B218BF1BB24FF0000ACDF88F
:105A600018B00A910B9214BF059305942E46D346A5
:105A7000059A964228DC099A079813B201B29BFB5B
:105A8000F3F39AFBF1F1089A06984B4449449BB210
:105A900089B20BFA82FB0AFA80FA0AB218B2904273
:105AA00002DC0A4619461346D8F8002004980090F4
:105AB00001335B1AD2F814C04046324609B21BB219
:105AC0000136E04736B2D3E70A9B06980FFA83FA0D
:105AD000341B0FFA80FB751B04FB0AF405FB0BF566
