:1000000000800020BD010000898C0000558C00009C
:10001000558C0000558C0000558C0000558C00005C
:10002000558C0000558C0000558C0000898C000018
:10003000898C0000558C0000898C0000458C0000E4
:10004000898C0000898C0000898C0000898C00005C
:10005000898C0000898C0000898C0000898C00004C
:10006000898C0000898C0000898C0000898C00003C
:10007000898C0000898C0000898C0000898C00002C
:10008000898C0000898C0000898C0000898C00001C
:10009000898C0000898C0000898C0000898C00000C
:1000A000898C0000898C0000898C0000898C0000FC
:1000B000898C0000898C0000898C0000898C0000EC
:1000C000898C0000898C0000898C0000898C0000DC
:1000D000898C0000898C0000898C0000898C0000CC
:1000E000898C0000898C0000898C0000898C0000BC
:1000F000898C000069970000898C0000B9B7000066
:10010000898C0000199C0000898C0000898C0000FB
:10011000898C0000898C0000898C0000898C00008B
:10012000898C0000898C0000898C0000898C00007B
:10013000898C0000898C0000898C0000898C00006B
:10014000898C0000898C0000898C0000898C00005B
:1001500009AA000021AA000039AA000051AA000043
:10016000E5860000819E0000898C0000898C0000DB
:10017000898C0000898C0000898C0000898C00002B
:10018000898C0000898C0000898C0000898C00001B
:10019000898C0000898C0000898C0000898C00000B
:1001A000898C0000898C0000898C0000898C0000FB
:1001B000898C0000898C0000898C0000564B4CF221
:1001C000205210B51A804DF628121A8000BF00BFC9
:1001D00008F05EFD514B4FF010621A60504A9A6071
:1001E000504ADA60A3F53043203B1A6812F480725B
:1001F00004D14D490A604FF4A8521A604B4B1A784B
:10020000110703D51A7842F008021A70484B2A22C7
:100210001A700023474A48499818884204D247492F
:10022000595899500433F5E7454A464B9A424FF0E6
:10023000000302D242F8043BF7E74349434A5958C6
:1002400099500433B3F5DE7FF7D1414B802103F899
:10025000011B40498B42F9D13F4B1A603F4B0A22A8
:100260001A70A3F5805324225A70A0221A709A792A
:100270009207FCD59A79D406FCD4394B9A7902F0CE
:100280000C02082AF9D105221A7143225A719A796F
:100290009006FCD5324B9A795106FBD5314A4FF086
:1002A000817111600521516020221A702C4B9B79BD
:1002B00003F00C030C2BF9D12B4B2C4A1A602C4B5E
:1002C0002C4A1A6000225A60072243F8042C2A4A5A
:1002D000C3F80C2D62B608F04BFF134B1B68DA070E
:1002E00005D5264808F0AEFD254B264A1A60264B58
:1002F0001B785B0609D5224C224A2368934204D11D
:100300001E4808F09FFD002323600EF019F908F045
:10031000C5FC0AF0C8FEFEE70E2005403080044010
:10032000823F04000100002B14D0034002D007409C
:1003300000E007406087FF1FD088FF1FE026010014
:10034000D088FF1F28A0FF1F000000000082FF1FB1
:1003500000E400E05FE400E008ED00E0005006404B
:10036000004006404480044004800440C010050062
:1003700014E000E03F1901000000202013FAEA5CBD
:100380001CE00340A5C3945A00F00740FFFFFFFFA5
:10039000FFFFFFFFFFFFFFFFFFFFFFFFFFFFFFFF6D
:1003A000FFFFFFFFFFFFFFFFFFFFFFFFFFFFFFFF5D
:1003B000FFFFFFFFFFFFFFFFFFFFFFFFFFFFFFFF4D
:1003C000FFFFFFFFFFFFFFFFFFFFFFFFFFFFFFFF3D
:1003D000FFFFFFFFFFFFFFFFFFFFFFFFFFFFFFFF2D
:1003E000FFFFFFFFFFFFFFFFFFFFFFFFFFFFFFFF1D
:1003F000FFFFFFFFFFFFFFFFFFFFFFFFFFFFFFFF0D
:10040000FFFFFFFFFFFFFFFFFFFFFFFFFEFFFFFFFD
:1004100010B5054C237833B9044B13B10448AFF33E
:1004200000800123237010BDD088FF1F0000000052
:10043000E026010008B5064B1BB106480649AFF39C
:1004400000800648036813B1054B03B1984708BD07
:1004500000000000E0260100D488FF1FD088FF1FA5
:100460000000000010B5044683709DF8083042700B
:10047000C37001700846012108F022FD6078012157
:1004800008F01EFD2078012108F0ECFC60780121C5
:1004900008F0E8FC204610BD2DE9F84F9E4D03788A
:1004A0002A689E499E4F42F480522A6004469D4A23
:1004B0009D4810600A2BD1608146176188464FF431
:1004C000007201D1994B02E0022B03D1984B1A60C4
:1004D000012333E0092B01D1964B02E0062B03D117
:1004E000954B1A60022329E0142B04D103F18043B9
:1004F00003F5982302E0172B03D1904B1A600423D5
:100500001CE0152B01D18E4B02E0162B03D18D4B35
:100510001A60082312E00F2B03D18B4B1A601023B3
:100520000CE08A4A8A4E52F8332032601846012184
:1005300008F0C6FC336801221A7000238548794A06
:100540008549864E03701160327812F0010F8A4699
:100550000CBF8349834983460CBF4FF410704FF49E
:10056000007012F0020F08600CBF7F487F484FF404
:1005700000710160510755BF7D4A7E4A4FF41071EA
:100580004FF4007111601904664AABB141F00043A9
:1005900043F088035363D36A03F47043B3F5405FB9
:1005A000F9D89BF80020A0785E4B4FEA024CD2B1FC
:1005B0004CEA000058630FE0654B1B6819704FF060
:1005C0008053D36288235363564BDB6A03F4704332
:1005D000B3F5405FF8D8E4E7DA6A02F47042B2F5A6
:1005E000405FF9D810E05A490A6840F0006082F88C
:1005F00000C04FF08052DA6258634A4BDB6ADA007F
:10060000FBD50B6801221A70464AD36A13F0F00F2B
:10061000FAD0936BD16A434B11F0F00FFAD09BF8EC
:1006200000109A6B0A04A9B142F0004242F0900215
:100630005A63DA6A02F47042B2F5405FF9D89BF867
:100640000020E078374B4FEA024CCAB14CEA000078
:1006500058630EE03E4909680A704FF08052DA6232
:1006600090225A63DA6A02F47042B2F5405FF9D818
:10067000E5E7DA6A02F47042B2F5405FF9D810E0BB
:1006800033490A6840F0006082F800C04FF08052A1
:10069000DA625863234BDB6ADB00FBD50B6801226F
:1006A0001A70204BDA6A12F0F00FFAD09A6BD96AFE
:1006B0001C4A11F0F00FFAD0936B607829680A2871
:1006C00041F480512960C2F80090C2F80C80176193
:1006D0004FF4007201D1154B02E0022803D1144BF4
:1006E0001A60012364E0092801D1124B02E00628B8
:1006F00003D1114B1A6002235AE0142801D11E4B7A
:1007000002E0172803D10D4B1A60042350E015288E
:1007100034D10B4B35E000BF3C800440022001B8CF
:10072000022001F800C0024001401F8010B00440C8
:1007300000C004400CB0044010C0044008B00440A5
:1007400018C0044004B0044000B00440C81E0100BA
:10075000649FFF1F689FFF1F000C1F80609FFF1F8B
:1007600018B0044008C004401CB004400CC0044051
:1007700014B0044004C0044014C00440162803D13F
:10078000664B1A60082313E00F2805D1644B4FF421
:1007900000721A6010230BE0624A634D52F8302059
:1007A0002A60012108F08CFB2B6801221A700023BB
:1007B0005E4A8BF80030C2F800A03278D50755BFEA
:1007C0005B495C494FF410704FF4007012F0020F57
:1007D00008600CBF584859484FF400710160500739
:1007E00055BF574A574A4FF410714FF400711160CA
:1007F00019044E4A9BB141F0004343F08803536310
:10080000D36A03F47043B3F5405FF9D89BF8002036
:10081000A178464B1004CAB1014359630FE0424B23
:100820001B6819704FF08053D362882353633F4B8A
:10083000DB6A03F47043B3F5405FF8D8E6E7DA6AA1
:1008400002F47042B2F5405FF9D80FE0364A1568FD
:1008500041F0006128704FF08050D8625963334BEB
:10086000DB6AD900FBD5136801221A702F4AD36ABC
:1008700013F0F00FFAD0936BD16A2C4B11F0F00FFC
:10088000FAD09BF800109A6B0A0499B142F000422A
:1008900042F090025A63DA6A02F47042B2F5405FA5
:1008A000F9D89BF80020E178204B1004C2B1014335
:1008B00059630EE01C4909680A704FF08052DA62F1
:1008C00090225A63DA6A02F47042B2F5405FF9D8B6
:1008D000E7E7DA6A02F47042B2F5405FF9D80FE058
:1008E000114A146841F0006120704FF08050D862C6
:1008F00059630E4BDB6ADB00FBD5136801221A70CB
:100900000A4BDA6A12F0F00FFAD09A6BDA6A12F038
:10091000F00FFBD0054B9B6BBDE8F88F04B0044093
:1009200000B00440C81E0100649FFF1F00C00240C9
:1009300018B0044008C004401CB004400CC004407F
:1009400014B0044004C004402DE9F84F944A0378E1
:100950001168944E944D41F48051116004469349BE
:1009600093480E600A2BCD6093460861B246A946B3
:1009700080464FF4007201D18E4B02E0022B03D16E
:100980008D4B1A60012333E0092B01D18B4B02E020
:10099000062B03D18A4B1A60022329E0142B04D1C1
:1009A00003F1804303F5982302E0172B03D1854B15
:1009B0001A6004231CE0152B01D1834B02E0162B97
:1009C00003D1824B1A60082312E00F2B03D1804B16
:1009D0001A6010230CE07F4A7F4D52F833202A60C2
:1009E0001846012108F06CFA2B6801221A700023C6
:1009F0006E4A7A4F7A4E7B4D3B7016602A78D1074B
:100A000055BF794979494FF410704FF4007012F0D6
:100A1000020F08600CBF7648764852074FF4007109
:100A200054BF754A754A016054BF4FF410714FF4BA
:100A30000071116018045D4A4BB140F02000506312
:100A4000D36A03F47043B3F5405FF9D80EE062490E
:100A50000B6818704FF08053D362694B5363534B4C
:100A6000DB6ADB00FBD50B6801221A704F4AD36AA0
:100A700013F0F00FFAD0936B6078DBF800100A28BF
:100A800041F48051CBF80010C2F800A0C2F80C90DD
:100A9000C2F810804FF4007201D1464B02E00228E8
:100AA00003D1454B1A60012334E0092801D1434B9F
:100AB00002E0062803D1424B1A6002232AE01428E0
:100AC00001D1504B02E0172803D13E4B1A6004239A
:100AD00020E0152801D13C4B02E0162803D13B4B06
:100AE0001A60082316E00F2805D1394B4FF4007225
:100AF0001A6010230EE0374ADFF8DC8052F830200D
:100B0000C8F80020012108F0DBF9D8F800300122F4
:100B10001A700023254A3B7016602A78D00755BF0B
:100B2000314932494FF410704FF4007012F0020F47
:100B300008600CBF2E482F484FF400710160510728
:100B400055BF2D4A2D4A4FF410714FF400711160BA
:100B50001904164A4BB141F020015163D36A03F4E2
:100B60007043B3F5405FF9D80EE01B4B1868017075
:100B70004FF08051D162224951630C4AD26AD200AF
:100B8000FBD51B6801221A70084BDA6A12F0F00FCD
:100B9000FAD09B6B00236360A360BDE8F88F00BFB1
:100BA0003C80044001401F80022001B800C0024088
:100BB000022001F810B0044000C004400CB0044012
:100BC00010C0044008B0044018C0044004B0044001
:100BD00000B00440C81E0100649FFF1F689FFF1FF4
:100BE000000C1F80609FFF1F18B0044008C0044025
:100BF0001CB004400CC0044014B0044004C00440C5
:100C00002000000814C004402DE9F74F9F4BA04975
:100C10001A68A04FA04E42F48052044600781A6031
:100C20009E4A0A2811609B46D760884616614FF499
:100C3000007303D102F5F832103202E0022803D12A
:100C4000974A136001232FE0092801D1954A02E059
:100C5000062803D1944A1360022325E0142801D109
:100C6000924A02E0172803D1914A136004231BE043
:100C7000152801D18F4A02E0162803D18E4A13604D
:100C8000082311E00F2803D18C4A136010230BE0D6
:100C90008B4B8C4D53F830302B60012108F010F94C
:100CA0002B6801221A70002387487C4A8749884DA7
:100CB000037011602A7812F0010F89460CBF854934
:100CC000854982460CBF4FF410704FF4007012F04B
:100CD000020F08600CBF8148814852074FF4007131
:100CE00054BF804A804A016054BF4FF410714FF4E2
:100CF00000711160694A1804C2F800904BB140F0CD
:100D0000E8005063D36A03F47043B3F5405FF9D849
:100D10000DE06C490B6818704FF08053D362734B31
:100D20005363D36AD800FCD50B6801221A705B4B61
:100D3000DA6A12F0F00FFAD09A6B6078DBF80020D4
:100D40000A2842F48052CBF80020C3F80080DF600C
:100D50001E614FF4007301D1654A02E0022803D1FD
:100D60004F4A1360012333E0092801D14D4A02E0C4
:100D7000062803D14C4A1360022329E0142801D12C
:100D80004A4A02E0172803D1494A136004231FE0AE
:100D9000152801D1474A02E0162803D1464A1360BC
:100DA000082315E00F2805D1444B4FF400721A6058
:100DB00010230DE0424A434B52F830201A600121C3
:100DC000019308F07DF8019B1B6801221A70002333
:100DD000324A8AF80030C2F800902A78D10755BF0D
:100DE0003C493D494FF410704FF4007012F0020F6F
:100DF00008600CBF39483A4852074FF4007154BF9D
:100E0000384A394A016054BF4FF410714FF40071F1
:100E100011601804214A4BB140F0E8005063D36AD6
:100E200003F47043B3F5405FF9D80EE025490B6831
:100E300018704FF08053D3622C4B5363174BDB6A0F
:100E4000D800FBD50B6801221A70144AD36A13F03C
:100E5000F00FFAD0936B2078DBF800100A2841F4E9
:100E60008051CBF80010C2F80080D76016614FF4B3
:100E7000007201D11E4B02E0022803D1084B1A6018
:100E8000012365E0092835D1064B36E03C8004405B
:100E900001401F80022001B8022001F800C002407A
:100EA00000C004400CB0044010C0044014C0044012
:100EB00008B0044018C0044004B0044000B004402E
:100EC000C81E0100649FFF1F689FFF1F000C1F804A
:100ED000609FFF1F18B0044008C004401CB00440CD
:100EE0000CC0044014B0044004C00440E8000008F2
:100EF00010B00440062803D19F4B1A60022327E05C
:100F0000142801D19D4B02E0172803D19C4B1A6095
:100F100004231DE0152801D19A4B02E0162803D1C5
:100F2000994B1A60082313E00F2805D1974B4FF413
:100F300000721A6010230BE0954A964E52F830204A
:100F40003260012107F0BCFF336801221A700023D0
:100F5000914A8AF80030C2F800902A78D10755BF2C
:100F60008E498F494FF410704FF4007012F0020F49
:100F700008600CBF8B488C4857074FF4007154BF72
:100F80008A4A8B4A016054BF4FF410714FF40071CC
:100F900011601904804A5BB141F0004343F06803DB
:100FA0005363D36A03F47043B3F5405FF9D80EE09E
:100FB000784B1B6819704FF08053D36268235363DA
:100FC000754BDB6A03F47043B3F5405FF8D8724B9E
:100FD000DA6A12F0F00FFAD09AF800109A6B0A044D
:100FE00049B142F000425A63DA6A02F47042B2F543
:100FF000405FF9D80CE0674909680A704FF08051EA
:10100000D9625A63DA6A02F47042B2F5405FF9D8E5
:10101000614BDA6A12F0F00FFAD09AF800109D6B6B
:101020000A0451B142F000425A63DA6A02F4704293
:10103000B2F5405FF9D82D020DE0564909680A70F3
:101040004FF08051D9625A63DA6A02F47042B2F505
:10105000405FF9D8EFE7504BDA6A12F0F00FFAD0A0
:101060009A6B9AF8001015430A0451B142F00042FD
:101070005A63DA6A02F47042B2F5405FF9D82D0281
:101080000DE0444909680A704FF08051D9625A63F3
:10109000DA6A02F47042B2F5405FF9D8EFE73E4BEE
:1010A000DA6A12F0F00FFAD09A6B15439AF8002022
:1010B00011043AB15963DA6A02F47042B2F5405F42
:1010C000F9D80EE0334A106801704FF08051D962B0
:1010D0004FF000615963D96ACE00FCD51368012234
:1010E0001A702B022C4AD16A11F0F00FFAD0916BD2
:1010F0000B43304963600868637840F480500860AF
:101100002D4911602D49D1600A2B01F180411161F7
:101110004FF4007201D12A4B02E0022B03D1294B7C
:101120001A6001235FE0092B01D1274B02E0062B57
:1011300003D1114B1A60022355E0142B04D103F1A3
:10114000804303F5982302E0172B03D10C4B1A6060
:10115000042348E0152B01D10A4B02E0162B03D1E2
:10116000094B1A6008233EE00F2B2FD1074B4FF499
:1011700000721A60102336E010C0044014C004400E
:1011800008B0044018C0044004B0044000B004405B
:10119000C81E0100649FFF1F00C0024018B0044039
:1011A00008C004401CB004400CC0044014B004400B
:1011B00004C004403C80044001401F80022001B86C
:1011C00010B0044000C004400CB00440754A764D95
:1011D00052F833202A601846012107F071FE2B686F
:1011E00001221A7000237149714A72481370086015
:1011F00071490978CD0755BF704871484FF4107593
:101200004FF4007511F0020F05600CBF6D4D6E4D6F
:101210004FF400702860480755BF6C496C494FF483
:1012200010704FF400700860180460495BB140F022
:10123000004343F068034B63CB6A03F47043B3F598
:10124000405FF9D80EE0584B1B6818704FF0805380
:10125000CB6268234B63554BDB6A03F47043B3F5F1
:10126000405FF8D8514BD96A11F0F00FFAD01078DE
:10127000996B010448B141F000415963D96A01F406
:101280007041B1F5405FF9D80CE047480068017043
:101290004FF08050D8625963D96A01F47041B1F5BA
:1012A000405FF9D8414BD96A11F0F00FFAD01078AD
:1012B0009D6B010450B141F000415963D96A01F4BA
:1012C0007041B1F5405FF9D82D020DE03648006855
:1012D00001704FF08050D8625963D96A01F47041AF
:1012E000B1F5405FF9D8EFE7304BD96A11F0F00F54
:1012F000FAD0996B10780D43010450B141F00041D0
:101300005963D96A01F47041B1F5405FF9D82D02F3
:101310000DE02548006801704FF08050D862596395
:10132000D96A01F47041B1F5405FF9D8EFE71F4B7E
:10133000D96A11F0F00FFAD0996B12780D431104AD
:101340003AB15963DA6A02F47042B2F5405FF9D8F3
:101350000EE0154A106801704FF08051D9624FF0CD
:1013600000615963D96AC900FCD5136801221A705B
:101370002B020E4AD16A11F0F00FFAD0926B134390
:10138000A3601B0C1B04B3F57F0F02D0B3F17F4F9A
:1013900005D1104803B0BDE8F04F00F06DBF03B0B9
:1013A000BDE8F08FC81E0100649FFF1F00C002400F
:1013B000689FFF1F000C1F80609FFF1F18B0044034
:1013C00008C004401CB004400CC0044014B00440E9
:1013D00004C004409801010040687047806870476D
:1013E000034B044A1A6000225A6007F0C7BB00BFD3
:1013F000EC88FF1FA020010001460A46014803F0C7
:10140000F4BD00BF5089FF1F01460A46014803F0A2
:10141000ECBD00BF6C89FF1F70B5144C04F134069D
:10142000002301255022304684F82C306362A362E9
:10143000E3662367A4F880202574657403F0CEFD6D
:101440006420FFF7D9FF503429462A46304603F07E
:10145000C9FD204603F0C2FD6420FFF7D5FF2046FA
:1014600029462A46BDE8704003F0BCBD1C89FF1F19
:10147000024B002283F82C20704700BF1C89FF1FFD
:1014800070B5084C02230E46656A84F82C3004F0CF
:10149000B7F82844E0663046A56A04F0CDF8284441
:1014A000206770BD1C89FF1F2DE9F84FDFF808A1E8
:1014B000BAF99430C01A0E4693460CF07DF90446F2
:1014C000BAF99600301A0D460CF076F92246064617
:1014D0000F462B46204629460CF0D4F9324680466A
:1014E00089463B46304639460CF0CCF902460B465D
:1014F000404649460CF014F80AF028FB0CF05CFC5E
:1015000022462B468046394630460AF01DFB0446EB
:10151000DAF898000D460CF061F902460B462046B9
:1015200029460BF0FBFF0CF06FFC04F0A9F8044611
:10153000BBF1000F17D11C490CF080FF30B12046E1
:101540001A49C8F100050CF0B3FC0AE0204618491E
:101550000CF056FF38B120461449C8F100050CF0D4
:10156000A9FC044600E04546B8F11D0F06DC2846FC
:101570000021FFF785FF0020BDE8F88F20460021FD
:101580000CF05CFF10B904F1004000E0204609496E
:101590000CF054FF08B1002000E028462146FFF778
:1015A0006FFF7F20BDE8F88FDB0FC93FDB0F49409D
:1015B000DB0FC9BF7B142E3E1C89FF1F034B01228A
:1015C000002000211A745A74FFF75ABF1C89FF1FAC
:1015D0002DE9F84FDFF880801D4CD8F800900E46BA
:1015E00017469A4604F040F8A3460546A4F89C0026
:1015F000A4F89E6003F052FC00F0C6FC2846314679
:101600005246FFF751FF044638B9C82003F066FC84
:10161000FFF7D4FF2046BDE8F88F57B1D8F8003067
:10162000C9EB03039F4204D2FFF7C8FF0120BDE8C6
:10163000F88F9BF8AB30002BDCD0FFF7BFFF0548DD
:1016400000F01AFE03F0B8FF0220BDE8F88F00BFDB
:101650001C89FF1FB6010100F89CFF1F2DE9F04F08
:1016600085B08B4601900CF0A7F8DFF8ACA00446DB
:10167000DAF898000D460CF0B1F806460F460AF06D
:10168000DFF90246BAF99400039202910CF094F843
:10169000039A029B80468946204629460CF0F2F8C0
:1016A0000B460246494640460BF03AFF0CF084FBDD
:1016B0003946804630460AF0FDF90246BAF99600EE
:1016C000039202910CF078F8039A029B06460F46AB
:1016D000204629460CF0D6F802460B4630463946DD
:1016E0000BF01EFF0CF068FBDDF804C0BCF1000F2E
:1016F0000446404605DA03F0B7FF21465A46002368
:1017000004E003F0B1FF21465A46012305B0BDE8CD
:10171000F04FFFF75DBF00BF1C89FF1FF8B5034600
:10172000144D00200C4619462E68FFF7A9FE1248FA
:1017300003F082FF074603F0B1FB00F025FC0F4BDE
:101740009A6A1B6FD31A002BB8BF5B42BB4206DC00
:10175000C82003F0C3FBFFF731FF0020F8BD002CC9
:10176000E9D02B689B1B9C42E5D2FFF727FF0120A5
:10177000F8BD00BFF89CFF1F9A99993E1C89FF1F76
:101780002DE9F3410C46154603F06EFF03F038FFD8
:101790000646204603F034FF0E4C0746D4F884007A
:1017A0000CF056FE8046D4F888000CF051FE0097ED
:1017B0000146D4F898203346404603F093FF0123B6
:1017C0002946A370FFF7AAFF0023A37002B0BDE86B
:1017D000F08100BF1C89FF1F2DE9F74F454FDFF84F
:1017E0001CA1FA693B6ADFF818B10221134493FB8C
:1017F000F1F37B62404B186803F01EFFFB693A6A05
:101800001844801ADAF800307A6AB862D31AC7F836
:101810008C300CF003FCDBF80040214605460CF050
:1018200047FB0CF015FE2146C7F8900028460CF047
:1018300041FB4FF07C510CF045FC0CF009FE03F02D
:1018400007FF0646D7F88C000BF0B6FF044630467B
:101850000D460BF0C3FF804689460AF0F1F80246B8
:101860000B4640464946019200930AF023F9019A3B
:10187000009B80468946204629460CF003F80CF070
:10188000C3FA0146D7F884000CF014FB42464B46DD
:10189000C7F88400294620460BF0F4FF0CF0B4FA98
:1018A0000146D7F888000CF005FBC7F88800B86A35
:1018B00003F0CEFE03F0E4FEC7F89800D7F88400EA
:1018C0000CF0C6FD03F0AAFEA7F89400D7F8880034
:1018D0000CF0BEFD03F0A2FE7B6AA7F89600B86A82
:1018E000CAF800300CF09AFBCBF8000003B0BDE85A
:1018F000F08F00BF1C89FF1F0089FF1F0C89FF1F8D
:101900000889FF1F70B504460D461646FFF764FFB1
:10191000204603F0A9FE03F073FE0CF07FFB0B4C96
:10192000C4F88400284603F06BFE0CF077FBC4F883
:101930008800304603F0C2FED4F898100CF0B8FAD4
:10194000034BBDE870401860FFF746BF1C89FF1FBE
:101950000089FF1F13B500F09FFD864800F05EFD73
:10196000854800F05BFD854800F058FD844800F094
:1019700055FD844800F052FD834800F04FFD7E483D
:1019800000F04CFD814800F049FD814800F046FD23
:10199000804800F043FD804800F040FD7F4800F0A3
:1019A0003DFD754800F03AFD7D4800F037FD4FF4ED
:1019B000FA7003F093FA40F2DC504FF47A7100228F
:1019C000FFF7A0FFFFF7FAFD08F01AFE002840F32A
:1019D000CC8008F0D3FD0CF0E7FEC1B2442900F042
:1019E000968005DC42295BD076DC41293DD0B9E008
:1019F000582900F0A7802DDC472940F0B380694CBE
:101A000003226B460421D4F8F00007F08FF96648F2
:101A1000694600F031FC03226B460421D4F8F4003F
:101A200007F084F96148694600F026FC03226B4602
:101A30000421D4F8E80007F079F95D48694600F020
:101A40001BFCD4F8EC00042103226B4607F06EF96E
:101A500058483FE059297CD05A2940F08380514BA7
:101A6000554801221A745A7479E0544809F08CF9E7
:101A7000002104460CF0C4FC30B9204650490CF05B
:101A8000DDFC10B14E4C00E00024464B2046C3F86C
:101A9000F040042103226B4607F048F9494819E059
:101AA000464809F071F9002104460CF0A9FC30B950
:101AB000204643490CF0C2FC10B1414C00E0002428
:101AC000384B2046C3F8F440042103226B4607F04C
:101AD0002DF93D48694646E0384809F055F900219E
:101AE00004460CF08DFC30B9204635490CF0A6FCBC
:101AF00010B1334C00E000242A4B2046C3F8E840E4
:101B0000042103226B4607F011F93048E2E72B4825
:101B100009F03AF9002104460CF072FC30B9204675
:101B200027490CF08BFC10B1254C00E000241D4B24
:101B30002046C3F8EC40042103226B4607F0F6F878
:101B40002348C7E7174B234800221A7401225A740E
:101B500005E0144B204801221A7400225A7400F048
:101B60008BFB02E01D4800F087FB0A2007F0EAFA31
:101B70002AE700BFC5010100B2150100D401010030
:101B8000E8010100F801010007020100160201004E
:101B90002A0201003A020100490201005902010033
:101BA0006B0201001C89FF1F7C0201008A020100F8
:101BB00098020100A6020100EE0201006C9FFF1FC7
:101BC00000002041800201008E0201009C02010001
:101BD000AA020100B4020100D102010000030100C9
:101BE0002DE9F0473E4D95F82C602C4626B930463D
:101BF00003F0A8F9304607E0012E09D1B5F92E000F
:101C000003F0A0F9B5F93000BDE8F04703F0ADB935
:101C10006B6AEF6E267CDFF8D080FF1A6F67A36ACD
:101C20002D6FED1AA567BEB138460CF0F7F9D4F860
:101C3000E8100CF047FA0646D8F80000381A0CF005
:101C4000EDF9D4F8EC100CF03DFA014630460CF0FA
:101C500031F90CF0FDFB0646607CDFF88490214FE3
:101C6000A8B128460CF0DAF9D9F8F0100CF02AFAED
:101C700082463868281A0CF0D1F9D9F8F4100CF023
:101C800021FA014650460CF015F90CF0E1FBB4F8CE
:101C9000DC305A42964203DB9E42B4BF32461A46BB
:101CA000B4F8DE104B42984203DB8842B4BF0346CF
:101CB0000B4692B29BB2981880B2D31AA4F87C005B
:101CC00000B2A4F87E3003F03DF9B4F97E0003F0D1
:101CD0004CF9636FC8F80030A36F3B60BDE8F08734
:101CE0001C89FF1F0489FF1FFC88FF1F034B044A48
:101CF0001A6000225A6006F041BF00BFF488FF1F3F
:101D0000A020010010B5044608F056FF204610BD83
:101D1000F8B5274F3B78022B48D002233B7007F0E1
:101D2000F1F9244E244C306003F020FC07F0EAF96E
:101D3000206000F0FBF907F0E5F923681F4DC01A99
:101D4000C5F8CC0007F0DEF9206003F079FB07F05E
:101D5000D9F92368C01AC5F8D00003F007FC00F0D9
:101D60008AF9FFF739FDFFF73BFF03F0FFFB00F0B7
:101D700067FA00F055FD03F0F9FB07F0C3F933688B
:101D8000C01AC5F8D40007F0BDF93368C01A0CF0CA
:101D900041F90B490CF048FB10B10A4800F06CFA0D
:101DA00007F0B0F9084B186000233B70F8BD00BF86
:101DB000A887FF1F148AFF1F2C8AFF1F1C89FF1F83
:101DC00000401C461D0301001889FF1F10B5574C29
:101DD00057484FF4967108F08CFF237843F00403C2
:101DE000237004F057FD00F013FB00F01BF92420D2
:101DF00006F032FEB0F5007F02DA02F097FC01E057
:101E000002F02EFA237843F00403237000F044FB21
:101E1000484800F003FB484800F000FB474800F04A
:101E2000FDFA474800F0FAFA464800F0F7FA46484B
:101E300000F0F4FA03F038F920B94448BDE8104046
:101E400000F000BB424800F0E9FA424800F0E6FA30
:101E500003F076F918B1404800F0E0FA14E000F021
:101E600003F950B13D4800F0D9FA00F0FDF8002820
:101E7000FBD1052007F066F906E0394800F0E2FAE8
:101E8000642007F05FF9E3E7364800F0C7FA03F093
:101E90006FF918B1304800F0C1FA14E000F0E4F82E
:101EA00050B12E4800F0BAFA00F0DEF80028FBD15D
:101EB000052007F047F906E0294800F0C3FA64203E
:101EC00007F040F9E3E72848284C00F0A7FA00F0B3
:101ED000CDFC00F01FF900F09BF903F059F8FFF773
:101EE0009BFA03F037FB03F05FFB214800F096FA02
:101EF000204A2149204608F049FE204B1B788022C9
:101F000062732BB1237B03F1604303F564431A70C2
:101F100040F2DC504FF47A710022FFF7F3FC1848CE
:101F200000F07CFABDE8104002F026BE609FFF1F63
:101F30006C9FFF1F360301004106010042030100B0
:101F4000B11501004B0301005503010068030100B6
:101F50007A03010089030100840301009803010052
:101F6000B2120100A2030100B2030100188AFF1F90
:101F7000C00301003F7E0500111D0000289FFF1FC8
:101F8000D70301007047FFFF08B502F087FF07F095
:101F9000B9F8064B064A1B68C01A064BC2F8D800AF
:101FA00001221A701A78002AFCD108BD1889FF1F77
:101FB0001C89FF1FA887FF1F114B124A10B5002470
:101FC0001A605C6006F0DAFD0F4B1C739C73DC73C7
:101FD0001C7607F097F80D4B186007F093F80C4B40
:101FE000186007F08FF80B4B0B4918600B480C4A30
:101FF000047080234373BDE810400CF06FBA00BF3B
:102000001089FF1FA02001001C89FF1F148AFF1FD9
:102010001889FF1F2C8AFF1F051D0000188AFF1F4B
:102020006087FF1F08B50220014606F049FF032024
:102030000221BDE8084006F043BF08B5032006F0C2
:1020400031FF003018BF012008BD08B5FFF7F5FFCC
:1020500080F00100C0B208BD08B5022006F022FFE2
:10206000003018BF012008BD08B5FFF7F5FF80F06C
:102070000100C0B208BD08B5FFF7F6FF20B1FFF7B9
:10208000E4FF08B107F0FAFE08BDFFFF08B50748F6
:1020900006F0C2FB0028FAD0044806F0E2FB002854
:1020A000F5D00348BDE8084000F0E6B8488AFF1FB5
:1020B000E903010008B5074806F0AEFB0028FAD096
:1020C000044806F0C5FB0028F5D00348BDE80840E9
:1020D00000F0D2B8488AFF1FFD03010008B5094B84
:1020E000094A1A6000225A6006F048FD03210A22BC
:1020F000064806F067FB064802210A22BDE80840B0
:1021000006F060BB308AFF1FA0200100488AFF1F35
:10211000388AFF1F10B5044C2046FEF7BDF9204653
:10212000BDE81040FEF710BC608AFF1F38B5074CB1
:10213000074D2046FEF768FD2046FFF74DF9404267
:10214000E8612046FFF74AF9286238BD608AFF1F20
:102150001C89FF1F13B5084B084A1A6000245C60F5
:1021600006F00CFD00941521142283230448FEF789
:1021700079F902B010BD00BF588AFF1FA0200100EE
:10218000608AFF1F38B5044608460D460CF0F1FA88
:10219000236802465B6820462946984738BDFFFF02
:1021A00008B5174B1B780BB9FFF7EEFE154B164819
:1021B0001B684360154BD3F898208260B3F89420D5
:1021C0000282B3F896204282B3F89C208282B3F850
:1021D0009E20C2821A78427793F8C820827793F8BB
:1021E000AB200277B3F8C4200283B3F8C620D3F83B
:1021F000D430C3602421BDE80840428308F00EBA01
:10220000A887FF1FF89CFF1FF08AFF1F1C89FF1F74
:1022100008B540F2E24006F0F9FF41F64C5007F0F5
:1022200027FB05484FF4967108F063FD0348BDE8AD
:10223000084004F029BB00BF6C9FFF1F488BFF1FA5
:1022400008B5044804F00AFB18B1BDE80840FFF7E0
:10225000A7BF08BD488BFF1F10B5054B1B78044670
:102260000BB9FFF791FE21460248FFF78BFF10BD27
:10227000A887FF1F6C9FFF1F0FB413B50A4C04AB58
:10228000204653F8042B019379210CF0C3FA074937
:1022900020460CF059FA2046FFF7DEFF02B0BDE8F9
:1022A000104004B0704700BF748AFF1FB2150100D0
:1022B0000A2810B5044620D008D8012817D014D316
:1022C000022818D0032820D1134811E00E281AD074
:1022D00005D80B2813D00C2817D1104808E00F2878
:1022E0000FD07F2811D10E4802E00E4800E00E48C2
:1022F000FFF7C2FF0DE00D48FAE70D48F8E70D487B
:10230000F6E70D48F4E70D48F2E70D482146FFF7E0
:10231000B3FF204610BD00BF2D050100830501005D
:10232000B2050100090501000C0501001C050100B2
:102330003F05010054050100720501009D050100E3
:10234000BC05010010B5054B1B7804460BB9FFF71F
:102350001BFE21460248FFF715FF10BDA887FF1F8F
:10236000FC9EFF1F0FB413B5084C04AB332153F888
:10237000042B019320460CF04DFA2046FFF7E2FFB4
:1023800002B0BDE8104004B0704700BF148BFF1FBF
:1023900010B5054B1B7804460BB9FFF7F5FD214638
:1023A0000248FFF7EFFE10BDA887FF1F0C9FFF1F1D
:1023B00008B1024800E00248FFF7EABF83150100B8
:1023C000C110010008B50E4B0E4A1A6000225A6077
:1023D00006F0D4FB0C48642104F034FA0B4B0222C3
:1023E0001A705A709A701122DA70032283F8202032
:1023F00083F8212083F8222083F8232008BD00BF22
:102400006C8AFF1FA0200100488BFF1FF08AFF1F6E
:102410000148022104F0FAB85C8BFF1F38B5084D63
:1024200004464FF6FF71284603F09AFE28462146DF
:10243000FFF7A8FE2046BDE83840FFF71DBF00BFEC
:102440005C8BFF1F38B5084D04464FF47841284691
:1024500003F086FE28462146FFF794FE2046BDE89D
:102460003840FFF709BF00BF5C8BFF1F10B5074B5B
:10247000074A1A6000225A6006F080FB05480621D0
:102480000F221023BDE8104003F0E8BE548BFF1F5D
:10249000A02001005C8BFF1F10B50A4C00212046D4
:1024A00003F0BCFE002120460A4603F051FE204600
:1024B0004FF6FF7103F054FE20460121BDE81040A5
:1024C00003F051BE5C8BFF1FF0B5A9B03349344C0B
:1024D000064604A808F0ACFD324908A808F0A8FD9B
:1024E00031490CA808F0A4FD304910A808F0A0FD5F
:1024F0002F4914A808F09CFD2E4918A808F098FD53
:102500002D491CA808F094FD2C4920A808F090FD46
:1025100024A82B4908F08CFD237804A80BB1294985
:1025200000E0294908F097FD637B08A82BB12749F3
:1025300008F091FD4FF6E07504E0254908F08BFDA9
:102540004FF61F052379072B22D8DFE803F0040795
:102550000A0D10131A1D18A81E4917E018A81E49C5
:1025600014E018A81D4911E018A81D490EE018A88C
:102570001C490BE0237818A80BB11B4906E01B4946
:1025800004E018A81A4901E01A4918A808F063FDE8
:10259000E37820A893B3184931E000BFFE0501009D
:1025A0001C89FF1F150601002C06010043060100CF
:1025B0005A06010071060100880601009F0601000D
:1025C000B6060100CD060100E4060100FB0601008D
:1025D0001207010029070100400701005707010009
:1025E0006E070100850701009C070100B307010089
:1025F000CA070100E1070100F8070100864908F059
:102600002AFDFFF7C1FC85484FF6FF7103F006FE77
:1026100000210A46814803F09BFD8048002103F019
:102620009FFD7E48012103F09EFD7C48002103F0C0
:1026300097FD7A48012103F08EFDFFF7A5FC0024E9
:1026400004A921447548103408F0D0FA902CF7D131
:10265000724803F08AFD00240121831E0A461BB242
:1026600000946E4804F077F86C4803F081FD07464B
:102670006A4803F07AFDBA1E831E012112B21BB212
:102680000094664804F067F8644803F071FD012186
:10269000831E0A461BB20094604804F034F85F4879
:1026A00003F063FD07465D4803F062FDB91E831E1B
:1026B00009B201221BB20094584804F024F857488C
:1026C00003F053FD0321831F0A461BB200945348B5
:1026D00004F041F8514803F04BFD07464F4803F022
:1026E00044FD3A1F831F032112B21BB200944B48D2
:1026F00004F031F8494803F03BFD0321831F0A46EB
:102700001BB20094454803F0FEFF444803F02DFD42
:102710000746424803F02CFD391FC31F00943F4871
:1027200009B204221BB203F0EEFF04210A460B4655
:1027300000953A4803F070FA04210A460B460094CB
:10274000364803F0F5F8354803F012FD0421021F66
:102750000B4612B20095314803F05EFA2F4803F0A1
:1027600007FD0421021F0B4612B200942B4803F010
:10277000DFF82A4803F0F9FC0746284803F0F8FC84
:10278000391F021F09B212B204230095234803F037
:1027900043FA224803F0E9FC0746204803F0E8FC2E
:1027A000391F021F09B212B2042300941B4803F020
:1027B000BFF81A4803F0D9FC0422011F134609B2DE
:1027C0000095164803F028FA144803F0CEFC0422C2
:1027D000011F13460094114809B203F0A9F8320111
:1027E0000E3293B203F10A0109B2009105330A21B6
:1027F00001911BB2052102930394084812B20B46C3
:1028000003F02DFA24AC6D462046103C08F0D0FBB6
:10281000AC42F9D129B0F0BD0F0801005C8BFF1F5D
:1028200010B50C4804F01AF898B10B4C94F8C81085
:10283000C1F10101C9B20D2084F8C81006F012FBE5
:1028400094F8C800003018BF0120BDE81040FFF721
:10285000AFBD10BDA48BFF1F1C89FF1F02484FF4A2
:10286000487103F0F9BF00BFA48BFF1F08B50D200E
:10287000012106F025FB0D20012106F0F3FAFFF7F8
:10288000EDFF0248BDE8084003F0FEBFA48BFF1F28
:1028900010B5064B064A1A6000245C6006F06EF91B
:1028A00021460448BDE8104003F0CCBF9C8BFF1FBD
:1028B000A0200100A48BFF1F08B50448FFF742FDCC
:1028C0000348BDE80840FFF7D7BC00BF2608010059
:1028D0002808010010B5044621460448FFF742FDD0
:1028E00021460348BDE81040FFF7C6BC3B08010085
:1028F0003F08010008B50448FFF724FD0348BDE880
:102900000840FFF7B9BC00BF550801005708010097
:1029100010B5041E02DD0748214602E009D0064832
:102920006142FFF71FFD21460448BDE81040FFF754
:10293000A3BC10BD7C0801008008010084080100D0
:1029400010B5044621460448FFF70CFD2146034814
:10295000BDE81040FFF790BC9B0801009F080100F4
:1029600008B50448FFF7EEFC0348BDE80840FFF750
:1029700083BC00BFAD080100AF0801000148FFF7AC
:10298000E1BC00BF45120100034B044A1A6000225B
:102990005A6006F0F3B800BFB08BFF1FA020010003
:1029A0002DE9FF4180460F4602A85E21144600F043
:1029B00077FA3748029DFFF75FFC364B1B78002BF8
:1029C0005FD11E260123013B072B5CD8DFE803F013
:1029D00004165B2C5B5B5B3C44F620634FF0050CFC
:1029E0008DE80810284603992246012300F0E0F9FB
:1029F000002849D0022847D103463CE0264B4FF03F
:102A0000030EB3F9940044F620638DE8084039467C
:102A10002246012300F0CCF950B3022834D141F210
:102A2000883002F05BFA25E044F6206105238DE84A
:102A30000A00284639462246012300F0B9F918B3A6
:102A4000022821D1082316E0134B44F62062B3F983
:102A5000940003238DE80C0041462246012300F038
:102A6000A7F938B102280FD141F2883002F036FAC6
:102A7000042300E00123013E16F0FF06A3D101204C
:102A800002E00C2000E00A2004B0BDE8F08100BFA5
:102A9000BE0801006487FF1F1C89FF1F014B98605F
:102AA000FFF718BF1C89FF1F034B9A68821848BFA5
:102AB00000229A60FFF72CBF1C89FF1FF7B505465F
:102AC0002946B148FFF7D8FB052D00F25581AF4CE0
:102AD00063191B7A002B40F05181AD48013DFFF78F
:102AE000CBFB042D04D8DFE805F00F2A36424F0057
:102AF000062300933A20642101224FF4FA5300F098
:102B0000A1FC00284DD03CE1062300933C20642129
:102B100001224FF4FA5300F095FC002840F0318177
:102B20004FF47A634FF0020E8DE808404FF4617164
:102B3000322201234FF42F7000F03AF956E00623B9
:102B400000933E20642101224FF4FA5300F07AFCF6
:102B5000002869D015E10623009363206421012237
:102B60004FF4FA5300F06EFC00287BD009E10623F5
:102B700000936620642101224FF4FA5300F062FCB6
:102B8000002800F08C80FCE00A2300936B20642175
:102B900001224FF4FA5300F055FC002800F0A68003
:102BA000EFE0042D04D8DFE805F0213F5D7AA100B5
:102BB0004FF4FA530A278DE888004FF4FA704FF467
:102BC000E1715022012300F0F3F801266F4DA67049
:102BD00038B1704BB3F99420B3F996302A616B6128
:102BE000CFE00620FFF760FF2E72BDE04FF4FA53EE
:102BF0000A268DE848004FF4E1704FF41671502218
:102C0000012300F0D5F80126604DE67038B1614B24
:102C1000B3F99420B3F99630AA61EB61B1E00620D4
:102C2000FFF742FF6E729FE04FF4FA530A258DE8DA
:102C300028004FF4C8704FF461715022012300F056
:102C4000B7F80126514D267138B1524BB3F9942093
:102C5000B3F996302A626B6293E00620FFF724FFF7
:102C6000AE7281E042F210700A238DE80900502212
:102C700001234FF4E17040F21A4100F099F801226B
:102C8000424B6271A271E0B91B7B002BA37A14BF87
:102C90000120092003B901300123E37262E042F20E
:102CA00010710A238DE80A00502201234FF4C870E6
:102CB00040F2262100F07CF80122344B6271A271AF
:102CC00048B1344AB2F99410B2F996209962DA62A6
:102CD00019635A6355E0DB7A002B637A14BF012035
:102CE0000D2003B90630012323733BE043F69822FD
:102CF0000A238DE80C004FF4E17040F21A41502293
:102D0000012300F055F80125074624201F4EE571E8
:102D100000F0E2FA08B17571B571A7B11D4E1B4DF7
:102D2000B6F99430A3632420B6F99630E36300F03B
:102D3000D3FA28B3B6F99420B6F99630AA62EB62BA
:102D40002A636B631CE0E37A33B9104B1B7B002BC7
:102D50000CBF0C20092000E00920A37A03B9013040
:102D600001236373FFF7A0FE6FF04F004FF4FA6189
:102D7000FEF774FC002004E00B2002E00C2000E0D1
:102D8000384603B0F0BD00BFD80801006487FF1FBC
:102D9000F30801001C89FF1F034B044A1A6000223C
:102DA0005A6005F0EBBE00BFB88BFF1FA0200100EA
:102DB0002DE9F0471F46324B9DF824901B7BBDF850
:102DC00020A0002B0546104618BF4FF078090C468E
:102DD000FEF712FB2FB1284621464FF4FA62FEF7A8
:102DE000CFFC4FF000082846214652463B46FEF7EE
:102DF000EFFB08F10108022806465FFA88F808D1BF
:102E0000FFF7BCFD4FF47A7002F068F8C845EAD3CA
:102E100017E0074600282FD0032819D004D801282E
:102E200008D002281CD10CE00A2813D07F2817D123
:102E3000144810E01448294622465346FFF71CFA6E
:102E400014E0124829462246FFF716FA02270DE041
:102E50000F4800E00F4829462246FFF70DFA05E02B
:102E60000D4829462246FFF707FA3746C84503D3DF
:102E70000A484146FFF700FA3846BDE8F08700BF30
:102E80001C89FF1F930C0100C00B0100FB0B01000C
:102E90002C0C01005E0C0100C80C01000F0D01009C
:102EA000392910B5044637D8A1F12903102B00F2B7
:102EB000C881DFE813F01100130015001700190096
:102EC0001B001D001F00C601210023002500270054
:102ED00029002B002D002F007F4BB6E17F4BB4E182
:102EE0007F4BB2E17F4BB0E17F4BAEE17F4BACE17A
:102EF0007F4BAAE17F4BA8E17F4BA6E17F4BA4E18A
:102F00007F4BA2E17F4BA0E17F4B9EE17F4B9CE199
:102F10007F4B9AE17F4B98E14A2937D8A1F13A03D8
:102F2000102B00F28E81DFE813F011001300150062
:102F3000170019001B008C011D001F002100230039
:102F40002500270029002B002D002F00724B7CE16B
:102F5000724B7AE1724B78E1724B76E1724B74E11D
:102F6000724B72E1724B70E1724B6EE1724B6CE12D
:102F7000724B6AE1724B68E1724B66E1724B64E13D
:102F8000724B62E1724B60E1724B5EE15B2937D8B4
:102F9000A1F14B03102B00F25481DFE813F0110074
:102FA00013001500170019001B0052011D001F001F
:102FB000210023002500270029002B002D002F00D1
:102FC000654B42E1654B40E1654B3EE1654B3CE1C1
:102FD000654B3AE1654B38E1654B36E1654B34E1D1
:102FE000654B32E1654B30E1654B2EE1654B2CE1E1
:102FF000654B2AE1654B28E1654B26E1654B24E1F1
:103000006C2937D8A1F15C03102B00F21A81DFE89C
:1030100013F0110013001500170019001B001D000C
:103020001F001801210023002500270029002B0084
:103030002D002F00584B08E1584B06E1584B04E196
:10304000584B02E1584B00E1584BFEE0584BFCE076
:10305000584BFAE0584BF8E0584BF6E0584BF4E088
:10306000584BF2E0584BF0E0584BEEE0584BECE098
:10307000584BEAE07D2900F2CF80A1F16D03102BBF
:1030800000F2DF80DFE803F0090B0D0F11131517B5
:10309000191B1D1FDD212325C6004F4BD5E04F4BCB
:1030A000D3E04F4BD1E04F4BCFE04F4BCDE04F4BF8
:1030B000CBE04F4BC9E04F4BC7E04F4BC5E04F4B08
:1030C000C3E04F4BC1E04F4BBFE04F4BBDE04F4B18
:1030D000BBE04F4BB9E000BF080901001009010037
:1030E0001809010020090100280901003009010028
:1030F0003809010040090100480901005009010098
:103100005809010060090100680901007009010007
:103110007809010080090100900901009809010067
:10312000A0090100A8090100B0090100B8090100C7
:10313000C0090100C8090100D0090100D809010037
:10314000E0090100E8090100F0090100F8090100A7
:10315000000A0100080A0100100A0100180A010013
:10316000200A0100280A0100300A0100380A010083
:10317000400A0100480A0100500A0100580A0100F3
:10318000600A0100680A0100700A0100780A010063
:10319000800A0100880A0100900A0100980A0100D3
:1031A000A00A0100A80A0100B00A0100B80A010043
:1031B000C00A0100C80A0100D00A0100D80A0100B3
:1031C000E00A0100E80A0100F00A0100F80A010023
:1031D000000B0100080B0100100B0100180B01008F
:1031E000200B0100280B0100300B0100380B0100FF
:1031F000400B0100480B0100500B0100580B01006F
:10320000600B0100680B0100700B0100780B0100DE
:10321000800B0100104B18E0A1F17E03052B10D8A4
:10322000DFE803F0030507090B0D0C4B0DE00C4B19
:103230000BE00C4B09E00C4B07E00C4B05E00C4B92
:1032400003E00C48FFF718F80B4B93E8030084E801
:103250000300204610BD00BF880B0100900B010049
:10326000980B0100A00B0100A80B0100B00B01009E
:10327000B80B01002C0D01008809010090422DE9D6
:10328000F04180460E4617461D4601DC994204DD9A
:1032900002F092F90E48FEF7EFFF0E4CB4F99400DD
:1032A00002F0E2F940450FDBB4F9940002F0DCF9DA
:1032B000B84209DCB4F99600B04205DBA842CCBFA5
:1032C00000200120BDE8F0810020BDE8F08100BFB2
:1032D0005B0D01001C89FF1F38B500F00204A4B289
:1032E000054644B1002001464FF48A724FF48573BD
:1032F000FFF7C4FF044668070AD500204FF4857124
:103300004FF48A7240F2FD43FFF7B8FF2043C4B286
:1033100029070AD5002040F2FD414FF48A7240F29D
:103320006763FFF7ABFF2043C4B20CB1012486E012
:10333000EA0609D5204640F267614FF4C8724FF49F
:10334000FA63FFF79BFF0446AB060AD54FF48A7079
:10335000002140F2CA424FF49163FFF78FFF2043F0
:10336000C4B268060BD54FF48A704FF4916140F2F5
:10337000DC5240F26763FFF781FF2043C4B2002CA8
:10338000D4D129060AD540F2DC504FF4916140F6C1
:10339000921240F26763FFF771FF0446EA050BD50E
:1033A0004FF4C87040F2676140F2DC524FF4FA63A8
:1033B000FFF764FF2043C4B2AB050AD540F6921074
:1033C000002140F6B83240F26763FFF757FF204311
:1033D000C4B2002CAAD168050AD540F2DC5040F2F4
:1033E000676140F6B8324FF4FA63FFF747FF0446CF
:1033F00029050AD540F2CA40002140F2DC524FF4C0
:103400009163FFF73BFF2043C4B2EA040AD540F2C0
:10341000DC50002140F684024FF49163FFF72EFF49
:103420002043C4B2AB040AD540F68400002140F624
:1034300092124FF49163FFF721FF2043C4B220465C
:1034400038BDFFFF2DE9FF479DF830A006460F4627
:1034500090469946A6F129034F2B00F2E082DFE85F
:1034600013F050005B006A00DE027B008C009500C8
:103470009D00DE02B200D400D600DE02DE02DE02D3
:10348000DE02F2000A01DE021A01DE021C01DE0287
:10349000DE024E01500152015401560158015A01F9
:1034A0005C015E016001620164016601DE02DE0210
:1034B000DE02DE02DE02DE02DE02DE02DE02DE020C
:1034C000DE02DE02DE02DE022E01DE027E01DE020E
:1034D0008001DE0282016801DE02DE02D701DE0227
:1034E000FD01DE0227026502DE026702DE029402AF
:1034F000C602C802CA02CC02CE02D002D202D40254
:10350000D602A348FEF7B8FE43F63E00FFF7E4FEFE
:1035100020B10025012489E29E48F3E74020FFF70F
:10352000DBFE002840F031818020FFF7D5FE002827
:1035300040F0FA8196E09848FEF79EFE43F63E0082
:10354000FFF7CAFE04460028E3D1C020FFF7C4FEFF
:10355000002840F0668285E09048FEF78DFE40F638
:103560006E00FFF7B9FE04460028D2D11020FFF705
:10357000B3FE002840F0578262E08948FEF77CFEE7
:103580001E20FFF7A9FE00284FD0C2E78548FEF7AE
:1035900073FE5E20FFF7A0FE70B1BAE78248FEF727
:1035A0006BFE1820FFF798FE0028B2D14620FFF7E7
:1035B00093FE002840F0A1804FF40260FFF78CFEDC
:1035C000002878D13CE07948FEF756FE4FF48C7025
:1035D000FFF782FE00289CD10620FFF77DFE08B190
:1035E0002E2502E24FF40260FFF776FE002862D13A
:1035F0004020FFF771FE00287FD14FF44250FFF7C3
:103600006BFE002840F0E981E9E1694800E0694883
:10361000FEF732FE1820FFF75FFE00287FF479AF37
:103620000620FFF759FE0028DAD14FF40260FFF7B9
:1036300053FE00283FD14020FFF74EFE00285CD10A
:103640004FF44250C4E15C48FEF716FE43F6E20038
:10365000FFF742FE00287FF45CAF1C20FFF73CFE22
:1036600000287AD14FF48070FFF736FE002800F072
:10367000B6813225B9E15148FEF7FEFD43F6600000
:10368000FFF72AFE00287FF444AF8220FFF724FED4
:1036900000285CD1E1E74A48EEE74A48FEF7ECFD36
:1036A0004FF40660FFF718FE00287FF432AF0E20BB
:1036B000FFF712FE08B12D2597E11020BCE7424824
:1036C000FEF7DAFD43F6E000FFF706FE00287FF480
:1036D00020AF0220FFF700FE002838D10420FFF7BA
:1036E000FBFD002839D10820FFF7F6FD0028E2D1C4
:1036F0001020FFF7F1FD0028B4D02F2575E13348E5
:10370000CCE73348CAE73348C8E73348C6E733480D
:10371000C4E73348C2E73348C0E73348BEE733481D
:10372000BCE73348BAE73348B8E73348B6E733482D
:10373000B4E73348FEF7A0FD4FF46350FFF7CCFD2C
:1037400000287FF4E6AE0220FFF7C6FD08B1392558
:103750004BE10420FFF7C0FD38B12B2545E1294896
:10376000AEE72948ACE72948AAE70820FFF7B4FDEF
:103770000028A0D11020FFF7AFFD0028BDD12020E8
:10378000FFF7AAFD00283FF46DAF62252DE100BFD1
:10379000A30D0100B20D0100C10D0100D00D01000B
:1037A000DF0D0100EE0D0100FD0D01000E0E010008
:1037B0001F0E0100300E0100410E0100500E0100ED
:1037C0005F0E01006E0E01006C0F01007E0E010005
:1037D000900E0100A20E0100B40E0100C60E010001
:1037E000D80E0100EA0E0100FC0E01000E0F0100D0
:1037F000200F0100330F0100460F0100590F010097
:10380000AC0F01007C0F01008C0F01009C0F010028
:103810009648FEF731FD4FF40460FFF75DFD002888
:103820007FF477AE0220FFF757FD00288FD10420E8
:10383000FFF752FD002890D10820FFF74DFD00282A
:103840007FF439AF1020FFF747FD00287FF455AF14
:103850002020FFF741FD002897D1F1E68448FEF7CC
:103860000BFD4FF46150FFF737FD00287FF451AE98
:103870000220FFF731FD00287FF469AF0420FFF735
:103880002BFD00287FF469AF0820FFF725FD0028F5
:103890007FF411AF1020FFF71FFD00287FF42DAF3C
:1038A0002020FFF719FD00287FF46FAF80208FE004
:1038B0007048FEF7E1FC43F22060FFF70DFD0028A1
:1038C0007FF427AE0220FFF707FD00287FF43FAF0B
:1038D0000420FFF701FD00287FF43FAF0820FFF729
:1038E000FBFC00287FF4E7AE1020FFF7F5FC002872
:1038F0007FF403AF4020FFF7EFFC044608B15C25DE
:1039000073E08020FFF7E8FC002840F08E804FF441
:103910008070FFF7E1FC00287FF4ABAE4FF400604D
:10392000FFF7DAFC002874D05E255EE0524800E024
:103930005248FEF7A1FC4FF40250FFF7CDFC0028DF
:103940007FF4E7AD0220FFF7C7FC00287FF4FFAE4D
:103950000420FFF7C1FC00287FF4FFAE0820FFF72A
:10396000BBFC00287FF4A7AE1020FFF7B5FC0028B1
:103970007FF4C3AE4FF4B150FFF7AEFCA0BB4020C4
:10398000FFF7AAFC0028BAD1C1E73D48FEF774FC56
:103990004FF46250FFF7A0FC00287FF4BAAD02207C
:1039A000FFF79AFC00287FF4D2AE0420FFF794FCC6
:1039B00000287FF4D2AE0820FFF78EFC00287FF4A9
:1039C0007AAE1020FFF788FC00287FF496AE6020C6
:1039D000FFF782FC00283FF445AE632505E04FF475
:1039E000C060FFF779FCA0B16A2500241EE02548DD
:1039F000CCE72548CAE72548C8E72548C6E7254853
:103A0000C4E72548C2E72548C0E72548BEE7254862
:103A1000BCE725483146FEF72FFC0A2022E00025AE
:103A2000E3E7392502E02E2500E06B2502A83146A8
:103A3000FFF736FA44B18DE80006029803993A463A
:103A40004346FFF7B5F90DE01848FEF715FCCDF831
:103A500000A02846394642464B46FFF7F3FC0028B3
:103A60003FF4F8AC04B0BDE8F08700BFBC0F010024
:103A7000CD0F0100DD0F0100ED0F0100FD0F010072
:103A80000E1001002010010032100100441001004E
:103A900056100100681001007A1001008C1001001E
:103AA0009E100100B0100100CE100100C3100100F3
:103AB000034B044A1A6000225A6005F05FB800BF49
:103AC000C08BFF1FA020010010B50446FEF7F6FFD3
:103AD0000C281ED0042C1CD8DFE804F003080D12BB
:103AE00017000C4B5A6801325A6010BD094B9A6896
:103AF00001329A6010BD074BDA680132DA6010BDFE
:103B0000044B1A6901321A6110BD024B5A69013225
:103B10005A6110BDD08BFF1F83B5FEF7BDFC3F4837
:103B2000FEF77CFC3E48FEF779FC3E48FEF776FC4B
:103B30003D48FEF773FC3D48FEF770FCFEF7A6FA21
:103B40003B48FEF76BFC4FF4967001F0C7F94FF459
:103B50007A7001460022FDF7D5FEFDF72FFDFEF736
:103B6000A9FA01F077F942F210720F238DE80C00E8
:103B700040F2DC504FF47A711E220123FFF718F94E
:103B80002C48FEF779FB2C4C2C4E94F8AB30274692
:103B900043B92B48FEF770FB642001F09FF93368AE
:103BA0006361F0E72748FEF767FB42F210751424C3
:103BB00033687B614FF47A7100950194642201238C
:103BC0004FF4FA60FFF7F4F8009501944FF47A711E
:103BD000642200234FF4E160FFF7EAF84FF47A70B3
:103BE00001466422012300950194FFF7E1F84FF4A8
:103BF000487001F073F94FF4487001F06FF90095C7
:103C000001944FF47A71642200234FF49660FFF719
:103C1000CFF84FF4487001F061F9C6E7EF110100E9
:103C2000F611010006120100121201001E1201001D
:103C30002B120100311201001C89FF1FF89CFF1F8D
:103C4000B01201003C12010008B50F48FEF7E6FB78
:103C50000E48FEF7E3FBC82001F040F94FF47A71FB
:103C6000002240F2DC50FDF74DFEFDF7A7FC4FF4BB
:103C7000FA6005F067FA01F0EDF8C82040F6B831B7
:103C8000BDE80840FDF7EABC4712010052120100EE
:103C900008B54FF4FA7005F055FAE120FEF7FEFE84
:103CA0004FF4FA6005F04EFA1920FEF7FDFE4FF4CE
:103CB000FA6005F047FAFEF761FE6FF03100FEF79B
:103CC000F3FE4FF4FA6005F03DFA0C48FEF738FEBB
:103CD0004FF4FA6005F036FAFEF70CFEFEF74EFEE2
:103CE0004FF4FA6005F02EFAFEF73AFE4FF4FA6050
:103CF00005F028FAFEF7E0FDCBE700BF5A120100FD
:103D000013B50022052496204FF4E171FDF7FAFD6A
:103D100000946421012242F210732920FFF792FBE4
:103D200000946421012242F210732A20FFF78AFBDB
:103D300000946421012242F210732B20FFF782FBD2
:103D400000946421012242F210732D20FFF77AFBC8
:103D500000946421012242F210732E20FFF772FBBF
:103D600000946421012242F210732F20FFF76AFBB6
:103D700000946421012242F210733920FFF762FBA4
:103D800000946421012242F210733A20FFF75AFB9B
:103D900000946421012242F210733C20FFF752FB91
:103DA00000946421012242F210733E20FFF74AFB87
:103DB00000946421012242F210734120FFF742FB7C
:103DC00000946421012242F210734220FFF73AFB73
:103DD00000946421012242F210734320FFF732FB6A
:103DE00000946421012242F210734420FFF72AFB61
:103DF00000946421012242F210734520FFF722FB58
:103E000000946421012242F210734620FFF71AFB4E
:103E100000946421012242F210734720FFF712FB45
:103E200000946421012242F210734820FFF70AFB3C
:103E300000946421012242F210734920FFF702FB33
:103E400000946421012242F210734A20FFF7FAFA2B
:103E500000946421012242F210734B20FFF7F2FA22
:103E600000946421012242F210734C20FFF7EAFA19
:103E700000946421012242F210734D20FFF7E2FA10
:103E800000946421012242F210735C20FFF7DAFAF9
:103E900000946421012242F210735E20FFF7D2FAEF
:103EA00000946421012242F210736020FFF7CAFAE5
:103EB00000946421012242F210736220FFF7C2FADB
:103EC00000946421012242F210736320FFF7BAFAD2
:103ED00000946421012242F210736620FFF7B2FAC7
:103EE00000946421012242F210736820FFF7AAFABD
:103EF00000946421012242F210736A20FFF7A2FAB3
:103F000000946421012242F210736B20FFF79AFAA9
:103F100000946421012242F210736D20FFF792FA9F
:103F200000946421012242F210736F20FFF78AFA95
:103F300000946421012242F210737020FFF782FA8C
:103F400000946421012242F210737120FFF77AFA83
:103F500000946421012242F210737220FFF772FA7A
:103F600000946421012242F210737320FFF76AFA71
:103F700000946421012242F210737420FFF762FA68
:103F800000946421012242F210737520FFF75AFA5F
:103F900000946421012242F210737620FFF752FA56
:103FA00000946421012242F210737720FFF74AFA4D
:103FB00000946421012242F210737820FFF742FA44
:103FC00002B010BD08B5FEF767FAFEF765FA1048B3
:103FD000FEF724FA0F4B5B7B0BB10F4800E00F4854
:103FE000FEF71CFA0E48FEF719FA0E48FEF716FA0D
:103FF0000D48FEF713FA0D48FEF710FA0C48FEF7CD
:104000000DFA0C48FEF70AFABDE80840FFF778BE43
:10401000671201001C89FF1F71120100821201004A
:10402000B1150100F6110100061201001212010083
:1040300094120100A2120100054B587830B9054ACC
:10404000D1690131D16101225A7070470C2070474B
:104050006487FF1FD08BFF1F30B585B002A85E219B
:10406000FEF71EFF1D4B18781D4688BB1C4A1368BF
:104070000133136001464FF4E1624FF41673FFF70A
:10408000FDF840B196204FF4E1716422FEF788FC00
:104090000446F8B90BE00A2300932B206421012287
:1040A00044F62063FFF7CEF90028EBD013E00D486B
:1040B000FEF7E2F8214602984FF4FA62FDF760FB42
:1040C000044638B90848FEF7D7F801232B7001E001
:1040D0000C2000E0204605B030BD00BF6487FF1F04
:1040E000D08BFF1FB4120100D112010010B50146A0
:1040F000072818D8DFE800F00407090B0D0F1A1382
:10410000FFF7AAFF0DE0002006E0012004E00220F6
:1041100002E0032000E00420FFF7D6FC01E0FFF7F7
:104120008BFF044603E00648FEF7A6F80B24204662
:10413000FEF7BEF80C2C14BF2046002010BD00BFB7
:10414000EB12010037B5FEF7A7F93148FEF766F923
:10415000304B5A7B1D460AB12F4800E02F48FEF72E
:104160005DF92F48FEF75AF92E48FEF757F92E4809
:10417000FEF754F92D48FEF751F901242C482C7311
:10418000FEF7DEFB2B48FEF749F940F2DC5000F069
:10419000A5FE00F023FC0020FEF780FC2648FEF779
:1041A0003DF92648FEF73AF92548FEF737F9FDF7BD
:1041B0006DFF2448FEF732F9C82000F08FFE4FF45F
:1041C000E17100229620FDF79DFBFDF7F7F9FDF761
:1041D00071FF00F03FFE4FF4FA7000F07FFE002008
:1041E000FEF75CFC42F2107232238DE80C004FF4B3
:1041F000E171642223464FF47A70FEF7D9FD022064
:10420000FFF774FF03B0BDE8304000F07FBE00BF91
:104210000C1301001C89FF1F7112010082120100A2
:10422000B1150100181301002B1301003E1301000A
:1042300047130100F61101000612010012120100DD
:10424000941201007013010008B5FDF711F903483D
:10425000FEF712F8BDE8084001F0B6B97713010087
:1042600008B5124B1249C3F8EC1000221A70114A1B
:10427000C3F8E020104AC3F8E420104AC3F8E8204D
:10428000C3F8F0200E4AC3F8F4204FF4FA72A3F8F2
:10429000A8207F22A3F8DC203222A3F8DE2000F041
:1042A0009FFABDE8084000F099BB00BF1C89FF1FC2
:1042B0009A99993E0000444100C054458FC2753D13
:1042C000CDCCCC3E034B044A1A6000225A6004F065
:1042D00055BC00BFC88BFF1FA020010037B5224886
:1042E000FEF79CF8C82004F02DFF4FF47A711F4AA6
:1042F00040F2DC503224FDF705FB4CF25035FDF75F
:104300005DF94FF4FA6004F01DFF00F0A3FD2246B2
:10431000009501944FF44871012340F2DC50FEF700
:1043200047FD2246009501944FF47A71012340F233
:10433000DC50FEF73DFD2246009501944FF4487194
:10434000012340F2DC50FEF733FD009501944FF459
:104350007A712246012340F2DC50FEF729FD03B0BA
:10436000BDE8304001F030B952120100DB0F494086
:104370007047FFFF30B585B002A85E21FEF790FDC3
:10438000204B18781D46002836D11F4A1368013388
:10439000136001464FF4E1624FF41673FEF76EFFAF
:1043A00040B196204FF4E1716422FEF7F9FA044619
:1043B00020BB0BE00A2300932B206421012244F64A
:1043C0002063FFF73FF80028EBD018E00F48FDF717
:1043D00053FF21463C20012200F01CFB214602989D
:1043E0004FF4FA62FDF7CCF9044638B90848FDF7F6
:1043F00043FF01232B7001E00C2000E0204605B0B4
:1044000030BD00BF6487FF1FF08BFF1FB412010097
:10441000D112010038B50021044601223C2000F0F1
:10442000F9FA2046FEF74AFB0C2805461ED0042C5C
:104430001CD8DFE804F003080D1217000F4B5A6870
:1044400001325A6012E00D4B9A6801329A600DE019
:104450000A4BDA680132DA6008E0084B1A69013267
:104460001A6103E0054B5A6901325A611F2000218D
:10447000012200F0CFFA284638BD00BFF08BFF1FA5
:1044800010B50146062818D8DFE800F00407090B2C
:104490000D0F1100FFF76EFF0CE0002008E0012077
:1044A00006E0022004E0032002E0042000E00520F2
:1044B000FFF7B0FF044660B103E00648FDF7DCFEFD
:1044C0000B242046FDF7F4FE0C2C14BF20460020E0
:1044D00010BD10BD9513010037B5FDF7DDFF2F4866
:1044E000FDF79CFF2E4B5A7B1D460AB12D4800E07C
:1044F0002D48FDF793FF2D48FDF790FF2C48FDF761
:104500008DFF2C48FDF78AFF2B48FDF787FF01241C
:104510002A482C73FDF782FF2948FDF77FFF2948C1
:10452000FDF77CFF2848FDF779FF2848FDF776FF67
:104530004FF4FA7000F0D2FC2548FDF76FFFFDF74D
:10454000A5FD2448FDF76AFF4FF47A7000F0C6FC21
:104550004FF43C710022EB20FDF7D4F9FDF72EF863
:10456000FDF7A8FD00F076FC4FF47A7000F0B6FC81
:1045700042F2107232238DE80C0040F2EE216422E8
:10458000234640F2E240FEF713FC2046FFF778FF97
:1045900003B0BDE8304000F0B9BC00BFB613010065
:1045A0001C89FF1F7112010082120100B115010068
:1045B000181301002B1301003E130100F611010036
:1045C000061201001212010094120100A212010051
:1045D000C11301002B12010013B5FDF75DFF3D482B
:1045E000FDF71CFF3C4B5B7B0BB13C4800E03C48BB
:1045F000FDF714FF3B48FDF711FF3B48FDF70EFFA9
:104600003A48FDF70BFF3A48FDF708FF3948FDF738
:1046100005FF3948FDF702FF4FF4FA7000F05EFC29
:10462000364B18689B88ADF80430009000F02CFAE7
:104630003348FDF7F3FEFDF729FD3248FDF7EEFEA6
:10464000C82000F04BFC4FF4E17100229620FDF7EA
:1046500059F9FCF7B3FFFDF72DFD00F0FBFB4FF41C
:10466000FA7000F03BFC40F6B83000F037FC26480A
:10467000FDF702FEC82042F21071FCF7EFFF06249E
:104680000134E4B2052C03DD2048FDF7F5FD0024DC
:1046900002AB234413F8080CFFF7F2FE1C4B1A7808
:1046A000002AEDD09A78002AEAD0DA78002AE7D0FA
:1046B0001A79002AE4D05A79002AE1D09B79002B9C
:1046C000DED01448FDF7D8FD02B0BDE8104000F080
:1046D0001DBC00BFB61301001C89FF1F7112010031
:1046E00082120100B1150100F6110100061201004D
:1046F0001212010094120100A21201008F13010096
:10470000C11301002B120100C6130100E1130100C7
:104710006487FF1FF713010008B5FCF7A9FE0248E4
:10472000BDE80840FDF7A8BD0F140100104B0122A1
:104730001A70104AC3F8E0200F4AC3F8E4200F4A69
:10474000C3F8E8204FF07F52C3F8EC200C4AC3F8BE
:10475000F0200C4AC3F8F4204FF41672A3F8A820F6
:104760004122A3F8DC203222A3F8DE2000F054B866
:104770001C89FF1F0000444100F009459A99193E29
:10478000EC51B83DCDCC8C3F034B044A1A6000225B
:104790005A6004F0F3B900BF108CFF1FA020010085
:1047A00073B59A428DE8030014461E460BD9214684
:1047B0006846013C03F076FFE4B2142000F08EFB63
:1047C000B442F4D20AE021466846013403F06AFF9D
:1047D000E4B2142000F082FBB442F4D902B070BD00
:1047E00008B50921084803F045FF1121074803F0E7
:1047F00041FF0A21064803F03DFF06482121BDE89C
:10480000084003F037BF00BF3C8CFF1F308CFF1FF8
:10481000208CFF1F368CFF1F01481D2103F02ABF8B
:10482000288CFF1F70B504461646124D39B1124B45
:104830002A78186899882346FFF7B2FF03E00E48EC
:10484000214603F02FFF2C709EB10C48FDF704FDAC
:104850005A2C03D05B2C06D1094800E00948BDE87A
:104860007040FDF709BD21460748BDE87040FDF7DF
:1048700003BD70BD448CFF1F3C8CFF1F231401003F
:104880003014010029140100D005010070B5044660
:104890001646144D39B1144B2A7818689988234666
:1048A000FFF77EFF03E01048214603F0FBFE2C706B
:1048B000BEB10E48FDF7D0FC5B2C05D05C2C05D0BA
:1048C0005A2C08D10A4802E00A4800E00A48BDE82C
:1048D0007040FDF7D1BC21460848BDE87040FDF7A7
:1048E000CBBC70BD428CFF1F308CFF1F3A140100FF
:1048F000481401004114010052140100D0050100C8
:1049000070B504461646124D39B1124B2A78186814
:1049100099882346FFF744FF03E00E48214603F041
:10492000C1FE2C709EB10C48FDF796FC5A2C03D0AA
:104930005B2C06D1094800E00948BDE87040FDF74E
:104940009BBC21460748BDE87040FDF795BC70BD93
:104950002E8CFF1F208CFF1F5F14010071140100BB
:104960006B140100D005010070B504461646144DC5
:1049700039B1144B2A78186899882346FFF710FF3D
:1049800003E01048214603F08DFE2C70BEB10E48A6
:10499000FDF762FC5B2C05D05C2C08D05A2C08D1AA
:1049A0000A4800E00A48BDE87040FDF765BC0948C8
:1049B000F9E721460848BDE87040FDF75DBC70BDD1
:1049C000268CFF1F368CFF1F79140100871401000D
:1049D0008E14010029140100D005010008B50C480F
:1049E000FDF74AFC5A2000210122FFF71BFF5B2044
:1049F00000210122FFF74AFF5A2000210122FFF780
:104A00007FFF5C2000210122BDE80840FFF7ACBF1A
:104A10009414010038B50446154641B1134B18688B
:104A20009988134B1A782346FFF7BAFE03E00F4824
:104A3000214603F037FEBDB10E48FDF70DFC372CC3
:104A40000AD03C2C03D01D2C08D10B4800E00B48A9
:104A5000BDE83840FDF710BC0948F9E72146094890
:104A6000BDE83840FDF708BC38BD00BF288CFF1FEB
:104A7000438CFF1FAE140100C8140100CD140100C7
:104A8000D3140100D005010008B50548FDF7F4FB7B
:104A90001D2000210122BDE80840FFF7BBBF00BF79
:104AA0009414010008B50C4B0C4A1A6000225A609D
:104AB00004F064F80A4803F069FD0A4803F066FD53
:104AC000094803F063FD094803F060FD0848BDE8AC
:104AD000084003F05BBD00BF188CFF1FA020010041
:104AE0003C8CFF1F308CFF1F368CFF1F208CFF1F5C
:104AF000288CFF1F0B4B70B51C681D46FDF7B4FAE0
:104B00000646FDF7A2FA002EF8D10028F6D10520BE
:104B100004F018FB2B68181BB0F57A7F94BF0020B7
:104B2000012070BDF89CFF1F034B1B780BB1FFF7F2
:104B300053BDFFF747BA00BF1C89FF1F10B5084CD3
:104B40006178D1F1010138BF00210120617004F0CA
:104B50005FF86378D3F1010338BF0023637310BD9E
:104B60001C89FF1F034B1A79013202F007021A71E8
:104B7000704700BF1C89FF1FF8B5012004F034F80E
:104B8000954C6070D0F1010038BF002060730220A6
:104B900004F02AF82071002004F026F8092590FB83
:104BA000F5F505EBC505451B2846FDF78DFCFDF722
:104BB0005BFA0746FDF749FA064647B30028F6D1E7
:104BC0008648FDF759FB052004F0BCFA013509239E
:104BD00095FBF3F303EBC303ED1A3046E9B204F09F
:104BE00017F82846FDF770FCFFF784FF58B17C48A2
:104BF000FDF742FB3046314604F00AF83046FDF737
:104C000063FC3546D3E77748FDF736FBCFE700284E
:104C1000CDD07548FDF730FB052004F093FAFFF77F
:104C200069FF7248FDF728FB082DC0D801A252F891
:104C300025F000BF594C00005F4C0000AF4B000056
:104C4000AF4B0000AF4B0000674C00006F4C000002
:104C50009F4D0000D34D0000FFF766FFA7E7FFF769
:104C60006DFF0120A1E7FFF77DFF05209DE70220F2
:104C7000217903F0CDFFFDF70FFC2379072B96D8A0
:104C800001A252F823F000BFA94C0000D74C00004D
:104C9000AF4B0000094D00003B4D0000514D00009E
:104CA0006D4D0000794D0000FCF788FC5048FDF781
:104CB000B5FB5048FDF7B2FB4F48FDF7AFFB40F6A0
:104CC000B83004F03FFA237813B1FFF707FB6EE723
:104CD000FEF7BAFF6BE74948FDF7A0FBC82004F0D8
:104CE00031FA4FF47A700023014600226374FCF716
:104CF00009FE642142480A4600F077F94FF49670A5
:104D00000021FCF7BDFBFEE73E48FDF787FBC8200E
:104D100004F018FA00210A460B464FF47A70FCF7AB
:104D200057FC41F288313848FCF7F8FC0020014676
:104D300002460346FCF74CFCFEE73448FDF76EFBE9
:104D4000237813B1FFF7C8FB31E7FFF7FBF92EE734
:104D500023782BB12E48FDF761FBFFF709FB26E70F
:104D60002C48FDF75BFBFEF793FF20E72A48FDF791
:104D700055FBFEF7D1FE1AE72848FDF74FFB284800
:104D8000FDF74CFB2748FDF749FB2748FDF746FB9D
:104D90002648FDF743FB2648FDF740FB07E7E3788D
:104DA00083F00103E370FDF777FB2248FDF736FB44
:104DB000E378002B3FF4FBAEC82004F0C3F940F2C7
:104DC000DC504FF47A711C4AFCF79CFDFCF7F6FBB3
:104DD000EDE6FCF7BFFDEAE61C89FF1FE0140100C9
:104DE000EF14010004150100141501002215010043
:104DF000311501003E15010051150100601501003B
:104E00005089FF1F6E150100DB0FC9408F0701009D
:104E1000AC0701007E150100D807010085150100CF
:104E200098150100A7150100B4150100C615010071
:104E3000D9150100E6150100DB0FC93F034B044AF9
:104E40001A6000225A6003F099BE00BF488CFF1F11
:104E5000A0200100044B054801221A76044A12687A
:104E60005A61FDF709BA00BF1C89FF1FF91501003F
:104E7000F89CFF1F064A137E3BB1064B1868536926
:104E800003F5BF33D033181A70470348704700BF8B
:104E90001C89FF1FF89CFF1FD07E010008B5FFF79B
:104EA000E9FFF92813DC0A48FDF7E6F9094B00226F
:104EB0005A611B7813B1FFF72FFC01E0FFF7C4F92B
:104EC0000548FDF7D9F90A2004F03CF9FBE708BDD5
:104ED000081601001C89FF1F28160100094B70B538
:104EE0001C6805461E4633681B1BAB4208D2064BA6
:104EF0005B690BB1FFF7D2FF0A2004F023F9F2E758
:104F000070BD00BFF89CFF1F1C89FF1F08B5FFF78D
:104F1000B1FF01460448FDF7AFF9FFF7ABFFBDE86D
:104F20000840FFF7DBBF00BF36160100034B044A01
:104F30001A6000225A6003F021BE00BF508CFF1F90
:104F4000A0200100011E08B54FF0160004DB03F09D
:104F5000F5FF1820002104E0494203F0EFFF18207C
:104F60000121BDE8084003F07DBF011E08B54FF0E8
:104F7000170004DB03F0E2FF1920012104E049429D
:104F800003F0DCFF19200021BDE8084003F06ABFF0
:104F900008B51620012103F093FF1820012103F02A
:104FA0008FFF1720012103F08BFF1920012103F04F
:104FB00087FF0020FFF7C6FF0020BDE80840FFF78D
:104FC000D4BFFFFF034B044A1A6000225A6003F06B
:104FD000D5BD00BF588CFF1FA020010000211C225E
:104FE00003F04ABC80E8060070478160C2607047E9
:104FF000034B044A1A6000225A6003F0BFBD00BF91
:10500000608CFF1FA0200100194B1A491A6842F456
:1050100080521A60184B194A1A60194ADA6002F174
:1050200080421A614FF400720A601649012008702C
:1050300015491960154B1B78D90704D4144A4FF44D
:105040001071116001E013490A6013F0020F0CBFE8
:10505000114912495B074FF4007254BF104B114BBA
:105060000A6054BF4FF410724FF400721A60704718
:105070003C80044010B0044000C0024001401F804A
:10508000000001B8689FFF1F000C1F80609FFF1F7A
:1050900018B0044008C004401CB004400CC00440D8
:1050A00014B0044004C0044030B585B003F086F964
:1050B000002838D01D4B1E481E4D0024C3F8AC40BC
:1050C000C3F8B040C3F8B440C3F8B840C3F8BC401C
:1050D000194B0293194B02A95B68039301F03CFF43
:1050E000FA2302A9022217208DF809308DF8084012
:1050F00002F088FD288804A904231E3001F8093D28
:10510000012280B202F07EFD28888DF8084000F56B
:105110008F7002A9012280B202F074FD4FF4FA7080
:1051200004F010F8012005B030BD00BF1C89FF1F3E
:10513000AA87FF1FB09CFF1FA0200100DC9BFF1F60
:1051400007B5FFF761FF074B0093074B07485B6804
:10515000019369464FF4046201F0CAFFC0B203B084
:105160005DF804FBA02001001098FF1FCC9BFF1FDF
:1051700010B5174CFFF748FF2046022101F025FF2C
:105180002046022101F021FF2046022101F01DFFEF
:105190002046022101F019FF2046002101F015FFF1
:1051A0002046002101F011FF2046002101F00DFFF3
:1051B0002046112101F009FF20460649112201F085
:1051C00035FF20463321BDE8104001F0FEBE00BF90
:1051D000CC9BFF1F9A16010008B5134B19780229C2
:1051E00002461CD15978022919D19978022916D181
:1051F000D978022913D19979DB7903EB012140F2A7
:105200009F33994204D0B1F56A7F01D0074804E08A
:10521000B2F56A7F05DA06481146FDF72DF8002041
:1052200008BD012008BD00BF1898FF1FAB16010084
:10523000E91601002DE9F041184C4FF6FF73A4F870
:10524000C030A4F8C2302746002300EB43059EB2CD
:1052500095F857C095F85840104D04EB0C2421F8F0
:105260001340C41894F88C42D45431F81340B7F862
:10527000C2C0A44507D9A4F15B081FFA88F840F61C
:10528000B45CE04505D90133B3F5877FDDD1BDE8D6
:10529000F081A5F8C240A5F8C060F4E71C89FF1FA3
:1052A0002DE9F04F5E4A5F4B127800268DB083F8EF
:1052B000AB60A3F8C460A3F8C660002A00F0AC801D
:1052C000B3F894200892D3F898200992DFF86C8103
:1052D000B3F89620B3F8A8300A920B930696374697
:1052E0000396BBB2C3F18702C3F1AE039BB292B285
:1052F0004E2B07926AD84C4B33F81790484608F06B
:105300005BFA079BCDE9040118B208F087FE474914
:1053100008F08CFF464908F0D5FE0146099808F0D0
:10532000C9FD08F05BFACDE9000106F089FB089A97
:10533000824610B28B4608F03FFA524604465B465E
:105340000D46DDE9040108F09DFA02460B462046B1
:10535000294608F0E5F808F02FFD044648F8040C4B
:10536000DDE9000106F0A6FB0A9B824618B28B46D7
:1053700008F022FA5246CDE900015B46DDE904015E
:1053800008F080FA0B460246DDE9000108F0C8F893
:1053900008F012FDA4F1C90C40F626239C45C8F87C
:1053A000000013D8C93840F23E6398420ED8A9F1E4
:1053B0005B0292B240F6B4539A4207D80B9A9145D9
:1053C00004D2079BCDF80C90069301260137B7F560
:1053D000877F08F1080884D1124B069AA3F8C420ED
:1053E000039A83F8AB60A3F8C620DB78A3B100244E
:1053F0001048A3B28380C3F18703C3800A4B33F8FC
:10540000143003810C4B1021E35C8372013405F0EE
:1054100005F9B4F5877FEBD10DB0BDE8F08F00BF83
:10542000A987FF1F1C89FF1FE494FF1F000034435E
:10543000DB0F4940E49BFF1F0097FF1F788CFF1F85
:1054400070B5204E337823B10025FFF729FF357062
:1054500035E0FFF7D9FD40F2B1321B481B491C4C27
:1054600001F0FEFD421C012A034606D8D4F8AC30F8
:105470000133C4F8AC30012521E0D4F8BC20C4F8D5
:10548000B8001344C4F8BC30FFF7A6FE054660B16F
:105490000E481049104AFFF7CDFED4F8B030012570
:1054A0002B443570C4F8B03009E0D4F8B43001337F
:1054B000C4F8B430044801F0DBFD0130FAD12846CD
:1054C00070BD00BF708CFF1FCC9BFF1F1898FF1F83
:1054D0001C89FF1FE494FF1F0097FF1F38B5164B70
:1054E000164D1D6000245C6003F048FB144B022243
:1054F000A821C0201D6018715971DA719C71114B7F
:10550000597101211D601871D9719C710E4B4FF4B6
:105510007A7199600D49196004211C7359731C71CB
:105520000B4B1A705A709A701222DA7003221A7397
:105530005A739A73DA7338BD688CFF1FA02001007C
:10554000DC9BFF1F1098FF1FCC9BFF1F081E010054
:10555000E49BFF1F08B51A2005F0F6FC0248BDE8E1
:10556000084001F091B900BF009CFF1F38B50C48FE
:1055700001F074F998B10B4C236803B938BD1D884C
:1055800045B11A202946002205F054FC2368023355
:10559000236038BD1A2005F0D7FC256038BD38BD22
:1055A000009CFF1FFC9BFF1F014B024A1A607047C3
:1055B000FC9BFF1F76170100014B024A1A607047DF
:1055C000FC9BFF1F80170100014B024A1A607047C5
:1055D000FC9BFF1F8617010008B5064B064A1A60A0
:1055E00000225A6003F0CAFA04486421BDE808406A
:1055F00001F028B9F49BFF1FA0200100009CFF1FB1
:1056000008B508F00BFD044BD3F8E01008F05AFD84
:1056100008F01EFF08BD00BF1C89FF1F08B508F079
:10562000FDFC044BD3F8E01008F000FE08F010FF7A
:1056300008BD00BF1C89FF1F08B5044BD3F8E41058
:1056400008F040FD08F004FF08BD00BF1C89FF1FE3
:1056500008B508F0E3FC034BD3F8E41008F0E6FDCE
:1056600008BD00BF1C89FF1F044B9A7822B95B78E4
:1056700013B1C0F53B600830704700BF1C89FF1FA5
:1056800010B50B49044608F0BBFE20B1204609497D
:1056900008F010FCF5E72046074908F0CFFE28B1D6
:1056A0002046044908F004FC0446F4E7204610BDF7
:1056B000DB0F49C0DB0FC940DB0F494008B5074B82
:1056C0009A78014642B95B7833B1054808F0F0FB9F
:1056D000BDE80840FFF7D4BF084608BD1C89FF1F7E
:1056E000DB0F49402DE9F04107460698401A16465F
:1056F000984608F061F80446C7EB08000D4608F02C
:105700005BF802460B462046294606F01DFA044681
:1057100030460D4608F062F802460B462046294600
:1057200007F0FCFE08F070FBBDE8F041FFF7A8BFF2
:10573000034B044A1A6000225A6003F01FBA00BFEC
:105740000C9CFF1FA02001002DE9F74F1E46BDF95C
:105750003030BDF834B0C2EB03091546721AB9F106
:10576000000FB8BFC9F10009002AB8BF52429145E5
:10577000D4BF4FF000094FF0010980460C46B9F143
:10578000000F04D032462C461E460D461346B44246
:1057900005DD2A461D461346224634461646C4EB0E
:1057A000060A5A1B1FFA8AFA82EAE271A1EBE27139
:1057B0000FFA8AF7022297FBF2F74FF6FF729D422B
:1057C000B8BF01220091BFB20192B4421DDCD8F8EB
:1057D00000304046D3F808C0B9F1000F02D0294686
:1057E000224601E021462A465B46E047009ABF1A5E
:1057F000BBB29FB23A0405D5019903EB0A070D44E9
:105800002DB2BFB2013424B2DFE703B0BDE8F08FA0
:105810002DE9F3470768BDF82C50BDF928600095C5
:1058200004467F69904689469A46B84723680095A2
:10583000721E42445F6920464946534612B2B84739
:10584000236800951F692046494642463346B847BB
:105850000AF1FF3A236800950AEB09011D69204609
:1058600009B242463346A84702B0BDE8F08713B5F7
:10587000013B13441BB200930468BDF81030019340
:10588000E4680B46A04702B010BD37B5013B046881
:10589000BDF8185000920B440195E4681BB2A04774
:1058A00003B030BD2DE9F347BDF928A0BDF82C7039
:1058B00006460D46914698460C4605EB08039C4269
:1058C0000BDA31680097D1F810C0304621464A46BD
:1058D00053460134E04724B2EFE702B0BDE8F08759
:1058E00013B5B0F90C200468009201910021B0F9C1
:1058F0000A30E4690A46A04702B010BD7047FFFFB6
:1059000030B5C1800024094D0281418182814FF66A
:10591000FF71012204710560C475C481048282751F
:105920008182418202764476C46130BD981C0100B8
:105930002DE9F04F87B01FFA83F80293C8F10103F5
:105940009BB20193C8EBC8335B009BB2BDF84050DB
:10595000059396B203680446914608EB0602D3F815
:1059600008C012B22B460F46E0472368C8EB060278
:10597000D3F808C03946204612B22B46E047BFB2E2
:10598000236808EB0701D3F808C0204609B24A464D
:105990002B46E0472368C8EB0701D3F808C04A4606
:1059A000204609B22B46E04700220492049A13B223
:1059B000029A934280F28780019B1B040CD4029AC6
:1059C000531E059A1BB20293931C9BB29AB2059286
:1059D000019A13449BB20193049B019A1FFA83F826
:1059E00002EB480303339BB20193029B9BB299469F
:1059F00007F1010BC3440393B14423680FFA8BFBF7
:105A00000FFA89F9D3F808C059464A4620462B4672
:105A100007F1FF3AE047C8EB0A0A23680FFA8AFA4F
:105A2000D3F808C051464A4620462B46E047039A21
:105A30002368C2EB06090FFA89F9D3F808C0594662
:105A40004A4620462B46E04723685146D3F808C013
:105A50004A4620462B46E047DDF80CA0236806F1B5
:105A6000010BC344BA440FFA8AFA0FFA8BFBD3F83E
:105A700008C0204651465A462B46E047039BC3EBDD
:105A8000070923680FFA89F9D3F808C02046494668
:105A90005A462B46E047731EC8EB030823680FFAEB
:105AA00088F8D3F808C02046514642462B46E047C6
:105AB00023684246D3F808C0204649462B46E047B3
:105AC000049A013271E707B0BDE8F08F2DE9F04F7D
:105AD0008BB01D469BB29DF850700897C3F101062C
