:1000000000800020BD01000011890000DD88000093
:10001000DD880000DD880000DD880000DD8800004C
:10002000DD880000DD880000DD8800001189000007
:1000300011890000DD88000011890000CD880000D2
:100040001189000011890000118900001189000048
:100050001189000011890000118900001189000038
:100060001189000011890000118900001189000028
:100070001189000011890000118900001189000018
:100080001189000011890000118900001189000008
:1000900011890000118900001189000011890000F8
:1000A00011890000118900001189000011890000E8
:1000B00011890000118900001189000011890000D8
:1000C00011890000118900001189000011890000C8
:1000D00011890000118900001189000011890000B8
:1000E00011890000118900001189000011890000A8
:1000F00011890000F193000011890000B9AE0000E1
:100100001189000069B30000118900001189000005
:100110001189000011890000118900001189000077
:100120001189000011890000118900001189000067
:100130001189000011890000118900001189000057
:100140001189000011890000118900001189000047
:1001500009A1000021A1000039A1000051A1000067
:100160006D83000091960000118900001189000044
:100170001189000011890000118900001189000017
:100180001189000011890000118900001189000007
:1001900011890000118900001189000011890000F7
:1001A00011890000118900001189000011890000E7
:1001B000118900001189000011890000564B4CF292
:1001C000205210B51A804DF628121A8000BF00BFC9
:1001D00008F0A2FB514B4FF010621A60504A9A602F
:1001E000504ADA60A3F53043203B1A6812F480725B
:1001F00004D14D490A604FF4A8521A604B4B1A784B
:10020000110703D51A7842F008021A70484B2A22C7
:100210001A700023474A48499818884204D247492F
:10022000595899500433F5E7454A464B9A424FF0E6
:10023000000302D242F8043BF7E74349434A5958C6
:1002400099500433B3F5DE7FF7D1414B802103F899
:10025000011B40498B42F9D13F4B1A603F4B0A22A8
:100260001A70A3F5805324225A70A0221A709A792A
:100270009207FCD59A79D406FCD4394B9A7902F0CE
:100280000C02082AF9D105221A7143225A719A796F
:100290009006FCD5324B9A795106FBD5314A4FF086
:1002A000817111600521516020221A702C4B9B79BD
:1002B00003F00C030C2BF9D12B4B2C4A1A602C4B5E
:1002C0002C4A1A6000225A60072243F8042C2A4A5A
:1002D000C3F80C2D62B608F08FFD134B1B68DA07CC
:1002E00005D5264808F0F2FB254B264A1A60264B16
:1002F0001B785B0609D5224C224A2368934204D11D
:100300001E4808F0E3FB002323600DF05DFF08F0BA
:1003100009FB0AF048FAFEE70E2005403080044051
:10032000823F04000100002B14D0034002D007409C
:1003300000E007406087FF1FA888FF1F50210100D1
:10034000A888FF1FD09FFF1F000000000082FF1F32
:1003500000E400E05FE400E008ED00E0005006404B
:10036000004006404480044004800440C010050062
:1003700014E000E03F19010000002020130E0D5B87
:100380001CE00340A5C3945A00F00740FFFFFFFFA5
:10039000FFFFFFFFFFFFFFFFFFFFFFFFFFFFFFFF6D
:1003A000FFFFFFFFFFFFFFFFFFFFFFFFFFFFFFFF5D
:1003B000FFFFFFFFFFFFFFFFFFFFFFFFFFFFFFFF4D
:1003C000FFFFFFFFFFFFFFFFFFFFFFFFFFFFFFFF3D
:1003D000FFFFFFFFFFFFFFFFFFFFFFFFFFFFFFFF2D
:1003E000FFFFFFFFFFFFFFFFFFFFFFFFFFFFFFFF1D
:1003F000FFFFFFFFFFFFFFFFFFFFFFFFFFFFFFFF0D
:10040000FFFFFFFFFFFFFFFFFFFFFFFFFEFFFFFFFD
:1004100010B5054C237833B9044B13B10448AFF33E
:1004200000800123237010BDA888FF1F000000007A
:100430005021010008B5064B1BB106480649AFF331
:1004400000800648036813B1054B03B1984708BD07
:100450000000000050210100AC88FF1FA888FF1F8A
:100460000000000010B5044683709DF8083042700B
:10047000C37001700846012108F066FB6078012115
:1004800008F062FB2078012108F030FB6078012140
:1004900008F02CFB204610BD2DE9F84F9E4D037847
:1004A0002A689E499E4F42F480522A6004469D4A23
:1004B0009D4810600A2BD1608146176188464FF431
:1004C000007201D1994B02E0022B03D1984B1A60C4
:1004D000012333E0092B01D1964B02E0062B03D117
:1004E000954B1A60022329E0142B04D103F18043B9
:1004F00003F5982302E0172B03D1904B1A600423D5
:100500001CE0152B01D18E4B02E0162B03D18D4B35
:100510001A60082312E00F2B03D18B4B1A601023B3
:100520000CE08A4A8A4E52F8332032601846012184
:1005300008F00AFB336801221A7000238548794AC3
:100540008549864E03701160327812F0010F8A4699
:100550000CBF8349834983460CBF4FF410704FF49E
:10056000007012F0020F08600CBF7F487F484FF404
:1005700000710160510755BF7D4A7E4A4FF41071EA
:100580004FF4007111601904664AABB141F00043A9
:1005900043F088035363D36A03F47043B3F5405FB9
:1005A000F9D89BF80020A0785E4B4FEA024CD2B1FC
:1005B0004CEA000058630FE0654B1B6819704FF060
:1005C0008053D36288235363564BDB6A03F4704332
:1005D000B3F5405FF8D8E4E7DA6A02F47042B2F5A6
:1005E000405FF9D810E05A490A6840F0006082F88C
:1005F00000C04FF08052DA6258634A4BDB6ADA007F
:10060000FBD50B6801221A70464AD36A13F0F00F2B
:10061000FAD0936BD16A434B11F0F00FFAD09BF8EC
:1006200000109A6B0A04A9B142F0004242F0900215
:100630005A63DA6A02F47042B2F5405FF9D89BF867
:100640000020E078374B4FEA024CCAB14CEA000078
:1006500058630EE03E4909680A704FF08052DA6232
:1006600090225A63DA6A02F47042B2F5405FF9D818
:10067000E5E7DA6A02F47042B2F5405FF9D810E0BB
:1006800033490A6840F0006082F800C04FF08052A1
:10069000DA625863234BDB6ADB00FBD50B6801226F
:1006A0001A70204BDA6A12F0F00FFAD09A6BD96AFE
:1006B0001C4A11F0F00FFAD0936B607829680A2871
:1006C00041F480512960C2F80090C2F80C80176193
:1006D0004FF4007201D1154B02E0022803D1144BF4
:1006E0001A60012364E0092801D1124B02E00628B8
:1006F00003D1114B1A6002235AE0142801D11E4B7A
:1007000002E0172803D10D4B1A60042350E015288E
:1007100034D10B4B35E000BF3C800440022001B8CF
:10072000022001F800C0024001401F8010B00440C8
:1007300000C004400CB0044010C0044008B00440A5
:1007400018C0044004B0044000B004404019010047
:10075000849EFF1F889EFF1F000C1F80809EFF1F2E
:1007600018B0044008C004401CB004400CC0044051
:1007700014B0044004C0044014C00440162803D13F
:10078000664B1A60082313E00F2805D1644B4FF421
:1007900000721A6010230BE0624A634D52F8302059
:1007A0002A60012108F0D0F92B6801221A70002379
:1007B0005E4A8BF80030C2F800A03278D50755BFEA
:1007C0005B495C494FF410704FF4007012F0020F57
:1007D00008600CBF584859484FF400710160500739
:1007E00055BF574A574A4FF410714FF400711160CA
:1007F00019044E4A9BB141F0004343F08803536310
:10080000D36A03F47043B3F5405FF9D89BF8002036
:10081000A178464B1004CAB1014359630FE0424B23
:100820001B6819704FF08053D362882353633F4B8A
:10083000DB6A03F47043B3F5405FF8D8E6E7DA6AA1
:1008400002F47042B2F5405FF9D80FE0364A1568FD
:1008500041F0006128704FF08050D8625963334BEB
:10086000DB6AD900FBD5136801221A702F4AD36ABC
:1008700013F0F00FFAD0936BD16A2C4B11F0F00FFC
:10088000FAD09BF800109A6B0A0499B142F000422A
:1008900042F090025A63DA6A02F47042B2F5405FA5
:1008A000F9D89BF80020E178204B1004C2B1014335
:1008B00059630EE01C4909680A704FF08052DA62F1
:1008C00090225A63DA6A02F47042B2F5405FF9D8B6
:1008D000E7E7DA6A02F47042B2F5405FF9D80FE058
:1008E000114A146841F0006120704FF08050D862C6
:1008F00059630E4BDB6ADB00FBD5136801221A70CB
:100900000A4BDA6A12F0F00FFAD09A6BDA6A12F038
:10091000F00FFBD0054B9B6BBDE8F88F04B0044093
:1009200000B0044040190100849EFF1F00C0024037
:1009300018B0044008C004401CB004400CC004407F
:1009400014B0044004C004402DE9F84F944A0378E1
:100950001168944E944D41F48051116004469349BE
:1009600093480E600A2BCD6093460861B246A946B3
:1009700080464FF4007201D18E4B02E0022B03D16E
:100980008D4B1A60012333E0092B01D18B4B02E020
:10099000062B03D18A4B1A60022329E0142B04D1C1
:1009A00003F1804303F5982302E0172B03D1854B15
:1009B0001A6004231CE0152B01D1834B02E0162B97
:1009C00003D1824B1A60082312E00F2B03D1804B16
:1009D0001A6010230CE07F4A7F4D52F833202A60C2
:1009E0001846012108F0B0F82B6801221A70002384
:1009F0006E4A7A4F7A4E7B4D3B7016602A78D1074B
:100A000055BF794979494FF410704FF4007012F0D6
:100A1000020F08600CBF7648764852074FF4007109
:100A200054BF754A754A016054BF4FF410714FF4BA
:100A30000071116018045D4A4BB140F02000506312
:100A4000D36A03F47043B3F5405FF9D80EE062490E
:100A50000B6818704FF08053D362694B5363534B4C
:100A6000DB6ADB00FBD50B6801221A704F4AD36AA0
:100A700013F0F00FFAD0936B6078DBF800100A28BF
:100A800041F48051CBF80010C2F800A0C2F80C90DD
:100A9000C2F810804FF4007201D1464B02E00228E8
:100AA00003D1454B1A60012334E0092801D1434B9F
:100AB00002E0062803D1424B1A6002232AE01428E0
:100AC00001D1504B02E0172803D13E4B1A6004239A
:100AD00020E0152801D13C4B02E0162803D13B4B06
:100AE0001A60082316E00F2805D1394B4FF4007225
:100AF0001A6010230EE0374ADFF8DC8052F830200D
:100B0000C8F80020012108F01FF8D8F800300122B1
:100B10001A700023254A3B7016602A78D00755BF0B
:100B2000314932494FF410704FF4007012F0020F47
:100B300008600CBF2E482F484FF400710160510728
:100B400055BF2D4A2D4A4FF410714FF400711160BA
:100B50001904164A4BB141F020015163D36A03F4E2
:100B60007043B3F5405FF9D80EE01B4B1868017075
:100B70004FF08051D162224951630C4AD26AD200AF
:100B8000FBD51B6801221A70084BDA6A12F0F00FCD
:100B9000FAD09B6B00236360A360BDE8F88F00BFB1
:100BA0003C80044001401F80022001B800C0024088
:100BB000022001F810B0044000C004400CB0044012
:100BC00010C0044008B0044018C0044004B0044001
:100BD00000B0044040190100849EFF1F889EFF1F43
:100BE000000C1F80809EFF1F18B0044008C0044006
:100BF0001CB004400CC0044014B0044004C00440C5
:100C00002000000814C004402DE9F74F9F4BA04975
:100C10001A68A04FA04E42F48052044600781A6031
:100C20009E4A0A2811609B46D760884616614FF499
:100C3000007303D102F5F832103202E0022803D12A
:100C4000974A136001232FE0092801D1954A02E059
:100C5000062803D1944A1360022325E0142801D109
:100C6000924A02E0172803D1914A136004231BE043
:100C7000152801D18F4A02E0162803D18E4A13604D
:100C8000082311E00F2803D18C4A136010230BE0D6
:100C90008B4B8C4D53F830302B60012107F054FF03
:100CA0002B6801221A70002387487C4A8749884DA7
:100CB000037011602A7812F0010F89460CBF854934
:100CC000854982460CBF4FF410704FF4007012F04B
:100CD000020F08600CBF8148814852074FF4007131
:100CE00054BF804A804A016054BF4FF410714FF4E2
:100CF00000711160694A1804C2F800904BB140F0CD
:100D0000E8005063D36A03F47043B3F5405FF9D849
:100D10000DE06C490B6818704FF08053D362734B31
:100D20005363D36AD800FCD50B6801221A705B4B61
:100D3000DA6A12F0F00FFAD09A6B6078DBF80020D4
:100D40000A2842F48052CBF80020C3F80080DF600C
:100D50001E614FF4007301D1654A02E0022803D1FD
:100D60004F4A1360012333E0092801D14D4A02E0C4
:100D7000062803D14C4A1360022329E0142801D12C
:100D80004A4A02E0172803D1494A136004231FE0AE
:100D9000152801D1474A02E0162803D1464A1360BC
:100DA000082315E00F2805D1444B4FF400721A6058
:100DB00010230DE0424A434B52F830201A600121C3
:100DC000019307F0C1FE019B1B6801221A700023EA
:100DD000324A8AF80030C2F800902A78D10755BF0D
:100DE0003C493D494FF410704FF4007012F0020F6F
:100DF00008600CBF39483A4852074FF4007154BF9D
:100E0000384A394A016054BF4FF410714FF40071F1
:100E100011601804214A4BB140F0E8005063D36AD6
:100E200003F47043B3F5405FF9D80EE025490B6831
:100E300018704FF08053D3622C4B5363174BDB6A0F
:100E4000D800FBD50B6801221A70144AD36A13F03C
:100E5000F00FFAD0936B2078DBF800100A2841F4E9
:100E60008051CBF80010C2F80080D76016614FF4B3
:100E7000007201D11E4B02E0022803D1084B1A6018
:100E8000012365E0092835D1064B36E03C8004405B
:100E900001401F80022001B8022001F800C002407A
:100EA00000C004400CB0044010C0044014C0044012
:100EB00008B0044018C0044004B0044000B004402E
:100EC00040190100849EFF1F889EFF1F000C1F8099
:100ED000809EFF1F18B0044008C004401CB00440AE
:100EE0000CC0044014B0044004C00440E8000008F2
:100EF00010B00440062803D19F4B1A60022327E05C
:100F0000142801D19D4B02E0172803D19C4B1A6095
:100F100004231DE0152801D19A4B02E0162803D1C5
:100F2000994B1A60082313E00F2805D1974B4FF413
:100F300000721A6010230BE0954A964E52F830204A
:100F40003260012107F000FE336801221A7000238D
:100F5000914A8AF80030C2F800902A78D10755BF2C
:100F60008E498F494FF410704FF4007012F0020F49
:100F700008600CBF8B488C4857074FF4007154BF72
:100F80008A4A8B4A016054BF4FF410714FF40071CC
:100F900011601904804A5BB141F0004343F06803DB
:100FA0005363D36A03F47043B3F5405FF9D80EE09E
:100FB000784B1B6819704FF08053D36268235363DA
:100FC000754BDB6A03F47043B3F5405FF8D8724B9E
:100FD000DA6A12F0F00FFAD09AF800109A6B0A044D
:100FE00049B142F000425A63DA6A02F47042B2F543
:100FF000405FF9D80CE0674909680A704FF08051EA
:10100000D9625A63DA6A02F47042B2F5405FF9D8E5
:10101000614BDA6A12F0F00FFAD09AF800109D6B6B
:101020000A0451B142F000425A63DA6A02F4704293
:10103000B2F5405FF9D82D020DE0564909680A70F3
:101040004FF08051D9625A63DA6A02F47042B2F505
:10105000405FF9D8EFE7504BDA6A12F0F00FFAD0A0
:101060009A6B9AF8001015430A0451B142F00042FD
:101070005A63DA6A02F47042B2F5405FF9D82D0281
:101080000DE0444909680A704FF08051D9625A63F3
:10109000DA6A02F47042B2F5405FF9D8EFE73E4BEE
:1010A000DA6A12F0F00FFAD09A6B15439AF8002022
:1010B00011043AB15963DA6A02F47042B2F5405F42
:1010C000F9D80EE0334A106801704FF08051D962B0
:1010D0004FF000615963D96ACE00FCD51368012234
:1010E0001A702B022C4AD16A11F0F00FFAD0916BD2
:1010F0000B43304963600868637840F480500860AF
:101100002D4911602D49D1600A2B01F180411161F7
:101110004FF4007201D12A4B02E0022B03D1294B7C
:101120001A6001235FE0092B01D1274B02E0062B57
:1011300003D1114B1A60022355E0142B04D103F1A3
:10114000804303F5982302E0172B03D10C4B1A6060
:10115000042348E0152B01D10A4B02E0162B03D1E2
:10116000094B1A6008233EE00F2B2FD1074B4FF499
:1011700000721A60102336E010C0044014C004400E
:1011800008B0044018C0044004B0044000B004405B
:1011900040190100849EFF1F00C0024018B00440A7
:1011A00008C004401CB004400CC0044014B004400B
:1011B00004C004403C80044001401F80022001B86C
:1011C00010B0044000C004400CB00440754A764D95
:1011D00052F833202A601846012107F0B5FC2B682D
:1011E00001221A7000237149714A72481370086015
:1011F00071490978CD0755BF704871484FF4107593
:101200004FF4007511F0020F05600CBF6D4D6E4D6F
:101210004FF400702860480755BF6C496C494FF483
:1012200010704FF400700860180460495BB140F022
:10123000004343F068034B63CB6A03F47043B3F598
:10124000405FF9D80EE0584B1B6818704FF0805380
:10125000CB6268234B63554BDB6A03F47043B3F5F1
:10126000405FF8D8514BD96A11F0F00FFAD01078DE
:10127000996B010448B141F000415963D96A01F406
:101280007041B1F5405FF9D80CE047480068017043
:101290004FF08050D8625963D96A01F47041B1F5BA
:1012A000405FF9D8414BD96A11F0F00FFAD01078AD
:1012B0009D6B010450B141F000415963D96A01F4BA
:1012C0007041B1F5405FF9D82D020DE03648006855
:1012D00001704FF08050D8625963D96A01F47041AF
:1012E000B1F5405FF9D8EFE7304BD96A11F0F00F54
:1012F000FAD0996B10780D43010450B141F00041D0
:101300005963D96A01F47041B1F5405FF9D82D02F3
:101310000DE02548006801704FF08050D862596395
:10132000D96A01F47041B1F5405FF9D8EFE71F4B7E
:10133000D96A11F0F00FFAD0996B12780D431104AD
:101340003AB15963DA6A02F47042B2F5405FF9D8F3
:101350000EE0154A106801704FF08051D9624FF0CD
:1013600000615963D96AC900FCD5136801221A705B
:101370002B020E4AD16A11F0F00FFAD0926B134390
:10138000A3601B0C1B04B3F57F0F02D0B3F17F4F9A
:1013900005D1104803B0BDE8F04F00F041BF03B0E5
:1013A000BDE8F08F40190100849EFF1F00C002407D
:1013B000889EFF1F000C1F80809EFF1F18B00440F6
:1013C00008C004401CB004400CC0044014B00440E9
:1013D00004C0044020FE00004068704780687047E9
:1013E000034B044A1A6000225A6007F00BBA00BF90
:1013F000C488FF1FB81A010001460A46014803F0DD
:101400004CBC00BF1C89FF1F01460A46014803F07F
:1014100044BC00BF3889FF1F70B5144C04F12C0682
:10142000002301255022304684F82430E3612362F2
:101430006366A366A4F87820A573E57303F026FC21
:101440006420FFF7D9FF483429462A46304603F086
:1014500021FC204603F01AFC6420FFF7D5FF20464C
:1014600029462A46BDE8704003F014BCF088FF1FEF
:10147000024B002283F82420704700BFF088FF1F32
:1014800070B5084C02230E46E56984F8243003F059
:10149000FBFE284460663046256A03F011FF2844AD
:1014A000A06670BDF088FF1F2DE9F84FDFF818A186
:1014B000BAF98C30C01A0E4693460BF0C1FF0446B1
:1014C000BAF98E00301A0D460BF0BAFF22460646D6
:1014D0000F462B46204629460CF018F83246804627
:1014E00089463B46304639460CF010F802460B461A
:1014F000404649460BF058FE0AF06CF90CF0A0FA91
:1015000022462B468046394630460AF061F90446A9
:10151000DAF890000D460BF0A5FF02460B46204678
:1015200029460BF03FFE0CF0B3FA03F0EDFE044643
:10153000BBF1000F17D121490CF0C4FD30B120469A
:101540001F49C8F100050CF0F7FA0AE020461D49D2
:101550000CF09AFD38B120461949C8F100050CF08D
:10156000EDFA044600E04546B8F11D0F06DC2846BA
:101570000021FFF785FF0020BDE8F88FB8F11E0FAE
:1015800005D0B8F1C70F02DC2846002111E0204643
:1015900000210CF097FD10B904F1004000E0204656
:1015A0004FF07C510CF08EFD08B1002000E0284681
:1015B0002146FFF765FF7F20BDE8F88FDB0FC93FAD
:1015C000DB0F4940DB0FC9BFF088FF1F034B01222F
:1015D000002000219A73DA73FFF752BFF088FF1FD3
:1015E0002DE9F84FDFF880801D4CD8F800900E46AA
:1015F00017469A4603F07CFEA3460546A4F89400DD
:10160000A4F8966003F0A2FA00F0B4FC2846314634
:101610005246FFF749FF044638B9C82003F0B6FA2E
:10162000FFF7D4FF2046BDE8F88F57B1D8F8003057
:10163000C9EB03039F4204D2FFF7C8FF0120BDE8B6
:10164000F88F9BF8A330002BDCD0FFF7BFFF0548D5
:1016500000F0E6FD03F0F4FD0220BDE8F88F00BFC6
:10166000F088FF1F3EFE0000A09CFF1F2DE9F04FF9
:1016700085B08B4601900BF0E3FEDFF8ACA004468A
:10168000DAF890000D460BF0EDFE06460F460AF024
:101690001BF80246BAF98C00039202910BF0D0FEBF
:1016A000039A029B80468946204629460BF02EFF6E
:1016B0000B460246494640460BF076FD0CF0C0F959
:1016C0003946804630460AF039F80246BAF98E00AB
:1016D000039202910BF0B4FE039A029B06460F465A
:1016E000204629460BF012FF02460B46304639468B
:1016F0000BF05AFD0CF0A4F9DDF804C0BCF1000FAA
:101700000446404605DA03F0F3FD21465A4600231D
:1017100004E003F0EDFD21465A46012305B0BDE883
:10172000F04FFFF75DBF00BFF088FF1FF8B503461D
:10173000144D00200C4619462E68FFF7A1FE1248F2
:1017400003F0BEFD074603F001FA00F013FC0F4B57
:101750001A6A9B6ED31A002BB8BF5B42BB4206DCF1
:10176000C82003F013FAFFF731FF0020F8BD002C6A
:10177000E9D02B689B1B9C42E5D2FFF727FF012095
:10178000F8BD00BFA09CFF1F9A99993EF088FF1FEB
:101790002DE9F3410C46154603F0AAFD03F074FD54
:1017A0000646204603F070FD0D4C0746E06F0CF036
:1017B00093FC8046D4F880000CF08EFC0097014624
:1017C000D4F890203346404603F0D0FD012329464B
:1017D000E370FFF7ABFF0023E37002B0BDE8F081D8
:1017E000F088FF1F2DE9F74F434FDFF814A17A6906
:1017F000BB69DFF810B10221134493FBF1F3FB61E5
:101800003E4B186803F05CFD7B69BA691844801A86
:10181000DAF80030FA693862D31AC7F884300CF06D
:1018200041FADBF80040214605460CF085F90CF042
:1018300053FC2146C7F8880028460CF07FF94FF08A
:101840007C510CF083FA0CF047FC03F045FD064692
:10185000D7F884000BF0F4FD044630460D460BF03B
:1018600001FE8046894609F02FFF02460B4640469E
:1018700049460192009309F061FF019A009B80465E
:101880008946204629460BF041FE0CF001F901463D
:10189000F86F0CF053F942464B46F867294620464C
:1018A0000BF034FE0CF0F4F80146D7F880000CF091
:1018B00045F9C7F88000386A03F00EFD03F024FDF7
:1018C000C7F89000F86F0CF007FC03F0EBFCA7F8EA
:1018D0008C00D7F880000CF0FFFB03F0E3FCFB6901
:1018E000A7F88E00386ACAF800300CF0DBF9CBF8A4
:1018F000000003B0BDE8F08FF088FF1FD888FF1FFD
:10190000E488FF1FE088FF1F70B504460D461646A9
:10191000FFF768FF204603F0EBFC03F0B5FC0CF08A
:10192000C1F90B4CE067284603F0AEFC0CF0BAF9A5
:10193000C4F88000304603F005FDD4F890100CF098
:10194000FBF8044BBDE870401860FFF74BBF00BFC9
:10195000F088FF1FD888FF1F13B500F051FD8448A1
:1019600000F010FD834800F00DFD834800F00AFDF3
:10197000824800F007FD824800F004FD814800F035
:1019800001FD7C4800F0FEFC7F4800F0FBFC7F4836
:1019900000F0F8FC7E4800F0F5FC7E4800F0F2FC18
:1019A0007D4800F0EFFC734800F0ECFC7B4800F051
:1019B000E9FC40F2DC504FF47A710022FFF7A4FFFB
:1019C000FFF704FE08F024FA002840F3CC8008F06A
:1019D000DDF90CF02DFDC1B2442900F0968005DC44
:1019E00042295BD076DC41293DD0B9E0582900F08E
:1019F000A7802DDC472940F0B380694C03226B4659
:101A00000421D4F8DC0006F0D5FF6648694600F0F2
:101A100007FC03226B460421D4F8E00006F0CAFF5D
:101A20006148694600F0FCFB03226B460421D4F8B0
:101A3000D40006F0BFFF5D48694600F0F1FBD4F822
:101A4000D800042103226B4606F0B4FF58483FE05B
:101A500059297CD05A2940F08380514B55480122A6
:101A60009A73DA7379E0544808F00EFD00210446B9
:101A70000CF00AFB30B9204650490CF023FB10B1A2
:101A80004E4C00E00024464B2046C3F8DC400421C5
:101A900003226B4606F08EFF494819E0464808F0DD
:101AA000F3FC002104460CF0EFFA30B9204643491C
:101AB0000CF008FB10B1414C00E00024384B2046EC
:101AC000C3F8E040042103226B4606F073FF3D4853
:101AD000694646E0384808F0D7FC002104460CF07F
:101AE000D3FA30B9204635490CF0ECFA10B1334C3A
:101AF00000E000242A4B2046C3F8D44004210322EE
:101B00006B4606F057FF3048E2E72B4808F0BCFC74
:101B1000002104460CF0B8FA30B9204627490CF0F1
:101B2000D1FA10B1254C00E000241D4B2046C3F82B
:101B3000D840042103226B4606F03CFF2348C7E748
:101B4000174B234800229A730122DA7305E0144BE5
:101B5000204801229A730022DA7300F061FB02E050
:101B60001D4800F05DFB0A2007F030F92AE700BFAE
:101B70004DFE0000F80F01005CFE000070FE00004A
:101B800080FE00008FFE00009EFE0000B2FE0000FE
:101B9000C2FE0000D1FE0000E1FE0000F3FE0000E6
:101BA000F088FF1F04FF000012FF000020FF00006C
:101BB0002EFF000076FF00008C9EFF1F00002041DA
:101BC00008FF000016FF000024FF000032FF0000A5
:101BD0003CFF000059FF000088FF00002DE9F0479E
:101BE000404D95F824602C4626B9304603F002F8A3
:101BF000304607E0012E09D1B5F9260002F0FAFFC0
:101C0000B5F92800BDE8F04703F007B8EB696E6E40
:101C1000354FF61AEE66236AAD6EED1AA37B256783
:101C2000BBB130460CF03EF8D4F8D4100CF08EF86E
:101C300080463868301A0CF035F8D4F8D8100CF01B
:101C400085F8014640460BF079FF0CF045FA8146D5
:101C500000E09946E07BDFF88C80244EA8B128464E
:101C60000CF020F8D8F8DC100CF070F882463068E0
:101C7000281A0CF017F8D8F8E0100CF067F80146B5
:101C800050460BF05BFF0CF027FA6FF07E02B9F1C3
:101C90007F0FA8BF4FF07F093228B4BF034632231D
:101CA0009145B8BF91466FF031029342B8BF1346D9
:101CB0001FFA89F99BB203EB090080B2C3EB090359
:101CC000A4F8740000B2A4F8763002F093FFB4F9DF
:101CD000760002F0A2FFE36E3B60236F3360BDE845
:101CE000F08700BFF088FF1FD488FF1FDC88FF1F2C
:101CF000034B044A1A6000225A6006F083BD00BFFD
:101D0000CC88FF1FB81A010010B5044608F0D4FAB9
:101D1000204610BDF8B5254F3B78022B44D0022356
:101D20003B7007F033F8224E224C306003F062FA29
:101D300007F02CF8206000F0D9F907F027F82368A5
:101D40001D4DC01AC5F8C00007F020F8206003F050
:101D5000C7F907F01BF82368C01AC5F8C40003F0E0
:101D600049FA00F068F9FFF73DFDFFF737FF03F090
:101D700041FA00F039FA00F023FD03F03BFA07F0D6
:101D800005F83368C01AC5F8C80006F0FFFF3368CD
:101D9000C01A0BF083FF09490CF08AF910B108480A
:101DA00000F03EFA00233B70F8BD00BF6487FF1FC0
:101DB000D489FF1FEC89FF1FF088FF1F00401C46DD
:101DC000A5FF000010B5544C54484FF4967108F02C
:101DD00010FB237843F00403237004F09FFB00F012
:101DE000CBFA00F0FFF8242006F07AFCB0F5007F73
:101DF00002DA02F09FFC01E002F05EF9237843F082
:101E00000403237000F0FCFA454800F0BBFA454893
:101E100000F0B8FA444800F0B5FA444800F0B2FACD
:101E2000434800F0AFFA434800F0ACFA02F094FFE8
:101E300020B94148BDE8104000F0B8BA3F4800F072
:101E4000A1FA3F4800F09EFA02F0D2FF18B13D48D7
:101E500000F098FA14E000F0E7F850B13A4800F0CA
:101E600091FA00F0E1F80028FBD1052006F0AEFF62
:101E700006E0364800F09AFA642006F0A7FFE3E790
:101E8000334800F07FFA02F0CBFF18B12D4800F084
:101E900079FA14E000F0C8F850B12B4800F072FA5B
:101EA00000F0C2F80028FBD1052006F08FFF06E005
:101EB000264800F07BFA642006F088FFE3E7254817
:101EC000254C00F05FFA00F09BFC00F003F900F0F5
:101ED00077F902F0B5FEFFF79FFA03F07FF903F000
:101EE000A7F91E4800F04EFA1D4A1E49204608F088
:101EF000CDF91D4B1B78802262732BB1237B03F13C
:101F0000604303F564431A70184800F03BFABDE8DB
:101F1000104002F091BC00BF809EFF1F8C9EFF1FEF
:101F2000BEFF0000B1020100CAFF0000F70F010070
:101F3000D3FF0000DDFF0000F0FF00000200010001
:101F4000110001000C00010020000100B00B010095
:101F50002A0001003A000100D889FF1F4800010053
:101F60003F7E0500151D0000489EFF1F5F00010019
:101F70007047FFFF034B01221A701A78002AFCD128
:101F8000704700BF6487FF1F0E4B0F4A10B5002437
:101F90001A605C6006F036FC0C4B1C735C7306F038
:101FA000F5FE0B4B186006F0F1FE0A4B0A4918606B
:101FB0000A480B4A047080234373BDE810400CF0BC
:101FC000D1B800BFE888FF1FB81A0100F088FF1FD2
:101FD000D489FF1FEC89FF1F091D0000D889FF1F4E
:101FE0006087FF1F08B50220014606F0ADFD032003
:101FF0000221BDE8084006F0A7BD08B5032006F0A1
:1020000095FD003018BF012008BD08B5FFF7F5FFAA
:1020100080F00100C0B208BD08B5022006F086FDC0
:10202000003018BF012008BD08B5FFF7F5FF80F0AC
:102030000100C0B208BD08B5FFF7F6FF20B1FFF7F9
:10204000E4FF08B107F022FB08BDFFFF08B5074811
:1020500006F026FA0028FAD0044806F046FA0028CE
:10206000F5D00348BDE8084000F0DAB8088AFF1F41
:102070007100010008B5074806F012FA0028FAD0EE
:10208000044806F029FA0028F5D00348BDE80840C6
:1020900000F0C6B8088AFF1F8500010008B5094B8B
:1020A000094A1A6000225A6006F0ACFB03210A229A
:1020B000064806F0CBF9064802210A22BDE808408E
:1020C00006F0C4B9F089FF1FB81A0100088AFF1F83
:1020D000F889FF1F10B5044C2046FEF7DDF92046B5
:1020E000BDE81040FEF730BC208AFF1F38B5074C12
:1020F000074D2046FEF788FD2046FFF76DF9404268
:1021000068612046FFF76AF9A86138BD208AFF1F81
:10211000F088FF1F13B5084B084A1A6000245C6062
:1021200006F070FB00941521142283230448FEF767
:1021300099F902B010BD00BF188AFF1FB81A01003C
:10214000208AFF1F38B5044608460D460CF055F9A5
:10215000236802465B6820462946984738BDFFFF42
:1021600008B5134B1B780BB9FFF704FF114B12484E
:102170001B684360114BD3F890208260B3F88C2029
:102180000282B3F88E2042821A78C27593F8BC207E
:102190000276B3F8BA20828293F8A3208275D3F82E
:1021A000C830C3602021BDE8084007F03FBE00BF33
:1021B0006487FF1FA09CFF1FB08AFF1FF088FF1FCE
:1021C00008B540F2E24006F065FE05484FF496710E
:1021D00008F00FF90348BDE8084004F099B900BFC2
:1021E0008C9EFF1F048BFF1F08B5044804F07AF98A
:1021F00018B1BDE80840FFF7B3BF08BD048BFF1F4F
:1022000010B5054B1B7804460BB9FFF7B3FE21460A
:102210000248FFF797FF10BD6487FF1F8C9EFF1FCA
:102220000FB413B50A4C04AB204653F8042B0193AA
:1022300079210CF033F9074920460CF0C9F8204603
:10224000FFF7DEFF02B0BDE8104004B0704700BFEA
:10225000348AFF1FF80F01000A2810B5044620D069
:1022600008D8012817D014D3022818D0032820D169
:10227000134811E00E281AD005D80B2813D00C28CB
:1022800017D1104808E00F280FD07F2811D10E4831
:1022900002E00E4800E00E48FFF7C2FF0DE00D48D7
:1022A000FAE70D48F8E70D48F6E70D48F4E70D4862
:1022B000F2E70D482146FFF7B3FF204610BD00BFEF
:1022C0009D010100F30101002202010079010100DA
:1022D0007C0101008C010100AF010100C40101007B
:1022E000E20101000D0201002C02010010B5054BB6
:1022F0001B7804460BB9FFF73DFE21460248FFF765
:1023000021FF10BD6487FF1F2C9EFF1F0FB413B564
:10231000084C04AB332153F8042B019320460CF0F6
:10232000BDF82046FFF7E2FF02B0BDE8104004B060
:10233000704700BFD08AFF1F08B50B4B0B4A1A60CD
:1023400000225A6006F05EFA0948642104F0BEF8E3
:10235000084B40221A705A709A70DA701A775A77BE
:102360009A77DA7708BD00BF2C8AFF1FB81A0100E0
:10237000048BFF1FB08AFF1F0148022103F08ABFB0
:10238000188BFF1F38B5084D04464FF6FF712846DD
:1023900003F02AFD28462146FFF7D4FE2046BDE87B
:1023A0003840FFF73DBF00BF188BFF1F38B5084D01
:1023B00004464FF47841284603F016FD284621468E
:1023C000FFF7C0FE2046BDE83840FFF729BF00BF39
:1023D000188BFF1F10B5074B074A1A6000225A607E
:1023E00006F010FA054806210F221023BDE8104020
:1023F00003F078BD108BFF1FB81A0100188BFF1F68
:1024000010B50A4C0021204603F04CFD0021204667
:102410000A4603F0E1FC20464FF6FF7103F0E4FCAE
:1024200020460121BDE8104003F0E1BC188BFF1FDE
:102430002DE9F041A8B004AD3749384C074628468D
:1024400008F076F9364908A808F072F935490CA861
:1024500008F06EF9344910A808F06AF9334914A855
:1024600008F066F9324918A808F062F931491CA849
:1024700008F05EF9304920A808F05AF924A82F493D
:1024800008F056F9237828460BB12D4900E02D4974
:1024900008F061F9A37808A82BB12B4908F05BF983
:1024A0004FF4FC6604E0294908F055F94FF6E07650
:1024B000237B10A80BB1264900E0264908F04BF910
:1024C0006379072B22D8DFE803F004070A0D101305
:1024D0001A1D18A8204917E018A8204914E018A8C8
:1024E0001F4911E018A81F490EE018A81E490BE06B
:1024F000237818A80BB11D4906E01D4904E018A86F
:102500001C4901E01C4918A808F025F9237920A8E6
:10251000B3B31A4935E000BF6E020100F088FF1F17
:10252000850201009C020100B3020100CA02010001
:10253000E1020100F80201000F030100260301007F
:102540003D030100540301006B03010082030100FD
:1025500099030100B0030100C7030100DE0301007D
:10256000F50301000C040100230401003A040100FA
:1025700051040100680401007F0401009604010079
:102580008C4908F0E8F8FFF7F5FC8B484FF6FF712F
:1025900003F088FC00210A46874803F01DFC8648AA
:1025A000002103F021FC8448012103F020FC824833
:1025B000002103F019FC8048012103F010FCFFF713
:1025C000D9FC002429197C48103407F08FFE902C88
:1025D000F8D1794803F00DFC00240121831E0A463E
:1025E0001BB20094744803F0FAFE734803F004FC35
:1025F0008046714803F0FDFBA8F10202831E012111
:1026000012B21BB200946C4803F0E9FE6A4803F072
:10261000F3FB0121831E0A461BB20094664803F0B7
:10262000B6FE654803F0E5FB8046634803F0E4FB33
:10263000A8F10201831E09B201221BB200945E4878
:1026400003F0A5FE5C4803F0D4FB0321831F0A4678
:102650001BB20094584803F0C2FE574803F0CCFB6D
:102660008046554803F0C5FBA8F10402831F0321EF
:1026700012B21BB20094504803F0B1FE4E4803F072
:10268000BBFB0321831F0A461BB200944A4803F098
:102690007EFE494803F0ADFB8046474803F0ACFBA3
:1026A000A8F10401C31F0094434809B204221BB2DD
:1026B00003F06DFE04210A460B4600963E4803F0E7
:1026C000EFF804210A460B4600943B4802F074FFE1
:1026D000394803F091FB0421021F0B4612B2009609
:1026E000354803F0DDF8344803F086FB0421021F6F
:1026F0000B4612B20094304802F05EFF2E4803F001
:1027000078FB80462C4803F077FBA8F10401021FF8
:1027100009B212B204230096274803F0C1F82648F4
:1027200003F067FB8046244803F066FBA8F1040130
:10273000021F09B212B2042300941F4802F03CFFAA
:102740001D4803F056FB0422011F134609B20096F0
:10275000194803F0A5F8184803F04BFB0422011FA9
:1027600013460094144809B23E0102F025FF06F119
:102770000E0293B203F10A0109B2009105330A2156
:1027800001911BB20521029303940B460A4812B231
:1027900003F0A9F8A95909483A46FFF741FD24ACCE
:1027A0006D462046103C07F083FFAC42F9D128B0BB
:1027B000BDE8F081AD040100188BFF1FC4040100C7
:1027C00008B5094803F08EFE60B1084B93F8BC10C1
:1027D000C1F10101C9B283F8BC100D20BDE8084069
:1027E00006F084B908BD00BF608BFF1FF088FF1F93
:1027F00002484FF4487103F073BE00BF608BFF1FA7
:1028000008B50D20012106F09FF90D20012106F0E9
:102810006DF9FFF7EDFF0248BDE8084003F078BE10
:10282000608BFF1F10B5064B064A1A6000245C60DF
:1028300005F0E8FF21460448BDE8104003F046BE1D
:10284000588BFF1FB81A0100608BFF1F08B50448A2
:10285000FFF74CFD0348BDE80840FFF7E1BC00BFAF
:10286000DB040100DD04010010B5044621460448E4
:10287000FFF74CFD21460348BDE81040FFF7D0BCF0
:10288000F0040100F404010008B50448FFF72EFD30
:102890000348BDE80840FFF7C3BC00BF0A050100BC
:1028A0000C05010010B5041E02DD0748214602E0B8
:1028B00009D006486142FFF729FD21460448BDE8DA
:1028C0001040FFF7ADBC10BD31050100350501001A
:1028D0003905010010B5044621460448FFF716FDEE
:1028E00021460348BDE81040FFF79ABC500501009F
:1028F0005405010008B50448FFF7F8FC0348BDE89B
:102900000840FFF78DBC00BF6205010064050100AF
:102910000148FFF7EBBC00BF220A0100034B044A49
:102920001A6000225A6005F06DBF00BF6C8BFF1F5C
:10293000B81A0100014B9860FFF796BFF088FF1F9F
:10294000034B9A68821848BF00229A60FFF7AABF1B
:10295000F088FF1F2DE9F04705461F4610460C463C
:10296000BDF820A09DF82490FEF746FD2FB1284623
:1029700021464FF4FA62FEF70BFF4FF0000828469D
:10298000214652463B46FEF72BFE08F1010802287D
:1029900006465FFA88F806D14FF47A7002F0F6F82E
:1029A000C845ECD317E0074600282FD0032819D0DC
:1029B00004D8012808D002281CD10CE00A2813D022
:1029C0007F2817D1134810E0134829462246534662
:1029D000FFF726FC14E0114829462246FFF720FCA9
:1029E00002270DE00E4800E00E4829462246FFF778
:1029F00017FC05E00C4829462246FFF711FC374634
:102A0000C84503D309484146FFF70AFC3846BDE8EC
:102A1000F08700BFD7060100040601003F06010051
:102A200070060100A20601000C0701005307010017
:102A3000312910B5044635D010D82C2927D006D816
:102A40002A291BD021D8292938D1214B3AE02E2917
:102A500026D023D3302931D11E4B33E0352927D05E
:102A600004D8332920D021D81B4B2BE0562921D064
:102A70005C2921D0362921D1184B23E0184B9B78B3
:102A80000BB1184B1EE0184B1CE0184B1AE0144B0E
:102A90009B780BB1164B15E0164B13E0164B11E06B
:102AA000164B0FE0164B0DE0164B0BE0164B09E0F2
:102AB000164B07E0164B05E0164B03E01648FFF7F0
:102AC000AFFB164B93E8030084E80300204610BDDB
:102AD00074050100B4050100C4050100E40501000E
:102AE000F088FF1F7C050100840501008C050100B2
:102AF000940501009C050100A4050100AC0501003E
:102B0000BC050100CC050100D4050100DC05010075
:102B1000EC050100F405010070070100FC0501004F
:102B200090422DE9F04180460E4617461D4601DCD5
:102B3000994204DD02F084FB0E48FFF771FB0E4C56
:102B4000B4F98C0002F0D4FB40450FDBB4F98C00E3
:102B500002F0CEFBB84209DCB4F98E00B04205DBCE
:102B6000A842CCBF00200120BDE8F0810020BDE8D4
:102B7000F08100BFAA070100F088FF1F38B500F000
:102B80000204A4B2054644B1002001464FF47A7213
:102B90004FF45273FFF7C4FF044669070AD54FF498
:102BA0007A70002140F2DC524FF4FA63FFF7B8FF6D
:102BB0002043C4B22A070AD500204FF452714FF4C3
:102BC0007A7240F25F53FFF7ABFF2043C4B2EB06CB
:102BD0000AD5002040F25F514FF47A724FF4FA6345
:102BE000FFF79EFF2043C4B294BBA80609D5214637
:102BF0004FF4FA6040F6B8324FF45273FFF790FF8B
:102C00000446690609D54FF4FA6240F2DC5000210F
:102C10001346FFF785FF2043C4B22A060BD54FF4B5
:102C2000FA604FF4527140F6B83240F25F53FFF74A
:102C300077FF2043C4B2EB050AD54FF4FA6040F2A7
:102C40005F5140F6B8320346FFF76AFF2043C4B233
:102C5000204638BD2DE9FF479DF830A004460F46B9
:102C600090469946312C00F09E800ED82C2C5AD0DC
:102C700005D82A2C30D039D8292C1AD011E12E2C85
:102C80006ED06BD3302C7AD00BE1352C00F0D28093
:102C900005D8332C00F0AE8040F28780BFE0562C80
:102CA00000F097805C2C00F0E680362C40F0F98034
:102CB000CAE08F48FFF7B4FA0620FFF75FFF05462A
:102CC00010B100260125F3E00820FFF757FF002888
:102CD00040F0E980D02076E08648FFF7A1FA8A200C
:102CE000FFF74CFF0028ECD154206CE08248FFF73E
:102CF00097FA1820FFF742FF05460028E1D102208D
:102D0000FFF73CFF002840F0D0800420FFF736FF9B
:102D100000286DD14FF49070FFF730FF08B15C26AA
:102D2000C5E0C020A2E07548FFF77AFAEC20FFF773
:102D300025FF0028C5D10220FFF720FF002857D12A
:102D40001020FFF71BFF002840F093804FF48070A5
:102D5000FFF714FF002800F09E80E0E7684839E0A4
:102D60006848FFF75DFA1C20FFF708FF0028A8D18C
:102D70000220FFF703FF0028CCD0312697E06248FD
:102D8000FFF74EFA1020FFF7F9FE002899D1022034
:102D9000FFF7F4FE0028F0D10C20FFF7EFFE00282B
:102DA000B8D02E2683E0594845E05948FFF738FA55
:102DB000CC20FFF7E3FE002883D10220FFF7DEFEE0
:102DC0000028DAD11020FFF7D9FE88B94FF49070AF
:102DD000BEE75048FFF724FA4FF4F070FFF7CEFE3D
:102DE00000287FF46EAF0220FFF7C8FE002836D01F
:102DF00035265CE04848FFF713FA4FF4E370FFF71D
:102E0000BDFE00287FF45DAF0820FFF7B7FE80BB52
:102E10001020FFF7B3FE0028EAD1202098E73F48B2
:102E2000FFF7FEF9DC20FFF7A9FE00287FF449AF89
:102E30000220C8E73A48FFF7F3F9DE20FFF79EFECD
:102E400000287FF43EAFC1E73648FFF7E9F90A20D2
:102E5000FFF794FE00287FF434AFD420B3E70C20B2
:102E6000FFF78CFE00287FF45AAF1020FFF786FE94
:102E700088B134261BE02C48FFF7D2F94FF4F670E6
:102E8000FFF77CFE00287FF41CAF0220FFF776FEE0
:102E90000028ADD1E9E725482146FFF7C1F90A200E
:102EA00022E0002603E0362602E0312600E000257D
:102EB00002A82146FFF7BCFD45B18DE80006029847
:102EC00003993A464346FFF745FD0DE01848FFF7E2
:102ED000A7F9CDF800A03046394642464B46FFF7E9
:102EE000B9FE00283FF4BEAE04B0BDE8F08700BFD5
:102EF000F207010001080100100801001F0801008D
:102F00002E0801003D0801004C0801005B0801008B
:102F10006A080100BA0801007A0801008A08010065
:102F20009A080100AA080100CA080100E608010089
:102F3000DB08010073B59A428DE8030014461E4673
:102F40000BD921466846013C05F0F0F9E4B21420A3
:102F500001F01CFEB442F4D20AE021466846013476
:102F600005F0E4F9E4B2142001F010FEB442F4D903
:102F700002B070BD034B044A1A6000225A6005F08B
:102F800041BC00BF748BFF1FB81A010083B5FFF767
:102F900037FA3F48FFF7F6F93E48FFF7F3F93E48A6
:102FA000FFF7F0F93D48FFF7EDF93D48FFF7EAF983
:102FB000FFF74CF83B48FFF7E5F94FF4967001F046
:102FC000E5FD4FF47A7001460022FEF79DFCFEF706
:102FD000FDFAFFF74FF801F09DFD42F210720F234A
:102FE0008DE80C0040F2DC504FF47A711E22012370
:102FF000FFF7B0FC2C48FFF713F92C4C2C4E94F83B
:10300000A330274643B92B48FFF70AF9642001F0A3
:10301000BDFD33682361F0E72748FFF701F942F26D
:103020001075142433683B614FF47A710095019454
:10303000642201234FF4FA60FFF78CFC00950194A1
:103040004FF47A71642200234FF4E160FFF782FCB1
:103050004FF47A7001466422012300950194FFF732
:1030600079FC4FF4487001F091FD4FF4487001F085
:103070008DFD009501944FF47A71642200234FF482
:103080009660FFF767FC4FF4487001F07FFDC6E7DC
:10309000CC090100D3090100E3090100EF09010097
:1030A000FB090100080A01000E0A0100F088FF1F59
:1030B000A09CFF1FAE0B0100190A010008B50F48C4
:1030C000FFF760F90E48FFF75DF9C82001F05EFDDB
:1030D0004FF47A71002240F2DC50FEF715FCFEF747
:1030E00075FA4FF4FA6005F071FE01F013FDC82087
:1030F00040F6B831BDE80840FEF7B8BA240A01002E
:103100002F0A010008B54FF4FA7005F05FFEE120C8
:10311000FFF710FC4FF4FA6005F058FE1920FFF796
:103120000FFC4FF4FA6005F051FEFFF7F1FB6FF072
:103130003100FFF705FC4FF4FA6005F047FE0C483C
:10314000FFF7C8FB4FF4FA6005F040FEFFF79CFB69
:10315000FFF7DEFB4FF4FA6005F038FEFFF7CAFB1D
:103160004FF4FA6005F032FEFFF770FBCBE700BFCB
:10317000370A0100F7B5204F2048FFF751F83B7898
:10318000002B34D11E4B1A68032601321A603320FB
:103190000096642101224FF4FA53FFF75BFD0446C9
:1031A00038BB40F26A4021462246FEF7F1FA054656
:1031B000F8B94FF4FA62052396218DE80C0040F22D
:1031C0006A4032220123FFF7C5FB0E48FFF728F8BB
:1031D000012319203B70FFF7B3FB009633206421D5
:1031E0002A464FF4FA53FFF735FD284602E00C203B
:1031F00000E0204603B0F0BDD08BFF1F440A010061
:10320000A08BFF1F5C0A010008B50548FFF708F80E
:10321000044B1B68002B14BF0E200C2008BD00BF00
:103220006C0A0100E88BFF1F73B504462D4E2E4833
:103230002146FEF7F5FF355D002D4DD1012C1DD047
:10324000022C34D0002C49D1284B1A690A250232AD
:103250001A6135200095642101224FF4FA53FFF7DB
:10326000F9FC00283BD14FF4FA538DE8280040F2D6
:1032700052304FF4AF715022012320E01B4B5A69AA
:103280000A2502325A6130200095642122464FF40B
:10329000FA53FFF7DFFC10BB4FF4FA538DE8280018
:1032A0004FF419704FF4AF715022234607E00F4BD3
:1032B0009A690F2002329A61FEF7CEFF0AE0FFF70B
:1032C00049FB05460420FFF73BFB094A0123135540
:1032D00005B93355284602E00C2000E00B2002B06F
:1032E00070BD00BF998BFF1F870A0100A08BFF1FD5
:1032F000848BFF1F10B5044604480CB1FF2100E089
:10330000214605F013F8024B1C7310BD888BFF1F7C
:10331000F088FF1F70B504461646124D39B1124BA6
:103320002A78186899882346FFF704FE03E00E48C0
:10333000214604F0FBFF2C709EB10C48FEF760FFA5
:10334000192C03D05A2C06D1094800E00948BDE8E1
:103350007040FEF765BF21460748BDE87040FEF7A4
:103360005FBF70BD8E8BFF1FDE8BFF1FC50A010084
:10337000E30A0100EB0A010040020100F7B5044630
:103380003548FEF74DFF1CB9344B1B68002B5ED04F
:10339000334B9A6A0A2701329A622E2000976421E1
:1033A00001224FF4FA53FFF755FC0446002850D190
:1033B0004FF47A66032540F2DC5132220123009655
:1033C000019540F21450FFF7C5FA40F2DC51009627
:1033D000019540F2A64064222346FFF7BBFA01465E
:1033E000002837D140F2A6400A46FEF7D1F904463C
:1033F00078BB23460195009640F23B61322240F2B1
:10340000A640FFF7A7FA01210A461920FFF782FF1D
:1034100041F2883001F0BAFB21465A200122FFF721
:1034200079FF40F6B8338DE828000C4D40F2DC51AE
:103430006422012340F2A640FFF78CFA2868784303
:10344000FFF77EFA07482C60FEF7EAFE01E00C2049
:1034500000E0204603B0F0BDF30A0100808BFF1F9F
:10346000A08BFF1F0F0B010008B5FEF701F80648FF
:10347000FEF7D6FE192000210122FFF74BFFBDE821
:10348000084001F0E5BE00BF250B010070B5044601
:103490001646174D39B1174B2A7818689988234674
:1034A000FFF748FD03E01348214604F03FFF2C706E
:1034B000E6B11148FEF7A4FE282C0FD003D8252C26
:1034C0000ED10E4804E0682C06D0A02C08D10C4880
:1034D000BDE87040FEF7A4BE0A48F9E70A48F7E7DE
:1034E00021460A48BDE87040FEF79ABE70BD00BF95
:1034F000E58BFF1FD88BFF1F3D0B0100500B010018
:10350000FF0B0100550B01000E0C010040020100F1
:103510002DE9F341314F3248FEF782FE3B78002B14
:1035200055D1304BDA6A03250132DA622A20009540
:10353000642101224FF4FA53FFF78CFB002849D194
:1035400041F28836009601954FF496704FF452710F
:1035500064220123FFF7FEF90446002839D14FF415
:1035600052714FF4FA6240F6B830FEF711F94FF499
:10357000FA638DE82800F02023464FF4527164224C
:10358000FFF7E8F9044620BB21460122A020FFF7FF
:103590007DFF4FF4C87001F0F9FA2146012228207E
:1035A000FFF774FF0A20FFF7CBF94FF001080E4830
:1035B00087F80080FEF734FE009601954FF45271B3
:1035C000642243464FF49670FFF7C4F901E00C20E3
:1035D00000E0204602B0BDE8F08100BF988BFF1FDD
:1035E0005A0B0100A08BFF1F6D0B0100F7B5864E33
:1035F0008648FEF715FE3378002B40F0FF80844BA1
:103600009A68032401329A602E20009464210122DA
:103610004FF4FA53FFF71EFB0546002840F0F080F8
:1036200040F6B8338DE818007A4C40F2EA61E620A3
:1036300064220123FFF78EF9A17811B1A020294659
:1036400000E028200122FFF721FF7348FEF7D8FD94
:1036500000214FF4FA62E620FEF79AF840F2DC50BF
:1036600005238DE809004FF4FA61E6206422002367
:10367000FFF770F901280AD140F23A7001F004FE18
:103680000AF010FBC4F880006448FEF7C9FD40F65C
:10369000B835032340F2EA616422019300950123C7
:1036A000E620FFF757F95E48FEF7AAFD40F2EA610F
:1036B0004FF4FA622846FEF76BF840F2DC5105231E
:1036C00000208DE80A00322240F2EA610346FFF74B
:1036D00041F9012808D1962001F0D6FD0AF0E2FA5E
:1036E000E0674E48FEF79CFD40F6B837032540F2F0
:1036F000EA616422012300970195E620FFF72AF989
:103700000097019540F211104FF4C8616422012323
:10371000FFF720F9002874D14FF4AD704FF4AF617A
:103720004FF4FA62FEF734F800286AD10225A17836
:1037300011B1A020002100E028200122FFF7A6FE01
:1037400040F6B83203238DE80C004FF4E161C82045
:1037500064220023FFF7FEF80146002851D1C8205B
:103760004FF4FA62FEF714F80346002849D14FF4EB
:10377000FA6105228DE80600C8206422FFF7EAF806
:1037800001280AD140F23A7001F07EFD0AF08AFA6F
:10379000C4F880002148FEF743FD2248FEF740FDB3
:1037A000A17811B12820002100E0A0200122FFF71C
:1037B0006DFE4FF4C87001F0E9F9013DB7D1012465
:1037C0001948347041F28837FEF72AFD0A26322064
:1037D000FFF7B6F82346009701964FF4E1616422A3
:1037E000C820FFF7B7F8009701964FF4C86164222C
:1037F000234640F21110FFF7ADF801E00C2000E085
:10380000284603B0F0BD00BFD18BFF1F780B01002D
:10381000A08BFF1FF088FF1F900B010079010100B2
:10382000A10B0100B20B0100C40B010070B50446EE
:103830001646194D39B1194B2A78186899882346CC
:10384000FFF778FB03E01548214604F06FFD2C706C
:1038500006B31348FEF7D4FC642C0CD005D83C2CDE
:1038600010D0412C10D10F4808E0822C05D08C2CB0
:103870000AD10D4802E00D4800E00D48BDE8704057
:10388000FEF7CEBC0B48F9E721460B48BDE8704077
:10389000FEF7C6BC70BD00BF7C8BFF1FD28BFF1F25
:1038A000D50B0100F70B0100060C0100DC0B010039
:1038B000E30B0100EE0B01004002010073B52D483F
:1038C000FEF7AEFC2C4B1A781E46002A4ED12B4D2B
:1038D0002B68002BC8BF0E2049DC294A53680324FB
:1038E00001335360642100942A2001224FF4FA53DB
:1038F000FFF7B0F90146002839D18C200122FFF7EB
:1039000095FF204B9B7840F6B8328DE81400962046
:1039100013B14FF46B7101E04FF43971012332227E
:10392000FFF718F8002101224120FFF77FFF0A204E
:10393000FFF706F841F2883001F028F92B681248A9
:10394000083301242B603470FEF76AFC03230093D4
:10395000642100224FF4FA532A20FFF77BF96420F8
:1039600000212246FFF762FF002000E00C2002B099
:1039700070BD00BF150C0100988BFF1FE88BFF1F67
:10398000A08BFF1FF088FF1F270C0100F7B52A4FFF
:103990002A48FEF745FC3B78002B47D1284E336878
:1039A000002BC8BF0E2044DC264B1A6A03250132C7
:1039B0001A622C200095642101224FF4FA53FFF77C
:1039C00049F90446A0BB214641200122FFF72EFF02
:1039D00040F6B8338DE828004FF46B710123322292
:1039E00040F62230FEF7B6FF214601228C20FFF779
:1039F0001DFF0A20FEF7A4FF41F2883001F0C6F84F
:103A0000336811480833336001263E70FEF708FC26
:103A10002246009564214FF4FA532C20FFF71AF93F
:103A2000642021463246FFF701FF01E00C2000E050
:103A3000204603B0F0BD00BFE48BFF1F310C010036
:103A4000808BFF1FA08BFF1F470C01002DE9F74360
:103A5000DFF8F4803648FEF7E3FB98F80030002BDF
:103A60005FD1344BDA690132DA61334B9E7840F62C
:103A7000BA1240F6F2030325002E0CBF16461E466E
:103A800000955620642101224FF4FA53FFF7E2F823
:103A9000002849D136B240F6B83700970195304634
:103AA00040F2D66164220123FEF754FF0446002849
:103AB00039D1214641200122FFF7B8FE01230097AA
:103AC0000195304640F23A713222FEF743FF21461B
:103AD00001228C20FFF7AAFE0A20FEF731FF41F2F7
:103AE000883001F053F8154B15481A6804321A60F3
:103AF000144B1A684FF0010904321A6088F80090DC
:103B0000FEF78EFB00970195304640F2D6616422A5
:103B10002346FEF71FFF642021464A46FFF786FE34
:103B200001E00C2000E0204603B0BDE8F08300BFB8
:103B3000550C0100A08BFF1FF088FF1FE88BFF1FB3
:103B40006B0C0100808BFF1F9C8BFF1F3C20002112
:103B50000122FFF76BBE822000210122FFF766BE23
:103B60002DE9F341DFF8BC816948FEF759FB98F86D
:103B70000030002B40F0C380664F3B68042B00F3FD
:103B8000C080654E3368042B00F3BB80634BDA685A
:103B900003250132DA602B200095642101224FF4C5
:103BA000FA53FFF757F80446002840F0AC8021464E
:103BB00041200122FFF73AFE40F6B8338DE8280095
:103BC00040F23A710123322240F26220FEF7C2FE37
:103BD00021468C200122FFF729FE21460122642084
:103BE000FFF724FE4FF4487000F0D0FFFFF7AEFF60
:103BF0004FF4487000F0CAFF214601226420FFF70D
:103C000015FE4FF4487000F0C1FFFFF7A4FF4FF41A
:103C1000487000F0BBFF214601226420FFF706FE3A
:103C20004FF4487000F0B2FFFFF790FF4FF4487078
:103C300000F0ACFF214601226420FFF7F7FD4FF4AE
:103C4000487000F0A3FFFFF786FF4FF4487000F0C4
:103C50009DFF214601226420FFF7E8FD4FF44870E4
:103C600000F094FFFFF772FF4FF4487000F08EFFF2
:103C7000214601226420FFF7D9FD4FF4487000F07F
:103C800085FFFFF768FF4FF4487000F07FFF214683
:103C900001226420FFF7CAFD4FF4487000F076FF60
:103CA000FFF754FF4FF4487000F070FF21460122E7
:103CB0006420FFF7BBFD4FF4487000F067FFFFF78B
:103CC0004AFF4FF4487000F061FF21460122642052
:103CD000FFF7ACFD3B68124804333B6033680433A4
:103CE0003360012388F80030FEF79AFA00956421CA
:103CF00022464FF4FA532E20FEF7ACFF03E00C20CF
:103D000002E00E2000E0204602B0BDE8F08100BFD6
:103D1000790C0100E88BFF1F808BFF1FA08BFF1F1A
:103D20008B0C0100EC8BFF1F10B501460B282CD823
:103D3000DFE800F00609101316181A1E2124270DBB
:103D4000FFF718FA01E0FFF7B9FD044621E0FFF79D
:103D5000DFFBFAE7FFF74AFCF7E7FFF701FFF4E7BD
:103D6000002002E0012000E00220FFF75DFAECE70E
:103D7000FFF76CFEE9E7FFF709FEE6E7FFF744FA15
:103D8000E3E70020FFF7FAFADFE70648FEF748FA14
:103D90000B242046FEF760FA0C2C14BF20460020AE
:103DA00010BD00BF950C010008B50A48FEF738FAAF
:103DB0005A2000210122FFF7ADFA2520002101221F
:103DC000FFF764FB642000210122BDE80840FFF7F3
:103DD0002DBD00BFB60C010007B5FEF711FB2F4843
:103DE000FEF7D0FA2E4B9B780BB12E4800E02E4800
:103DF000FEF7C8FA2D48FEF7C5FA2D48FEF7C2FABD
:103E00002C48FEF7BFFA2C48FEF7BCFA2B48FEF709
:103E100061FD2B48FEF7B6FA40F2DC5000F0B6FE2A
:103E2000FFF7C2FF0020FEF785FD2648FEF7AAFA3D
:103E30002548FEF7A7FA2548FEF7A4FAFEF706F98B
:103E40002348FEF79FFAC82000F0A0FE4FF4FA7155
:103E500000229620FDF758FDFDF7B8FBFEF70AF9A2
:103E600000F058FE4FF4617000F090FE1348FEF72A
:103E700031FD42F2107232234FF4FA708DE80C00DB
:103E8000014664220123FEF765FD0120FFF7CCF90E
:103E900003B05DF804EB00F091BE00BFD00C010050
:103EA000F088FF1FDC0C0100EC0C0100F70F010093
:103EB000FE0C0100110D0100240D01002D0D01006B
:103EC000D3090100E3090100EF090100560D0100CB
:103ED000640D010070B55F4C86B0FEF791FAFEF7F5
:103EE0008FFA5D48FEF74EFAA3780BB15B4800E00D
:103EF0005B48FEF747FA5B48FEF744FA5A48FEF77C
:103F000041FA5A48FEF73EFA5948FEF73BFA59483B
:103F1000FEF738FA5848FEF735FA5848FEF732FAF5
:103F2000574B93E8070006AD0C3305E9070093E80B
:103F3000030001AA82E80300FFF736FF4FF4FA708E
:103F400000F024FE4F48FEF71DFAFEF77FF84E48BA
:103F5000FEF718FAC82000F019FEA37823B1FA2062
:103F60004FF4FA71002203E0484A96204FF4FA71A8
:103F7000FDF7CAFCFDF72AFBFEF77CF800F0CAFD4E
:103F80004FF4FA7000F002FE0020FEF7D3FCA37895
:103F900013B14FF4AF7000E03D4842F21071FDF7ED
:103FA00065FB0520FEF7CCFC0520FEF7C9FC1D20B3
:103FB000FEF7C6FC3748FEF733F903240134022C20
:103FC00003DD3548FEF72CF9002406AA02EB840332
:103FD00053F80C0CFFF7A8FE304B1B78002BEDD0EC
:103FE0002F4B1B78002BE9D02E4B5B78002BE5D0B4
:103FF0000920FFF799FE0A20FFF796FE2A4B1A6860
:104000001E46002AF4D12948FEF70AF9022424B1F9
:104010002748FEF705F9002400E0012406AD05EB72
:10402000840353F8140CFFF77FFE224B1B78002B00
:10403000EDD03568002DEAD10120FFF79FF9192056
:1040400029460122FFF766F906B0BDE8704000F08E
:10405000B5BD00BFF088FF1F6B0D0100DC0C010037
:10406000EC0C0100F70F0100D3090100750D0100F0
:10407000E3090100EF090100560D01008A0D01005E
:10408000B80901009C0D0100640D0100DB0F4940DF
:104090003EFEFFFFA10D0100B10D0100D18BFF1FFE
:1040A000988BFF1F998BFF1F808BFF1FC70D01008F
:1040B000D70D01009C8BFF1F38B5184B184AC3F869
:1040C000CC20184AC3F8D020174AC3F8D420C3F82C
:1040D000DC201649164AC3F8D810C3F8E0200024A3
:1040E0004FF4FA72112113481C70A3F8A020124D4E
:1040F00004F004F92121114804F000F909211048C5
:1041000004F0FCF82846052104F0F8F8284621467A
:1041100004F00CF9BDE83840FFF746BEF088FF1FF9
:104120000000444100C05445CDCCCC3DCDCC4C3FEB
:104130006666E63FDE8BFF1F888BFF1FD88BFF1F55
:10414000D28BFF1F08B50A4B0A4A1A6000225A6038
:1041500004F058FB084804F05DF8084804F05AF8E9
:10416000074804F057F80748BDE8084004F052B883
:10417000908BFF1FB81A0100DE8BFF1FD88BFF1F2B
:10418000D28BFF1F888BFF1F08B50D48FEF7FAF88A
:104190004FF47A710B4A40F2DC50FDF7B5FBFDF7A6
:1041A00015FA4FF4FA6004F011FE00F0B3FCC820D9
:1041B0004FF4FA61FDF75AFABDE8084001F048B83B
:1041C0002F0A0100DB0F49407047FFFF08B5FDF7DC
:1041D0004FF90248BDE80840FEF722B8ED0D010096
:1041E00038B50446154641B1134B18689988134BEE
:1041F0001A782346FEF79EFE03E00F48214604F09E
:1042000095F8BDB10E48FDF7FBFF372C0AD03C2CCA
:1042100003D01D2C08D10B4800E00B48BDE8384006
:10422000FDF7FEBF0948F9E721460948BDE83840D7
:10423000FDF7F6BF38BD00BFF88BFF1FFE8BFF1FD9
:10424000010E0100500B01001B0E0100210E0100A8
:104250004002010073B535480524FDF7E1FF6421F4
:1042600001220094332041F28833FEF7F3FC002151
:10427000054601223C20FFF7B3FF0DB1002053E0BB
:1042800040F26A4029462A46FDF782FA064600288F
:10429000F4D14FF4FA65372031460122FFF7A0FF31
:1042A0005021642201230095019440F26A40FEF7F8
:1042B00051FB4FF4D271642233460095019440F2D1
:1042C0006A40FEF747FB50216422012300950194C8
:1042D0004FF48760FEF73EFB4FF4D2716422334601
:1042E000009501944FF48760FEF734FB4FF4D271D0
:1042F000642201230095019440F29C40FEF72AFBC2
:104300005021642201230095019440F29C40FEF765
:1043100021FB0095019440F29C404FF4D27164223D
:104320003346FEF717FB642002B070BD2E0E01006D
:1043300037B504460D4661482146FDF771FF022C52
:1043400005DD5F482146FDF76BFF0B203DE03C207B
:1043500000210122FFF744FF15B13C2D24D043E09A
:10436000012C1FD0022C1DD0002C46D141F28833E5
:1043700003258DE8280040F26A404FF42A71642238
:104380000123FEF7E7FAB0BB40F6B8338DE828000A
:1043900040F252304FF4487164220123FEF7DAFAFA
:1043A00080B328E00F2010E0464B53F8340040F271
:1043B0004C42A0F1C801914206D803EBC4035968EE
:1043C000A1F56173C82B03D90A20FDF745FF72E000
:1043D00041F2883203238DE80C0064220123FEF7AA
:1043E000B9FA00283FD108E00B20FDF735FF364829
:1043F0002946FDF715FF00205EE0012C0BD0022CB2
:1044000015D094BB4FF4FA534FF0060C8DE808100A
:1044100040F2523012E04FF4FA534FF0060E8DE89E
:10442000084040F2262096215022234609E04FF40E
:10443000FA5306258DE828004FF42F70962150225C
:104440000123FEF787FA80B1204B1E49B3F98C2077
:1044500041F8342001EBC401B3F98E304B601C48A5
:104460002146FDF7DDFE3C2026E0012C0ED0022C7B
:1044700014D004BB4FF4FA5004238DE809004FF424
:10448000C87140F252305022234612E04FF4FA51E4
:1044900004238DE80A0040F2262006E04FF4FA5289
:1044A00004238DE80C004FF42F704FF4C871502294
:1044B0000023FEF74FFA642003B030BD4E0E01001A
:1044C000680E01006887FF1F970E0100F088FF1F2C
:1044D000B30E010013B5FDF793FF2D48FDF752FF12
:1044E0002C4B9B780BB12C4800E02C48FDF74AFF81
:1044F0002B48FDF747FF2B48FDF744FF2A48FDF7FF
:1045000041FF2A48FDF73EFF2948FDF73BFF2948B8
:10451000FDF738FF4FF4FA7000F038FB2648FDF73E
:1045200031FFFDF793FD2548FDF72CFF4FF47A701E
:1045300000F02CFB9F2100226520FDF7E5F9FDF737
:1045400045F8FDF797FD4FF4FA5000F01FFB42F2DB
:104550001074142301930094B32164220123C82012
:10456000FEF7F8F90A230122009364212346332041
:10457000FEF770FB00200146FFF7DAFE00F0CAFAF2
:104580004FF4FA7002B0BDE8104000F0FFBA00BF6F
:10459000CC0E0100F088FF1FDC0C0100EC0C0100C8
:1045A000F70F0100D3090100E3090100EF09010041
:1045B000560D01008A0D01009C0D0100080A010042
:1045C00008B50548FDF72CFE1D2000210122BDE89D
:1045D0000840FFF705BE00BFB60C01007FB5454C93
:1045E000FDF70EFF4448FDF7CDFEA3780BB143481D
:1045F00000E04348FDF7C6FE4248FDF7C3FE4248CF
:10460000FDF7C0FE4148FDF7BDFE4148FDF7BAFE8B
:104610004048FDF7B7FE4048FDF7B4FE4FF4FA708E
:1046200000F0B4FAFFF7CCFF3C48FDF7ABFEFDF716
:104630000DFD3B48FDF7A6FEC82000F0A7FAA378C1
:104640001BB165209F21002203E0364A40F22B1067
:104650009F21FDF759F9FCF7B9FFFDF70BFD00F0BD
:1046600059FA4FF4FA7000F091FA00234FF4FA501F
:104670000293039304F0AAFB2B48FDF7D1FDA37826
:1046800023B1632042F21071FCF7F0FF002424B93B
:104690000298FFF7DFFD029004E000200399FFF786
:1046A00047FE039004AA02EB8403204853F8082C29
:1046B0002146FDF7B5FD032684F0010404AA02EBB0
:1046C00084031B4853F8085C21462A46FDF7A8FDE1
:1046D000642DDCD1013EEFD10A230093294601224B
:1046E00042F210733320FEF7B5FA04B0BDE8704013
:1046F00000F064BAF088FF1FCC0E0100DC0C010052
:10470000EC0C0100F70F0100D3090100E3090100DF
:10471000EF090100560D01008A0D01009C0D0100FA
:10472000080A0100DB0F4940D70E0100F20E01001C
:10473000090F01000E4B0F4801221A700E4AC3F8F0
:10474000CC200E4AC3F8D0200D4AC3F8D4204FF035
:104750007F52C3F8D8200B4AC3F8DC200A4AC3F8BA
:10476000E0201D2140F2EE22A3F8A02003F0C6BDF8
:10477000F088FF1FF88BFF1F0000444100F009453F
:104780009A99193EEC51B83DCDCC8C3F08B5064BFB
:10479000064A1A6000225A6004F034F80448BDE862
:1047A000084003F037BD00BFF08BFF1FB81A0100AF
:1047B000F88BFF1F0B4B70B51C681D46FDF734FCD2
:1047C0000646FDF722FC002EF8D10028F6D1052080
:1047D00004F0FCFA2B68181BB0F57A7F94BF002018
:1047E000012070BDA09CFF1F034B1B780BB1FFF78E
:1047F000F5BEFFF76FBB00BFF088FF1F10B5084C78
:104800006178D1F1010138BF00210120617004F00D
:1048100043F86378D3F1010338BF0023A37010BDC0
:10482000F088FF1F034B5A79013202F007025A71D8
:10483000704700BFF088FF1FF8B5012004F018F89A
:10484000954C6070D0F1010038BF0020A0700220AC
:1048500004F00EF86071002004F00AF8092590FBBE
:10486000F5F505EBC505451B2846FDF7E1FDFDF710
:10487000DBFB0746FDF7C9FB064647B30028F6D128
:104880008648FDF7CDFC052004F0A0FA0135092388
:1048900095FBF3F303EBC303ED1A3046E9B203F0E3
:1048A000FBFF2846FDF7C4FDFFF784FF58B17C48A5
:1048B000FDF7B6FC3046314603F0EEFF3046FDF71B
:1048C000B7FD3546D3E77748FDF7AAFCCFE70028C8
:1048D000CDD07548FDF7A4FC052004F077FAFFF76A
:1048E00069FF7248FDF79CFC082DC0D801A252F860
:1048F00025F000BF194900001F4900006F48000063
:10490000274900006F480000394900004149000074
:10491000634A0000914A0000FFF766FFA7E7FFF730
:104920006DFF0120A1E7237B0BB1002000E00120F7
:10493000FEF7E0FC032098E7FFF774FF052094E7FB
:104940000220617903F0A8FFFDF75AFD6379072B78
:104950008DD801A252F823F079490000A749000040
:104960006F480000D3490000FF490000154A0000CD
:10497000314A00003D4A0000FCF728FE4C48FDF794
:1049800001FD4C48FDF7FEFC4B48FDF7FBFC40F6F3
:10499000B83004F01BFA237813B1FFF7F5FB66E794
:1049A000FEF78CFB63E74548FDF7ECFC4FF47A70AB
:1049B000002301460022E373FCF7A6FF6421404870
:1049C0000A4600F06AF94FF496700021FCF758FD92
:1049D000FEE73C48FDF7D6FC00210A460B464FF4A3
:1049E0007A70FCF7FDFD41F288313748FCF79EFEF6
:1049F0000020014602460346FCF7F2FDFEE733487D
:104A0000FDF7C0FC237813B1FFF764FD2FE7FFF734
:104A1000E3F92CE723782BB12D48FDF7B3FCFFF722
:104A2000D3FB24E72B48FDF7ADFCFEF76BFB1EE73D
:104A30002948FDF7A7FCFEF7A9FA18E72748FDF774
:104A4000A1FC2748FDF79EFC2648FDF79BFC264865
:104A5000FDF798FC2548FDF795FC2548FDF792FCED
:104A600005E7237983F001032371FDF7C9FC214891
:104A7000FDF788FC2379002B3FF4F9AE40F2DC50BF
:104A80004FF47A711C4AFCF73FFFFCF79FFDEEE6FE
:104A9000FCF762FFEBE600BFF088FF1F260F010066
:104AA000350F01004A0F01005A0F0100680F010085
:104AB000770F0100840F0100970F0100A60F01007E
:104AC0001C89FF1FB40F0100DB0FC9402D0401003A
:104AD0004A040100C40F010076040100CB0F01005D
:104AE000DE0F0100ED0F0100FA0F01000C100100B4
:104AF0001F1001002C100100DB0FC93F034B044ABB
:104B00001A6000225A6003F07DBE00BF008CFF1FB8
:104B1000B81A0100034B04481A68044B1A61FDF7E8
:104B20007FBB00BFA09CFF1F3F100100F088FF1F4C
:104B3000044B1868044B1B6903F5BF33D033181AB4
:104B4000704700BFA09CFF1FF088FF1F08B5FFF74C
:104B5000EFFFF92813DC0A48FDF762FB094B00223E
:104B60001A611B7813B1FFF731FB01E0FEF77CFC03
:104B70000548FDF755FB0A2004F028F9FBE708BDBE
:104B80004E100100F088FF1F6E100100094B70B538
:104B90001C6805461E4633681B1BAB4208D2064BF9
:104BA0001B690BB1FFF7D2FF0A2004F00FF9F2E7FF
:104BB00070BD00BFA09CFF1FF088FF1F08B5FFF766
:104BC000B7FF01460448FDF72BFBFFF7B1FFBDE837
:104BD0000840FFF7DBBF00BF7C100100034B044A15
:104BE0001A6000225A6003F00DBE00BF088CFF1F40
:104BF000B81A0100011E08B54FF0160004DB03F0DF
:104C0000E1FF1820002104E0494203F0DBFF1820F7
:104C10000121BDE8084003F069BF011E08B54FF04F
:104C2000170004DB03F0CEFF1920012104E0494204
:104C300003F0C8FF19200021BDE8084003F056BF6B
:104C400008B51620012103F07FFF1820012103F091
:104C50007BFF1720012103F077FF1920012103F0CA
:104C600073FF0020FFF7C6FF0020BDE80840FFF7F4
:104C7000D4BFFFFF034B044A1A6000225A6003F0BE
:104C8000C1BD00BF108CFF1FB81A010000211C22FB
:104C900003F036BC80E8060070478160C260704750
:104CA000034B044A1A6000225A6003F0ABBD00BFF8
:104CB000188CFF1FB81A0100194B1A491A6842F4E0
:104CC00080521A60184B194A1A60194ADA6002F1C8
:104CD00080421A614FF400720A6016490120087080
:104CE00015491960154B1B78D90704D4144A4FF4A1
:104CF0001071116001E013490A6013F0020F0CBF3C
:104D0000114912495B074FF4007254BF104B114B0D
:104D10000A6054BF4FF410724FF400721A6070476B
:104D20003C80044010B0044000C0024001401F809D
:104D3000000001B8889EFF1F000C1F80809EFF1F8F
:104D400018B0044008C004401CB004400CC004402B
:104D500014B0044004C0044030B585B003F072F9CB
:104D6000002838D01D4B1E481E4D0024C3F8A44017
:104D7000C3F8A840C3F8AC40C3F8B040C3F8B4408F
:104D8000194B0293194B02A95B68039301F028FFAA
:104D9000FA2302A9022217208DF809308DF8084065
:104DA00002F074FD288804A904231E3001F8093D8F
:104DB000012280B202F06AFD28888DF8084000F5D3
:104DC0008F7002A9012280B202F060FD4FF4FA70E8
:104DD00003F0FCFF012005B030BD00BFF088FF1FCD
:104DE0008187FF1F589CFF1FB81A0100949BFF1F6B
:104DF00007B5FFF761FF074B0093074B07485B6858
:104E0000019369464FF4046201F0B6FFC0B203B0EB
:104E10005DF804FBB81A0100C897FF1F849BFF1FB1
:104E200010B5174CFFF748FF2046022101F011FF93
:104E30002046022101F00DFF2046022101F009FF6A
:104E40002046022101F005FF2046002101F001FF6C
:104E50002046002101F0FDFE2046002101F0F9FE70
:104E60002046112101F0F5FE20460649112201F0ED
:104E700021FF20463321BDE8104001F0EABE00BF0B
:104E8000849BFF1FE010010008B5134B197802291D
:104E900002461CD15978022919D19978022916D1D4
:104EA000D978022913D19979DB7903EB012140F2FA
:104EB0009F33994204D0B1F56A7F01D0074804E0DE
:104EC000B2F56A7F05DA06481146FDF7A9F9002018
:104ED00008BD012008BD00BFD097FF1FF1100100E1
:104EE0002F1101002DE9F041184C4FF6FF73A4F883
:104EF000B830A4F8BA302746002300EB43059EB231
:104F000095F857C095F85840104D04EB0C2421F843
:104F10001340C41894F88C42D45431F81340B7F8B5
:104F2000BAC0A44507D9A4F15B081FFA88F840F677
:104F3000B45CE04505D90133B3F5877FDDD1BDE829
:104F4000F081A5F8BA40A5F8B860F4E7F088FF1F33
:104F50002DE9F04F594A5A4B12784FF000088DB0A6
:104F600083F8A380002A00F0A580B3F88C20089273
:104F7000D3F890200992DFF86491B3F88E20B3F84B
:104F8000A0300A920B93C2461FFA88F3C3F187043C
:104F9000C3F1AE039BB24E2BA4B266D8494B33F893
:104FA00018B0584608F04CFACDE9060120B208F0D6
:104FB00079FE454908F07EFF444908F0C7FE0146E6
:104FC000099808F0BBFD08F04DFACDE9040106F0A0
:104FD0007BFB089B044618B20D4608F031FA2246C6
:104FE00006460F462B46DDE9060108F08FFA0B4610
:104FF00002463946304608F0D7F808F021FD04464D
:1050000049F8040CDDE9040106F098FB0A9A06460B
:1050100010B20F4608F014FA3246CDE904013B46BF
:10502000DDE9060108F072FA0B460246DDE90401EB
:1050300008F0BAF808F004FDA4F1C90C40F62623E4
:105040009C45C9F8000010D8C93840F23E63984228
:105050000BD8ABF15B0292B240F6B4539A4204D83B
:105060000B9B9B4538BF4FF0010A08F10108B8F5CA
:10507000877F09F1080987D1114B83F8A3A01B7919
:10508000C3B10024124B134803EBC40221465268FB
:1050900000920C4A32F8142001920F4AA25C02924C
:1050A00053F83430C4F187020134FDF7B9F8B4F590
:1050B000877FE7D10DB0BDE8F08F00BF8087FF1F6D
:1050C000F088FF1F9C94FF1F00003443DB0F494012
:1050D0002C8CFF1FBC110100B896FF1F308CFF1FE6
:1050E00070B5204E337823B10025FFF731FF3570BE
:1050F00035E0FFF7E1FD40F2B1321B481B491C4C83
:1051000001F0F2FD421C012A034606D8D4F8A4306F
:105110000133C4F8A430012521E0D4F8B420C4F848
:10512000B0001344C4F8B430FFF7AEFE054660B1DA
:105130000E481049104AFFF7D5FED4F8A8300125D3
:105140002B443570C4F8A83009E0D4F8AC300133F2
:10515000C4F8AC30044801F0CFFD0130FAD1284644
:1051600070BD00BF288CFF1F849BFF1FD097FF1FBF
:10517000F088FF1F9C94FF1FB896FF1F38B5114B96
:10518000114D1D6000245C6003F03CFB0F4BA82216
:10519000C02102201D6019715A719C71D8710C4B8D
:1051A0005A7101221D601971DA719C71094B4FF41B
:1051B0007A729A60084A1A6004221C711C735A732E
:1051C00038BD00BF208CFF1FB81A0100949BFF1F41
:1051D000C897FF1F849BFF1F8018010008B51A2085
:1051E00005F032FA0248BDE8084001F091B900BF6D
:1051F000A89BFF1F38B50C4801F074F998B10B4C0F
:10520000236803B938BD1D8845B11A2029460022FC
:1052100005F090F923680233236038BD1A2005F0A9
:1052200013FA256038BD38BDA89BFF1FA49BFF1F44
:10523000014B024A1A607047A49BFF1FEE11010048
:10524000014B024A1A607047A49BFF1FF81101002E
:10525000014B024A1A607047A49BFF1FFE11010018
:1052600008B5064B064A1A6000225A6003F0CAFAD3
:1052700004486421BDE8084001F028B99C9BFF1F49
:10528000B81A0100A89BFF1F08B508F00BFD044BDE
:10529000D3F8CC1008F05AFD08F01EFF08BD00BF7F
:1052A000F088FF1F08B508F0FDFC044BD3F8CC10C4
:1052B00008F000FE08F010FF08BD00BFF088FF1FD7
:1052C00008B5044BD3F8D01008F040FD08F004FFF7
:1052D00008BD00BFF088FF1F08B508F0E3FC034BD2
:1052E000D3F8D01008F0E6FD08BD00BFF088FF1F1E
:1052F000044BDA7822B95B7813B1C0F53B60083013
:10530000704700BFF088FF1F10B50B49044608F036
:10531000BBFE20B12046094908F010FCF5E7204605
:10532000074908F0CFFE28B12046044908F004FCE4
:105330000446F4E7204610BDDB0F49C0DB0FC9402F
:10534000DB0F494008B5074BDA78014642B95B7874
:1053500033B1054808F0F0FBBDE80840FFF7D4BFC3
:10536000084608BDF088FF1FDB0F49402DE9F041DA
:1053700007460698401A1646984608F061F8044613
:10538000C7EB08000D4608F05BF802460B462046C6
:10539000294606F01DFA044630460D4608F062F82C
:1053A00002460B462046294607F0FCFE08F070FB3B
:1053B000BDE8F041FFF7A8BF034B044A1A60002282
:1053C0005A6003F01FBA00BFB49BFF1FB81A010058
:1053D0002DE9F74F1E46BDF93030BDF834B0C2EBB1
:1053E00003091546721AB9F1000FB8BFC9F10009D7
:1053F000002AB8BF52429145D4BF4FF000094FF088
:10540000010980460C46B9F1000F04D032462C4603
:105410001E460D461346B44205DD2A461D46134678
:10542000224634461646C4EB060A5A1B1FFA8AFA6D
:1054300082EAE271A1EBE2710FFA8AF7022297FB8E
:10544000F2F74FF6FF729D42B8BF01220091BFB242
:105450000192B4421DDCD8F800304046D3F808C0B1
:10546000B9F1000F02D02946224601E021462A4622
:105470005B46E047009ABF1ABBB29FB23A0405D51B
:10548000019903EB0A070D442DB2BFB2013424B2D7
:10549000DFE703B0BDE8F08F2DE9F3470768BDF8FB
:1054A0002C50BDF92860009504467F6990468946D6
:1054B0009A46B84723680095721E42445F692046A9
:1054C0004946534612B2B847236800951F692046E3
:1054D000494642463346B8470AF1FF3A23680095E9
:1054E0000AEB09011D69204609B242463346A84726
:1054F00002B0BDE8F08713B5013B13441BB2009323
:105500000468BDF810300193E4680B46A04702B070
:1055100010BD37B5013B0468BDF8185000920B442C
:105520000195E4681BB2A04703B030BD2DE9F347F5
:10553000BDF928A0BDF82C7006460D469146984648
:105540000C4605EB08039C420BDA31680097D1F852
:1055500010C0304621464A4653460134E04724B243
:10556000EFE702B0BDE8F08713B5B0F90C2004688E
:10557000009201910021B0F90A30E4690A46A0477F
:1055800002B010BD7047FFFF30B5C1800024094D47
:105590000281418182814FF6FF7101220471056011
:1055A000C475C48104828275818241820276447608
:1055B000C46130BD101701002DE9F04F87B01FFA0C
:1055C00083F80293C8F101039BB20193C8EBC8337F
:1055D0005B009BB2BDF84050059396B20368044649
:1055E000914608EB0602D3F808C012B22B460F46CC
:1055F000E0472368C8EB0602D3F808C039462046C6
:1056000012B22B46E047BFB2236808EB0701D3F87C
:1056100008C0204609B24A462B46E0472368C8EB3B
:105620000701D3F808C04A46204609B22B46E04796
:1056300000220492049A13B2029A934280F2878065
:10564000019B1B040CD4029A531E059A1BB20293B1
:10565000931C9BB29AB20592019A13449BB2019398
:10566000049B019A1FFA83F802EB480303339BB2B1
:105670000193029B9BB2994607F1010BC34403932C
:10568000B14423680FFA8BFB0FFA89F9D3F808C0ED
:1056900059464A4620462B4607F1FF3AE047C8EBF9
:1056A0000A0A23680FFA8AFAD3F808C051464A4614
:1056B00020462B46E047039A2368C2EB06090FFAFF
:1056C00089F9D3F808C059464A4620462B46E04798
:1056D00023685146D3F808C04A4620462B46E04787
:1056E000DDF80CA0236806F1010BC344BA440FFA9D
:1056F0008AFA0FFA8BFBD3F808C0204651465A4667
:105700002B46E047039BC3EB070923680FFA89F98F
:10571000D3F808C0204649465A462B46E047731E38
:10572000C8EB030823680FFA88F8D3F808C02046AE
:10573000514642462B46E04723684246D3F808C00C
:10574000204649462B46E047049A013271E707B0EC
:10575000BDE8F08F2DE9F04F8BB01D469BB29DF850
:1057600050700897C3F10106C3EBC333BDF9547001
:1057700009975B00BDF8587003979BB204460691E9
:105780000792B6B2059300270297029F3BB2AB4245
:1057900080F28380310408D4059FBB1C9BB2013D7D
:1057A0009FB21E442DB20597B6B20298089A87B2EE
:1057B0004FEA47091FFA89F909F103031E44D2078A
:1057C000CDF81090B6B231D5069B0798099A1FFA0A
:1057D00083FB1FFA80FA1FFA82F9039800901FFAE0
:1057E00085F8206809F101030BF10101C8EB0A02F9
:1057F000394403EB4803D0F810C009B2204612B276
:105800001BB2E0470398049B00900AF1FF3A20681E
:1058100009F1030908EB0B01C7EB0A024B44D0F86E
:1058200010C009B2204612B21BB2E047089A930793
:1058300030D5069B0798099A1FFA83FB1FFA80FA56
:105840001FFA82F9039800901FFA85F8206809F181
:1058500001030BF1FF31C91BC8EB0A0203EB48033C
:10586000D0F810C009B2204612B21BB2E0470AF1CC
:10587000FF3A049B2068C7EB0A0209F10309039F62
:105880000097C8EB0B014B44076909B2204612B2DE
:105890001BB2B847029F013776E70BB0BDE8F08F27
:1058A0002DE9FF411C46BDF8287000979BB21546B4
:1058B000D21A5B0003F1010E036812B2D3F810C0D4
:1058C0000FFA8EF306468846E047032200238DE850
:1058D0000C000297304641462A462346FFF73AFF1E
:1058E00004B0BDE8F0812DE9F04F8DB08046BDF9E0
:1058F0005840BDF86400BDF960700490A24289462A
:105900001546BDF95C1004DD254614464A46994605
:105910001346BC4205DD22463C4617461A460B4656
:105920001146A54205DD2A46254614464A469946B3
:105930001346BD421ED14B4506DB4B45ACBF1A4654
:105940004A464B460FFA82F9994205DB8945B8BFB2
:1059500089460FFA89F91946D8F800200498009072
:1059600009F10109C1EB0903546940462A461BB2FB
:10597000A0478DE09BB21FFA89F90393C9EB03039B
:105980009BB2A8B20893A3B21A1A92B20992BAB201
:10599000101A80B207900398BC4289B2C3EB02028E
:1059A000C9EB010B18BF03F1FF33C0EB01011FFA74
:1059B0008BFB89B292B218BF1BB24FF0000ACDF830
:1059C00018B00A910B9214BF059305942E46D34646
:1059D000059A964228DC099A079813B201B29BFBFC
:1059E000F3F39AFBF1F1089A06984B4449449BB2B1
:1059F00089B20BFA82FB0AFA80FA0AB218B2904214
:105A000002DC0A4619461346D8F800200498009094
:105A100001335B1AD2F814C04046324609B21BB2B9
:105A20000136E04736B2D3E70A9B06980FFA83FAAD
:105A3000341B0FFA80FB751B04FB0AF405FB0BF506
:105A4000BE4225DC0B9A039813B2079A11B294FB5D
:105A5000F3F395FBF1F1034449449BB289B218B2C8
:105A60000AB2904254445D4402DC0A461946134689
:105A7000D8F800200498009001335B1AD2F814C0C3
:105A80004046324609B21BB20136E04736B2D7E78C
:105A90000DB0BDE8F08FFFFF2DE9F04F91B08846C3
:105AA0000992BDF86C200592C269BDF86810069194
:105AB00005469DF87040002A40F08F80B0F90A201A
:105AC000424540F30881B0F90C2009998A4240F31D
:105AD0000281062212FB0482002A40F3FC8001EBC3
