:1000000000800020BD0100008988000055880000A4
:10001000558800005588000055880000558800006C
:100020005588000055880000558800008988000028
:1000300089880000558800008988000045880000F4
:10004000898800008988000089880000898800006C
:10005000898800008988000089880000898800005C
:10006000898800008988000089880000898800004C
:10007000898800008988000089880000898800003C
:10008000898800008988000089880000898800002C
:10009000898800008988000089880000898800001C
:1000A000898800008988000089880000898800000C
:1000B00089880000898800008988000089880000FC
:1000C00089880000898800008988000089880000EC
:1000D00089880000898800008988000089880000DC
:1000E00089880000898800008988000089880000CC
:1000F00089880000159200008988000045AC000046
:1001000089880000F5B00000898800008988000017
:10011000898800008988000089880000898800009B
:10012000898800008988000089880000898800008B
:10013000898800008988000089880000898800007B
:10014000898800008988000089880000898800006B
:100150002D9F0000459F00005D9F0000759F0000DF
:10016000E5820000B59400008988000089880000BD
:10017000898800008988000089880000898800003B
:10018000898800008988000089880000898800002B
:10019000898800008988000089880000898800001B
:1001A000898800008988000089880000898800000B
:1001B000898800008988000089880000564B4CF22D
:1001C000205210B51A804DF628121A8000BF00BFC9
:1001D00008F05EFB514B4FF010621A60504A9A6073
:1001E000504ADA60A3F53043203B1A6812F480725B
:1001F00004D14D490A604FF4A8521A604B4B1A784B
:10020000110703D51A7842F008021A70484B2A22C7
:100210001A700023474A48499818884204D247492F
:10022000595899500433F5E7454A464B9A424FF0E6
:10023000000302D242F8043BF7E74349434A5958C6
:1002400099500433B3F5DE7FF7D1414B802103F899
:10025000011B40498B42F9D13F4B1A603F4B0A22A8
:100260001A70A3F5805324225A70A0221A709A792A
:100270009207FCD59A79D406FCD4394B9A7902F0CE
:100280000C02082AF9D105221A7143225A719A796F
:100290009006FCD5324B9A795106FBD5314A4FF086
:1002A000817111600521516020221A702C4B9B79BD
:1002B00003F00C030C2BF9D12B4B2C4A1A602C4B5E
:1002C0002C4A1A6000225A60072243F8042C2A4A5A
:1002D000C3F80C2D62B608F0A1FC134B1B68DA07BB
:1002E00005D5264808F004FB254B264A1A60264B04
:1002F0001B785B0609D5224C224A2368934204D11D
:100300001E4808F0F5FA002323600DF00FFE08F0F8
:10031000C5FA0AF0F0F8FEE70E20054030800440F0
:10032000823F04000100002B14D0034002D007409C
:1003300000E007406087FF1FA488FF1F50080100EE
:10034000A488FF1FCC9FFF1F000000000082FF1F3A
:1003500000E400E05FE400E008ED00E0005006404B
:10036000004006404480044004800440C010050062
:1003700014E000E03F19010000002020AEC7055B3B
:100380001CE00340A5C3945A00F00740FFFFFFFFA5
:10039000FFFFFFFFFFFFFFFFFFFFFFFFFFFFFFFF6D
:1003A000FFFFFFFFFFFFFFFFFFFFFFFFFFFFFFFF5D
:1003B000FFFFFFFFFFFFFFFFFFFFFFFFFFFFFFFF4D
:1003C000FFFFFFFFFFFFFFFFFFFFFFFFFFFFFFFF3D
:1003D000FFFFFFFFFFFFFFFFFFFFFFFFFFFFFFFF2D
:1003E000FFFFFFFFFFFFFFFFFFFFFFFFFFFFFFFF1D
:1003F000FFFFFFFFFFFFFFFFFFFFFFFFFFFFFFFF0D
:10040000FFFFFFFFFFFFFFFFFFFFFFFFFEFFFFFFFD
:1004100010B5054C237833B9044B13B10448AFF33E
:1004200000800123237010BDA488FF1F000000007E
:100430005008010008B5064B1BB106480649AFF34A
:1004400000800648036813B1054B03B1984708BD07
:100450000000000050080100A888FF1FA488FF1FAB
:100460000000000010B5044683709DF8083042700B
:10047000C37001700846012108F078FA6078012104
:1004800008F074FA2078012108F042FA607801211E
:1004900008F03EFA204610BD2DE9F84F9E4D037836
:1004A0002A689E499E4F42F480522A6004469D4A23
:1004B0009D4810600A2BD1608146176188464FF431
:1004C000007201D1994B02E0022B03D1984B1A60C4
:1004D000012333E0092B01D1964B02E0062B03D117
:1004E000954B1A60022329E0142B04D103F18043B9
:1004F00003F5982302E0172B03D1904B1A600423D5
:100500001CE0152B01D18E4B02E0162B03D18D4B35
:100510001A60082312E00F2B03D18B4B1A601023B3
:100520000CE08A4A8A4E52F8332032601846012184
:1005300008F01CFA336801221A7000238548794AB2
:100540008549864E03701160327812F0010F8A4699
:100550000CBF8349834983460CBF4FF410704FF49E
:10056000007012F0020F08600CBF7F487F484FF404
:1005700000710160510755BF7D4A7E4A4FF41071EA
:100580004FF4007111601904664AABB141F00043A9
:1005900043F088035363D36A03F47043B3F5405FB9
:1005A000F9D89BF80020A0785E4B4FEA024CD2B1FC
:1005B0004CEA000058630FE0654B1B6819704FF060
:1005C0008053D36288235363564BDB6A03F4704332
:1005D000B3F5405FF8D8E4E7DA6A02F47042B2F5A6
:1005E000405FF9D810E05A490A6840F0006082F88C
:1005F00000C04FF08052DA6258634A4BDB6ADA007F
:10060000FBD50B6801221A70464AD36A13F0F00F2B
:10061000FAD0936BD16A434B11F0F00FFAD09BF8EC
:1006200000109A6B0A04A9B142F0004242F0900215
:100630005A63DA6A02F47042B2F5405FF9D89BF867
:100640000020E078374B4FEA024CCAB14CEA000078
:1006500058630EE03E4909680A704FF08052DA6232
:1006600090225A63DA6A02F47042B2F5405FF9D818
:10067000E5E7DA6A02F47042B2F5405FF9D810E0BB
:1006800033490A6840F0006082F800C04FF08052A1
:10069000DA625863234BDB6ADB00FBD50B6801226F
:1006A0001A70204BDA6A12F0F00FFAD09A6BD96AFE
:1006B0001C4A11F0F00FFAD0936B607829680A2871
:1006C00041F480512960C2F80090C2F80C80176193
:1006D0004FF4007201D1154B02E0022803D1144BF4
:1006E0001A60012364E0092801D1124B02E00628B8
:1006F00003D1114B1A6002235AE0142801D11E4B7A
:1007000002E0172803D10D4B1A60042350E015288E
:1007100034D10B4B35E000BF3C800440022001B8CF
:10072000022001F800C0024001401F8010B00440C8
:1007300000C004400CB0044010C0044008B00440A5
:1007400018C0044004B0044000B004404802010056
:10075000809EFF1F849EFF1F000C1F807C9EFF1F3A
:1007600018B0044008C004401CB004400CC0044051
:1007700014B0044004C0044014C00440162803D13F
:10078000664B1A60082313E00F2805D1644B4FF421
:1007900000721A6010230BE0624A634D52F8302059
:1007A0002A60012108F0E2F82B6801221A70002368
:1007B0005E4A8BF80030C2F800A03278D50755BFEA
:1007C0005B495C494FF410704FF4007012F0020F57
:1007D00008600CBF584859484FF400710160500739
:1007E00055BF574A574A4FF410714FF400711160CA
:1007F00019044E4A9BB141F0004343F08803536310
:10080000D36A03F47043B3F5405FF9D89BF8002036
:10081000A178464B1004CAB1014359630FE0424B23
:100820001B6819704FF08053D362882353633F4B8A
:10083000DB6A03F47043B3F5405FF8D8E6E7DA6AA1
:1008400002F47042B2F5405FF9D80FE0364A1568FD
:1008500041F0006128704FF08050D8625963334BEB
:10086000DB6AD900FBD5136801221A702F4AD36ABC
:1008700013F0F00FFAD0936BD16A2C4B11F0F00FFC
:10088000FAD09BF800109A6B0A0499B142F000422A
:1008900042F090025A63DA6A02F47042B2F5405FA5
:1008A000F9D89BF80020E178204B1004C2B1014335
:1008B00059630EE01C4909680A704FF08052DA62F1
:1008C00090225A63DA6A02F47042B2F5405FF9D8B6
:1008D000E7E7DA6A02F47042B2F5405FF9D80FE058
:1008E000114A146841F0006120704FF08050D862C6
:1008F00059630E4BDB6ADB00FBD5136801221A70CB
:100900000A4BDA6A12F0F00FFAD09A6BDA6A12F038
:10091000F00FFBD0054B9B6BBDE8F88F04B0044093
:1009200000B0044048020100809EFF1F00C002404A
:1009300018B0044008C004401CB004400CC004407F
:1009400014B0044004C004402DE9F84F944A0378E1
:100950001168944E944D41F48051116004469349BE
:1009600093480E600A2BCD6093460861B246A946B3
:1009700080464FF4007201D18E4B02E0022B03D16E
:100980008D4B1A60012333E0092B01D18B4B02E020
:10099000062B03D18A4B1A60022329E0142B04D1C1
:1009A00003F1804303F5982302E0172B03D1854B15
:1009B0001A6004231CE0152B01D1834B02E0162B97
:1009C00003D1824B1A60082312E00F2B03D1804B16
:1009D0001A6010230CE07F4A7F4D52F833202A60C2
:1009E0001846012107F0C2FF2B6801221A7000236C
:1009F0006E4A7A4F7A4E7B4D3B7016602A78D1074B
:100A000055BF794979494FF410704FF4007012F0D6
:100A1000020F08600CBF7648764852074FF4007109
:100A200054BF754A754A016054BF4FF410714FF4BA
:100A30000071116018045D4A4BB140F02000506312
:100A4000D36A03F47043B3F5405FF9D80EE062490E
:100A50000B6818704FF08053D362694B5363534B4C
:100A6000DB6ADB00FBD50B6801221A704F4AD36AA0
:100A700013F0F00FFAD0936B6078DBF800100A28BF
:100A800041F48051CBF80010C2F800A0C2F80C90DD
:100A9000C2F810804FF4007201D1464B02E00228E8
:100AA00003D1454B1A60012334E0092801D1434B9F
:100AB00002E0062803D1424B1A6002232AE01428E0
:100AC00001D1504B02E0172803D13E4B1A6004239A
:100AD00020E0152801D13C4B02E0162803D13B4B06
:100AE0001A60082316E00F2805D1394B4FF4007225
:100AF0001A6010230EE0374ADFF8DC8052F830200D
:100B0000C8F80020012107F031FFD8F80030012299
:100B10001A700023254A3B7016602A78D00755BF0B
:100B2000314932494FF410704FF4007012F0020F47
:100B300008600CBF2E482F484FF400710160510728
:100B400055BF2D4A2D4A4FF410714FF400711160BA
:100B50001904164A4BB141F020015163D36A03F4E2
:100B60007043B3F5405FF9D80EE01B4B1868017075
:100B70004FF08051D162224951630C4AD26AD200AF
:100B8000FBD51B6801221A70084BDA6A12F0F00FCD
:100B9000FAD09B6B00236360A360BDE8F88F00BFB1
:100BA0003C80044001401F80022001B800C0024088
:100BB000022001F810B0044000C004400CB0044012
:100BC00010C0044008B0044018C0044004B0044001
:100BD00000B0044048020100809EFF1F849EFF1F5A
:100BE000000C1F807C9EFF1F18B0044008C004400A
:100BF0001CB004400CC0044014B0044004C00440C5
:100C00002000000814C004402DE9F74F9F4BA04975
:100C10001A68A04FA04E42F48052044600781A6031
:100C20009E4A0A2811609B46D760884616614FF499
:100C3000007303D102F5F832103202E0022803D12A
:100C4000974A136001232FE0092801D1954A02E059
:100C5000062803D1944A1360022325E0142801D109
:100C6000924A02E0172803D1914A136004231BE043
:100C7000152801D18F4A02E0162803D18E4A13604D
:100C8000082311E00F2803D18C4A136010230BE0D6
:100C90008B4B8C4D53F830302B60012107F066FEF2
:100CA0002B6801221A70002387487C4A8749884DA7
:100CB000037011602A7812F0010F89460CBF854934
:100CC000854982460CBF4FF410704FF4007012F04B
:100CD000020F08600CBF8148814852074FF4007131
:100CE00054BF804A804A016054BF4FF410714FF4E2
:100CF00000711160694A1804C2F800904BB140F0CD
:100D0000E8005063D36A03F47043B3F5405FF9D849
:100D10000DE06C490B6818704FF08053D362734B31
:100D20005363D36AD800FCD50B6801221A705B4B61
:100D3000DA6A12F0F00FFAD09A6B6078DBF80020D4
:100D40000A2842F48052CBF80020C3F80080DF600C
:100D50001E614FF4007301D1654A02E0022803D1FD
:100D60004F4A1360012333E0092801D14D4A02E0C4
:100D7000062803D14C4A1360022329E0142801D12C
:100D80004A4A02E0172803D1494A136004231FE0AE
:100D9000152801D1474A02E0162803D1464A1360BC
:100DA000082315E00F2805D1444B4FF400721A6058
:100DB00010230DE0424A434B52F830201A600121C3
:100DC000019307F0D3FD019B1B6801221A700023D9
:100DD000324A8AF80030C2F800902A78D10755BF0D
:100DE0003C493D494FF410704FF4007012F0020F6F
:100DF00008600CBF39483A4852074FF4007154BF9D
:100E0000384A394A016054BF4FF410714FF40071F1
:100E100011601804214A4BB140F0E8005063D36AD6
:100E200003F47043B3F5405FF9D80EE025490B6831
:100E300018704FF08053D3622C4B5363174BDB6A0F
:100E4000D800FBD50B6801221A70144AD36A13F03C
:100E5000F00FFAD0936B2078DBF800100A2841F4E9
:100E60008051CBF80010C2F80080D76016614FF4B3
:100E7000007201D11E4B02E0022803D1084B1A6018
:100E8000012365E0092835D1064B36E03C8004405B
:100E900001401F80022001B8022001F800C002407A
:100EA00000C004400CB0044010C0044014C0044012
:100EB00008B0044018C0044004B0044000B004402E
:100EC00048020100809EFF1F849EFF1F000C1F80B0
:100ED0007C9EFF1F18B0044008C004401CB00440B2
:100EE0000CC0044014B0044004C00440E8000008F2
:100EF00010B00440062803D19F4B1A60022327E05C
:100F0000142801D19D4B02E0172803D19C4B1A6095
:100F100004231DE0152801D19A4B02E0162803D1C5
:100F2000994B1A60082313E00F2805D1974B4FF413
:100F300000721A6010230BE0954A964E52F830204A
:100F40003260012107F012FD336801221A7000237C
:100F5000914A8AF80030C2F800902A78D10755BF2C
:100F60008E498F494FF410704FF4007012F0020F49
:100F700008600CBF8B488C4857074FF4007154BF72
:100F80008A4A8B4A016054BF4FF410714FF40071CC
:100F900011601904804A5BB141F0004343F06803DB
:100FA0005363D36A03F47043B3F5405FF9D80EE09E
:100FB000784B1B6819704FF08053D36268235363DA
:100FC000754BDB6A03F47043B3F5405FF8D8724B9E
:100FD000DA6A12F0F00FFAD09AF800109A6B0A044D
:100FE00049B142F000425A63DA6A02F47042B2F543
:100FF000405FF9D80CE0674909680A704FF08051EA
:10100000D9625A63DA6A02F47042B2F5405FF9D8E5
:10101000614BDA6A12F0F00FFAD09AF800109D6B6B
:101020000A0451B142F000425A63DA6A02F4704293
:10103000B2F5405FF9D82D020DE0564909680A70F3
:101040004FF08051D9625A63DA6A02F47042B2F505
:10105000405FF9D8EFE7504BDA6A12F0F00FFAD0A0
:101060009A6B9AF8001015430A0451B142F00042FD
:101070005A63DA6A02F47042B2F5405FF9D82D0281
:101080000DE0444909680A704FF08051D9625A63F3
:10109000DA6A02F47042B2F5405FF9D8EFE73E4BEE
:1010A000DA6A12F0F00FFAD09A6B15439AF8002022
:1010B00011043AB15963DA6A02F47042B2F5405F42
:1010C000F9D80EE0334A106801704FF08051D962B0
:1010D0004FF000615963D96ACE00FCD51368012234
:1010E0001A702B022C4AD16A11F0F00FFAD0916BD2
:1010F0000B43304963600868637840F480500860AF
:101100002D4911602D49D1600A2B01F180411161F7
:101110004FF4007201D12A4B02E0022B03D1294B7C
:101120001A6001235FE0092B01D1274B02E0062B57
:1011300003D1114B1A60022355E0142B04D103F1A3
:10114000804303F5982302E0172B03D10C4B1A6060
:10115000042348E0152B01D10A4B02E0162B03D1E2
:10116000094B1A6008233EE00F2B2FD1074B4FF499
:1011700000721A60102336E010C0044014C004400E
:1011800008B0044018C0044004B0044000B004405B
:1011900048020100809EFF1F00C0024018B00440BA
:1011A00008C004401CB004400CC0044014B004400B
:1011B00004C004403C80044001401F80022001B86C
:1011C00010B0044000C004400CB00440754A764D95
:1011D00052F833202A601846012107F0C7FB2B681C
:1011E00001221A7000237149714A72481370086015
:1011F00071490978CD0755BF704871484FF4107593
:101200004FF4007511F0020F05600CBF6D4D6E4D6F
:101210004FF400702860480755BF6C496C494FF483
:1012200010704FF400700860180460495BB140F022
:10123000004343F068034B63CB6A03F47043B3F598
:10124000405FF9D80EE0584B1B6818704FF0805380
:10125000CB6268234B63554BDB6A03F47043B3F5F1
:10126000405FF8D8514BD96A11F0F00FFAD01078DE
:10127000996B010448B141F000415963D96A01F406
:101280007041B1F5405FF9D80CE047480068017043
:101290004FF08050D8625963D96A01F47041B1F5BA
:1012A000405FF9D8414BD96A11F0F00FFAD01078AD
:1012B0009D6B010450B141F000415963D96A01F4BA
:1012C0007041B1F5405FF9D82D020DE03648006855
:1012D00001704FF08050D8625963D96A01F47041AF
:1012E000B1F5405FF9D8EFE7304BD96A11F0F00F54
:1012F000FAD0996B10780D43010450B141F00041D0
:101300005963D96A01F47041B1F5405FF9D82D02F3
:101310000DE02548006801704FF08050D862596395
:10132000D96A01F47041B1F5405FF9D8EFE71F4B7E
:10133000D96A11F0F00FFAD0996B12780D431104AD
:101340003AB15963DA6A02F47042B2F5405FF9D8F3
:101350000EE0154A106801704FF08051D9624FF0CD
:1013600000615963D96AC900FCD5136801221A705B
:101370002B020E4AD16A11F0F00FFAD0926B134390
:10138000A3601B0C1B04B3F57F0F02D0B3F17F4F9A
:1013900005D1104803B0BDE8F04F00F079BE03B0AE
:1013A000BDE8F08F48020100809EFF1F00C0024090
:1013B000849EFF1F000C1F807C9EFF1F18B00440FE
:1013C00008C004401CB004400CC0044014B00440E9
:1013D00004C0044010E8000040687047806870470F
:1013E000034B044A1A6000225A6007F0C7B900BFD5
:1013F000C088FF1FC003010001460A46014803F0F0
:101400007CBB00BF1889FF1F01460A46014803F054
:1014100074BB00BF3489FF1F70B5144C04F12C0657
:10142000002301255022304684F82430E3612362F2
:101430006366A366A4F87820A573E57303F056FBF2
:101440006420FFF7D9FF483429462A46304603F086
:1014500051FB204603F04AFB6420FFF7D5FF2046EE
:1014600029462A46BDE8704003F044BBEC88FF1FC4
:10147000024B002283F82420704700BFEC88FF1F36
:1014800070B5084C02230E46E56984F8243003F059
:10149000B7FE284460663046256A03F0CDFE284436
:1014A000A06670BDEC88FF1F2DE9F84FDFF818A18A
:1014B000BAF98C30C01A0E4693460BF089FE0446EA
:1014C000BAF98E00301A0D460BF082FE224606460F
:1014D0000F462B46204629460BF0E0FE324680465A
:1014E00089463B46304639460BF0D8FE02460B464D
:1014F000404649460BF020FD0AF032F80CF068F93E
:1015000022462B468046394630460AF027F80446E4
:10151000DAF890000D460BF06DFE02460B462046B1
:1015200029460BF007FD0CF07BF903F0A9FE0446F9
:10153000BBF1000F17D121490CF08CFC30B12046D3
:101540001F49C8F100050CF0BFF90AE020461D490B
:101550000CF062FC38B120461949C8F100050CF0C6
:10156000B5F9044600E04546B8F11D0F06DC2846F3
:101570000021FFF785FF0020BDE8F88FB8F11E0FAE
:1015800005D0B8F1C70F02DC2846002111E0204643
:1015900000210CF05FFC10B904F1004000E020468F
:1015A0004FF07C510CF056FC08B1002000E02846BA
:1015B0002146FFF765FF7F20BDE8F88FDB0FC93FAD
:1015C000DB0F4940DB0FC9BFEC88FF1F034B012233
:1015D000002000219A73DA73FFF752BFEC88FF1FD7
:1015E0002DE9F84FDFF880801D4CD8F800900E46AA
:1015F00017469A4603F038FEA3460546A4F8940021
:10160000A4F8966003F0BEF900F0F4FB28463146DA
:101610005246FFF749FF044638B9C82003F0D2F913
:10162000FFF7D4FF2046BDE8F88F57B1D8F8003057
:10163000C9EB03039F4204D2FFF7C8FF0120BDE8B6
:10164000F88F9BF8A330002BDCD0FFF7BFFF0548D5
:1016500000F01EFD03F0B0FD0220BDE8F88F00BFD2
:10166000EC88FF1F2EE800009C9CFF1F2DE9F04F27
:1016700085B08B4601900BF0ABFDDFF8ACA00446C3
:10168000DAF890000D460BF0B5FD06460F4609F05E
:10169000E1FE0246BAF98C00039202910BF098FD2C
:1016A000039A029B80468946204629460BF0F6FDA8
:1016B0000B460246494640460BF03EFC0CF088F8CB
:1016C00039468046304609F0FFFE0246BAF98E00E0
:1016D000039202910BF07CFD039A029B06460F4693
:1016E000204629460BF0DAFD02460B4630463946C5
:1016F0000BF022FC0CF06CF8DDF804C0BCF1000F1C
:101700000446404605DA03F0AFFD21465A46002361
:1017100004E003F0A9FD21465A46012305B0BDE8C7
:10172000F04FFFF75DBF00BFEC88FF1FF8B5034621
:10173000144D00200C4619462E68FFF7A1FE1248F2
:1017400003F07AFD074603F01DF900F053FB0F4B41
:101750001A6A9B6ED31A002BB8BF5B42BB4206DCF1
:10176000C82003F02FF9FFF731FF0020F8BD002C4F
:10177000E9D02B689B1B9C42E5D2FFF727FF012095
:10178000F8BD00BF9C9CFF1F9A99993EEC88FF1FF3
:101790002DE9F3410C46154603F066FD03F030FDDC
:1017A0000646204603F02CFD0D4C0746E06F0CF07A
:1017B0005BFB8046D4F880000CF056FB0097014696
:1017C000D4F890203346404603F08CFD012329468F
:1017D000E370FFF7ABFF0023E37002B0BDE8F081D8
:1017E000EC88FF1F2DE9F74F434FDFF814A17A690A
:1017F000BB69DFF810B10221134493FBF1F3FB61E5
:101800003E4B186803F018FD7B69BA691844801ACA
:10181000DAF80030FA693862D31AC7F884300CF06D
:1018200009F9DBF80040214605460CF04DF80CF0B4
:101830001BFB2146C7F8880028460CF047F84FF0FC
:101840007C510CF04BF90CF00FFB03F001FD064648
:10185000D7F884000BF0BCFC044630460D460BF074
:10186000C9FC8046894609F0F5FD02460B46404614
:1018700049460192009309F027FE019A009B804699
:101880008946204629460BF009FD0BF0C9FF0146A9
:10189000F86F0CF01BF842464B46F8672946204685
:1018A0000BF0FCFC0BF0BCFF0146D7F880000CF0FD
:1018B0000DF8C7F88000386A03F0CAFC03F0E0FCBA
:1018C000C7F89000F86F0CF0CFFA03F0A7FCA7F868
:1018D0008C00D7F880000CF0C7FA03F09FFCFB697E
:1018E000A7F88E00386ACAF800300CF0A3F8CBF8DD
:1018F000000003B0BDE8F08FEC88FF1FD488FF1F05
:10190000E088FF1FDC88FF1F70B504460D461646B1
:10191000FFF768FF204603F0A7FC03F071FC0CF012
:1019200089F80B4CE067284603F06AFC0CF082F85B
:10193000C4F88000304603F0C1FCD4F890100BF0DE
:10194000C3FF044BBDE870401860FFF74BBF00BFFA
:10195000EC88FF1FD488FF1F2DE9F047444D95F810
:1019600024602C4626B9304603F060F8304607E084
:10197000012E09D1B5F9260003F058F8B5F9280071
:10198000BDE8F04703F065B8696E3A4F05F12C00E9
:1019900003F0B6F8EB69A96EC01AE86605F14800D5
:1019A00003F0AEF82D6AA37B451B2567C3B1E66E35
:1019B00030460CF03FF8D4F8D4100CF08FF8804685
:1019C0003868301A0CF036F8D4F8D8100CF086F8D5
:1019D000014640460BF07AFF0CF046FA814600E0E3
:1019E0009946E07BDFF88880234EA8B128460CF0AA
:1019F00021F8D8F8DC100CF071F882463068281A0B
:101A00000CF018F8D8F8E0100CF068F801465046D1
:101A10000BF05CFF0CF028FA6FF07E02B9F17F0F3B
:101A2000A8BF4FF07F093228B4BF03463223914547
:101A3000B8BF91466FF031029342B8BF13461FFA08
:101A400089F99BB203EB090080B2C3EB0903A4F848
:101A5000740000B2A4F8763002F0E8FFB4F9760022
:101A600002F0F7FFE36E3B60236F3360BDE8F08761
:101A7000EC88FF1FD088FF1FD888FF1F034B044A44
:101A80001A6000225A6006F079BE00BFC888FF1FA6
:101A9000C003010010B5044608F020FB204610BD2D
:101AA000F8B5254F3B78022B44D002233B7007F05A
:101AB0007FF8224E224C306003F058FB07F078F894
:101AC000206000F053FA07F073F823681D4DC01A28
:101AD000C5F8C00007F06CF8206003F0BDFA07F00D
:101AE00067F82368C01AC5F8C40003F03FFB00F094
:101AF000E2F9FFF777FEFFF72FFF03F037FB00F067
:101B0000ABFA00F085FD03F031FB07F051F83368C4
:101B1000C01AC5F8C80007F04BF83368C01A0BF0BC
:101B200085FF09490CF08CF910B1084800F0B0FAB3
:101B300000233B70F8BD00BF6487FF1FD089FF1FE3
:101B4000E889FF1FEC88FF1F00401C463DE80000AD
:101B500038B5044608460D460CF0F9FA23680246EB
:101B600029465B68204698470546204608F0F0FA6B
:101B7000284438BD10B57B4C237843F00403237010
:101B800004F088FC78497948FFF7E2FF4FF4FA60E7
:101B900007F02EF876497548FFF7DAFF4FF47A70B0
:101BA00007F026F873497148FFF7D2FF4FF47A70B7
:101BB00007F01EF870496D48FFF7CAFF4FF47A70BE
:101BC00007F016F86D496948FFF7C2FF00F00CFBFB
:101BD0006B496648FFF7BCFF4FF47A7007F008F8CE
:101BE00068496248FFF7B4FF00F03CF966495F4876
:101BF000FFF7AEFF4FF47A7006F0FAFF63495B48D7
:101C0000FFF7A6FF242006F027FDB0F5007F02DADB
:101C100002F0BAFC01E002F077F95D495348FFF7A2
:101C200097FF4FF47A7006F0E3FF5A494F48FFF7E9
:101C30008FFF237858494D4843F004032370FFF782
:101C400087FF4FF47A7006F0D3FF54494748FFF7F7
:101C50007FFF00F00DFB524800F0CCFA514800F035
:101C6000C9FA514800F0C6FA504800F0C3FA50488B
:101C700000F0C0FA4F4800F0BDFA03F029F820B98F
:101C80004D48BDE8104000F0C9BA4C4800F0B2FA27
:101C90004B4800F0AFFA03F067F818B1494800F07C
:101CA000A9FA14E000F000F950B1474800F0A2FA98
:101CB00000F0FAF80028FBD1052006F099FF06E0B5
:101CC000424800F0ABFA642006F092FFE3E7404898
:101CD00000F090FA03F060F818B13A4800F08AFA80
:101CE00014E000F0E1F850B1374800F083FA00F05A
:101CF000DBF80028FBD1052006F07AFF06E0334828
:101D000000F08CFA642006F073FFE3E73148324CB0
:101D100000F070FA00F09CFC00F01CF900F090F963
:101D200002F0AAFEFFF778FB03F014FA03F03CFA86
:101D30002A4800F05FFA2A4A2A49204608F0B8F9F2
:101D4000294B1B78802262732BB1237B03F1604304
:101D500003F564431A70254800F04CFABDE81040C2
:101D600002F094BC7C9EFF1F56E80000889EFF1F77
:101D700068E800007AE800008CE800009EE80000B7
:101D8000B3E80000CBE80000E2E80000EAE8000069
:101D900001E9000006E9000019E900001EE9000061
:101DA00027E900001AEC000033E900007EF600008D
:101DB0003CE9000046E9000059E900006BE9000039
:101DC0007AE9000075E9000089E9000017E90000E0
:101DD00093E90000A3E90000D489FF1FB1E90000E6
:101DE0003F7E0500A11A0000449EFF1FC8E90000C5
:101DF0007047FFFF034B01221A701A78002AFCD1AA
:101E0000704700BF6487FF1F0E4B0F4A10B50024B8
:101E10001A605C6006F0B2FC0C4B1C735C7306F03D
:101E2000C7FE0B4B186006F0C3FE0A4B0A49186048
:101E30000A480B4A047080234373BDE810400CF03D
:101E400059B800BFE488FF1FC0030100EC88FF1FE2
:101E5000D089FF1FE889FF1F951A0000D489FF1F52
:101E60006087FF1F08B50220014606F07FFD0320B2
:101E70000221BDE8084006F079BD08B5032006F050
:101E800067FD003018BF012008BD08B5FFF7F5FF5A
:101E900080F00100C0B208BD08B5022006F058FD70
:101EA000003018BF012008BD08B5FFF7F5FF80F02E
:101EB0000100C0B208BD08B5FFF7F6FF20B1FFF77B
:101EC000E4FF08B107F0F4FA08BDFFFF08B50748C2
:101ED00006F0A2FA0028FAD0044806F0C2FA002858
:101EE000F5D00348BDE8084000F0D2B8048AFF1FCF
:101EF000DAE9000008B5074806F08EFA0028FAD0A3
:101F0000044806F0A5FA0028F5D00348BDE80840CB
:101F100000F0BEB8048AFF1FEEE9000008B5094BC7
:101F2000094A1A6000225A6006F028FC03210A229E
:101F3000064806F047FA064802210A22BDE8084092
:101F400006F040BAEC89FF1FC0030100048AFF1F9E
:101F5000F489FF1F10B5044C2046FEF79DFA204679
:101F6000BDE81040FEF7F0BC1C8AFF1F38B5074CD7
:101F7000074D2046FEF748FE2046FFF72DFA404267
:101F800068612046FFF72AFAA86138BD1C8AFF1F46
:101F9000EC88FF1F13B5084B084A1A6000245C60E8
:101FA00006F0ECFB00941521142283230448FEF76D
:101FB00059FA02B010BD00BF148AFF1FC003010010
:101FC0001C8AFF1F38B5044608460D460CF0BFF8C2
:101FD000236802465B6820462946984738BDFFFFC4
:101FE00008B5134B1B780BB9FFF704FF114B1248D0
:101FF0001B684360114BD3F890208260B3F88C20AB
:102000000282B3F88E2042821A78C27593F8BC20FF
:102010000276B3F8BA20828293F8A3208275D3F8AF
:10202000C830C3602021BDE8084007F011BE00BFE2
:102030006487FF1F9C9CFF1FAC8AFF1FEC88FF1F5B
:1020400008B540F2E24006F037FE0248BDE808401D
:1020500004F01ABA008BFF1F08B5044804F0FEF91B
:1020600018B1BDE80840FFF7BBBF08BD008BFF1FDC
:1020700010B5054B1B7804460BB9FFF7BBFE214694
:102080000248FFF79FFF10BD6487FF1F889EFF1F58
:102090000FB413B50A4C04AB204653F8042B01933C
:1020A00079210CF097F8074920460CF03BF82046C0
:1020B000FFF7DEFF02B0BDE8104004B0704700BF7C
:1020C000308AFF1F7FF600000A2810B5044620D092
:1020D00008D8012817D014D3022818D0032820D1FB
:1020E000134811E00E281AD005D80B2813D00C285D
:1020F00017D1104808E00F280FD07F2811D10E48C3
:1021000002E00E4800E00E48FFF7C2FF0DE00D4868
:10211000FAE70D48F8E70D48F6E70D48F4E70D48F3
:10212000F2E70D482146FFF7B3FF204610BD00BF80
:1021300006EB00005CEB00008BEB0000E2EA000025
:10214000E5EA0000F5EA000018EB00002DEB0000C6
:102150004BEB000076EB000095EB000010B5054B53
:102160001B7804460BB9FFF745FE21460248FFF7EE
:1021700029FF10BD6487FF1F289EFF1F0FB413B5F2
:10218000084C04AB332153F8042B019320460CF088
:1021900021F82046FFF7E2FF02B0BDE8104004B08E
:1021A000704700BFCC8AFF1F08B50B4B0B4A1A6063
:1021B00000225A6006F0E2FA0948642104F042F96C
:1021C000084B40221A705A709A70DA701A775A7750
:1021D0009A77DA7708BD00BF288AFF1FC003010085
:1021E000008BFF1FAC8AFF1F0148022104F00EB8CC
:1021F000148BFF1F38B5084D04464FF6FF71284673
:1022000003F0AEFD28462146FFF7DCFE2046BDE880
:102210003840FFF73DBF00BF148BFF1F38B5084D96
:1022200004464FF47841284603F09AFD284621469B
:10223000FFF7C8FE2046BDE83840FFF729BF00BFC2
:10224000148BFF1F10B5074B074A1A6000225A6013
:1022500006F094FA054806210F221023BDE810402D
:1022600003F0FCBD0C8BFF1FC0030100148BFF1F8C
:1022700010B50A4C0021204603F0D0FD0021204675
:102280000A4603F065FD20464FF6FF7103F068FD36
:1022900020460121BDE8104003F065BD148BFF1FEF
:1022A000F0B5A9B03749384C064604A808F0E8F85C
:1022B000364908A808F0E4F835490CA808F0E0F819
:1022C000344910A808F0DCF8334914A808F0D8F80D
:1022D000324918A808F0D4F831491CA808F0D0F801
:1022E000304920A808F0CCF824A82F4908F0C8F8F5
:1022F000237804A80BB12D4900E02D4908F0D3F84C
:10230000A37808A82BB12B4908F0CDF84FF4FC6551
:1023100004E0294908F0C7F84FF6E075237B10A8C0
:102320000BB1264900E0264908F0BDF86379072B78
:1023300022D8DFE803F004070A0D10131A1D18A8AD
:10234000204917E018A8204914E018A81F4911E0F7
:1023500018A81F490EE018A81E490BE0237818A8FA
:102360000BB11D4906E01D4904E018A81C4901E015
:102370001C4918A808F097F8237920A8B3B31A4984
:1023800035E000BFD7EB0000EC88FF1FEEEB00004C
:1023900005EC00001CEC000033EC00004AEC0000EF
:1023A00061EC000078EC00008FEC0000A6EC00006F
:1023B000BDEC0000D4EC0000EBEC000002ED0000EE
:1023C00019ED000030ED000047ED00005EED00006B
:1023D00075ED00008CED0000A3ED0000BAED0000EB
:1023E000D1ED0000E8ED0000FFED0000864908F0A7
:1023F0005AF8FFF7FFFC85484FF6FF7103F00EFD1A
:1024000000210A46814803F0A3FC8048002103F024
:10241000A7FC7E48012103F0A6FC7C48002103F0C4
:102420009FFC7A48012103F096FCFFF7E3FC0024AF
:1024300004A921447548103407F06AFE902CF7D1A6
:10244000724803F092FC00240121831E0A461BB24D
:1024500000946E4803F07FFF6C4803F089FC074648
:102460006A4803F082FCBA1E831E012112B21BB21D
:102470000094664803F06FFF644803F079FC012183
:10248000831E0A461BB20094604803F03CFF5F487D
:1024900003F06BFC07465D4803F06AFCB91E831E1F
:1024A00009B201221BB20094584803F02CFF574890
:1024B00003F05BFC0321831F0A461BB200945348C0
:1024C00003F049FF514803F053FC07464F4803F01F
:1024D0004CFC3A1F831F032112B21BB200944B48DD
:1024E00003F039FF494803F043FC0321831F0A46E8
:1024F0001BB20094454803F006FF444803F035FC46
:102500000746424803F034FC391FC31F00943F487C
:1025100009B204221BB203F0F6FE04210A460B4660
:1025200000953A4803F078F904210A460B460094D6
:10253000364802F0FDFF354803F01AFC0421021F63
:102540000B4612B20095314803F066F92F4803F0AC
:102550000FFC0421021F0B4612B200942B4802F01C
:10256000E7FF2A4803F001FC0746284803F000FC77
:10257000391F021F09B212B204230095234803F049
:102580004BF9224803F0F1FB0746204803F0F0FB2B
:10259000391F021F09B212B2042300941B4802F033
:1025A000C7FF1A4803F0E1FB0422011F134609B2DA
:1025B0000095164803F030F9144803F0D6FB0422C6
:1025C000011F13460094114809B202F0B1FF320115
:1025D0000E3293B203F10A0109B2009105330A21C8
:1025E00001911BB2052102930394084812B20B46D5
:1025F00003F035F924AC6D462046103C07F000FF8F
:10260000AC42F9D129B0F0BD16EE0000148BFF1FCB
:1026100008B5094803F022FF60B1084B93F8BC10DD
:10262000C1F10101C9B283F8BC100D20BDE808401A
:1026300006F06EB908BD00BF5C8BFF1FEC88FF1F62
:1026400002484FF4487103F007BF00BF5C8BFF1FC7
:1026500008B50D20012106F089F90D20012106F0B1
:1026600057F9FFF7EDFF0248BDE8084003F00CBF43
:102670005C8BFF1F10B5064B064A1A6000245C6095
:1026800006F07CF821460448BDE8104003F0DABEAD
:10269000548BFF1FC00301005C8BFF1F08B504486B
:1026A000FFF75CFD0348BDE80840FFF7F1BC00BF41
:1026B0002DEE00002FEE000010B504462146044820
:1026C000FFF75CFD21460348BDE81040FFF7E0BC82
:1026D00042EE000046EE000008B50448FFF73EFD5C
:1026E0000348BDE80840FFF7D3BC00BF5CEE000024
:1026F0005EEE000010B5041E02DD0748214602E030
:1027000009D006486142FFF739FD21460448BDE87B
:102710001040FFF7BDBC10BD83EE000087EE000047
:102720008BEE000010B5044621460448FFF726FD55
:1027300021460348BDE81040FFF7AABCA2EE000006
:10274000A6EE000008B50448FFF708FD0348BDE801
:102750000840FFF79DBC00BFB4EE0000B6EE0000DD
:102760000148FFF7FBBC00BF04E90000034B044A2B
:102770001A6000225A6006F001B800BF688BFF1F84
:10278000C0030100014B9860FFF796BFEC88FF1F64
:10279000034B9A68821848BF00229A60FFF7AABFCD
:1027A000EC88FF1F2DE9F04705461F4610460C46F2
:1027B000BDF820A09DF82490FEF71EFE2FB12846FC
:1027C00021464FF4FA62FEF7E3FF4FF00008284677
:1027D000214652463B46FEF703FF08F10108022856
:1027E00006465FFA88F806D14FF47A7002F0EAF8EC
:1027F000C845ECD317E0074600282FD0032819D08E
:1028000004D8012808D002281CD10CE00A2813D0D3
:102810007F2817D1134810E0134829462246534613
:10282000FFF736FC14E0114829462246FFF730FC3A
:1028300002270DE00E4800E00E4829462246FFF729
:1028400027FC05E00C4829462246FFF721FC3746C5
:10285000C84503D309484146FFF71AFC3846BDE88E
:10286000F08700BF2BF0000058EF000093EF00004E
:10287000C4EF0000F6EF000060F00000A7F00000D9
:10288000312910B5044635D010D82C2927D006D8C8
:102890002A291BD021D8292938D1214B3AE02E29C9
:1028A00026D023D3302931D11E4B33E0352927D010
:1028B00004D8332920D021D81B4B2BE0562921D016
:1028C0005C2921D0362921D1184B23E0184B9B7865
:1028D0000BB1184B1EE0184B1CE0184B1AE0144BC0
:1028E0009B780BB1164B15E0164B13E0164B11E01D
:1028F000164B0FE0164B0DE0164B0BE0164B09E0A4
:10290000164B07E0164B05E0164B03E01648FFF7A1
:10291000BFFB164B93E8030084E80300204610BD7C
:10292000C8EE000008EF000018EF000038EF0000CC
:10293000EC88FF1FD0EE0000D8EE0000E0EE0000B3
:10294000E8EE0000F0EE0000F8EE000000EF0000FE
:1029500010EF000020EF000028EF000030EF000033
:1029600040EF000048EF0000C4F0000050EF00000E
:1029700090422DE9F04180460E4617461D4601DC87
:10298000994204DD02F018FC0E48FFF781FB0E4C63
:10299000B4F98C0002F068FC40450FDBB4F98C0000
:1029A00002F062FCB84209DCB4F98E00B04205DBEB
:1029B000A842CCBF00200120BDE8F0810020BDE886
:1029C000F08100BFFEF00000EC88FF1F38B500F07A
:1029D0000204A4B2054644B1002001464FF47A72C5
:1029E0004FF45273FFF7C4FF044669070AD54FF44A
:1029F0007A70002140F2DC524FF4FA63FFF7B8FF1F
:102A00002043C4B22A070AD500204FF452714FF474
:102A10007A7240F25F53FFF7ABFF2043C4B2EB067C
:102A20000AD5002040F25F514FF47A724FF4FA63F6
:102A3000FFF79EFF2043C4B294BBA80609D52146E8
:102A40004FF4FA6040F6B8324FF45273FFF790FF3C
:102A50000446690609D54FF4FA6240F2DC500021C1
:102A60001346FFF785FF2043C4B22A060BD54FF467
:102A7000FA604FF4527140F6B83240F25F53FFF7FC
:102A800077FF2043C4B2EB050AD54FF4FA6040F259
:102A90005F5140F6B8320346FFF76AFF2043C4B2E5
:102AA000204638BD2DE9FF479DF830A004460F466B
:102AB00090469946312C00F09E800ED82C2C5AD08E
:102AC00005D82A2C30D039D8292C1AD011E12E2C37
:102AD0006ED06BD3302C7AD00BE1352C00F0D28045
:102AE00005D8332C00F0AE8040F28780BFE0562C32
:102AF00000F097805C2C00F0E680362C40F0F980E6
:102B0000CAE08F48FFF7C4FA0620FFF75FFF0546CB
:102B100010B100260125F3E00820FFF757FF002839
:102B200040F0E980D02076E08648FFF7B1FA8A20AD
:102B3000FFF74CFF0028ECD154206CE08248FFF7EF
:102B4000A7FA1820FFF742FF05460028E1D102202E
:102B5000FFF73CFF002840F0D0800420FFF736FF4D
:102B600000286DD14FF49070FFF730FF08B15C265C
:102B7000C5E0C020A2E07548FFF78AFAEC20FFF715
:102B800025FF0028C5D10220FFF720FF002857D1DC
:102B90001020FFF71BFF002840F093804FF4807057
:102BA000FFF714FF002800F09E80E0E7684839E056
:102BB0006848FFF76DFA1C20FFF708FF0028A8D12E
:102BC0000220FFF703FF0028CCD0312697E06248AF
:102BD000FFF75EFA1020FFF7F9FE002899D10220D6
:102BE000FFF7F4FE0028F0D10C20FFF7EFFE0028DD
:102BF000B8D02E2683E0594845E05948FFF748FAF7
:102C0000CC20FFF7E3FE002883D10220FFF7DEFE91
:102C10000028DAD11020FFF7D9FE88B94FF4907060
:102C2000BEE75048FFF734FA4FF4F070FFF7CEFEDE
:102C300000287FF46EAF0220FFF7C8FE002836D0D0
:102C400035265CE04848FFF723FA4FF4E370FFF7BE
:102C5000BDFE00287FF45DAF0820FFF7B7FE80BB04
:102C60001020FFF7B3FE0028EAD1202098E73F4864
:102C7000FFF70EFADC20FFF7A9FE00287FF449AF2A
:102C80000220C8E73A48FFF703FADE20FFF79EFE6E
:102C900000287FF43EAFC1E73648FFF7F9F90A2074
:102CA000FFF794FE00287FF434AFD420B3E70C2064
:102CB000FFF78CFE00287FF45AAF1020FFF786FE46
:102CC00088B134261BE02C48FFF7E2F94FF4F67088
:102CD000FFF77CFE00287FF41CAF0220FFF776FE92
:102CE0000028ADD1E9E725482146FFF7D1F90A20B0
:102CF00022E0002603E0362602E0312600E000252F
:102D000002A82146FFF7BCFD45B18DE800060298F8
:102D100003993A464346FFF745FD0DE01848FFF793
:102D2000B7F9CDF800A03046394642464B46FFF78A
:102D3000B9FE00283FF4BEAE04B0BDE8F08700BF86
:102D400046F1000055F1000064F1000073F100004D
:102D500082F1000091F10000A0F10000AFF100004D
:102D6000BEF100000EF20000CEF10000DEF1000026
:102D7000EEF10000FEF100001EF200003AF2000049
:102D80002FF2000073B59A428DE8030014461E46E8
:102D90000BD921466846013C05F084FAE4B21420C0
:102DA00001F010FEB442F4D20AE021466846013434
:102DB00005F078FAE4B2142001F004FEB442F4D92C
:102DC00002B070BD034B044A1A6000225A6005F03D
:102DD000D5BC00BF708BFF1FC003010083B5FFF798
:102DE00047FA3F48FFF706FA3E48FFF703FA3E4826
:102DF000FFF700FA3D48FFF7FDF93D48FFF7FAF904
:102E0000FFF764F83B48FFF7F5F94FF4967001F0CF
:102E1000D9FD4FF47A7001460022FEF775FDFEF7EA
:102E2000D5FBFFF767F801F091FD42F210720F2316
:102E30008DE80C0040F2DC504FF47A711E22012321
:102E4000FFF7B0FC2C48FFF723F92C4C2C4E94F8DC
:102E5000A330274643B92B48FFF71AF9642001F045
:102E6000B1FD33682361F0E72748FFF711F942F21B
:102E70001075142433683B614FF47A710095019406
:102E8000642201234FF4FA60FFF78CFC0095019453
:102E90004FF47A71642200234FF4E160FFF782FC63
:102EA0004FF47A7001466422012300950194FFF7E4
:102EB00079FC4FF4487001F085FD4FF4487001F043
:102EC00081FD009501944FF47A71642200234FF440
:102ED0009660FFF767FC4FF4487001F073FDC6E79A
:102EE00020F3000027F3000037F3000043F3000055
:102EF0004FF300005CF3000062F30000EC88FF1F5A
:102F00009C9CFF1F15E900006DF3000008B50F48F9
:102F1000FFF770F90E48FFF76DF9C82001F052FD78
:102F20004FF47A71002240F2DC50FEF7EDFCFEF720
:102F30004DFB4FF4FA6005F05BFE01F007FDC82081
:102F400040F6B831BDE80840FEF790BB78F30000CA
:102F500083F3000008B54FF4FA7005F049FEE12054
:102F6000FFF710FC4FF4FA6005F042FE1920FFF75E
:102F70000FFC4FF4FA6005F03BFEFFF7F1FB6FF03A
:102F80003100FFF705FC4FF4FA6005F031FE0C4804
:102F9000FFF7C8FB4FF4FA6005F02AFEFFF79CFB31
:102FA000FFF7DEFB4FF4FA6005F022FEFFF7CAFBE5
:102FB0004FF4FA6005F01CFEFFF770FBCBE700BF93
:102FC0008BF30000F7B5204F2048FFF761F83B78FE
:102FD000002B34D11E4B1A68032601321A603320AD
:102FE0000096642101224FF4FA53FFF75BFD04467B
:102FF00038BB40F26A4021462246FEF7C9FB05462F
:10300000F8B94FF4FA62052396218DE80C0040F2DE
:103010006A4032220123FFF7C5FB0E48FFF738F85C
:10302000012319203B70FFF7B3FB00963320642186
:103030002A464FF4FA53FFF735FD284602E00C20EC
:1030400000E0204603B0F0BDCC8BFF1F98F30000DA
:103050009C8BFF1FB0F3000008B50548FFF718F878
:10306000044B1B68002B14BF0E200C2008BD00BFB2
:10307000C0F30000E48BFF1F73B504462D4E2E48AD
:103080002146FFF705F8355D002D4DD1012C1DD0EF
:10309000022C34D0002C49D1284B1A690A2502325F
:1030A0001A6135200095642101224FF4FA53FFF78D
:1030B000F9FC00283BD14FF4FA538DE8280040F288
:1030C00052304FF4AF715022012320E01B4B5A695C
:1030D0000A2502325A6130200095642122464FF4BD
:1030E000FA53FFF7DFFC10BB4FF4FA538DE82800CA
:1030F0004FF419704FF4AF715022234607E00F4B85
:103100009A690F2002329A61FEF7DEFF0AE0FFF7AC
:1031100049FB05460420FFF73BFB094A01231355F1
:1031200005B93355284602E00C2000E00B2002B020
:1031300070BD00BF958BFF1FDBF300009C8BFF1F52
:10314000808BFF1F10B5044604480CB1FF2100E03E
:10315000214605F0A7F8024B1C7310BD848BFF1F9E
:10316000EC88FF1F70B504461646124D39B1124B5C
:103170002A78186899882346FFF704FE03E00E4872
:10318000214605F08FF82C709EB10C48FEF770FFB9
:10319000192C03D05A2C06D1094800E00948BDE893
:1031A0007040FEF775BF21460748BDE87040FEF746
:1031B0006FBF70BD8A8BFF1FDA8BFF1F19F40000F1
:1031C00037F400003FF40000A9EB0000F7B5044617
:1031D0003548FEF75DFF1CB9344B1B68002B5ED0F1
:1031E000334B9A6A0A2701329A622E200097642193
:1031F00001224FF4FA53FFF755FC0446002850D142
:103200004FF47A66032540F2DC5132220123009606
:10321000019540F21450FFF7C5FA40F2DC510096D8
:10322000019540F2A64064222346FFF7BBFA01460F
:10323000002837D140F2A6400A46FEF7A9FA044614
:1032400078BB23460195009640F23B61322240F262
:10325000A640FFF7A7FA01210A461920FFF782FFCF
:1032600041F2883001F0AEFB21465A200122FFF7DF
:1032700079FF40F6B8338DE828000C4D40F2DC5160
:103280006422012340F2A640FFF78CFA28687843B5
:10329000FFF77EFA07482C60FEF7FAFE01E00C20EB
:1032A00000E0204603B0F0BD47F400007C8BFF1F18
:1032B0009C8BFF1F63F4000008B5FEF7D9F80648A1
:1032C000FEF7E6FE192000210122FFF74BFFBDE8C3
:1032D000084001F079BF00BF79F4000070B50446E2
:1032E0001646174D39B1174B2A7818689988234626
:1032F000FFF748FD03E01348214604F0D3FF2C708C
:10330000E6B11148FEF7B4FE282C0FD003D8252CC7
:103310000ED10E4804E0682C06D0A02C08D10C4831
:10332000BDE87040FEF7B4BE0A48F9E70A48F7E77F
:1033300021460A48BDE87040FEF7AABE70BD00BF36
:10334000E18BFF1FD48BFF1F91F40000A4F4000059
:1033500053F50000A9F4000062F50000A9EB00009D
:103360002DE9F341314F3248FEF792FE3B78002BB6
:1033700055D1304BDA6A03250132DA622A200095F2
:10338000642101224FF4FA53FFF78CFB002849D146
:1033900041F28836009601954FF496704FF45271C1
:1033A00064220123FFF7FEF90446002839D14FF4C7
:1033B00052714FF4FA6240F6B830FEF7E9F94FF473
:1033C000FA638DE82800F02023464FF452716422FE
:1033D000FFF7E8F9044620BB21460122A020FFF7B1
:1033E0007DFF4FF4C87001F0EDFA2146012228203C
:1033F000FFF774FF0A20FFF7CBF94FF001080E48E2
:1034000087F80080FEF744FE009601954FF4527154
:10341000642243464FF49670FFF7C4F901E00C2094
:1034200000E0204602B0BDE8F08100BF948BFF1F92
:10343000AEF400009C8BFF1FC1F40000F7B5864E70
:103440008648FEF725FE3378002B40F0FF80844B42
:103450009A68032401329A602E200094642101228C
:103460004FF4FA53FFF71EFB0546002840F0F080AA
:1034700040F6B8338DE818007A4C40F2EA61E62055
:1034800064220123FFF78EF9A17811B1A02029460B
:1034900000E028200122FFF721FF7348FEF7E8FD36
:1034A00000214FF4FA62E620FEF772F940F2DC5098
:1034B00005238DE809004FF4FA61E6206422002319
:1034C000FFF770F901280AD140F23A7001F098FE36
:1034D0000AF0B0FAC4F880006448FEF7D9FD40F65F
:1034E000B835032340F2EA61642201930095012379
:1034F000E620FFF757F95E48FEF7BAFD40F2EA61B1
:103500004FF4FA622846FEF743F940F2DC510523F6
:1035100000208DE80A00322240F2EA610346FFF7FC
:1035200041F9012808D1962001F06AFE0AF082FADA
:10353000E0674E48FEF7ACFD40F6B837032540F291
:10354000EA616422012300970195E620FFF72AF93A
:103550000097019540F211104FF4C86164220123D5
:10356000FFF720F9002874D14FF4AD704FF4AF612C
:103570004FF4FA62FEF70CF900286AD10225A1780F
:1035800011B1A020002100E028200122FFF7A6FEB3
:1035900040F6B83203238DE80C004FF4E161C820F7
:1035A00064220023FFF7FEF80146002851D1C8200D
:1035B0004FF4FA62FEF7ECF80346002849D14FF4C5
:1035C000FA6105228DE80600C8206422FFF7EAF8B8
:1035D00001280AD140F23A7001F012FE0AF02AFAEC
:1035E000C4F880002148FEF753FD2248FEF750FD45
:1035F000A17811B12820002100E0A0200122FFF7CE
:103600006DFE4FF4C87001F0DDF9013DB7D1012422
:103610001948347041F28837FEF73AFD0A26322005
:10362000FFF7B6F82346009701964FF4E161642254
:10363000C820FFF7B7F8009701964FF4C8616422DD
:10364000234640F21110FFF7ADF801E00C2000E036
:10365000284603B0F0BD00BFCD8BFF1FCCF40000A7
:103660009C8BFF1FEC88FF1FE4F40000E2EA0000DF
:10367000F5F4000006F5000018F5000070B50446EA
:103680001646194D39B1194B2A781868998823467E
:10369000FFF778FB03E01548214604F003FE2C7089
:1036A00006B31348FEF7E4FC642C0CD005D83C2C80
:1036B00010D0412C10D10F4808E0822C05D08C2C62
:1036C0000AD10D4802E00D4800E00D48BDE8704009
:1036D000FEF7DEBC0B48F9E721460B48BDE8704019
:1036E000FEF7D6BC70BD00BF788BFF1FCE8BFF1FCF
:1036F00029F500004BF500005AF5000030F50000F8
:1037000037F5000042F50000A9EB000073B52D4825
:10371000FEF7BEFC2C4B1A781E46002A4ED12B4DCC
:103720002B68002BC8BF0E2049DC294A53680324AC
:1037300001335360642100942A2001224FF4FA538C
:10374000FFF7B0F90146002839D18C200122FFF79C
:1037500095FF204B9B7840F6B8328DE814009620F8
:1037600013B14FF46B7101E04FF439710123322230
:10377000FFF718F8002101224120FFF77FFF0A2000
:10378000FFF706F841F2883001F01CF92B68124867
:10379000083301242B603470FEF77AFC0323009376
:1037A000642100224FF4FA532A20FFF77BF96420AA
:1037B00000212246FFF762FF002000E00C2002B04B
:1037C00070BD00BF69F50000948BFF1FE48BFF1FE5
:1037D0009C8BFF1FEC88FF1F7BF50000F7B52A4F7D
:1037E0002A48FEF755FC3B78002B47D1284E33681A
:1037F000002BC8BF0E2044DC264B1A6A0325013279
:103800001A622C200095642101224FF4FA53FFF72D
:1038100049F90446A0BB214641200122FFF72EFFB3
:1038200040F6B8338DE828004FF46B710123322243
:1038300040F62230FEF7B6FF214601228C20FFF72A
:103840001DFF0A20FEF7A4FF41F2883001F0BAF80C
:10385000336811480833336001263E70FEF718FCC8
:103860002246009564214FF4FA532C20FFF71AF9F1
:10387000642021463246FFF701FF01E00C2000E002
:10388000204603B0F0BD00BFE08BFF1F85F50000B0
:103890007C8BFF1F9C8BFF1F9BF500002DE9F743DE
:1038A000DFF8F4803648FEF7F3FB98F80030002B81
:1038B0005FD1344BDA690132DA61334B9E7840F6DE
:1038C000BA1240F6F2030325002E0CBF16461E4620
:1038D00000955620642101224FF4FA53FFF7E2F8D5
:1038E000002849D136B240F6B837009701953046E6
:1038F00040F2D66164220123FEF754FF04460028FB
:1039000039D1214641200122FFF7B8FE012300975B
:103910000195304640F23A713222FEF743FF2146CC
:1039200001228C20FFF7AAFE0A20FEF731FF41F2A8
:10393000883001F047F8154B15481A6804321A60B0
:10394000144B1A684FF0010904321A6088F800908D
:10395000FEF79EFB00970195304640F2D661642247
:103960002346FEF71FFF642021464A46FFF786FEE6
:1039700001E00C2000E0204603B0BDE8F08300BF6A
:10398000A9F500009C8BFF1FEC88FF1FE48BFF1F35
:10399000BFF500007C8BFF1F988BFF1F3C20002190
:1039A0000122FFF76BBE822000210122FFF766BED5
:1039B0002DE9F341DFF8BC816948FEF769FB98F80F
:1039C0000030002B40F0C380664F3B68042B00F3AF
:1039D000C080654E3368042B00F3BB80634BDA680C
:1039E00003250132DA602B200095642101224FF477
:1039F000FA53FFF757F80446002840F0AC80214600
:103A000041200122FFF73AFE40F6B8338DE8280046
:103A100040F23A710123322240F26220FEF7C2FEE8
:103A200021468C200122FFF729FE21460122642035
:103A3000FFF724FE4FF4487000F0C4FFFFF7AEFF1D
:103A40004FF4487000F0BEFF214601226420FFF7CA
:103A500015FE4FF4487000F0B5FFFFF7A4FF4FF4D8
:103A6000487000F0AFFF214601226420FFF706FEF8
:103A70004FF4487000F0A6FFFFF790FF4FF4487036
:103A800000F0A0FF214601226420FFF7F7FD4FF46C
:103A9000487000F097FFFFF786FF4FF4487000F082
:103AA00091FF214601226420FFF7E8FD4FF44870A2
:103AB00000F088FFFFF772FF4FF4487000F082FFBC
:103AC000214601226420FFF7D9FD4FF4487000F031
:103AD00079FFFFF768FF4FF4487000F073FF21464D
:103AE00001226420FFF7CAFD4FF4487000F06AFF1E
:103AF000FFF754FF4FF4487000F064FF21460122A5
:103B00006420FFF7BBFD4FF4487000F05BFFFFF748
:103B10004AFF4FF4487000F055FF2146012264200F
:103B2000FFF7ACFD3B68124804333B603368043355
:103B30003360012388F80030FEF7AAFA009564216B
:103B400022464FF4FA532E20FEF7ACFF03E00C2080
:103B500002E00E2000E0204602B0BDE8F08100BF88
:103B6000CDF50000E48BFF1F7C8BFF1F9C8BFF1F9C
:103B7000DFF50000E88BFF1F10B501460B282CD89D
:103B8000DFE800F00609101316181A1E2124270D6D
:103B9000FFF718FA01E0FFF7B9FD044621E0FFF74F
:103BA000DFFBFAE7FFF74AFCF7E7FFF701FFF4E76F
:103BB000002002E0012000E00220FFF75DFAECE7C0
:103BC000FFF76CFEE9E7FFF709FEE6E7FFF744FAC7
:103BD000E3E70020FFF7FAFADFE70648FEF758FAB6
:103BE0000B242046FEF770FA0C2C14BF2046002050
:103BF00010BD00BFE9F5000008B50A48FEF748FA15
:103C00005A2000210122FFF7ADFA252000210122D0
:103C1000FFF764FB642000210122BDE80840FFF7A4
:103C20002DBD00BF0AF6000007B5FEF721FB2F48A7
:103C3000FEF7E0FA2E4B9B780BB12E4800E02E48A1
:103C4000FEF7D8FA2D48FEF7D5FA2D48FEF7D2FA3E
:103C50002C48FEF7CFFA2C48FEF7CCFA2B48FEF79B
:103C600061FD2B48FEF7C6FA40F2DC5000F0AAFED8
:103C7000FFF7C2FF0020FEF785FD2648FEF7BAFADF
:103C80002548FEF7B7FA2548FEF7B4FAFEF71EF905
:103C90002348FEF7AFFAC82000F094FE4FF4FA7103
:103CA00000229620FDF730FEFDF790FCFEF722F98A
:103CB00000F04CFE4FF4617000F084FE1348FEF7F4
:103CC00031FD42F2107232234FF4FA708DE80C008D
:103CD000014664220123FEF765FD0120FFF7CCF9C0
:103CE00003B05DF804EB00F085BE00BF24F60000D1
:103CF000EC88FF1F30F6000040F600007EF6000062
:103D000052F6000065F6000078F6000081F600002B
:103D100027F3000037F3000043F30000AAF6000089
:103D2000B8F6000070B55F4C86B0FEF7A1FAFEF75A
:103D30009FFA5D48FEF75EFAA3780BB15B4800E09E
:103D40005B48FEF757FA5B48FEF754FA5A48FEF70D
:103D500051FA5A48FEF74EFA5948FEF74BFA5948BD
:103D6000FEF748FA5848FEF745FA5848FEF742FA77
:103D7000574B93E8070006AD0C3305E9070093E8BD
:103D8000030001AA82E80300FFF736FF4FF4FA7040
:103D900000F018FE4F48FEF72DFAFEF797F84E4850
:103DA000FEF728FAC82000F00DFEA37823B1FA2010
:103DB0004FF4FA71002203E0484A96204FF4FA715A
:103DC000FDF7A2FDFDF702FCFEF794F800F0BEFD42
:103DD0004FF4FA7000F0F6FD0020FEF7D3FCA37854
:103DE00013B14FF4AF7000E03D4842F21071FDF79F
:103DF0003DFC0520FEF7CCFC0520FEF7C9FC1D208C
:103E0000FEF7C6FC3748FEF743F903240134022CC1
:103E100003DD3548FEF73CF9002406AA02EB8403D3
:103E200053F80C0CFFF7A8FE304B1B78002BEDD09D
:103E30002F4B1B78002BE9D02E4B5B78002BE5D065
:103E40000920FFF799FE0A20FFF796FE2A4B1A6811
:103E50001E46002AF4D12948FEF71AF9022424B19B
:103E60002748FEF715F9002400E0012406AD05EB14
:103E7000840353F8140CFFF77FFE224B1B78002BB2
:103E8000EDD03568002DEAD10120FFF79FF9192008
:103E900029460122FFF766F906B0BDE8704000F040
:103EA000A9BD00BFEC88FF1FBFF6000030F6000080
:103EB00040F600007EF6000027F30000C9F600007F
:103EC00037F3000043F30000AAF60000DEF600001E
:103ED0000CF30000F0F60000B8F60000DB0F4940DC
:103EE0003EFEFFFFF5F6000005F70000CD8BFF1F3B
:103EF000948BFF1F958BFF1F7C8BFF1F1BF7000010
:103F00002BF70000988BFF1F38B5184B184AC3F8E1
:103F1000CC20184AC3F8D020174AC3F8D420C3F8DD
:103F2000DC201649164AC3F8D810C3F8E020002454
:103F30004FF4FA72112113481C70A3F8A020124DFF
:103F400004F098F92121114804F094F9092110484E
:103F500004F090F92846052104F08CF92846214602
:103F600004F0A0F9BDE83840FFF746BEEC88FF1F1B
:103F70000000444100C05445CDCCCC3DCDCC4C3F9D
:103F80006666E63FDA8BFF1F848BFF1FD48BFF1F13
:103F9000CE8BFF1F08B50A4B0A4A1A6000225A60EE
:103FA00004F0ECFB084804F0F1F8084804F0EEF8DF
:103FB000074804F0EBF80748BDE8084004F0E6B80D
:103FC0008C8BFF1FC0030100DA8BFF1FD48BFF1FF8
:103FD000CE8BFF1F848BFF1F08B50F48FEF70AF931
:103FE0004FF47A71002240F2DC50FDF78DFCFDF7B2
:103FF000EDFA4FF4FA6004F0FBFD00F0A7FC01239A
:1040000040F2DC504FF448714FF4FA62FDF7E8FAE1
:10401000BDE8084001F0D8B883F300007047FFFF07
:1040200008B5FDF725FA0248BDE80840FEF730B8AC
:1040300041F7000038B50446154641B1134B1868E6
:104040009988134B1A782346FEF79CFE03E00F482D
:10405000214604F027F9BDB10E48FEF709F8372CC8
:104060000AD03C2C03D01D2C08D10B4800E00B4893
:10407000BDE83840FEF70CB80948F9E72146094881
:10408000BDE83840FEF704B838BD00BFF48BFF1F11
:10409000FA8BFF1F55F70000A4F400006FF7000033
:1040A00075F70000A9EB000073B535480524FDF74E
:1040B000EFFF642101220094332041F28833FEF7A0
:1040C000F1FC0021054601223C20FFF7B3FF0DB1B2
:1040D000002053E040F26A4029462A46FDF758FB8B
:1040E00006460028F4D14FF4FA6537203146012204
:1040F000FFF7A0FF5021642201230095019440F2B4
:104100006A40FEF74FFB4FF4D271642233460095AC
:10411000019440F26A40FEF745FB502164220123DE
:10412000009501944FF48760FEF73CFB4FF4D27189
:1041300064223346009501944FF48760FEF732FB0A
:104140004FF4D271642201230095019440F29C4007
:10415000FEF728FB5021642201230095019440F2D0
:104160009C40FEF71FFB0095019440F29C404FF4E9
:10417000D27164223346FEF715FB642002B070BD95
:1041800082F7000037B504460D4661482146FDF729
:104190007FFF022C05DD5F482146FDF779FF0B20EC
:1041A0003DE03C2000210122FFF744FF15B13C2DEA
:1041B00024D043E0012C1FD0022C1DD0002C46D16E
:1041C00041F2883303258DE8280040F26A404FF41D
:1041D0002A7164220123FEF7E5FAB0BB40F6B8333A
:1041E0008DE8280040F252304FF4487164220123D8
:1041F000FEF7D8FA80B328E00F2010E0464B53F8C2
:10420000340040F24C42A0F1C801914206D803EBC1
:10421000C4035968A1F56173C82B03D90A20FDF7BF
:1042200053FF72E041F2883203238DE80C006422D0
:104230000123FEF7B7FA00283FD108E00B20FDF775
:1042400043FF36482946FDF723FF00205EE0012C9E
:104250000BD0022C15D094BB4FF4FA534FF0060C40
:104260008DE8081040F2523012E04FF4FA534FF04C
:10427000060E8DE8084040F2262096215022234663
:1042800009E04FF4FA5306258DE828004FF42F700B
:10429000962150220123FEF785FA80B1204B1E495A
:1042A000B3F98C2041F8342001EBC401B3F98E300E
:1042B0004B601C482146FDF7EBFE3C2026E0012C1C
:1042C0000ED0022C14D004BB4FF4FA5004238DE816
:1042D00009004FF4C87140F252305022234612E0D8
:1042E0004FF4FA5104238DE80A0040F2262006E03C
:1042F0004FF4FA5204238DE80C004FF42F704FF462
:10430000C87150220023FEF74DFA642003B030BD7F
:10431000A2F70000BCF700006887FF1FEBF7000062
:10432000EC88FF1F07F8000013B5FDF7A1FF2D482B
:10433000FDF760FF2C4B9B780BB12C4800E02C481C
:10434000FDF758FF2B48FDF755FF2B48FDF752FFAF
:104350002A48FDF74FFF2A48FDF74CFF2948FDF793
:1043600049FF2948FDF746FF4FF4FA7000F02AFB99
:104370002648FDF73FFFFDF7A9FD2548FDF73AFF69
:104380004FF47A7000F01EFB9F2100226520FDF79C
:10439000BBFAFDF71BF9FDF7ADFD4FF4FA5000F045
:1043A00011FB42F21074142301930094B321642290
:1043B0000123C820FEF7F6F90A23012200936421A5
:1043C00023463320FEF76EFB00200146FFF7DAFE9E
:1043D00000F0BCFA4FF4FA7002B0BDE8104000F0F3
:1043E000F1BA00BF20F80000EC88FF1F30F6000093
:1043F00040F600007EF6000027F3000037F30000CF
:1044000043F30000AAF60000DEF60000F0F600001C
:104410005CF3000008B50548FDF73AFE1D200021B9
:104420000122BDE80840FFF705BE00BF0AF6000004
:104430007FB5454CFDF71CFF4448FDF7DBFEA37834
:104440000BB1434800E04348FDF7D4FE4248FDF776
:10445000D1FE4248FDF7CEFE4148FDF7CBFE414874
:10446000FDF7C8FE4048FDF7C5FE4048FDF7C2FE17
:104470004FF4FA7000F0A6FAFFF7CCFF3C48FDF7C6
:10448000B9FEFDF723FD3B48FDF7B4FEC82000F060
:1044900099FAA3781BB165209F21002203E0364AD8
:1044A00040F22B109F21FDF72FFAFDF78FF8FDF753
:1044B00021FD00F04BFA4FF4FA7000F083FA00236C
:1044C0004FF4FA500293039304F092FB2B48FDF74C
:1044D000DFFDA37823B1632042F21071FDF7C6F827
:1044E000002424B90298FFF7DFFD029004E00020C9
:1044F0000399FFF747FE039004AA02EB84032048C8
:1045000053F8082C2146FDF7C3FD032684F001046F
:1045100004AA02EB84031B4853F8085C21462A4690
:10452000FDF7B6FD642DDCD1013EEFD10A230093E7
:104530002946012242F210733320FEF7B3FA04B089
:10454000BDE8704000F056BAEC88FF1F20F800006C
:1045500030F6000040F600007EF6000027F3000071
:1045600037F3000043F30000AAF60000DEF6000077
:10457000F0F600005CF30000DB0F49402BF8000070
:1045800046F800005DF800000E4B0F4801221A703B
:104590000E4AC3F8CC200E4AC3F8D0200D4AC3F807
:1045A000D4204FF07F52C3F8D8200B4AC3F8DC2048
:1045B0000A4AC3F8E0201D2140F2EE22A3F8A02011
:1045C00003F058BEEC88FF1FF48BFF1F000044412E
:1045D00000F009459A99193EEC51B83DCDCC8C3F7D
:1045E00008B5064B064A1A6000225A6004F0C6F865
:1045F0000448BDE8084003F0C9BD00BFEC8BFF1FB5
:10460000C0030100F48BFF1F0B4B70B51C681D46E7
:10461000FDF74AFC0646FDF738FC002EF8D10028CD
:10462000F6D1052004F0E4FA2B68181BB0F57A7F68
:1046300094BF0020012070BD9C9CFF1F034B1B7882
:104640000BB1FFF7F5BEFFF76DBB00BFEC88FF1F96
:1046500010B5084C6178D1F1010138BF002101206B
:10466000617004F0D5F86378D3F1010338BF0023FB
:10467000A37010BDEC88FF1F034B5A79013202F082
:1046800007025A71704700BFEC88FF1FF8B5012080
:1046900004F0AAF8934C6070D0F1010038BF0020FC
:1046A000A070022004F0A0F86071002004F09CF8D3
:1046B000092590FBF5F505EBC505451B2846FDF7DB
:1046C000EFFDFDF7F1FB0746FDF7DFFB064647B3BD
:1046D0000028F6D18448FDF7DBFC052004F088FAB9
:1046E0000135092395FBF3F303EBC303ED1A3046C1
:1046F000E9B204F08DF82846FDF7D2FDFFF784FFFC
:1047000058B17A48FDF7C4FC3046314604F080F8D1
:104710003046FDF7C5FD3546D3E77548FDF7B8FCD3
:10472000CFE70028CDD07348FDF7B2FC052004F098
:104730005FFAFFF769FF7048FDF7AAFC072DC0D8A4
:1047400001A252F825F000BF694700006F47000042
:10475000C346000077470000C346000089470000B9
:1047600091470000B5480000FFF768FFA9E7FFF791
:104770006FFF0120A3E7237B0BB1002000E00120A5
:10478000FEF7E0FC03209AE7FFF776FF052096E7A7
:104790000220617904F03CF8FDF76AFD6379072B8C
:1047A0008FD801A252F823F0C9470000F747000054
:1047B000C3460000234800004F4800006548000041
:1047C000814800008D480000FCF700FF4B48FDF7D2
:1047D00011FD4B48FDF70EFD4A48FDF70BFD40F675
:1047E000B83004F005FA237813B1FFF7F5FB68E75A
:1047F000FEF78CFB65E74448FDF7FCFC4FF47A704C
:10480000002301460022E373FDF77EF864213F4850
:104810000A4600F072F94FF496700021FCF730FE62
:10482000FEE73B48FDF7E6FC00210A460B464FF445
:104830007A70FCF7D5FE41F288313648FCF776FFF6
:104840000020014602460346FCF7CAFEFEE7324856
:10485000FDF7D0FC237813B1FFF766FD31E7FFF7D2
:10486000E3F92EE723782BB12C48FDF7C3FCFFF7C3
:10487000D5FB26E72A48FDF7BDFCFEF76BFB20E7DA
:104880002848FDF7B7FCFEF7A9FA1AE72648FDF716
:10489000B1FC40F2DC504FF47A710022FDF734F89D
:1048A00000F054F8FCF792FE0023A3730A2004F0F2
:1048B0009FF9FBE7237983F001032371FDF7D8FC0F
:1048C0001A48FDF797FC2379002B3FF4FAAE40F22B
:1048D000DC504FF47A71164AFDF716F8FCF776FEB5
:1048E000EFE600BFEC88FF1F7AF8000089F80000AF
:1048F0009EF80000AEF80000BCF80000CBF8000005
:10490000D8F80000EBF80000FAF800001889FF1F43
:1049100008F90000DB0FC94096ED0000B3ED000080
:1049200018F90000DFED00001FF9000032F9000067
:10493000DB0FC93F034B044A1A6000225A6003F0A0
:104940001DBF00BFFC8BFF1FC0030100034B0448C9
:104950001A68044B1A61FDF79BBB00BF9C9CFF1FAC
:1049600045F90000EC88FF1F044B1868044B1B69D5
:1049700003F5BF33D033181A704700BF9C9CFF1F4C
:10498000EC88FF1F08B5FFF7EFFFF92813DC0A4892
:10499000FDF77EFB094B00221A611B7813B1FFF76C
:1049A0003FFB01E0FEF788FC0548FDF771FB0A209C
:1049B00004F01EF9FBE708BD54F90000EC88FF1F66
:1049C00074F90000094B70B51C6805461E46336833
:1049D0001B1BAB4208D2064B1B690BB1FFF7D2FF82
:1049E0000A2004F005F9F2E770BD00BF9C9CFF1F90
:1049F000EC88FF1F08B5FFF7B7FF01460448FDF735
:104A000047FBFFF7B1FFBDE80840FFF7DBBF00BF82
:104A100082F90000034B044A1A6000225A6003F036
:104A2000ADBE00BF048CFF1FC0030100011E08B50E
:104A30004FF0160004DB03F0D7FF1820002104E03C
:104A4000494203F0D1FF18200121BDE8084003F0DE
:104A50005FBF011E08B54FF0170004DB03F0C4FF71
:104A60001920012104E0494203F0BEFF1920002172
:104A7000BDE8084003F04CBF08B51620012103F043
:104A800075FF1820012103F071FF1720012103F0A9
:104A90006DFF1920012103F069FF0020FFF7C6FF19
:104AA0000020BDE80840FFF7D4BFFFFF034B044AD6
:104AB0001A6000225A6003F061BE00BF0C8CFF1F19
:104AC000C00301000346013040080122821A012A76
:104AD00005D9B3FBF0F1014402464808F6E700FBB4
:104AE00000F29A4201D90138F9E7704700211C22EF
:104AF00003F0C2BC80E8060070478160C260704766
:104B00002DE9F74FD0F808B0C5688146D84605B101
:104B10006D42D9F80460D9F8007006B17642D9F830
:104B20001430D9F81040C3EB010ABAF1000F19DDB7
:104B3000A6B3042206FB06F090FBF2F00AFB06F295
:104B4000A0EB42008DE80A00FFF7BCFF4FF002081F
:104B500096FBF8F840448345B4BFD84680469DE8AC
:104B60000A001BE01AD01FB3042207FB07F090FBDA
:104B7000F2F00AFB07F2A0EB42008DE80A00FFF713
:104B8000A1FF022297FBF2F25242101A8542B8BFEF
:104B900005465C459DE80A0003DB0BE0444509DA65
:104BA00097B1C4EB0802BA420EDD04EB07080BE034
:104BB0005C4509DB444507DD76B1C4EB0802B2422F
:104BC00027DA04EB060824E0AC4207DD6EB12A1BAD
:104BD000B2420ADAA51908E0AC4206DCAC4204DABB
:104BE0001FB12A1BBA42C8BFE519C24503DD03EB5A
:104BF0000800C24604E0AA45BABF5819AA460846AA
:104C0000C9F810A0C9F81400C9F8181003B0BDE81D
:104C1000F08FAC42DBDCE1E7034B044A1A60002270
:104C20005A6003F0ABBD00BF148CFF1FC00301002E
:104C3000194B1A491A6842F480521A60184B194AE3
:104C40001A60194ADA6002F180421A614FF4007268
:104C50000A6016490120087015491960154B1B7828
:104C6000D90704D4144A4FF41071116001E01349BC
:104C70000A6013F0020F0CBF114912495B074FF491
:104C8000007254BF104B114B0A6054BF4FF41072A6
:104C90004FF400721A6070473C80044010B004402A
:104CA00000C0024001401F80000001B8849EFF1F29
:104CB000000C1F807C9EFF1F18B0044008C00440F9
:104CC0001CB004400CC0044014B0044004C00440B4
:104CD00030B585B003F072F9002838D01D4B1E485E
:104CE0001E4D0024C3F8A440C3F8A840C3F8AC404C
:104CF000C3F8B040C3F8B440194B0293194B02A952
:104D00005B68039301F028FFFA2302A9022217200F
:104D10008DF809308DF8084002F074FD288804A948
:104D200004231E3001F8093D012280B202F06AFD21
:104D300028888DF8084000F58F7002A9012280B202
:104D400002F060FD4FF4FA7003F052FF012005B04D
:104D500030BD00BFEC88FF1F8187FF1F549CFF1FE1
:104D6000C0030100909BFF1F07B5FFF761FF074BD2
:104D70000093074B07485B68019369464FF4046250
:104D800001F0B6FFC0B203B05DF804FBC003010040
:104D9000C497FF1F809BFF1F10B5174CFFF748FFFC
:104DA0002046022101F011FF2046022101F00DFFF3
:104DB0002046022101F009FF2046022101F005FFF3
:104DC0002046002101F001FF2046002101F0FDFEF8
:104DD0002046002101F0F9FE2046112101F0F5FEE8
:104DE00020460649112201F021FF20463321BDE86B
:104DF000104001F0EABE00BF809BFF1FE6F90000F3
:104E000008B5134B1978022902461CD1597802299A
:104E100019D19978022916D1D978022913D1997913
:104E2000DB7903EB012140F29F33994204D0B1F5C5
:104E30006A7F01D0074804E0B2F56A7F05DA0648C8
:104E40001146FDF725F9002008BD012008BD00BF6F
:104E5000CC97FF1FF7F9000035FA00002DE9F0416B
:104E6000184C4FF6FF73A4F8B830A4F8BA302746B0
:104E7000002300EB43059EB295F857C095F85840C3
:104E8000104D04EB0C2421F81340C41894F88C4204
:104E9000D45431F81340B7F8BAC0A44507D9A4F1E7
:104EA0005B081FFA88F840F6B45CE04505D9013389
:104EB000B3F5877FDDD1BDE8F081A5F8BA40A5F84C
:104EC000B860F4E7EC88FF1F2DE9F04F594A5A4BC0
:104ED00012784FF000088DB083F8A380002A00F00C
:104EE000A580B3F88C200892D3F890200992DFF8BF
:104EF0006491B3F88E20B3F8A0300A920B93C246A7
:104F00001FFA88F3C3F18704C3F1AE039BB24E2BA3
:104F1000A4B266D8494B33F818B0584608F058F98F
:104F2000CDE9060120B208F085FD454908F08AFE6A
:104F3000444908F0D3FD0146099808F0C7FC08F081
:104F400059F9CDE9040106F085FA089B044618B228
:104F50000D4608F03DF9224606460F462B46DDE990
:104F6000060108F09BF90B4602463946304607F029
:104F7000E3FF08F02DFC044649F8040CDDE90401C8
:104F800006F0A2FA0A9A064610B20F4608F020F977
:104F90003246CDE904013B46DDE9060108F07EF921
:104FA0000B460246DDE9040107F0C6FF08F010FCDD
:104FB000A4F1C90C40F626239C45C9F8000010D87E
:104FC000C93840F23E6398420BD8ABF15B0292B213
:104FD00040F6B4539A4204D80B9B9B4538BF4FF020
:104FE000010A08F10108B8F5877F09F1080987D19E
:104FF000114B83F8A3A01B79C3B10024124B1348B3
:1050000003EBC4022146526800920C4A32F8142085
:1050100001920F4AA25C029253F83430C4F1870225
:105020000134FDF735F8B4F5877FE7D10DB0BDE861
:10503000F08F00BF8087FF1FEC88FF1F9894FF1F31
:1050400000003443DB0F4940288CFF1FC2FA0000E8
:10505000B496FF1F2C8CFF1F70B5204E337823B100
:105060000025FFF731FF357035E0FFF7E1FD40F235
:10507000B1321B481B491C4C01F0F2FD421C012AB5
:10508000034606D8D4F8A4300133C4F8A43001256F
:1050900021E0D4F8B420C4F8B0001344C4F8B4300C
:1050A000FFF7AEFE054660B10E481049104AFFF703
:1050B000D5FED4F8A83001252B443570C4F8A830AB
:1050C00009E0D4F8AC300133C4F8AC30044801F046
:1050D000CFFD0130FAD1284670BD00BF248CFF1FE0
:1050E000809BFF1FCC97FF1FEC88FF1F9894FF1F2A
:1050F000B496FF1F38B5114B114D1D6000245C6044
:1051000003F03CFB0F4BA822C02102201D60197147
:105110005A719C71D8710C4B5A7101221D60197122
:10512000DA719C71094B4FF47A729A60084A1A60DE
:1051300004221C711C735A7338BD00BF1C8CFF1FE6
:10514000C0030100909BFF1FC497FF1F809BFF1FA0
:105150008801010008B51A2005F01EF90248BDE8D3
:10516000084001F091B900BFA49BFF1F38B50C485F
:1051700001F074F998B10B4C236803B938BD1D8850
:1051800045B11A202946002205F07CF82368023335
:10519000236038BD1A2005F0FFF8256038BD38BD02
:1051A000A49BFF1FA09BFF1F014B024A1A60704780
:1051B000A09BFF1FF4FA0000014B024A1A607047DF
:1051C000A09BFF1FFEFA0000014B024A1A607047C5
:1051D000A09BFF1F04FB000008B5064B064A1A609F
:1051E00000225A6003F0CAFA04486421BDE808406E
:1051F00001F028B9989BFF1FC0030100A49BFF1F6B
:1052000008B508F017FC044BD3F8CC1008F066FC86
:1052100008F02AFE08BD00BFEC88FF1F08B508F0A3
:1052200009FC044BD3F8CC1008F00CFD08F01CFE70
:1052300008BD00BFEC88FF1F08B5044BD3F8D010A1
:1052400008F04CFC08F010FE08BD00BFEC88FF1F02
:1052500008B508F0EFFB034BD3F8D01008F0F2FCD0
:1052600008BD00BFEC88FF1F044BDA7822B95B78D9
:1052700013B1C0F53B600830704700BFEC88FF1FDA
:1052800010B50B49044608F0C7FD20B12046094976
:1052900008F01CFBF5E72046074908F0DBFD28B1C4
:1052A0002046044908F010FB0446F4E7204610BDF0
:1052B000DB0F49C0DB0FC940DB0F494008B5074B86
:1052C000DA78014642B95B7833B1054808F0FCFA58
:1052D000BDE80840FFF7D4BF084608BDEC88FF1FB3
:1052E000DB0F49402DE9F04107460698401A164663
:1052F000984607F06DFF0446C7EB08000D4607F01F
:1053000067FF02460B462046294606F027F9044669
:1053100030460D4607F06EFF02460B4620462946F2
:1053200007F008FE08F07CFABDE8F041FFF7A8BFDF
:10533000034B044A1A6000225A6003F01FBA00BFF0
:10534000B09BFF1FC00301002DE9F74F1E46BDF9BA
:105350003030BDF834B0C2EB03091546721AB9F10A
:10536000000FB8BFC9F10009002AB8BF52429145E9
:10537000D4BF4FF000094FF0010980460C46B9F147
:10538000000F04D032462C461E460D461346B4424A
:1053900005DD2A461D461346224634461646C4EB12
:1053A000060A5A1B1FFA8AFA82EAE271A1EBE2713D
:1053B0000FFA8AF7022297FBF2F74FF6FF729D422F
:1053C000B8BF01220091BFB20192B4421DDCD8F8EF
:1053D00000304046D3F808C0B9F1000F02D029468A
:1053E000224601E021462A465B46E047009ABF1A62
:1053F000BBB29FB23A0405D5019903EB0A070D44ED
:105400002DB2BFB2013424B2DFE703B0BDE8F08FA4
:105410002DE9F3470768BDF82C50BDF928600095C9
:1054200004467F69904689469A46B84723680095A6
:10543000721E42445F6920464946534612B2B8473D
:10544000236800951F692046494642463346B847BF
:105450000AF1FF3A236800950AEB09011D6920460D
:1054600009B242463346A84702B0BDE8F08713B5FB
:10547000013B13441BB200930468BDF81030019344
:10548000E4680B46A04702B010BD37B5013B046885
:10549000BDF8185000920B440195E4681BB2A04778
:1054A00003B030BD2DE9F347BDF928A0BDF82C703D
:1054B00006460D46914698460C4605EB08039C426D
:1054C0000BDA31680097D1F810C0304621464A46C1
:1054D00053460134E04724B2EFE702B0BDE8F0875D
:1054E00013B5B0F90C200468009201910021B0F9C5
:1054F0000A30E4690A46A04702B010BD7047FFFFBA
:1055000030B5C1800024094D0281418182814FF66E
:10551000FF71012204710560C475C4810482827523
:105520008182418202764476C46130BD1800010058
:105530002DE9F04F87B01FFA83F80293C8F10103F9
:105540009BB20193C8EBC8335B009BB2BDF84050DF
:10555000059396B203680446914608EB0602D3F819
:1055600008C012B22B460F46E0472368C8EB06027C
:10557000D3F808C03946204612B22B46E047BFB2E6
:10558000236808EB0701D3F808C0204609B24A4651
:105590002B46E0472368C8EB0701D3F808C04A460A
:1055A000204609B22B46E04700220492049A13B227
:1055B000029A934280F28780019B1B040CD4029ACA
:1055C000531E059A1BB20293931C9BB29AB205928A
:1055D000019A13449BB20193049B019A1FFA83F82A
:1055E00002EB480303339BB20193029B9BB29946A3
:1055F00007F1010BC3440393B14423680FFA8BFBFB
:105600000FFA89F9D3F808C059464A4620462B4676
:1056100007F1FF3AE047C8EB0A0A23680FFA8AFA53
:10562000D3F808C051464A4620462B46E047039A25
:105630002368C2EB06090FFA89F9D3F808C0594666
:105640004A4620462B46E04723685146D3F808C017
:105650004A4620462B46E047DDF80CA0236806F1B9
:10566000010BC344BA440FFA8AFA0FFA8BFBD3F842
:1056700008C0204651465A462B46E047039BC3EBE1
:10568000070923680FFA89F9D3F808C0204649466C
:105690005A462B46E047731EC8EB030823680FFAEF
:1056A00088F8D3F808C02046514642462B46E047CA
:1056B00023684246D3F808C0204649462B46E047B7
:1056C000049A013271E707B0BDE8F08F2DE9F04F81
:1056D0008BB01D469BB29DF850700897C3F1010630
:1056E000C3EBC333BDF9547009975B00BDF8587024
:1056F00003979BB2044606910792B6B20593002722
:105700000297029F3BB2AB4280F28380310408D4FF
:10571000059FBB1C9BB2013D9FB21E442DB2059755
:10572000B6B20298089A87B24FEA47091FFA89F978
:1057300009F103031E44D207CDF81090B6B231D55B
:10574000069B0798099A1FFA83FB1FFA80FA1FFA33
:1057500082F9039800901FFA85F8206809F1010387
:105760000BF10101C8EB0A02394403EB4803D0F8FE
:1057700010C009B2204612B21BB2E0470398049B46
:1057800000900AF1FF3A206809F1030908EB0B01C8
:10579000C7EB0A024B44D0F810C009B2204612B23F
:1057A0001BB2E047089A930730D5069B0798099AE1
:1057B0001FFA83FB1FFA80FA1FFA82F90398009000
:1057C0001FFA85F8206809F101030BF1FF31C91BAD
:1057D000C8EB0A0203EB4803D0F810C009B2204618
:1057E00012B21BB2E0470AF1FF3A049B2068C7EBF4
:1057F0000A0209F10309039F0097C8EB0B014B4410
:10580000076909B2204612B21BB2B847029F01379E
:1058100076E70BB0BDE8F08F2DE9FF411C46BDF8DF
:10582000287000979BB21546D21A5B0003F1010E57
:10583000036812B2D3F810C00FFA8EF306468846FA
:10584000E047032200238DE80C00029730464146D2
:105850002A462346FFF73AFF04B0BDE8F0812DE960
:10586000F04F8DB08046BDF95840BDF86400BDF9D9
:1058700060700490A24289461546BDF95C1004DDB3
:10588000254614464A4699461346BC4205DD224643
:105890003C4617461A460B461146A54205DD2A46E8
:1058A000254614464A4699461346BD421ED14B45ED
:1058B00006DB4B45ACBF1A464A464B460FFA82F907
:1058C000994205DB8945B8BF89460FFA89F919461F
:1058D000D8F800200498009009F10109C1EB0903F0
:1058E000546940462A461BB2A0478DE09BB21FFA7E
:1058F00089F90393C9EB03039BB2A8B20893A3B23F
:105900001A1A92B20992BAB2101A80B2079003988A
:10591000BC4289B2C3EB0202C9EB010B18BF03F111
:10592000FF33C0EB01011FFA8BFB89B292B218BFA3
:105930001BB24FF0000ACDF818B00A910B9214BFB9
:10594000059305942E46D346059A964228DC099A7B
:10595000079813B201B29BFBF3F39AFBF1F1089A9B
:1059600006984B4449449BB289B20BFA82FB0AFA6F
:1059700080FA0AB218B2904202DC0A46194613466F
:10598000D8F800200498009001335B1AD2F814C0B4
:105990004046324609B21BB20136E04736B2D3E781
:1059A0000A9B06980FFA83FA341B0FFA80FB751BCB
:1059B00004FB0AF405FB0BF5BE4225DC0B9A0398A9
:1059C00013B2079A11B294FBF3F395FBF1F1034480
:1059D00049449BB289B218B20AB2904254445D4421
:1059E00002DC0A4619461346D8F8002004980090B5
:1059F00001335B1AD2F814C04046324609B21BB2DA
:105A00000136E04736B2D7E70DB0BDE8F08FFFFFB3
:105A10002DE9F04F91B088460992BDF86C200592AF
:105A2000C269BDF86810069105469DF87040002ACD
:105A300040F08F80B0F90A20424540F30881B0F968
:105A40000C2009998A4240F30281062212FB04824B
:105A5000002A40F3FC8001EBC402002A40F3F780E7
:105A6000427E1AB9AF2B84BF0133DBB203EB830351
:105A70000A93062200230892049304994FFA81FBAB
:105A8000BBF1050F05D0734B0A9A134413F80B9022
:105A900001E04FF000091FFA88F31FFA8BFB099908
:105AA000039304FB0B338EB29BB2079306F10803FA
:105AB0009BB20B933746B24619F0010F16D0012C5A
:105AC0002A6808D10399D2F808C0069B5944284691
:105AD00009B23AB218E00699019123B20093D2F8C4
